{
  "_format": "hh-sol-artifact-1",
  "contractName": "IncrementalBinaryTree",
  "sourceName": "@zk-kit/incremental-merkle-tree.sol/IncrementalBinaryTree.sol",
  "abi": [
    {
      "inputs": [],
      "name": "Z_0",
      "outputs": [
        {
          "internalType": "uint256",
          "name": "",
          "type": "uint256"
        }
      ],
      "stateMutability": "view",
      "type": "function"
    },
    {
      "inputs": [],
      "name": "Z_1",
      "outputs": [
        {
          "internalType": "uint256",
          "name": "",
          "type": "uint256"
        }
      ],
      "stateMutability": "view",
      "type": "function"
    },
    {
      "inputs": [],
      "name": "Z_10",
      "outputs": [
        {
          "internalType": "uint256",
          "name": "",
          "type": "uint256"
        }
      ],
      "stateMutability": "view",
      "type": "function"
    },
    {
      "inputs": [],
      "name": "Z_11",
      "outputs": [
        {
          "internalType": "uint256",
          "name": "",
          "type": "uint256"
        }
      ],
      "stateMutability": "view",
      "type": "function"
    },
    {
      "inputs": [],
      "name": "Z_12",
      "outputs": [
        {
          "internalType": "uint256",
          "name": "",
          "type": "uint256"
        }
      ],
      "stateMutability": "view",
      "type": "function"
    },
    {
      "inputs": [],
      "name": "Z_13",
      "outputs": [
        {
          "internalType": "uint256",
          "name": "",
          "type": "uint256"
        }
      ],
      "stateMutability": "view",
      "type": "function"
    },
    {
      "inputs": [],
      "name": "Z_14",
      "outputs": [
        {
          "internalType": "uint256",
          "name": "",
          "type": "uint256"
        }
      ],
      "stateMutability": "view",
      "type": "function"
    },
    {
      "inputs": [],
      "name": "Z_15",
      "outputs": [
        {
          "internalType": "uint256",
          "name": "",
          "type": "uint256"
        }
      ],
      "stateMutability": "view",
      "type": "function"
    },
    {
      "inputs": [],
      "name": "Z_16",
      "outputs": [
        {
          "internalType": "uint256",
          "name": "",
          "type": "uint256"
        }
      ],
      "stateMutability": "view",
      "type": "function"
    },
    {
      "inputs": [],
      "name": "Z_17",
      "outputs": [
        {
          "internalType": "uint256",
          "name": "",
          "type": "uint256"
        }
      ],
      "stateMutability": "view",
      "type": "function"
    },
    {
      "inputs": [],
      "name": "Z_18",
      "outputs": [
        {
          "internalType": "uint256",
          "name": "",
          "type": "uint256"
        }
      ],
      "stateMutability": "view",
      "type": "function"
    },
    {
      "inputs": [],
      "name": "Z_19",
      "outputs": [
        {
          "internalType": "uint256",
          "name": "",
          "type": "uint256"
        }
      ],
      "stateMutability": "view",
      "type": "function"
    },
    {
      "inputs": [],
      "name": "Z_2",
      "outputs": [
        {
          "internalType": "uint256",
          "name": "",
          "type": "uint256"
        }
      ],
      "stateMutability": "view",
      "type": "function"
    },
    {
      "inputs": [],
      "name": "Z_20",
      "outputs": [
        {
          "internalType": "uint256",
          "name": "",
          "type": "uint256"
        }
      ],
      "stateMutability": "view",
      "type": "function"
    },
    {
      "inputs": [],
      "name": "Z_21",
      "outputs": [
        {
          "internalType": "uint256",
          "name": "",
          "type": "uint256"
        }
      ],
      "stateMutability": "view",
      "type": "function"
    },
    {
      "inputs": [],
      "name": "Z_22",
      "outputs": [
        {
          "internalType": "uint256",
          "name": "",
          "type": "uint256"
        }
      ],
      "stateMutability": "view",
      "type": "function"
    },
    {
      "inputs": [],
      "name": "Z_23",
      "outputs": [
        {
          "internalType": "uint256",
          "name": "",
          "type": "uint256"
        }
      ],
      "stateMutability": "view",
      "type": "function"
    },
    {
      "inputs": [],
      "name": "Z_24",
      "outputs": [
        {
          "internalType": "uint256",
          "name": "",
          "type": "uint256"
        }
      ],
      "stateMutability": "view",
      "type": "function"
    },
    {
      "inputs": [],
      "name": "Z_25",
      "outputs": [
        {
          "internalType": "uint256",
          "name": "",
          "type": "uint256"
        }
      ],
      "stateMutability": "view",
      "type": "function"
    },
    {
      "inputs": [],
      "name": "Z_26",
      "outputs": [
        {
          "internalType": "uint256",
          "name": "",
          "type": "uint256"
        }
      ],
      "stateMutability": "view",
      "type": "function"
    },
    {
      "inputs": [],
      "name": "Z_27",
      "outputs": [
        {
          "internalType": "uint256",
          "name": "",
          "type": "uint256"
        }
      ],
      "stateMutability": "view",
      "type": "function"
    },
    {
      "inputs": [],
      "name": "Z_28",
      "outputs": [
        {
          "internalType": "uint256",
          "name": "",
          "type": "uint256"
        }
      ],
      "stateMutability": "view",
      "type": "function"
    },
    {
      "inputs": [],
      "name": "Z_29",
      "outputs": [
        {
          "internalType": "uint256",
          "name": "",
          "type": "uint256"
        }
      ],
      "stateMutability": "view",
      "type": "function"
    },
    {
      "inputs": [],
      "name": "Z_3",
      "outputs": [
        {
          "internalType": "uint256",
          "name": "",
          "type": "uint256"
        }
      ],
      "stateMutability": "view",
      "type": "function"
    },
    {
      "inputs": [],
      "name": "Z_30",
      "outputs": [
        {
          "internalType": "uint256",
          "name": "",
          "type": "uint256"
        }
      ],
      "stateMutability": "view",
      "type": "function"
    },
    {
      "inputs": [],
      "name": "Z_31",
      "outputs": [
        {
          "internalType": "uint256",
          "name": "",
          "type": "uint256"
        }
      ],
      "stateMutability": "view",
      "type": "function"
    },
    {
      "inputs": [],
      "name": "Z_32",
      "outputs": [
        {
          "internalType": "uint256",
          "name": "",
          "type": "uint256"
        }
      ],
      "stateMutability": "view",
      "type": "function"
    },
    {
      "inputs": [],
      "name": "Z_4",
      "outputs": [
        {
          "internalType": "uint256",
          "name": "",
          "type": "uint256"
        }
      ],
      "stateMutability": "view",
      "type": "function"
    },
    {
      "inputs": [],
      "name": "Z_5",
      "outputs": [
        {
          "internalType": "uint256",
          "name": "",
          "type": "uint256"
        }
      ],
      "stateMutability": "view",
      "type": "function"
    },
    {
      "inputs": [],
      "name": "Z_6",
      "outputs": [
        {
          "internalType": "uint256",
          "name": "",
          "type": "uint256"
        }
      ],
      "stateMutability": "view",
      "type": "function"
    },
    {
      "inputs": [],
      "name": "Z_7",
      "outputs": [
        {
          "internalType": "uint256",
          "name": "",
          "type": "uint256"
        }
      ],
      "stateMutability": "view",
      "type": "function"
    },
    {
      "inputs": [],
      "name": "Z_8",
      "outputs": [
        {
          "internalType": "uint256",
          "name": "",
          "type": "uint256"
        }
      ],
      "stateMutability": "view",
      "type": "function"
    },
    {
      "inputs": [],
      "name": "Z_9",
      "outputs": [
        {
          "internalType": "uint256",
          "name": "",
          "type": "uint256"
        }
      ],
      "stateMutability": "view",
      "type": "function"
    },
    {
      "inputs": [
        {
          "internalType": "uint256",
          "name": "index",
          "type": "uint256"
        }
      ],
      "name": "defaultZero",
      "outputs": [
        {
          "internalType": "uint256",
          "name": "",
          "type": "uint256"
        }
      ],
      "stateMutability": "pure",
      "type": "function"
    }
  ],
  "bytecode": "0x612dc4610053600b82828239805160001a607314610046577f4e487b7100000000000000000000000000000000000000000000000000000000600052600060045260246000fd5b30600052607381538281f3fe73000000000000000000000000000000000000000030146080604052600436106102475760003560e01c806365ad985e11610145578063b1849a1a116100c2578063c7fadc6711610086578063c7fadc67146106a5578063ccbad174146106c3578063d2aa5c62146106e1578063eb095a7d146106ff578063f49babe61461071d57610247565b8063b1849a1a1461060f578063b410396a1461062d578063b5f35eb91461064b578063c0c5bf6714610669578063c6675bbf1461068757610247565b80639bf21071116101095780639bf210711461056e5780639cda47741461058c578063a3205067146105aa578063a5478827146105c8578063af9d047c146105f157610247565b806365ad985e146104d857806365f7bec3146104f65780638836ccf61461051457806389d0e93214610532578063948042151461055057610247565b80633994a957116101d3578063565b427e11610197578063565b427e14610442578063583f8af4146104605780635da707d41461047e5780635fcde0671461049c57806364048bf2146104ba57610247565b80633994a957146103ac57806344f9e1ac146103ca57806352be1fb8146103e857806354f5a9011461040657806355005f761461042457610247565b8063168703fa1161021a578063168703fa146102e557806318f18fb1146103225780631ddbea001461035257806330314fc014610370578063309ec3c31461038e57610247565b80630629596f1461024c5780631095fbb414610275578063115055441461029e57806312b3a2fb146102bc575b600080fd5b81801561025857600080fd5b50610273600480360381019061026e9190612067565b61073b565b005b81801561028157600080fd5b5061029c6004803603810190610297919061210e565b610785565b005b6102a6610916565b6040516102b39190612170565b60405180910390f35b8180156102c857600080fd5b506102e360048036038101906102de919061218b565b61093a565b005b8180156102f157600080fd5b5061030c6004803603810190610307919061218b565b6109c8565b6040516103199190612170565b60405180910390f35b61033c600480360381019061033791906121cb565b610c3b565b6040516103499190612170565b60405180910390f35b61035a61128d565b6040516103679190612170565b60405180910390f35b6103786112b1565b6040516103859190612170565b60405180910390f35b6103966112d5565b6040516103a39190612170565b60405180910390f35b6103b46112f9565b6040516103c19190612170565b60405180910390f35b6103d261131d565b6040516103df9190612170565b60405180910390f35b6103f0611341565b6040516103fd9190612170565b60405180910390f35b61040e611365565b60405161041b9190612170565b60405180910390f35b61042c611389565b6040516104399190612170565b60405180910390f35b61044a6113ad565b6040516104579190612170565b60405180910390f35b6104686113d1565b6040516104759190612170565b60405180910390f35b6104866113f5565b6040516104939190612170565b60405180910390f35b6104a4611419565b6040516104b19190612170565b60405180910390f35b6104c261143d565b6040516104cf9190612170565b60405180910390f35b6104e0611461565b6040516104ed9190612170565b60405180910390f35b6104fe611466565b60405161050b9190612170565b60405180910390f35b61051c61148a565b6040516105299190612170565b60405180910390f35b61053a6114ae565b6040516105479190612170565b60405180910390f35b6105586114d2565b6040516105659190612170565b60405180910390f35b6105766114f6565b6040516105839190612170565b60405180910390f35b61059461151a565b6040516105a19190612170565b60405180910390f35b6105b261153e565b6040516105bf9190612170565b60405180910390f35b8180156105d457600080fd5b506105ef60048036038101906105ea91906121f8565b611562565b005b6105f96119a4565b6040516106069190612170565b60405180910390f35b6106176119c8565b6040516106249190612170565b60405180910390f35b6106356119ec565b6040516106429190612170565b60405180910390f35b610653611a10565b6040516106609190612170565b60405180910390f35b610671611a34565b60405161067e9190612170565b60405180910390f35b61068f611a58565b60405161069c9190612170565b60405180910390f35b6106ad611a7c565b6040516106ba9190612170565b60405180910390f35b6106cb611aa0565b6040516106d89190612170565b60405180910390f35b6106e9611ac4565b6040516106f69190612170565b60405180910390f35b610707611ae8565b6040516107149190612170565b60405180910390f35b610725611b0c565b6040516107329190612170565b60405180910390f35b61077d86868860050160009054906101000a900460ff166107715788600301600080815260200190815260200160002054610774565b60005b87878787611562565b505050505050565b7f30644e72e131a029b85045b68181585d2833e84879b9709143e1f593f000000181106107e7576040517f08c379a00000000000000000000000000000000000000000000000000000000081526004016107de90612337565b60405180910390fd5b6000821180156107fb5750602060ff168211155b61083a576040517f08c379a0000000000000000000000000000000000000000000000000000000008152600401610831906123c9565b60405180910390fd5b81836000018190555060005b828160ff16101561090757818460030160008360ff1681526020019081526020016000208190555073__$75f79a42d9bcbdbb69ad79ebd80f556f39$__63561558fe6040518060400160405280858152602001858152506040518263ffffffff1660e01b81526004016108b99190612494565b602060405180830381865af41580156108d6573d6000803e3d6000fd5b505050506040513d601f19601f820116820180604052508101906108fa91906124c4565b9150806001019050610846565b50808360010181905550505050565b7f120c58f143d491e95902f7f5277778a2e0ad5168f6add75669932630ce61151881565b60008111801561094e5750602060ff168111155b61098d576040517f08c379a0000000000000000000000000000000000000000000000000000000008152600401610984906123c9565b60405180910390fd5b80826000018190555060018260050160006101000a81548160ff0219169083151502179055506109bc81610c3b565b82600101819055505050565b600080836000015490507f30644e72e131a029b85045b68181585d2833e84879b9709143e1f593f00000018310610a34576040517f08c379a0000000000000000000000000000000000000000000000000000000008152600401610a2b90612337565b60405180910390fd5b806002610a419190612653565b846002015410610a86576040517f08c379a0000000000000000000000000000000000000000000000000000000008152600401610a7d90612710565b60405180910390fd5b600084600201549050600084905060008660050160009054906101000a900460ff16905060005b848160ff161015610c085760006001851603610b3357604051806040016040528084815260200183610af7578960030160008460ff16815260200190815260200160002054610b04565b610b038360ff16610c3b565b5b8152508860040160008360ff168152602001908152602001600020906002610b2d929190611ed9565b50610b65565b828860040160008360ff168152602001908152602001600020600160028110610b5f57610b5e612730565b5b01819055505b73__$75f79a42d9bcbdbb69ad79ebd80f556f39$__63561558fe8960040160008460ff1681526020019081526020016000206040518263ffffffff1660e01b8152600401610bb39190612823565b602060405180830381865af4158015610bd0573d6000803e3d6000fd5b505050506040513d601f19601f82011682018060405250810190610bf491906124c4565b9250600184901c9350806001019050610aad565b508187600101819055506001876002016000828254610c27919061283e565b925050819055508194505050505092915050565b6000808203610c4d5760009050611288565b60018203610c7d577f2098f5fb9e239eab3ceac3f27b81e481dc3124d55ffed523a839ee8446b648649050611288565b60028203610cad577f1069673dcdb12263df301a6ff584a7ec261a44cb9dc68df067a4774460b1f1e19050611288565b60038203610cdd577f18f43331537ee2af2e3d758d50f72106467c6eea50371dd528d57eb2b856d2389050611288565b60048203610d0d577f07f9d837cb17b0d36320ffe93ba52345f1b728571a568265caac97559dbc952a9050611288565b60058203610d3d577f2b94cf5e8746b3f5c9631f4c5df32907a699c58c94b2ad4d7b5cec1639183f559050611288565b60068203610d6d577f2dee93c5a666459646ea7d22cca9e1bcfed71e6951b953611d11dda32ea09d789050611288565b60078203610d9d577f078295e5a22b84e982cf601eb639597b8b0515a88cb5ac7fa8a4aabe3c87349d9050611288565b60088203610dcd577f2fa5e5f18f6027a6501bec864564472a616b2e274a41211a444cbe3a99f3cc619050611288565b60098203610dfd577f0e884376d0d8fd21ecb780389e941f66e45e7acce3e228ab3e2156a614fcd7479050611288565b600a8203610e2d577f1b7201da72494f1e28717ad1a52eb469f95892f957713533de6175e5da190af29050611288565b600b8203610e5d577f1f8d8822725e36385200c0b201249819a6e6e1e4650808b5bebc6bface7d76369050611288565b600c8203610e8d577f2c5d82f66c914bafb9701589ba8cfcfb6162b0a12acf88a8d0879a0471b5f85a9050611288565b600d8203610ebd577f14c54148a0940bb820957f5adf3fa1134ef5c4aaa113f4646458f270e0bfbfd09050611288565b600e8203610eed577f190d33b12f986f961e10c0ee44d8b9af11be25588cad89d416118e4bf4ebe80c9050611288565b600f8203610f1d577f22f98aa9ce704152ac17354914ad73ed1167ae6596af510aa5b3649325e06c929050611288565b60108203610f4d577f2a7c7c9b6ce5880b9f6f228d72bf6a575a526f29c66ecceef8b753d38bba73239050611288565b60118203610f7d577f2e8186e558698ec1c67af9c14d463ffc470043c9c2988b954d75dd643f36b9929050611288565b60128203610fad577f0f57c5571e9a4eab49e2c8cf050dae948aef6ead647392273546249d1c1ff10f9050611288565b60138203610fdd577f1830ee67b5fb554ad5f63d4388800e1cfe78e310697d46e43c9ce36134f72cca9050611288565b6014820361100d577f2134e76ac5d21aab186c2be1dd8f84ee880a1e46eaf712f9d371b6df22191f3e9050611288565b6015820361103d577f19df90ec844ebc4ffeebd866f33859b0c051d8c958ee3aa88f8f8df3db91a5b19050611288565b6016820361106d577f18cca2a66b5c0787981e69aefd84852d74af0e93ef4912b4648c05f722efe52b9050611288565b6017820361109d577f2388909415230d1b4d1304d2d54f473a628338f2efad83fadf05644549d2538d9050611288565b601882036110cd577f27171fb4a97b6cc0e9e8f543b5294de866a2af2c9c8d0b1d96e673e4529ed5409050611288565b601982036110fd577f2ff6650540f629fd5711a0bc74fc0d28dcb230b9392583e5f8d59696dde6ae219050611288565b601a820361112d577f120c58f143d491e95902f7f5277778a2e0ad5168f6add75669932630ce6115189050611288565b601b820361115d577f1f21feb70d3f21b07bf853d5e5db03071ec495a0a565a21da2d665d2794837959050611288565b601c820361118d577f24be905fa71335e14c638cc0f66a8623a826e768068a9e968bb1a1dde18a72d29050611288565b601d82036111bd577f0f8666b62ed17491c50ceadead57d4cd597ef3821d65c328744c74e553dac26d9050611288565b601e82036111ed577f0918d46bf52d98b034413f4a1a1c41594e7a7a3f6ae08cb43d1a2a230e1959ef9050611288565b601f820361121d577f1bbeb01b4c479ecde76917645e404dfa2e26f90d0afc5a65128513ad375c5ff29050611288565b6020820361124d577f2f68a1c58e257e42a17a6c61dff5551ed560b9922ab119d5ac8e184c9734ead99050611288565b6040517f08c379a000000000000000000000000000000000000000000000000000000000815260040161127f906128e4565b60405180910390fd5b919050565b7f2388909415230d1b4d1304d2d54f473a628338f2efad83fadf05644549d2538d81565b7f18cca2a66b5c0787981e69aefd84852d74af0e93ef4912b4648c05f722efe52b81565b7f2e8186e558698ec1c67af9c14d463ffc470043c9c2988b954d75dd643f36b99281565b7f2ff6650540f629fd5711a0bc74fc0d28dcb230b9392583e5f8d59696dde6ae2181565b7f24be905fa71335e14c638cc0f66a8623a826e768068a9e968bb1a1dde18a72d281565b7f1069673dcdb12263df301a6ff584a7ec261a44cb9dc68df067a4774460b1f1e181565b7f14c54148a0940bb820957f5adf3fa1134ef5c4aaa113f4646458f270e0bfbfd081565b7f0f57c5571e9a4eab49e2c8cf050dae948aef6ead647392273546249d1c1ff10f81565b7f2dee93c5a666459646ea7d22cca9e1bcfed71e6951b953611d11dda32ea09d7881565b7f2fa5e5f18f6027a6501bec864564472a616b2e274a41211a444cbe3a99f3cc6181565b7f27171fb4a97b6cc0e9e8f543b5294de866a2af2c9c8d0b1d96e673e4529ed54081565b7f078295e5a22b84e982cf601eb639597b8b0515a88cb5ac7fa8a4aabe3c87349d81565b7f1830ee67b5fb554ad5f63d4388800e1cfe78e310697d46e43c9ce36134f72cca81565b600081565b7f190d33b12f986f961e10c0ee44d8b9af11be25588cad89d416118e4bf4ebe80c81565b7f18f43331537ee2af2e3d758d50f72106467c6eea50371dd528d57eb2b856d23881565b7f2a7c7c9b6ce5880b9f6f228d72bf6a575a526f29c66ecceef8b753d38bba732381565b7f0e884376d0d8fd21ecb780389e941f66e45e7acce3e228ab3e2156a614fcd74781565b7f2c5d82f66c914bafb9701589ba8cfcfb6162b0a12acf88a8d0879a0471b5f85a81565b7f0f8666b62ed17491c50ceadead57d4cd597ef3821d65c328744c74e553dac26d81565b7f22f98aa9ce704152ac17354914ad73ed1167ae6596af510aa5b3649325e06c9281565b8585036115a4576040517f08c379a000000000000000000000000000000000000000000000000000000000815260040161159b9061299c565b60405180910390fd5b7f30644e72e131a029b85045b68181585d2833e84879b9709143e1f593f00000018510611606576040517f08c379a00000000000000000000000000000000000000000000000000000000081526004016115fd90612a2e565b60405180910390fd5b611614878786868686611b30565b611653576040517f08c379a000000000000000000000000000000000000000000000000000000000815260040161164a90612ac0565b60405180910390fd5b6000876000015490506000869050600080600090505b838160ff161015611948578060ff1686868360ff1681811061168e5761168d612730565b5b90506020020160208101906116a39190612b19565b60ff16901b82179150600086868360ff168181106116c4576116c3612730565b5b90506020020160208101906116d99190612b19565b60ff1603611811578a60040160008260ff16815260200190815260200160002060016002811061170c5761170b612730565b5b015488888360ff1681811061172457611723612730565b5b905060200201350361176257828b60040160008360ff16815260200190815260200160002060006002811061175c5761175b612730565b5b01819055505b73__$75f79a42d9bcbdbb69ad79ebd80f556f39$__63561558fe60405180604001604052808681526020018b8b8660ff168181106117a3576117a2612730565b5b905060200201358152506040518263ffffffff1660e01b81526004016117c99190612494565b602060405180830381865af41580156117e6573d6000803e3d6000fd5b505050506040513d601f19601f8201168201806040525081019061180a91906124c4565b925061193d565b8a60040160008260ff16815260200190815260200160002060006002811061183c5761183b612730565b5b015488888360ff1681811061185457611853612730565b5b905060200201350361189257828b60040160008360ff16815260200190815260200160002060016002811061188c5761188b612730565b5b01819055505b73__$75f79a42d9bcbdbb69ad79ebd80f556f39$__63561558fe60405180604001604052808b8b8660ff168181106118cd576118cc612730565b5b905060200201358152602001868152506040518263ffffffff1660e01b81526004016118f99190612494565b602060405180830381865af4158015611916573d6000803e3d6000fd5b505050506040513d601f19601f8201168201806040525081019061193a91906124c4565b92505b806001019050611669565b508960020154811061198f576040517f08c379a000000000000000000000000000000000000000000000000000000000815260040161198690612bb8565b60405180910390fd5b818a6001018190555050505050505050505050565b7f0918d46bf52d98b034413f4a1a1c41594e7a7a3f6ae08cb43d1a2a230e1959ef81565b7f19df90ec844ebc4ffeebd866f33859b0c051d8c958ee3aa88f8f8df3db91a5b181565b7f1f21feb70d3f21b07bf853d5e5db03071ec495a0a565a21da2d665d27948379581565b7f2134e76ac5d21aab186c2be1dd8f84ee880a1e46eaf712f9d371b6df22191f3e81565b7f2b94cf5e8746b3f5c9631f4c5df32907a699c58c94b2ad4d7b5cec1639183f5581565b7f07f9d837cb17b0d36320ffe93ba52345f1b728571a568265caac97559dbc952a81565b7f1bbeb01b4c479ecde76917645e404dfa2e26f90d0afc5a65128513ad375c5ff281565b7f2098f5fb9e239eab3ceac3f27b81e481dc3124d55ffed523a839ee8446b6486481565b7f1f8d8822725e36385200c0b201249819a6e6e1e4650808b5bebc6bface7d763681565b7f1b7201da72494f1e28717ad1a52eb469f95892f957713533de6175e5da190af281565b7f2f68a1c58e257e42a17a6c61dff5551ed560b9922ab119d5ac8e184c9734ead981565b60007f30644e72e131a029b85045b68181585d2833e84879b9709143e1f593f00000018610611b94576040517f08c379a0000000000000000000000000000000000000000000000000000000008152600401611b8b90612337565b60405180910390fd5b6000876000015490508084849050148015611bb157508086869050145b611bf0576040517f08c379a0000000000000000000000000000000000000000000000000000000008152600401611be790612c4a565b60405180910390fd5b600087905060005b828160ff161015611ec3577f30644e72e131a029b85045b68181585d2833e84879b9709143e1f593f000000188888360ff16818110611c3a57611c39612730565b5b9050602002013510611c81576040517f08c379a0000000000000000000000000000000000000000000000000000000008152600401611c7890612cdc565b60405180910390fd5b600186868360ff16818110611c9957611c98612730565b5b9050602002016020810190611cae9190612b19565b60ff161480611cea5750600086868360ff16818110611cd057611ccf612730565b5b9050602002016020810190611ce59190612b19565b60ff16145b611d29576040517f08c379a0000000000000000000000000000000000000000000000000000000008152600401611d2090612d6e565b60405180910390fd5b600086868360ff16818110611d4157611d40612730565b5b9050602002016020810190611d569190612b19565b60ff1603611e0d5773__$75f79a42d9bcbdbb69ad79ebd80f556f39$__63561558fe60405180604001604052808581526020018b8b8660ff16818110611d9f57611d9e612730565b5b905060200201358152506040518263ffffffff1660e01b8152600401611dc59190612494565b602060405180830381865af4158015611de2573d6000803e3d6000fd5b505050506040513d601f19601f82011682018060405250810190611e0691906124c4565b9150611eb8565b73__$75f79a42d9bcbdbb69ad79ebd80f556f39$__63561558fe60405180604001604052808b8b8660ff16818110611e4857611e47612730565b5b905060200201358152602001858152506040518263ffffffff1660e01b8152600401611e749190612494565b602060405180830381865af4158015611e91573d6000803e3d6000fd5b505050506040513d601f19601f82011682018060405250810190611eb591906124c4565b91505b806001019050611bf8565b5088600101548114925050509695505050505050565b8260028101928215611f08579160200282015b82811115611f07578251825591602001919060010190611eec565b5b509050611f159190611f19565b5090565b5b80821115611f32576000816000905550600101611f1a565b5090565b600080fd5b600080fd5b6000819050919050565b611f5381611f40565b8114611f5e57600080fd5b50565b600081359050611f7081611f4a565b92915050565b6000819050919050565b611f8981611f76565b8114611f9457600080fd5b50565b600081359050611fa681611f80565b92915050565b600080fd5b600080fd5b600080fd5b60008083601f840112611fd157611fd0611fac565b5b8235905067ffffffffffffffff811115611fee57611fed611fb1565b5b60208301915083602082028301111561200a57612009611fb6565b5b9250929050565b60008083601f84011261202757612026611fac565b5b8235905067ffffffffffffffff81111561204457612043611fb1565b5b6020830191508360208202830111156120605761205f611fb6565b5b9250929050565b6000806000806000806080878903121561208457612083611f36565b5b600061209289828a01611f61565b96505060206120a389828a01611f97565b955050604087013567ffffffffffffffff8111156120c4576120c3611f3b565b5b6120d089828a01611fbb565b9450945050606087013567ffffffffffffffff8111156120f3576120f2611f3b565b5b6120ff89828a01612011565b92509250509295509295509295565b60008060006060848603121561212757612126611f36565b5b600061213586828701611f61565b935050602061214686828701611f97565b925050604061215786828701611f97565b9150509250925092565b61216a81611f76565b82525050565b60006020820190506121856000830184612161565b92915050565b600080604083850312156121a2576121a1611f36565b5b60006121b085828601611f61565b92505060206121c185828601611f97565b9150509250929050565b6000602082840312156121e1576121e0611f36565b5b60006121ef84828501611f97565b91505092915050565b600080600080600080600060a0888a03121561221757612216611f36565b5b60006122258a828b01611f61565b97505060206122368a828b01611f97565b96505060406122478a828b01611f97565b955050606088013567ffffffffffffffff81111561226857612267611f3b565b5b6122748a828b01611fbb565b9450945050608088013567ffffffffffffffff81111561229757612296611f3b565b5b6122a38a828b01612011565b925092505092959891949750929550565b600082825260208201905092915050565b7f496e6372656d656e74616c42696e617279547265653a206c656166206d75737460008201527f206265203c20534e41524b5f5343414c41525f4649454c440000000000000000602082015250565b60006123216038836122b4565b915061232c826122c5565b604082019050919050565b6000602082019050818103600083015261235081612314565b9050919050565b7f496e6372656d656e74616c42696e617279547265653a2074726565206465707460008201527f68206d757374206265206265747765656e203120616e64203332000000000000602082015250565b60006123b3603a836122b4565b91506123be82612357565b604082019050919050565b600060208201905081810360008301526123e2816123a6565b9050919050565b600060029050919050565b600081905092915050565b6000819050919050565b61241281611f76565b82525050565b60006124248383612409565b60208301905092915050565b6000602082019050919050565b612446816123e9565b61245081846123f4565b925061245b826123ff565b8060005b8381101561248c5781516124738782612418565b965061247e83612430565b92505060018101905061245f565b505050505050565b60006040820190506124a9600083018461243d565b92915050565b6000815190506124be81611f80565b92915050565b6000602082840312156124da576124d9611f36565b5b60006124e8848285016124af565b91505092915050565b7f4e487b7100000000000000000000000000000000000000000000000000000000600052601160045260246000fd5b60008160011c9050919050565b6000808291508390505b600185111561257757808604811115612553576125526124f1565b5b60018516156125625780820291505b808102905061257085612520565b9450612537565b94509492505050565b600082612590576001905061264c565b8161259e576000905061264c565b81600181146125b457600281146125be576125ed565b600191505061264c565b60ff8411156125d0576125cf6124f1565b5b8360020a9150848211156125e7576125e66124f1565b5b5061264c565b5060208310610133831016604e8410600b84101617156126225782820a90508381111561261d5761261c6124f1565b5b61264c565b61262f848484600161252d565b92509050818404811115612646576126456124f1565b5b81810290505b9392505050565b600061265e82611f76565b915061266983611f76565b92506126967fffffffffffffffffffffffffffffffffffffffffffffffffffffffffffffffff8484612580565b905092915050565b7f496e6372656d656e74616c42696e617279547265653a2074726565206973206660008201527f756c6c0000000000000000000000000000000000000000000000000000000000602082015250565b60006126fa6023836122b4565b91506127058261269e565b604082019050919050565b60006020820190508181036000830152612729816126ed565b9050919050565b7f4e487b7100000000000000000000000000000000000000000000000000000000600052603260045260246000fd5b600060029050919050565b6000819050919050565b60008160001c9050919050565b6000819050919050565b600061279e61279983612774565b612781565b9050919050565b60006127b1825461278b565b9050919050565b6000600182019050919050565b6127ce8161275f565b6127d881846123f4565b92506127e38261276a565b8060005b8381101561281b576127f8826127a5565b6128028782612418565b965061280d836127b8565b9250506001810190506127e7565b505050505050565b600060408201905061283860008301846127c5565b92915050565b600061284982611f76565b915061285483611f76565b925082820190508082111561286c5761286b6124f1565b5b92915050565b7f496e6372656d656e74616c42696e617279547265653a2064656661756c745a6560008201527f726f2062616420696e6465780000000000000000000000000000000000000000602082015250565b60006128ce602c836122b4565b91506128d982612872565b604082019050919050565b600060208201905081810360008301526128fd816128c1565b9050919050565b7f496e6372656d656e74616c42696e617279547265653a206e6577206c6561662060008201527f63616e6e6f74206265207468652073616d6520617320746865206f6c64206f6e60208201527f6500000000000000000000000000000000000000000000000000000000000000604082015250565b60006129866041836122b4565b915061299182612904565b606082019050919050565b600060208201905081810360008301526129b581612979565b9050919050565b7f496e6372656d656e74616c42696e617279547265653a206e6577206c6561662060008201527f6d757374206265203c20534e41524b5f5343414c41525f4649454c4400000000602082015250565b6000612a18603c836122b4565b9150612a23826129bc565b604082019050919050565b60006020820190508181036000830152612a4781612a0b565b9050919050565b7f496e6372656d656e74616c42696e617279547265653a206c656166206973206e60008201527f6f742070617274206f6620746865207472656500000000000000000000000000602082015250565b6000612aaa6033836122b4565b9150612ab582612a4e565b604082019050919050565b60006020820190508181036000830152612ad981612a9d565b9050919050565b600060ff82169050919050565b612af681612ae0565b8114612b0157600080fd5b50565b600081359050612b1381612aed565b92915050565b600060208284031215612b2f57612b2e611f36565b5b6000612b3d84828501612b04565b91505092915050565b7f496e6372656d656e74616c42696e617279547265653a206c65616620696e646560008201527f78206f7574206f662072616e6765000000000000000000000000000000000000602082015250565b6000612ba2602e836122b4565b9150612bad82612b46565b604082019050919050565b60006020820190508181036000830152612bd181612b95565b9050919050565b7f496e6372656d656e74616c42696e617279547265653a206c656e677468206f6660008201527f2070617468206973206e6f7420636f7272656374000000000000000000000000602082015250565b6000612c346034836122b4565b9150612c3f82612bd8565b604082019050919050565b60006020820190508181036000830152612c6381612c27565b9050919050565b7f496e6372656d656e74616c42696e617279547265653a207369626c696e67206e60008201527f6f6465206d757374206265203c20534e41524b5f5343414c41525f4649454c44602082015250565b6000612cc66040836122b4565b9150612cd182612c6a565b604082019050919050565b60006020820190508181036000830152612cf581612cb9565b9050919050565b7f496e6372656d656e74616c42696e617279547265653a207061746820696e646560008201527f78206973206e6569746865722030206e6f722031000000000000000000000000602082015250565b6000612d586034836122b4565b9150612d6382612cfc565b604082019050919050565b60006020820190508181036000830152612d8781612d4b565b905091905056fea2646970667358221220debcf5c60e48194f7c837a4d4df0e613fc8e7ee6180cf167340701d21b62b5e364736f6c63430008130033",
  "linkReferences": {
    "poseidon-solidity/PoseidonT3.sol": {
      "PoseidonT3": [
        {
          "length": 20,
          "start": 2243
        },
        {
          "length": 20,
          "start": 3002
        },
        {
          "length": 20,
          "start": 6071
        },
        {
          "length": 20,
          "start": 6375
        },
        {
          "length": 20,
          "start": 7603
        },
        {
          "length": 20,
          "start": 7778
        }
      ]
    }
  },
  "deployedLinkReferences": {
    "poseidon-solidity/PoseidonT3.sol": {
      "PoseidonT3": [
        {
          "length": 20,
          "start": 2160
        },
        {
          "length": 20,
          "start": 2919
        },
        {
          "length": 20,
          "start": 5988
        },
        {
          "length": 20,
          "start": 6292
        },
        {
          "length": 20,
          "start": 7520
        },
        {
          "length": 20,
          "start": 7695
        }
      ]
    }
  }
}