{"contracts/BabCoinContract.sol":{"BabCoinContract":{"abi":[{"inputs":[{"internalType":"string","name":"uri_","type":"string"},{"internalType":"address","name":"superAdmin_","type":"address"},{"components":[{"internalType":"address","name":"contractAddress","type":"address"},{"internalType":"uint256","name":"merkleTreeDepth","type":"uint256"}],"internalType":"struct IPrivPoll.Verifier[]","name":"_verifiers","type":"tuple[]"}],"stateMutability":"nonpayable","type":"constructor"},{"inputs":[],"name":"Semaphore__CallerIsNotThePollCoordinator","type":"error"},{"inputs":[],"name":"Semaphore__GroupAlreadyExists","type":"error"},{"inputs":[],"name":"Semaphore__GroupDoesNotExist","type":"error"},{"inputs":[],"name":"Semaphore__GroupIdIsNotLessThanSnarkScalarField","type":"error"},{"inputs":[],"name":"Semaphore__MerkleTreeDepthIsNotSupported","type":"error"},{"inputs":[],"name":"Semaphore__PollHasAlreadyBeenStarted","type":"error"},{"inputs":[],"name":"Semaphore__PollIsNotOngoing","type":"error"},{"inputs":[],"name":"Semaphore__YouAreUsingTheSameNillifierTwice","type":"error"},{"anonymous":false,"inputs":[{"indexed":true,"internalType":"address","name":"account","type":"address"},{"indexed":true,"internalType":"address","name":"operator","type":"address"},{"indexed":false,"internalType":"bool","name":"approved","type":"bool"}],"name":"ApprovalForAll","type":"event"},{"anonymous":false,"inputs":[{"indexed":true,"internalType":"uint256","name":"groupId","type":"uint256"},{"indexed":false,"internalType":"uint256","name":"merkleTreeDepth","type":"uint256"},{"indexed":false,"internalType":"uint256","name":"zeroValue","type":"uint256"}],"name":"GroupCreated","type":"event"},{"anonymous":false,"inputs":[{"indexed":true,"internalType":"uint256","name":"groupId","type":"uint256"},{"indexed":false,"internalType":"uint256","name":"index","type":"uint256"},{"indexed":false,"internalType":"uint256","name":"identityCommitment","type":"uint256"},{"indexed":false,"internalType":"uint256","name":"merkleTreeRoot","type":"uint256"}],"name":"MemberAdded","type":"event"},{"anonymous":false,"inputs":[{"indexed":true,"internalType":"uint256","name":"groupId","type":"uint256"},{"indexed":false,"internalType":"uint256","name":"index","type":"uint256"},{"indexed":false,"internalType":"uint256","name":"identityCommitment","type":"uint256"},{"indexed":false,"internalType":"uint256","name":"merkleTreeRoot","type":"uint256"}],"name":"MemberRemoved","type":"event"},{"anonymous":false,"inputs":[{"indexed":true,"internalType":"uint256","name":"groupId","type":"uint256"},{"indexed":false,"internalType":"uint256","name":"index","type":"uint256"},{"indexed":false,"internalType":"uint256","name":"identityCommitment","type":"uint256"},{"indexed":false,"internalType":"uint256","name":"newIdentityCommitment","type":"uint256"},{"indexed":false,"internalType":"uint256","name":"merkleTreeRoot","type":"uint256"}],"name":"MemberUpdated","type":"event"},{"anonymous":false,"inputs":[{"indexed":false,"internalType":"uint256","name":"nullifierHash","type":"uint256"}],"name":"NullifierHashAdded","type":"event"},{"anonymous":false,"inputs":[{"indexed":false,"internalType":"uint256","name":"pollId","type":"uint256"},{"indexed":true,"internalType":"address","name":"coordinator","type":"address"}],"name":"PollCreated","type":"event"},{"anonymous":false,"inputs":[{"indexed":false,"internalType":"uint256","name":"pollId","type":"uint256"},{"indexed":true,"internalType":"address","name":"coordinator","type":"address"}],"name":"PollEnded","type":"event"},{"anonymous":false,"inputs":[{"indexed":true,"internalType":"address","name":"operator","type":"address"},{"indexed":true,"internalType":"address","name":"from","type":"address"},{"indexed":true,"internalType":"address","name":"to","type":"address"},{"indexed":false,"internalType":"uint256[]","name":"ids","type":"uint256[]"},{"indexed":false,"internalType":"uint256[]","name":"values","type":"uint256[]"}],"name":"TransferBatch","type":"event"},{"anonymous":false,"inputs":[{"indexed":true,"internalType":"address","name":"operator","type":"address"},{"indexed":true,"internalType":"address","name":"from","type":"address"},{"indexed":true,"internalType":"address","name":"to","type":"address"},{"indexed":false,"internalType":"uint256","name":"id","type":"uint256"},{"indexed":false,"internalType":"uint256","name":"value","type":"uint256"}],"name":"TransferSingle","type":"event"},{"anonymous":false,"inputs":[{"indexed":false,"internalType":"string","name":"value","type":"string"},{"indexed":true,"internalType":"uint256","name":"id","type":"uint256"}],"name":"URI","type":"event"},{"anonymous":false,"inputs":[{"indexed":true,"internalType":"uint256","name":"pollId","type":"uint256"},{"indexed":false,"internalType":"bytes32","name":"vote","type":"bytes32"}],"name":"VoteAdded","type":"event"},{"inputs":[{"internalType":"address[]","name":"newAdmins","type":"address[]"}],"name":"addAdmins","outputs":[],"stateMutability":"nonpayable","type":"function"},{"inputs":[{"internalType":"address[]","name":"attendees","type":"address[]"},{"internalType":"uint256","name":"id","type":"uint256"},{"internalType":"uint256","name":"amount","type":"uint256"},{"internalType":"bytes","name":"data","type":"bytes"}],"name":"airdrop","outputs":[],"stateMutability":"nonpayable","type":"function"},{"inputs":[{"internalType":"address","name":"account","type":"address"},{"internalType":"uint256","name":"id","type":"uint256"}],"name":"balanceOf","outputs":[{"internalType":"uint256","name":"","type":"uint256"}],"stateMutability":"view","type":"function"},{"inputs":[{"internalType":"address[]","name":"accounts","type":"address[]"},{"internalType":"uint256[]","name":"ids","type":"uint256[]"}],"name":"balanceOfBatch","outputs":[{"internalType":"uint256[]","name":"","type":"uint256[]"}],"stateMutability":"view","type":"function"},{"inputs":[{"internalType":"bytes32","name":"vote","type":"bytes32"},{"internalType":"uint256","name":"nullifierHash","type":"uint256"},{"internalType":"uint256","name":"pollId","type":"uint256"},{"internalType":"uint256[8]","name":"proof","type":"uint256[8]"}],"name":"castVote","outputs":[],"stateMutability":"nonpayable","type":"function"},{"inputs":[{"internalType":"uint256","name":"pollId","type":"uint256"},{"internalType":"address","name":"coordinator","type":"address"},{"internalType":"uint256","name":"merkleRoot","type":"uint256"},{"internalType":"uint256","name":"merkleTreeDepth","type":"uint256"}],"name":"createPoll","outputs":[],"stateMutability":"nonpayable","type":"function"},{"inputs":[{"internalType":"uint256","name":"pollId","type":"uint256"}],"name":"endPoll","outputs":[{"internalType":"bool","name":"","type":"bool"}],"stateMutability":"nonpayable","type":"function"},{"inputs":[],"name":"getAdmins","outputs":[{"internalType":"address[]","name":"","type":"address[]"}],"stateMutability":"view","type":"function"},{"inputs":[],"name":"getBurn","outputs":[{"internalType":"bool","name":"","type":"bool"}],"stateMutability":"view","type":"function"},{"inputs":[{"internalType":"uint256","name":"groupId","type":"uint256"}],"name":"getMerkleTreeDepth","outputs":[{"internalType":"uint256","name":"","type":"uint256"}],"stateMutability":"view","type":"function"},{"inputs":[{"internalType":"uint256","name":"groupId","type":"uint256"}],"name":"getMerkleTreeRoot","outputs":[{"internalType":"uint256","name":"","type":"uint256"}],"stateMutability":"view","type":"function"},{"inputs":[{"internalType":"uint256","name":"pollId","type":"uint256"}],"name":"getPollState","outputs":[{"internalType":"uint256","name":"","type":"uint256"},{"internalType":"uint256","name":"","type":"uint256"},{"internalType":"string","name":"","type":"string"}],"stateMutability":"view","type":"function"},{"inputs":[],"name":"getSuperAdmin","outputs":[{"internalType":"address","name":"","type":"address"}],"stateMutability":"view","type":"function"},{"inputs":[],"name":"getTransfer","outputs":[{"internalType":"bool","name":"","type":"bool"}],"stateMutability":"view","type":"function"},{"inputs":[{"internalType":"address","name":"account","type":"address"},{"internalType":"address","name":"operator","type":"address"}],"name":"isApprovedForAll","outputs":[{"internalType":"bool","name":"","type":"bool"}],"stateMutability":"view","type":"function"},{"inputs":[{"internalType":"address[]","name":"oldAdmins","type":"address[]"}],"name":"removeAdmins","outputs":[],"stateMutability":"nonpayable","type":"function"},{"inputs":[{"internalType":"address","name":"from","type":"address"},{"internalType":"address","name":"to","type":"address"},{"internalType":"uint256[]","name":"ids","type":"uint256[]"},{"internalType":"uint256[]","name":"amounts","type":"uint256[]"},{"internalType":"bytes","name":"data","type":"bytes"}],"name":"safeBatchTransferFrom","outputs":[],"stateMutability":"nonpayable","type":"function"},{"inputs":[{"internalType":"address","name":"from","type":"address"},{"internalType":"address","name":"to","type":"address"},{"internalType":"uint256","name":"id","type":"uint256"},{"internalType":"uint256","name":"amount","type":"uint256"},{"internalType":"bytes","name":"data","type":"bytes"}],"name":"safeTransferFrom","outputs":[],"stateMutability":"nonpayable","type":"function"},{"inputs":[{"internalType":"address","name":"operator","type":"address"},{"internalType":"bool","name":"approved","type":"bool"}],"name":"setApprovalForAll","outputs":[],"stateMutability":"nonpayable","type":"function"},{"inputs":[{"internalType":"bool","name":"status","type":"bool"}],"name":"setBurn","outputs":[],"stateMutability":"nonpayable","type":"function"},{"inputs":[{"internalType":"address","name":"newSuperAdmin","type":"address"}],"name":"setSuperAdmin","outputs":[],"stateMutability":"nonpayable","type":"function"},{"inputs":[{"internalType":"bool","name":"status","type":"bool"}],"name":"setTransfer","outputs":[],"stateMutability":"nonpayable","type":"function"},{"inputs":[{"internalType":"bytes4","name":"interfaceId","type":"bytes4"}],"name":"supportsInterface","outputs":[{"internalType":"bool","name":"","type":"bool"}],"stateMutability":"view","type":"function"},{"inputs":[{"internalType":"uint256","name":"","type":"uint256"}],"name":"uri","outputs":[{"internalType":"string","name":"","type":"string"}],"stateMutability":"view","type":"function"}],"evm":{"bytecode":{"linkReferences":{},"object":"60806040523480156200001157600080fd5b5060405162005115380380620051158339818101604052810190620000379190620004ec565b8260049081620000489190620007c7565b5081600760006101000a81548173ffffffffffffffffffffffffffffffffffffffff021916908373ffffffffffffffffffffffffffffffffffffffff1602179055506000600560006101000a81548160ff0219169083151502179055506000600560016101000a81548160ff02191690831515021790555060005b81518160ff1610156200017657818160ff1681518110620000e957620000e8620008ae565b5b60200260200101516000015160086000848460ff1681518110620001125762000111620008ae565b5b602002602001015160200151815260200190815260200160002060006101000a81548173ffffffffffffffffffffffffffffffffffffffff021916908373ffffffffffffffffffffffffffffffffffffffff160217905550806001019050620000c3565b50505050620008dd565b6000604051905090565b600080fd5b600080fd5b600080fd5b600080fd5b6000601f19601f8301169050919050565b7f4e487b7100000000000000000000000000000000000000000000000000000000600052604160045260246000fd5b620001e9826200019e565b810181811067ffffffffffffffff821117156200020b576200020a620001af565b5b80604052505050565b60006200022062000180565b90506200022e8282620001de565b919050565b600067ffffffffffffffff821115620002515762000250620001af565b5b6200025c826200019e565b9050602081019050919050565b60005b83811015620002895780820151818401526020810190506200026c565b60008484015250505050565b6000620002ac620002a68462000233565b62000214565b905082815260208101848484011115620002cb57620002ca62000199565b5b620002d884828562000269565b509392505050565b600082601f830112620002f857620002f762000194565b5b81516200030a84826020860162000295565b91505092915050565b600073ffffffffffffffffffffffffffffffffffffffff82169050919050565b6000620003408262000313565b9050919050565b620003528162000333565b81146200035e57600080fd5b50565b600081519050620003728162000347565b92915050565b600067ffffffffffffffff821115620003965762000395620001af565b5b602082029050602081019050919050565b600080fd5b600080fd5b6000819050919050565b620003c681620003b1565b8114620003d257600080fd5b50565b600081519050620003e681620003bb565b92915050565b600060408284031215620004055762000404620003ac565b5b62000411604062000214565b90506000620004238482850162000361565b60008301525060206200043984828501620003d5565b60208301525092915050565b60006200045c620004568462000378565b62000214565b90508083825260208201905060408402830185811115620004825762000481620003a7565b5b835b81811015620004af57806200049a8882620003ec565b84526020840193505060408101905062000484565b5050509392505050565b600082601f830112620004d157620004d062000194565b5b8151620004e384826020860162000445565b91505092915050565b6000806000606084860312156200050857620005076200018a565b5b600084015167ffffffffffffffff8111156200052957620005286200018f565b5b6200053786828701620002e0565b93505060206200054a8682870162000361565b925050604084015167ffffffffffffffff8111156200056e576200056d6200018f565b5b6200057c86828701620004b9565b9150509250925092565b600081519050919050565b7f4e487b7100000000000000000000000000000000000000000000000000000000600052602260045260246000fd5b60006002820490506001821680620005d957607f821691505b602082108103620005ef57620005ee62000591565b5b50919050565b60008190508160005260206000209050919050565b60006020601f8301049050919050565b600082821b905092915050565b600060088302620006597fffffffffffffffffffffffffffffffffffffffffffffffffffffffffffffffff826200061a565b6200066586836200061a565b95508019841693508086168417925050509392505050565b6000819050919050565b6000620006a8620006a26200069c84620003b1565b6200067d565b620003b1565b9050919050565b6000819050919050565b620006c48362000687565b620006dc620006d382620006af565b84845462000627565b825550505050565b600090565b620006f3620006e4565b62000700818484620006b9565b505050565b5b8181101562000728576200071c600082620006e9565b60018101905062000706565b5050565b601f82111562000777576200074181620005f5565b6200074c846200060a565b810160208510156200075c578190505b620007746200076b856200060a565b83018262000705565b50505b505050565b600082821c905092915050565b60006200079c600019846008026200077c565b1980831691505092915050565b6000620007b7838362000789565b9150826002028217905092915050565b620007d28262000586565b67ffffffffffffffff811115620007ee57620007ed620001af565b5b620007fa8254620005c0565b620008078282856200072c565b600060209050601f8311600181146200083f57600084156200082a578287015190505b620008368582620007a9565b865550620008a6565b601f1984166200084f86620005f5565b60005b82811015620008795784890151825560018201915060208501945060208101905062000852565b8683101562000899578489015162000895601f89168262000789565b8355505b6001600288020188555050505b505050505050565b7f4e487b7100000000000000000000000000000000000000000000000000000000600052603260045260246000fd5b61482880620008ed6000396000f3fe608060405234801561001057600080fd5b50600436106101575760003560e01c80638204c326116100c3578063b8ccaedd1161007c578063b8ccaedd146103d4578063bd55cf0d146103f2578063dabc4d511461040e578063e985e9c51461043e578063f242432a1461046e578063f43b87781461048a57610157565b80638204c326146103125780639c54df6414610330578063a22cb4651461034c578063a296b32314610368578063afdda4ec14610384578063b87141bf146103b657610157565b8063377e11e011610115578063377e11e0146102425780634e1273f41461025e578063562592ef1461028e578063633f439d146102aa5780636389e107146102c657806370eff6ad146102f657610157565b8062fdd58e1461015c57806301ffc9a71461018c5780630e89341c146101bc57806315700052146101ec5780632eb2c2d61461020857806331ae450b14610224575b600080fd5b61017660048036038101906101719190612e24565b6104ba565b6040516101839190612e73565b60405180910390f35b6101a660048036038101906101a19190612ee6565b610583565b6040516101b39190612f2e565b60405180910390f35b6101d660048036038101906101d19190612f49565b610665565b6040516101e39190613006565b60405180910390f35b61020660048036038101906102019190613028565b6106f9565b005b610222600480360381019061021d9190613252565b6107cd565b005b61022c610886565b60405161023991906133df565b60405180910390f35b61025c600480360381019061025791906134c4565b610914565b005b6102786004803603810190610273919061350d565b610b98565b6040516102859190613643565b60405180910390f35b6102a860048036038101906102a39190613665565b610cb1565b005b6102c460048036038101906102bf919061375c565b610e3d565b005b6102e060048036038101906102db9190612f49565b6110fd565b6040516102ed9190612e73565b60405180910390f35b610310600480360381019061030b91906137c4565b61111a565b005b61031a6112f7565b604051610327919061383a565b60405180910390f35b61034a600480360381019061034591906134c4565b611321565b005b61036660048036038101906103619190613881565b611451565b005b610382600480360381019061037d91906138c1565b611467565b005b61039e60048036038101906103999190612f49565b611514565b6040516103ad939291906138ee565b60405180910390f35b6103be6116ab565b6040516103cb9190612f2e565b60405180910390f35b6103dc6116c2565b6040516103e99190612f2e565b60405180910390f35b61040c600480360381019061040791906138c1565b6116d9565b005b61042860048036038101906104239190612f49565b611786565b6040516104359190612e73565b60405180910390f35b6104586004803603810190610453919061392c565b6117a2565b6040516104659190612f2e565b60405180910390f35b6104886004803603810190610483919061396c565b611836565b005b6104a4600480360381019061049f9190612f49565b6118ef565b6040516104b19190612f2e565b60405180910390f35b60008073ffffffffffffffffffffffffffffffffffffffff168373ffffffffffffffffffffffffffffffffffffffff160361052a576040517f08c379a000000000000000000000000000000000000000000000000000000000815260040161052190613a75565b60405180910390fd5b6002600083815260200190815260200160002060008473ffffffffffffffffffffffffffffffffffffffff1673ffffffffffffffffffffffffffffffffffffffff16815260200190815260200160002054905092915050565b60007fd9b67a26000000000000000000000000000000000000000000000000000000007bffffffffffffffffffffffffffffffffffffffffffffffffffffffff1916827bffffffffffffffffffffffffffffffffffffffffffffffffffffffff1916148061064e57507f0e89341c000000000000000000000000000000000000000000000000000000007bffffffffffffffffffffffffffffffffffffffffffffffffffffffff1916827bffffffffffffffffffffffffffffffffffffffffffffffffffffffff1916145b8061065e575061065d82611ae0565b5b9050919050565b60606004805461067490613ac4565b80601f01602080910402602001604051908101604052809291908181526020018280546106a090613ac4565b80156106ed5780601f106106c2576101008083540402835291602001916106ed565b820191906000526020600020905b8154815290600101906020018083116106d057829003601f168201915b50505050509050919050565b600760009054906101000a900473ffffffffffffffffffffffffffffffffffffffff1673ffffffffffffffffffffffffffffffffffffffff163373ffffffffffffffffffffffffffffffffffffffff1614610789576040517f08c379a000000000000000000000000000000000000000000000000000000000815260040161078090613b41565b60405180910390fd5b80600760006101000a81548173ffffffffffffffffffffffffffffffffffffffff021916908373ffffffffffffffffffffffffffffffffffffffff16021790555050565b600560009054906101000a900460ff16801561083357506107ec611b4a565b73ffffffffffffffffffffffffffffffffffffffff168573ffffffffffffffffffffffffffffffffffffffff16148061083257506108318561082c611b4a565b6117a2565b5b5b610872576040517f08c379a000000000000000000000000000000000000000000000000000000000815260040161086990613bd3565b60405180910390fd5b61087f8585858585611b52565b5050505050565b6060600680548060200260200160405190810160405280929190818152602001828054801561090a57602002820191906000526020600020905b8160009054906101000a900473ffffffffffffffffffffffffffffffffffffffff1673ffffffffffffffffffffffffffffffffffffffff16815260200190600101908083116108c0575b5050505050905090565b600760009054906101000a900473ffffffffffffffffffffffffffffffffffffffff1673ffffffffffffffffffffffffffffffffffffffff163373ffffffffffffffffffffffffffffffffffffffff16146109a4576040517f08c379a000000000000000000000000000000000000000000000000000000000815260040161099b90613b41565b60405180910390fd5b60005b8151811015610b945760005b600680549050811015610b8057600681815481106109d4576109d3613bf3565b5b9060005260206000200160009054906101000a900473ffffffffffffffffffffffffffffffffffffffff1673ffffffffffffffffffffffffffffffffffffffff16838381518110610a2857610a27613bf3565b5b602002602001015173ffffffffffffffffffffffffffffffffffffffff1603610b6d5760008190505b6001600680549050610a639190613c51565b811015610b24576006600182610a799190613c85565b81548110610a8a57610a89613bf3565b5b9060005260206000200160009054906101000a900473ffffffffffffffffffffffffffffffffffffffff1660068281548110610ac957610ac8613bf3565b5b9060005260206000200160006101000a81548173ffffffffffffffffffffffffffffffffffffffff021916908373ffffffffffffffffffffffffffffffffffffffff1602179055508080610b1c90613cb9565b915050610a51565b6006805480610b3657610b35613d01565b5b6001900381819060005260206000200160006101000a81549073ffffffffffffffffffffffffffffffffffffffff02191690559055505b8080610b7890613cb9565b9150506109b3565b508080610b8c90613cb9565b9150506109a7565b5050565b60608151835114610bde576040517f08c379a0000000000000000000000000000000000000000000000000000000008152600401610bd590613da2565b60405180910390fd5b6000835167ffffffffffffffff811115610bfb57610bfa61305a565b5b604051908082528060200260200182016040528015610c295781602001602082028036833780820191505090505b50905060005b8451811015610ca657610c76858281518110610c4e57610c4d613bf3565b5b6020026020010151858381518110610c6957610c68613bf3565b5b60200260200101516104ba565b828281518110610c8957610c88613bf3565b5b60200260200101818152505080610c9f90613cb9565b9050610c2f565b508091505092915050565b6000600760009054906101000a900473ffffffffffffffffffffffffffffffffffffffff1673ffffffffffffffffffffffffffffffffffffffff163373ffffffffffffffffffffffffffffffffffffffff1614905080610daa5760005b600680549050811015610da85760068181548110610d2f57610d2e613bf3565b5b9060005260206000200160009054906101000a900473ffffffffffffffffffffffffffffffffffffffff1673ffffffffffffffffffffffffffffffffffffffff163373ffffffffffffffffffffffffffffffffffffffff1603610d955760019150610da8565b8080610da090613cb9565b915050610d0e565b505b80610dea576040517f08c379a0000000000000000000000000000000000000000000000000000000008152600401610de190613e0e565b60405180910390fd5b60008551905060005b81811015610e3457610e21878281518110610e1157610e10613bf3565b5b6020026020010151878787611ec5565b8080610e2c90613cb9565b915050610df3565b50505050505050565b6000600960008481526020019081526020016000206040518060800160405290816000820160009054906101000a900473ffffffffffffffffffffffffffffffffffffffff1673ffffffffffffffffffffffffffffffffffffffff1673ffffffffffffffffffffffffffffffffffffffff1681526020016000820160149054906101000a900460ff166001811115610ed857610ed7613e2e565b5b6001811115610eea57610ee9613e2e565b5b815260200160018201548152602001600282015481525050905060006001811115610f1857610f17613e2e565b5b81602001516001811115610f2f57610f2e613e2e565b5b14610f66576040517fe1b6c09100000000000000000000000000000000000000000000000000000000815260040160405180910390fd5b600a600085815260200190815260200160002060009054906101000a900460ff1615610fbe576040517f948d067400000000000000000000000000000000000000000000000000000000815260040160405180910390fd5b6000610fc9846110fd565b90506000610fd685611786565b905060006008600084815260200190815260200160002060009054906101000a900473ffffffffffffffffffffffffffffffffffffffff16905061101e8883898989866121b0565b6001600a600089815260200190815260200160002060006101000a81548160ff0219169083151502179055506001610fff8960001c160361108c5760016009600088815260200190815260200160002060010160008282546110809190613c85565b925050819055506110bb565b60016009600088815260200190815260200160002060020160008282546110b39190613c85565b925050819055505b857f9259c591af3680137739dc2b275c388eb1639a143b49022e7062fa162f14776d896040516110eb9190613e6c565b60405180910390a25050505050505050565b600060016000838152602001908152602001600020549050919050565b600073ffffffffffffffffffffffffffffffffffffffff166008600083815260200190815260200160002060009054906101000a900473ffffffffffffffffffffffffffffffffffffffff1673ffffffffffffffffffffffffffffffffffffffff16036111b3576040517fecf64f1200000000000000000000000000000000000000000000000000000000815260040160405180910390fd5b6111c08483836000612379565b6111c8612d2c565b83816000019073ffffffffffffffffffffffffffffffffffffffff16908173ffffffffffffffffffffffffffffffffffffffff1681525050806009600087815260200190815260200160002060008201518160000160006101000a81548173ffffffffffffffffffffffffffffffffffffffff021916908373ffffffffffffffffffffffffffffffffffffffff16021790555060208201518160000160146101000a81548160ff0219169083600181111561128657611285613e2e565b5b021790555060408201518160010155606082015181600201559050508373ffffffffffffffffffffffffffffffffffffffff167fb447d309fd3b1a27466cdb08ccc02ee5188e9c71fc58af042bafe3e0bb451230866040516112e89190612e73565b60405180910390a25050505050565b6000600760009054906101000a900473ffffffffffffffffffffffffffffffffffffffff16905090565b600760009054906101000a900473ffffffffffffffffffffffffffffffffffffffff1673ffffffffffffffffffffffffffffffffffffffff163373ffffffffffffffffffffffffffffffffffffffff16146113b1576040517f08c379a00000000000000000000000000000000000000000000000000000000081526004016113a890613b41565b60405180910390fd5b60005b815181101561144d5760068282815181106113d2576113d1613bf3565b5b60200260200101519080600181540180825580915050600190039060005260206000200160009091909190916101000a81548173ffffffffffffffffffffffffffffffffffffffff021916908373ffffffffffffffffffffffffffffffffffffffff160217905550808061144590613cb9565b9150506113b4565b5050565b61146361145c611b4a565b8383612441565b5050565b600760009054906101000a900473ffffffffffffffffffffffffffffffffffffffff1673ffffffffffffffffffffffffffffffffffffffff163373ffffffffffffffffffffffffffffffffffffffff16146114f7576040517f08c379a00000000000000000000000000000000000000000000000000000000081526004016114ee90613b41565b60405180910390fd5b80600560006101000a81548160ff02191690831515021790555050565b60008060606000600960008681526020019081526020016000206040518060800160405290816000820160009054906101000a900473ffffffffffffffffffffffffffffffffffffffff1673ffffffffffffffffffffffffffffffffffffffff1673ffffffffffffffffffffffffffffffffffffffff1681526020016000820160149054906101000a900460ff1660018111156115b4576115b3613e2e565b5b60018111156115c6576115c5613e2e565b5b8152602001600182015481526020016002820154815250509050600060018111156115f4576115f3613e2e565b5b8160200151600181111561160b5761160a613e2e565b5b0361165c57806040015181606001516040518060400160405280600781526020017f4f6e676f696e6700000000000000000000000000000000000000000000000000815250935093509350506116a4565b806040015181606001516040518060400160405280600581526020017f456e646564000000000000000000000000000000000000000000000000000000815250935093509350505b9193909250565b6000600560009054906101000a900460ff16905090565b6000600560019054906101000a900460ff16905090565b600760009054906101000a900473ffffffffffffffffffffffffffffffffffffffff1673ffffffffffffffffffffffffffffffffffffffff163373ffffffffffffffffffffffffffffffffffffffff1614611769576040517f08c379a000000000000000000000000000000000000000000000000000000000815260040161176090613b41565b60405180910390fd5b80600560016101000a81548160ff02191690831515021790555050565b6000806000838152602001908152602001600020549050919050565b6000600360008473ffffffffffffffffffffffffffffffffffffffff1673ffffffffffffffffffffffffffffffffffffffff16815260200190815260200160002060008373ffffffffffffffffffffffffffffffffffffffff1673ffffffffffffffffffffffffffffffffffffffff16815260200190815260200160002060009054906101000a900460ff16905092915050565b600560009054906101000a900460ff16801561189c5750611855611b4a565b73ffffffffffffffffffffffffffffffffffffffff168573ffffffffffffffffffffffffffffffffffffffff16148061189b575061189a85611895611b4a565b6117a2565b5b5b6118db576040517f08c379a00000000000000000000000000000000000000000000000000000000081526004016118d290613bd3565b60405180910390fd5b6118e885858585856125ad565b5050505050565b6000816118fa611b4a565b73ffffffffffffffffffffffffffffffffffffffff166009600083815260200190815260200160002060000160009054906101000a900473ffffffffffffffffffffffffffffffffffffffff1673ffffffffffffffffffffffffffffffffffffffff1614611994576040517fe4a34e1500000000000000000000000000000000000000000000000000000000815260040160405180910390fd5b600060018111156119a8576119a7613e2e565b5b6009600085815260200190815260200160002060000160149054906101000a900460ff1660018111156119de576119dd613e2e565b5b14611a15576040517fe1b6c09100000000000000000000000000000000000000000000000000000000815260040160405180910390fd5b60016009600085815260200190815260200160002060000160146101000a81548160ff02191690836001811115611a4f57611a4e613e2e565b5b0217905550611a5c611b4a565b73ffffffffffffffffffffffffffffffffffffffff167fce994ead15e72a77a86ddf3b0184783c61c9af7e3aae02d7c0bdf3b4268fa18884604051611aa19190612e73565b60405180910390a26009600084815260200190815260200160002060020154600960008581526020019081526020016000206001015411915050919050565b60007f01ffc9a7000000000000000000000000000000000000000000000000000000007bffffffffffffffffffffffffffffffffffffffffffffffffffffffff1916827bffffffffffffffffffffffffffffffffffffffffffffffffffffffff1916149050919050565b600033905090565b600560009054906101000a900460ff16611ba1576040517f08c379a0000000000000000000000000000000000000000000000000000000008152600401611b9890613ed3565b60405180910390fd5b8151835114611be5576040517f08c379a0000000000000000000000000000000000000000000000000000000008152600401611bdc90613f65565b60405180910390fd5b600073ffffffffffffffffffffffffffffffffffffffff168473ffffffffffffffffffffffffffffffffffffffff1603611c54576040517f08c379a0000000000000000000000000000000000000000000000000000000008152600401611c4b90613ff7565b60405180910390fd5b6000611c5e611b4a565b9050611c6e81878787878761289a565b60005b8451811015611e22576000858281518110611c8f57611c8e613bf3565b5b602002602001015190506000858381518110611cae57611cad613bf3565b5b6020026020010151905060006002600084815260200190815260200160002060008b73ffffffffffffffffffffffffffffffffffffffff1673ffffffffffffffffffffffffffffffffffffffff16815260200190815260200160002054905081811015611d50576040517f08c379a0000000000000000000000000000000000000000000000000000000008152600401611d4790614089565b60405180910390fd5b8181036002600085815260200190815260200160002060008c73ffffffffffffffffffffffffffffffffffffffff1673ffffffffffffffffffffffffffffffffffffffff16815260200190815260200160002081905550816002600085815260200190815260200160002060008b73ffffffffffffffffffffffffffffffffffffffff1673ffffffffffffffffffffffffffffffffffffffff1681526020019081526020016000206000828254611e079190613c85565b9250508190555050505080611e1b90613cb9565b9050611c71565b508473ffffffffffffffffffffffffffffffffffffffff168673ffffffffffffffffffffffffffffffffffffffff168273ffffffffffffffffffffffffffffffffffffffff167f4a39dc06d4c0dbc64b70af90fd698a233a518aa5d07e595d983b8c0526c8f7fb8787604051611e999291906140a9565b60405180910390a4611eaf8187878787876128a2565b611ebd8187878787876128aa565b505050505050565b6000600760009054906101000a900473ffffffffffffffffffffffffffffffffffffffff1673ffffffffffffffffffffffffffffffffffffffff163373ffffffffffffffffffffffffffffffffffffffff1614905080611fbe5760005b600680549050811015611fbc5760068181548110611f4357611f42613bf3565b5b9060005260206000200160009054906101000a900473ffffffffffffffffffffffffffffffffffffffff1673ffffffffffffffffffffffffffffffffffffffff163373ffffffffffffffffffffffffffffffffffffffff1603611fa95760019150611fbc565b8080611fb490613cb9565b915050611f22565b505b80611ffe576040517f08c379a0000000000000000000000000000000000000000000000000000000008152600401611ff590613e0e565b60405180910390fd5b600073ffffffffffffffffffffffffffffffffffffffff168573ffffffffffffffffffffffffffffffffffffffff160361206d576040517f08c379a000000000000000000000000000000000000000000000000000000000815260040161206490614152565b60405180910390fd5b6000612077611b4a565b9050600061208486612a81565b9050600061209186612a81565b90506120a28360008a85858a61289a565b856002600089815260200190815260200160002060008a73ffffffffffffffffffffffffffffffffffffffff1673ffffffffffffffffffffffffffffffffffffffff16815260200190815260200160002060008282546121029190613c85565b925050819055508773ffffffffffffffffffffffffffffffffffffffff16600073ffffffffffffffffffffffffffffffffffffffff168473ffffffffffffffffffffffffffffffffffffffff167fc3d58168c5ae7397731d063d5bbf3d657854427343f4c083240f7aacaa2d0f628a8a604051612180929190614172565b60405180910390a46121978360008a85858a6128a2565b6121a68360008a8a8a8a612afb565b5050505050505050565b60006121bb87612cd2565b90508173ffffffffffffffffffffffffffffffffffffffff16635fe8c13b6040518060400160405280866000600881106121f8576121f7613bf3565b5b602002013581526020018660016008811061221657612215613bf3565b5b6020020135815250604051806040016040528060405180604001604052808960026008811061224857612247613bf3565b5b602002013581526020018960036008811061226657612265613bf3565b5b6020020135815250815260200160405180604001604052808960046008811061229257612291613bf3565b5b60200201358152602001896005600881106122b0576122af613bf3565b5b60200201358152508152506040518060400160405280886006600881106122da576122d9613bf3565b5b60200201358152602001886007600881106122f8576122f7613bf3565b5b602002013581525060405180608001604052808c81526020018b81526020018781526020018a8152506040518563ffffffff1660e01b815260040161234094939291906143a1565b60006040518083038186803b15801561235857600080fd5b505afa15801561236c573d6000803e3d6000fd5b5050505050505050505050565b7f30644e72e131a029b85045b68181585d2833e84879b9709143e1f593f000000184106123d2576040517fa61c78ca00000000000000000000000000000000000000000000000000000000815260040160405180910390fd5b8260008086815260200190815260200160002081905550816001600086815260200190815260200160002081905550837f0d000126c26c1bbe400fd2332187f75d58b69306f9ec47b408686189d3a008338383604051612433929190614172565b60405180910390a250505050565b8173ffffffffffffffffffffffffffffffffffffffff168373ffffffffffffffffffffffffffffffffffffffff16036124af576040517f08c379a00000000000000000000000000000000000000000000000000000000081526004016124a69061445a565b60405180910390fd5b80600360008573ffffffffffffffffffffffffffffffffffffffff1673ffffffffffffffffffffffffffffffffffffffff16815260200190815260200160002060008473ffffffffffffffffffffffffffffffffffffffff1673ffffffffffffffffffffffffffffffffffffffff16815260200190815260200160002060006101000a81548160ff0219169083151502179055508173ffffffffffffffffffffffffffffffffffffffff168373ffffffffffffffffffffffffffffffffffffffff167f17307eab39ab6107e8899845ad3d59bd9653f200f220920489ca2b5937696c31836040516125a09190612f2e565b60405180910390a3505050565b600560009054906101000a900460ff166125fc576040517f08c379a00000000000000000000000000000000000000000000000000000000081526004016125f390613ed3565b60405180910390fd5b600073ffffffffffffffffffffffffffffffffffffffff168473ffffffffffffffffffffffffffffffffffffffff160361266b576040517f08c379a000000000000000000000000000000000000000000000000000000000815260040161266290613ff7565b60405180910390fd5b6000612675611b4a565b9050600061268285612a81565b9050600061268f85612a81565b905061269f83898985858961289a565b60006002600088815260200190815260200160002060008a73ffffffffffffffffffffffffffffffffffffffff1673ffffffffffffffffffffffffffffffffffffffff16815260200190815260200160002054905085811015612737576040517f08c379a000000000000000000000000000000000000000000000000000000000815260040161272e90614089565b60405180910390fd5b8581036002600089815260200190815260200160002060008b73ffffffffffffffffffffffffffffffffffffffff1673ffffffffffffffffffffffffffffffffffffffff16815260200190815260200160002081905550856002600089815260200190815260200160002060008a73ffffffffffffffffffffffffffffffffffffffff1673ffffffffffffffffffffffffffffffffffffffff16815260200190815260200160002060008282546127ee9190613c85565b925050819055508773ffffffffffffffffffffffffffffffffffffffff168973ffffffffffffffffffffffffffffffffffffffff168573ffffffffffffffffffffffffffffffffffffffff167fc3d58168c5ae7397731d063d5bbf3d657854427343f4c083240f7aacaa2d0f628a8a60405161286b929190614172565b60405180910390a4612881848a8a86868a6128a2565b61288f848a8a8a8a8a612afb565b505050505050505050565b505050505050565b505050505050565b6128c98473ffffffffffffffffffffffffffffffffffffffff16612d09565b15612a79578373ffffffffffffffffffffffffffffffffffffffff1663bc197c8187878686866040518663ffffffff1660e01b815260040161290f9594939291906144cf565b6020604051808303816000875af192505050801561294b57506040513d601f19601f82011682018060405250810190612948919061454c565b60015b6129f057612957614586565b806308c379a0036129b3575061296b6145a8565b8061297657506129b5565b806040517f08c379a00000000000000000000000000000000000000000000000000000000081526004016129aa9190613006565b60405180910390fd5b505b6040517f08c379a00000000000000000000000000000000000000000000000000000000081526004016129e7906146aa565b60405180910390fd5b63bc197c8160e01b7bffffffffffffffffffffffffffffffffffffffffffffffffffffffff1916817bffffffffffffffffffffffffffffffffffffffffffffffffffffffff191614612a77576040517f08c379a0000000000000000000000000000000000000000000000000000000008152600401612a6e9061473c565b60405180910390fd5b505b505050505050565b60606000600167ffffffffffffffff811115612aa057612a9f61305a565b5b604051908082528060200260200182016040528015612ace5781602001602082028036833780820191505090505b5090508281600081518110612ae657612ae5613bf3565b5b60200260200101818152505080915050919050565b612b1a8473ffffffffffffffffffffffffffffffffffffffff16612d09565b15612cca578373ffffffffffffffffffffffffffffffffffffffff1663f23a6e6187878686866040518663ffffffff1660e01b8152600401612b6095949392919061475c565b6020604051808303816000875af1925050508015612b9c57506040513d601f19601f82011682018060405250810190612b99919061454c565b60015b612c4157612ba8614586565b806308c379a003612c045750612bbc6145a8565b80612bc75750612c06565b806040517f08c379a0000000000000000000000000000000000000000000000000000000008152600401612bfb9190613006565b60405180910390fd5b505b6040517f08c379a0000000000000000000000000000000000000000000000000000000008152600401612c38906146aa565b60405180910390fd5b63f23a6e6160e01b7bffffffffffffffffffffffffffffffffffffffffffffffffffffffff1916817bffffffffffffffffffffffffffffffffffffffffffffffffffffffff191614612cc8576040517f08c379a0000000000000000000000000000000000000000000000000000000008152600401612cbf9061473c565b60405180910390fd5b505b505050505050565b6000600882604051602001612ce791906147d7565b6040516020818303038152906040528051906020012060001c901c9050919050565b6000808273ffffffffffffffffffffffffffffffffffffffff163b119050919050565b6040518060800160405280600073ffffffffffffffffffffffffffffffffffffffff16815260200160006001811115612d6857612d67613e2e565b5b815260200160008152602001600081525090565b6000604051905090565b600080fd5b600080fd5b600073ffffffffffffffffffffffffffffffffffffffff82169050919050565b6000612dbb82612d90565b9050919050565b612dcb81612db0565b8114612dd657600080fd5b50565b600081359050612de881612dc2565b92915050565b6000819050919050565b612e0181612dee565b8114612e0c57600080fd5b50565b600081359050612e1e81612df8565b92915050565b60008060408385031215612e3b57612e3a612d86565b5b6000612e4985828601612dd9565b9250506020612e5a85828601612e0f565b9150509250929050565b612e6d81612dee565b82525050565b6000602082019050612e886000830184612e64565b92915050565b60007fffffffff0000000000000000000000000000000000000000000000000000000082169050919050565b612ec381612e8e565b8114612ece57600080fd5b50565b600081359050612ee081612eba565b92915050565b600060208284031215612efc57612efb612d86565b5b6000612f0a84828501612ed1565b91505092915050565b60008115159050919050565b612f2881612f13565b82525050565b6000602082019050612f436000830184612f1f565b92915050565b600060208284031215612f5f57612f5e612d86565b5b6000612f6d84828501612e0f565b91505092915050565b600081519050919050565b600082825260208201905092915050565b60005b83811015612fb0578082015181840152602081019050612f95565b60008484015250505050565b6000601f19601f8301169050919050565b6000612fd882612f76565b612fe28185612f81565b9350612ff2818560208601612f92565b612ffb81612fbc565b840191505092915050565b600060208201905081810360008301526130208184612fcd565b905092915050565b60006020828403121561303e5761303d612d86565b5b600061304c84828501612dd9565b91505092915050565b600080fd5b7f4e487b7100000000000000000000000000000000000000000000000000000000600052604160045260246000fd5b61309282612fbc565b810181811067ffffffffffffffff821117156130b1576130b061305a565b5b80604052505050565b60006130c4612d7c565b90506130d08282613089565b919050565b600067ffffffffffffffff8211156130f0576130ef61305a565b5b602082029050602081019050919050565b600080fd5b6000613119613114846130d5565b6130ba565b9050808382526020820190506020840283018581111561313c5761313b613101565b5b835b8181101561316557806131518882612e0f565b84526020840193505060208101905061313e565b5050509392505050565b600082601f83011261318457613183613055565b5b8135613194848260208601613106565b91505092915050565b600080fd5b600067ffffffffffffffff8211156131bd576131bc61305a565b5b6131c682612fbc565b9050602081019050919050565b82818337600083830152505050565b60006131f56131f0846131a2565b6130ba565b9050828152602081018484840111156132115761321061319d565b5b61321c8482856131d3565b509392505050565b600082601f83011261323957613238613055565b5b81356132498482602086016131e2565b91505092915050565b600080600080600060a0868803121561326e5761326d612d86565b5b600061327c88828901612dd9565b955050602061328d88828901612dd9565b945050604086013567ffffffffffffffff8111156132ae576132ad612d8b565b5b6132ba8882890161316f565b935050606086013567ffffffffffffffff8111156132db576132da612d8b565b5b6132e78882890161316f565b925050608086013567ffffffffffffffff81111561330857613307612d8b565b5b61331488828901613224565b9150509295509295909350565b600081519050919050565b600082825260208201905092915050565b6000819050602082019050919050565b61335681612db0565b82525050565b6000613368838361334d565b60208301905092915050565b6000602082019050919050565b600061338c82613321565b613396818561332c565b93506133a18361333d565b8060005b838110156133d25781516133b9888261335c565b97506133c483613374565b9250506001810190506133a5565b5085935050505092915050565b600060208201905081810360008301526133f98184613381565b905092915050565b600067ffffffffffffffff82111561341c5761341b61305a565b5b602082029050602081019050919050565b600061344061343b84613401565b6130ba565b9050808382526020820190506020840283018581111561346357613462613101565b5b835b8181101561348c57806134788882612dd9565b845260208401935050602081019050613465565b5050509392505050565b600082601f8301126134ab576134aa613055565b5b81356134bb84826020860161342d565b91505092915050565b6000602082840312156134da576134d9612d86565b5b600082013567ffffffffffffffff8111156134f8576134f7612d8b565b5b61350484828501613496565b91505092915050565b6000806040838503121561352457613523612d86565b5b600083013567ffffffffffffffff81111561354257613541612d8b565b5b61354e85828601613496565b925050602083013567ffffffffffffffff81111561356f5761356e612d8b565b5b61357b8582860161316f565b9150509250929050565b600081519050919050565b600082825260208201905092915050565b6000819050602082019050919050565b6135ba81612dee565b82525050565b60006135cc83836135b1565b60208301905092915050565b6000602082019050919050565b60006135f082613585565b6135fa8185613590565b9350613605836135a1565b8060005b8381101561363657815161361d88826135c0565b9750613628836135d8565b925050600181019050613609565b5085935050505092915050565b6000602082019050818103600083015261365d81846135e5565b905092915050565b6000806000806080858703121561367f5761367e612d86565b5b600085013567ffffffffffffffff81111561369d5761369c612d8b565b5b6136a987828801613496565b94505060206136ba87828801612e0f565b93505060406136cb87828801612e0f565b925050606085013567ffffffffffffffff8111156136ec576136eb612d8b565b5b6136f887828801613224565b91505092959194509250565b6000819050919050565b61371781613704565b811461372257600080fd5b50565b6000813590506137348161370e565b92915050565b60008190508260206008028201111561375657613755613101565b5b92915050565b600080600080610160858703121561377757613776612d86565b5b600061378587828801613725565b945050602061379687828801612e0f565b93505060406137a787828801612e0f565b92505060606137b88782880161373a565b91505092959194509250565b600080600080608085870312156137de576137dd612d86565b5b60006137ec87828801612e0f565b94505060206137fd87828801612dd9565b935050604061380e87828801612e0f565b925050606061381f87828801612e0f565b91505092959194509250565b61383481612db0565b82525050565b600060208201905061384f600083018461382b565b92915050565b61385e81612f13565b811461386957600080fd5b50565b60008135905061387b81613855565b92915050565b6000806040838503121561389857613897612d86565b5b60006138a685828601612dd9565b92505060206138b78582860161386c565b9150509250929050565b6000602082840312156138d7576138d6612d86565b5b60006138e58482850161386c565b91505092915050565b60006060820190506139036000830186612e64565b6139106020830185612e64565b81810360408301526139228184612fcd565b9050949350505050565b6000806040838503121561394357613942612d86565b5b600061395185828601612dd9565b925050602061396285828601612dd9565b9150509250929050565b600080600080600060a0868803121561398857613987612d86565b5b600061399688828901612dd9565b95505060206139a788828901612dd9565b94505060406139b888828901612e0f565b93505060606139c988828901612e0f565b925050608086013567ffffffffffffffff8111156139ea576139e9612d8b565b5b6139f688828901613224565b9150509295509295909350565b7f455243313135353a2061646472657373207a65726f206973206e6f742061207660008201527f616c6964206f776e657200000000000000000000000000000000000000000000602082015250565b6000613a5f602a83612f81565b9150613a6a82613a03565b604082019050919050565b60006020820190508181036000830152613a8e81613a52565b9050919050565b7f4e487b7100000000000000000000000000000000000000000000000000000000600052602260045260246000fd5b60006002820490506001821680613adc57607f821691505b602082108103613aef57613aee613a95565b5b50919050565b7f4e6f742073757065722061646d696e0000000000000000000000000000000000600082015250565b6000613b2b600f83612f81565b9150613b3682613af5565b602082019050919050565b60006020820190508181036000830152613b5a81613b1e565b9050919050565b7f455243313135353a2063616c6c6572206973206e6f7420746f6b656e206f776e60008201527f6572206e6f7220617070726f7665640000000000000000000000000000000000602082015250565b6000613bbd602f83612f81565b9150613bc882613b61565b604082019050919050565b60006020820190508181036000830152613bec81613bb0565b9050919050565b7f4e487b7100000000000000000000000000000000000000000000000000000000600052603260045260246000fd5b7f4e487b7100000000000000000000000000000000000000000000000000000000600052601160045260246000fd5b6000613c5c82612dee565b9150613c6783612dee565b9250828203905081811115613c7f57613c7e613c22565b5b92915050565b6000613c9082612dee565b9150613c9b83612dee565b9250828201905080821115613cb357613cb2613c22565b5b92915050565b6000613cc482612dee565b91507fffffffffffffffffffffffffffffffffffffffffffffffffffffffffffffffff8203613cf657613cf5613c22565b5b600182019050919050565b7f4e487b7100000000000000000000000000000000000000000000000000000000600052603160045260246000fd5b7f455243313135353a206163636f756e747320616e6420696473206c656e67746860008201527f206d69736d617463680000000000000000000000000000000000000000000000602082015250565b6000613d8c602983612f81565b9150613d9782613d30565b604082019050919050565b60006020820190508181036000830152613dbb81613d7f565b9050919050565b7f4e6f742061646d696e0000000000000000000000000000000000000000000000600082015250565b6000613df8600983612f81565b9150613e0382613dc2565b602082019050919050565b60006020820190508181036000830152613e2781613deb565b9050919050565b7f4e487b7100000000000000000000000000000000000000000000000000000000600052602160045260246000fd5b613e6681613704565b82525050565b6000602082019050613e816000830184613e5d565b92915050565b7f547261736e666572732064697361626c65640000000000000000000000000000600082015250565b6000613ebd601283612f81565b9150613ec882613e87565b602082019050919050565b60006020820190508181036000830152613eec81613eb0565b9050919050565b7f455243313135353a2069647320616e6420616d6f756e7473206c656e6774682060008201527f6d69736d61746368000000000000000000000000000000000000000000000000602082015250565b6000613f4f602883612f81565b9150613f5a82613ef3565b604082019050919050565b60006020820190508181036000830152613f7e81613f42565b9050919050565b7f455243313135353a207472616e7366657220746f20746865207a65726f20616460008201527f6472657373000000000000000000000000000000000000000000000000000000602082015250565b6000613fe1602583612f81565b9150613fec82613f85565b604082019050919050565b6000602082019050818103600083015261401081613fd4565b9050919050565b7f455243313135353a20696e73756666696369656e742062616c616e636520666f60008201527f72207472616e7366657200000000000000000000000000000000000000000000602082015250565b6000614073602a83612f81565b915061407e82614017565b604082019050919050565b600060208201905081810360008301526140a281614066565b9050919050565b600060408201905081810360008301526140c381856135e5565b905081810360208301526140d781846135e5565b90509392505050565b7f455243313135353a206d696e7420746f20746865207a65726f2061646472657360008201527f7300000000000000000000000000000000000000000000000000000000000000602082015250565b600061413c602183612f81565b9150614147826140e0565b604082019050919050565b6000602082019050818103600083015261416b8161412f565b9050919050565b60006040820190506141876000830185612e64565b6141946020830184612e64565b9392505050565b600060029050919050565b600081905092915050565b6000819050919050565b6000602082019050919050565b6141d18161419b565b6141db81846141a6565b92506141e6826141b1565b8060005b838110156142175781516141fe87826135c0565b9650614209836141bb565b9250506001810190506141ea565b505050505050565b600060029050919050565b600081905092915050565b6000819050919050565b600081905092915050565b6142538161419b565b61425d818461423f565b9250614268826141b1565b8060005b8381101561429957815161428087826135c0565b965061428b836141bb565b92505060018101905061426c565b505050505050565b60006142ad838361424a565b60408301905092915050565b6000602082019050919050565b6142cf8161421f565b6142d9818461422a565b92506142e482614235565b8060005b838110156143155781516142fc87826142a1565b9650614307836142b9565b9250506001810190506142e8565b505050505050565b600060049050919050565b600081905092915050565b6000819050919050565b6000602082019050919050565b6143538161431d565b61435d8184614328565b925061436882614333565b8060005b8381101561439957815161438087826135c0565b965061438b8361433d565b92505060018101905061436c565b505050505050565b6000610180820190506143b760008301876141c8565b6143c460408301866142c6565b6143d160c08301856141c8565b6143df61010083018461434a565b95945050505050565b7f455243313135353a2073657474696e6720617070726f76616c2073746174757360008201527f20666f722073656c660000000000000000000000000000000000000000000000602082015250565b6000614444602983612f81565b915061444f826143e8565b604082019050919050565b6000602082019050818103600083015261447381614437565b9050919050565b600081519050919050565b600082825260208201905092915050565b60006144a18261447a565b6144ab8185614485565b93506144bb818560208601612f92565b6144c481612fbc565b840191505092915050565b600060a0820190506144e4600083018861382b565b6144f1602083018761382b565b818103604083015261450381866135e5565b9050818103606083015261451781856135e5565b9050818103608083015261452b8184614496565b90509695505050505050565b60008151905061454681612eba565b92915050565b60006020828403121561456257614561612d86565b5b600061457084828501614537565b91505092915050565b60008160e01c9050919050565b600060033d11156145a55760046000803e6145a2600051614579565b90505b90565b600060443d10614635576145ba612d7c565b60043d036004823e80513d602482011167ffffffffffffffff821117156145e2575050614635565b808201805167ffffffffffffffff8111156146005750505050614635565b80602083010160043d03850181111561461d575050505050614635565b61462c82602001850186613089565b82955050505050505b90565b7f455243313135353a207472616e7366657220746f206e6f6e204552433131353560008201527f526563656976657220696d706c656d656e746572000000000000000000000000602082015250565b6000614694603483612f81565b915061469f82614638565b604082019050919050565b600060208201905081810360008301526146c381614687565b9050919050565b7f455243313135353a204552433131353552656365697665722072656a6563746560008201527f6420746f6b656e73000000000000000000000000000000000000000000000000602082015250565b6000614726602883612f81565b9150614731826146ca565b604082019050919050565b6000602082019050818103600083015261475581614719565b9050919050565b600060a082019050614771600083018861382b565b61477e602083018761382b565b61478b6040830186612e64565b6147986060830185612e64565b81810360808301526147aa8184614496565b90509695505050505050565b6000819050919050565b6147d16147cc82613704565b6147b6565b82525050565b60006147e382846147c0565b6020820191508190509291505056fea2646970667358221220920df1efc2732f92dc9560d49cc5806a0b990743a715f8569339469cab72e8a264736f6c63430008130033","opcodes":"PUSH1 0x80 PUSH1 0x40 MSTORE CALLVALUE DUP1 ISZERO PUSH3 0x11 JUMPI PUSH1 0x0 DUP1 REVERT JUMPDEST POP PUSH1 0x40 MLOAD PUSH3 0x5115 CODESIZE SUB DUP1 PUSH3 0x5115 DUP4 CODECOPY DUP2 DUP2 ADD PUSH1 0x40 MSTORE DUP2 ADD SWAP1 PUSH3 0x37 SWAP2 SWAP1 PUSH3 0x4EC JUMP JUMPDEST DUP3 PUSH1 0x4 SWAP1 DUP2 PUSH3 0x48 SWAP2 SWAP1 PUSH3 0x7C7 JUMP JUMPDEST POP DUP2 PUSH1 0x7 PUSH1 0x0 PUSH2 0x100 EXP DUP2 SLOAD DUP2 PUSH20 0xFFFFFFFFFFFFFFFFFFFFFFFFFFFFFFFFFFFFFFFF MUL NOT AND SWAP1 DUP4 PUSH20 0xFFFFFFFFFFFFFFFFFFFFFFFFFFFFFFFFFFFFFFFF AND MUL OR SWAP1 SSTORE POP PUSH1 0x0 PUSH1 0x5 PUSH1 0x0 PUSH2 0x100 EXP DUP2 SLOAD DUP2 PUSH1 0xFF MUL NOT AND SWAP1 DUP4 ISZERO ISZERO MUL OR SWAP1 SSTORE POP PUSH1 0x0 PUSH1 0x5 PUSH1 0x1 PUSH2 0x100 EXP DUP2 SLOAD DUP2 PUSH1 0xFF MUL NOT AND SWAP1 DUP4 ISZERO ISZERO MUL OR SWAP1 SSTORE POP PUSH1 0x0 JUMPDEST DUP2 MLOAD DUP2 PUSH1 0xFF AND LT ISZERO PUSH3 0x176 JUMPI DUP2 DUP2 PUSH1 0xFF AND DUP2 MLOAD DUP2 LT PUSH3 0xE9 JUMPI PUSH3 0xE8 PUSH3 0x8AE JUMP JUMPDEST JUMPDEST PUSH1 0x20 MUL PUSH1 0x20 ADD ADD MLOAD PUSH1 0x0 ADD MLOAD PUSH1 0x8 PUSH1 0x0 DUP5 DUP5 PUSH1 0xFF AND DUP2 MLOAD DUP2 LT PUSH3 0x112 JUMPI PUSH3 0x111 PUSH3 0x8AE JUMP JUMPDEST JUMPDEST PUSH1 0x20 MUL PUSH1 0x20 ADD ADD MLOAD PUSH1 0x20 ADD MLOAD DUP2 MSTORE PUSH1 0x20 ADD SWAP1 DUP2 MSTORE PUSH1 0x20 ADD PUSH1 0x0 KECCAK256 PUSH1 0x0 PUSH2 0x100 EXP DUP2 SLOAD DUP2 PUSH20 0xFFFFFFFFFFFFFFFFFFFFFFFFFFFFFFFFFFFFFFFF MUL NOT AND SWAP1 DUP4 PUSH20 0xFFFFFFFFFFFFFFFFFFFFFFFFFFFFFFFFFFFFFFFF AND MUL OR SWAP1 SSTORE POP DUP1 PUSH1 0x1 ADD SWAP1 POP PUSH3 0xC3 JUMP JUMPDEST POP POP POP POP PUSH3 0x8DD JUMP JUMPDEST PUSH1 0x0 PUSH1 0x40 MLOAD SWAP1 POP SWAP1 JUMP JUMPDEST PUSH1 0x0 DUP1 REVERT JUMPDEST PUSH1 0x0 DUP1 REVERT JUMPDEST PUSH1 0x0 DUP1 REVERT JUMPDEST PUSH1 0x0 DUP1 REVERT JUMPDEST PUSH1 0x0 PUSH1 0x1F NOT PUSH1 0x1F DUP4 ADD AND SWAP1 POP SWAP2 SWAP1 POP JUMP JUMPDEST PUSH32 0x4E487B7100000000000000000000000000000000000000000000000000000000 PUSH1 0x0 MSTORE PUSH1 0x41 PUSH1 0x4 MSTORE PUSH1 0x24 PUSH1 0x0 REVERT JUMPDEST PUSH3 0x1E9 DUP3 PUSH3 0x19E JUMP JUMPDEST DUP2 ADD DUP2 DUP2 LT PUSH8 0xFFFFFFFFFFFFFFFF DUP3 GT OR ISZERO PUSH3 0x20B JUMPI PUSH3 0x20A PUSH3 0x1AF JUMP JUMPDEST JUMPDEST DUP1 PUSH1 0x40 MSTORE POP POP POP JUMP JUMPDEST PUSH1 0x0 PUSH3 0x220 PUSH3 0x180 JUMP JUMPDEST SWAP1 POP PUSH3 0x22E DUP3 DUP3 PUSH3 0x1DE JUMP JUMPDEST SWAP2 SWAP1 POP JUMP JUMPDEST PUSH1 0x0 PUSH8 0xFFFFFFFFFFFFFFFF DUP3 GT ISZERO PUSH3 0x251 JUMPI PUSH3 0x250 PUSH3 0x1AF JUMP JUMPDEST JUMPDEST PUSH3 0x25C DUP3 PUSH3 0x19E JUMP JUMPDEST SWAP1 POP PUSH1 0x20 DUP2 ADD SWAP1 POP SWAP2 SWAP1 POP JUMP JUMPDEST PUSH1 0x0 JUMPDEST DUP4 DUP2 LT ISZERO PUSH3 0x289 JUMPI DUP1 DUP3 ADD MLOAD DUP2 DUP5 ADD MSTORE PUSH1 0x20 DUP2 ADD SWAP1 POP PUSH3 0x26C JUMP JUMPDEST PUSH1 0x0 DUP5 DUP5 ADD MSTORE POP POP POP POP JUMP JUMPDEST PUSH1 0x0 PUSH3 0x2AC PUSH3 0x2A6 DUP5 PUSH3 0x233 JUMP JUMPDEST PUSH3 0x214 JUMP JUMPDEST SWAP1 POP DUP3 DUP2 MSTORE PUSH1 0x20 DUP2 ADD DUP5 DUP5 DUP5 ADD GT ISZERO PUSH3 0x2CB JUMPI PUSH3 0x2CA PUSH3 0x199 JUMP JUMPDEST JUMPDEST PUSH3 0x2D8 DUP5 DUP3 DUP6 PUSH3 0x269 JUMP JUMPDEST POP SWAP4 SWAP3 POP POP POP JUMP JUMPDEST PUSH1 0x0 DUP3 PUSH1 0x1F DUP4 ADD SLT PUSH3 0x2F8 JUMPI PUSH3 0x2F7 PUSH3 0x194 JUMP JUMPDEST JUMPDEST DUP2 MLOAD PUSH3 0x30A DUP5 DUP3 PUSH1 0x20 DUP7 ADD PUSH3 0x295 JUMP JUMPDEST SWAP2 POP POP SWAP3 SWAP2 POP POP JUMP JUMPDEST PUSH1 0x0 PUSH20 0xFFFFFFFFFFFFFFFFFFFFFFFFFFFFFFFFFFFFFFFF DUP3 AND SWAP1 POP SWAP2 SWAP1 POP JUMP JUMPDEST PUSH1 0x0 PUSH3 0x340 DUP3 PUSH3 0x313 JUMP JUMPDEST SWAP1 POP SWAP2 SWAP1 POP JUMP JUMPDEST PUSH3 0x352 DUP2 PUSH3 0x333 JUMP JUMPDEST DUP2 EQ PUSH3 0x35E JUMPI PUSH1 0x0 DUP1 REVERT JUMPDEST POP JUMP JUMPDEST PUSH1 0x0 DUP2 MLOAD SWAP1 POP PUSH3 0x372 DUP2 PUSH3 0x347 JUMP JUMPDEST SWAP3 SWAP2 POP POP JUMP JUMPDEST PUSH1 0x0 PUSH8 0xFFFFFFFFFFFFFFFF DUP3 GT ISZERO PUSH3 0x396 JUMPI PUSH3 0x395 PUSH3 0x1AF JUMP JUMPDEST JUMPDEST PUSH1 0x20 DUP3 MUL SWAP1 POP PUSH1 0x20 DUP2 ADD SWAP1 POP SWAP2 SWAP1 POP JUMP JUMPDEST PUSH1 0x0 DUP1 REVERT JUMPDEST PUSH1 0x0 DUP1 REVERT JUMPDEST PUSH1 0x0 DUP2 SWAP1 POP SWAP2 SWAP1 POP JUMP JUMPDEST PUSH3 0x3C6 DUP2 PUSH3 0x3B1 JUMP JUMPDEST DUP2 EQ PUSH3 0x3D2 JUMPI PUSH1 0x0 DUP1 REVERT JUMPDEST POP JUMP JUMPDEST PUSH1 0x0 DUP2 MLOAD SWAP1 POP PUSH3 0x3E6 DUP2 PUSH3 0x3BB JUMP JUMPDEST SWAP3 SWAP2 POP POP JUMP JUMPDEST PUSH1 0x0 PUSH1 0x40 DUP3 DUP5 SUB SLT ISZERO PUSH3 0x405 JUMPI PUSH3 0x404 PUSH3 0x3AC JUMP JUMPDEST JUMPDEST PUSH3 0x411 PUSH1 0x40 PUSH3 0x214 JUMP JUMPDEST SWAP1 POP PUSH1 0x0 PUSH3 0x423 DUP5 DUP3 DUP6 ADD PUSH3 0x361 JUMP JUMPDEST PUSH1 0x0 DUP4 ADD MSTORE POP PUSH1 0x20 PUSH3 0x439 DUP5 DUP3 DUP6 ADD PUSH3 0x3D5 JUMP JUMPDEST PUSH1 0x20 DUP4 ADD MSTORE POP SWAP3 SWAP2 POP POP JUMP JUMPDEST PUSH1 0x0 PUSH3 0x45C PUSH3 0x456 DUP5 PUSH3 0x378 JUMP JUMPDEST PUSH3 0x214 JUMP JUMPDEST SWAP1 POP DUP1 DUP4 DUP3 MSTORE PUSH1 0x20 DUP3 ADD SWAP1 POP PUSH1 0x40 DUP5 MUL DUP4 ADD DUP6 DUP2 GT ISZERO PUSH3 0x482 JUMPI PUSH3 0x481 PUSH3 0x3A7 JUMP JUMPDEST JUMPDEST DUP4 JUMPDEST DUP2 DUP2 LT ISZERO PUSH3 0x4AF JUMPI DUP1 PUSH3 0x49A DUP9 DUP3 PUSH3 0x3EC JUMP JUMPDEST DUP5 MSTORE PUSH1 0x20 DUP5 ADD SWAP4 POP POP PUSH1 0x40 DUP2 ADD SWAP1 POP PUSH3 0x484 JUMP JUMPDEST POP POP POP SWAP4 SWAP3 POP POP POP JUMP JUMPDEST PUSH1 0x0 DUP3 PUSH1 0x1F DUP4 ADD SLT PUSH3 0x4D1 JUMPI PUSH3 0x4D0 PUSH3 0x194 JUMP JUMPDEST JUMPDEST DUP2 MLOAD PUSH3 0x4E3 DUP5 DUP3 PUSH1 0x20 DUP7 ADD PUSH3 0x445 JUMP JUMPDEST SWAP2 POP POP SWAP3 SWAP2 POP POP JUMP JUMPDEST PUSH1 0x0 DUP1 PUSH1 0x0 PUSH1 0x60 DUP5 DUP7 SUB SLT ISZERO PUSH3 0x508 JUMPI PUSH3 0x507 PUSH3 0x18A JUMP JUMPDEST JUMPDEST PUSH1 0x0 DUP5 ADD MLOAD PUSH8 0xFFFFFFFFFFFFFFFF DUP2 GT ISZERO PUSH3 0x529 JUMPI PUSH3 0x528 PUSH3 0x18F JUMP JUMPDEST JUMPDEST PUSH3 0x537 DUP7 DUP3 DUP8 ADD PUSH3 0x2E0 JUMP JUMPDEST SWAP4 POP POP PUSH1 0x20 PUSH3 0x54A DUP7 DUP3 DUP8 ADD PUSH3 0x361 JUMP JUMPDEST SWAP3 POP POP PUSH1 0x40 DUP5 ADD MLOAD PUSH8 0xFFFFFFFFFFFFFFFF DUP2 GT ISZERO PUSH3 0x56E JUMPI PUSH3 0x56D PUSH3 0x18F JUMP JUMPDEST JUMPDEST PUSH3 0x57C DUP7 DUP3 DUP8 ADD PUSH3 0x4B9 JUMP JUMPDEST SWAP2 POP POP SWAP3 POP SWAP3 POP SWAP3 JUMP JUMPDEST PUSH1 0x0 DUP2 MLOAD SWAP1 POP SWAP2 SWAP1 POP JUMP JUMPDEST PUSH32 0x4E487B7100000000000000000000000000000000000000000000000000000000 PUSH1 0x0 MSTORE PUSH1 0x22 PUSH1 0x4 MSTORE PUSH1 0x24 PUSH1 0x0 REVERT JUMPDEST PUSH1 0x0 PUSH1 0x2 DUP3 DIV SWAP1 POP PUSH1 0x1 DUP3 AND DUP1 PUSH3 0x5D9 JUMPI PUSH1 0x7F DUP3 AND SWAP2 POP JUMPDEST PUSH1 0x20 DUP3 LT DUP2 SUB PUSH3 0x5EF JUMPI PUSH3 0x5EE PUSH3 0x591 JUMP JUMPDEST JUMPDEST POP SWAP2 SWAP1 POP JUMP JUMPDEST PUSH1 0x0 DUP2 SWAP1 POP DUP2 PUSH1 0x0 MSTORE PUSH1 0x20 PUSH1 0x0 KECCAK256 SWAP1 POP SWAP2 SWAP1 POP JUMP JUMPDEST PUSH1 0x0 PUSH1 0x20 PUSH1 0x1F DUP4 ADD DIV SWAP1 POP SWAP2 SWAP1 POP JUMP JUMPDEST PUSH1 0x0 DUP3 DUP3 SHL SWAP1 POP SWAP3 SWAP2 POP POP JUMP JUMPDEST PUSH1 0x0 PUSH1 0x8 DUP4 MUL PUSH3 0x659 PUSH32 0xFFFFFFFFFFFFFFFFFFFFFFFFFFFFFFFFFFFFFFFFFFFFFFFFFFFFFFFFFFFFFFFF DUP3 PUSH3 0x61A JUMP JUMPDEST PUSH3 0x665 DUP7 DUP4 PUSH3 0x61A JUMP JUMPDEST SWAP6 POP DUP1 NOT DUP5 AND SWAP4 POP DUP1 DUP7 AND DUP5 OR SWAP3 POP POP POP SWAP4 SWAP3 POP POP POP JUMP JUMPDEST PUSH1 0x0 DUP2 SWAP1 POP SWAP2 SWAP1 POP JUMP JUMPDEST PUSH1 0x0 PUSH3 0x6A8 PUSH3 0x6A2 PUSH3 0x69C DUP5 PUSH3 0x3B1 JUMP JUMPDEST PUSH3 0x67D JUMP JUMPDEST PUSH3 0x3B1 JUMP JUMPDEST SWAP1 POP SWAP2 SWAP1 POP JUMP JUMPDEST PUSH1 0x0 DUP2 SWAP1 POP SWAP2 SWAP1 POP JUMP JUMPDEST PUSH3 0x6C4 DUP4 PUSH3 0x687 JUMP JUMPDEST PUSH3 0x6DC PUSH3 0x6D3 DUP3 PUSH3 0x6AF JUMP JUMPDEST DUP5 DUP5 SLOAD PUSH3 0x627 JUMP JUMPDEST DUP3 SSTORE POP POP POP POP JUMP JUMPDEST PUSH1 0x0 SWAP1 JUMP JUMPDEST PUSH3 0x6F3 PUSH3 0x6E4 JUMP JUMPDEST PUSH3 0x700 DUP2 DUP5 DUP5 PUSH3 0x6B9 JUMP JUMPDEST POP POP POP JUMP JUMPDEST JUMPDEST DUP2 DUP2 LT ISZERO PUSH3 0x728 JUMPI PUSH3 0x71C PUSH1 0x0 DUP3 PUSH3 0x6E9 JUMP JUMPDEST PUSH1 0x1 DUP2 ADD SWAP1 POP PUSH3 0x706 JUMP JUMPDEST POP POP JUMP JUMPDEST PUSH1 0x1F DUP3 GT ISZERO PUSH3 0x777 JUMPI PUSH3 0x741 DUP2 PUSH3 0x5F5 JUMP JUMPDEST PUSH3 0x74C DUP5 PUSH3 0x60A JUMP JUMPDEST DUP2 ADD PUSH1 0x20 DUP6 LT ISZERO PUSH3 0x75C JUMPI DUP2 SWAP1 POP JUMPDEST PUSH3 0x774 PUSH3 0x76B DUP6 PUSH3 0x60A JUMP JUMPDEST DUP4 ADD DUP3 PUSH3 0x705 JUMP JUMPDEST POP POP JUMPDEST POP POP POP JUMP JUMPDEST PUSH1 0x0 DUP3 DUP3 SHR SWAP1 POP SWAP3 SWAP2 POP POP JUMP JUMPDEST PUSH1 0x0 PUSH3 0x79C PUSH1 0x0 NOT DUP5 PUSH1 0x8 MUL PUSH3 0x77C JUMP JUMPDEST NOT DUP1 DUP4 AND SWAP2 POP POP SWAP3 SWAP2 POP POP JUMP JUMPDEST PUSH1 0x0 PUSH3 0x7B7 DUP4 DUP4 PUSH3 0x789 JUMP JUMPDEST SWAP2 POP DUP3 PUSH1 0x2 MUL DUP3 OR SWAP1 POP SWAP3 SWAP2 POP POP JUMP JUMPDEST PUSH3 0x7D2 DUP3 PUSH3 0x586 JUMP JUMPDEST PUSH8 0xFFFFFFFFFFFFFFFF DUP2 GT ISZERO PUSH3 0x7EE JUMPI PUSH3 0x7ED PUSH3 0x1AF JUMP JUMPDEST JUMPDEST PUSH3 0x7FA DUP3 SLOAD PUSH3 0x5C0 JUMP JUMPDEST PUSH3 0x807 DUP3 DUP3 DUP6 PUSH3 0x72C JUMP JUMPDEST PUSH1 0x0 PUSH1 0x20 SWAP1 POP PUSH1 0x1F DUP4 GT PUSH1 0x1 DUP2 EQ PUSH3 0x83F JUMPI PUSH1 0x0 DUP5 ISZERO PUSH3 0x82A JUMPI DUP3 DUP8 ADD MLOAD SWAP1 POP JUMPDEST PUSH3 0x836 DUP6 DUP3 PUSH3 0x7A9 JUMP JUMPDEST DUP7 SSTORE POP PUSH3 0x8A6 JUMP JUMPDEST PUSH1 0x1F NOT DUP5 AND PUSH3 0x84F DUP7 PUSH3 0x5F5 JUMP JUMPDEST PUSH1 0x0 JUMPDEST DUP3 DUP2 LT ISZERO PUSH3 0x879 JUMPI DUP5 DUP10 ADD MLOAD DUP3 SSTORE PUSH1 0x1 DUP3 ADD SWAP2 POP PUSH1 0x20 DUP6 ADD SWAP5 POP PUSH1 0x20 DUP2 ADD SWAP1 POP PUSH3 0x852 JUMP JUMPDEST DUP7 DUP4 LT ISZERO PUSH3 0x899 JUMPI DUP5 DUP10 ADD MLOAD PUSH3 0x895 PUSH1 0x1F DUP10 AND DUP3 PUSH3 0x789 JUMP JUMPDEST DUP4 SSTORE POP JUMPDEST PUSH1 0x1 PUSH1 0x2 DUP9 MUL ADD DUP9 SSTORE POP POP POP JUMPDEST POP POP POP POP POP POP JUMP JUMPDEST PUSH32 0x4E487B7100000000000000000000000000000000000000000000000000000000 PUSH1 0x0 MSTORE PUSH1 0x32 PUSH1 0x4 MSTORE PUSH1 0x24 PUSH1 0x0 REVERT JUMPDEST PUSH2 0x4828 DUP1 PUSH3 0x8ED PUSH1 0x0 CODECOPY PUSH1 0x0 RETURN INVALID PUSH1 0x80 PUSH1 0x40 MSTORE CALLVALUE DUP1 ISZERO PUSH2 0x10 JUMPI PUSH1 0x0 DUP1 REVERT JUMPDEST POP PUSH1 0x4 CALLDATASIZE LT PUSH2 0x157 JUMPI PUSH1 0x0 CALLDATALOAD PUSH1 0xE0 SHR DUP1 PUSH4 0x8204C326 GT PUSH2 0xC3 JUMPI DUP1 PUSH4 0xB8CCAEDD GT PUSH2 0x7C JUMPI DUP1 PUSH4 0xB8CCAEDD EQ PUSH2 0x3D4 JUMPI DUP1 PUSH4 0xBD55CF0D EQ PUSH2 0x3F2 JUMPI DUP1 PUSH4 0xDABC4D51 EQ PUSH2 0x40E JUMPI DUP1 PUSH4 0xE985E9C5 EQ PUSH2 0x43E JUMPI DUP1 PUSH4 0xF242432A EQ PUSH2 0x46E JUMPI DUP1 PUSH4 0xF43B8778 EQ PUSH2 0x48A JUMPI PUSH2 0x157 JUMP JUMPDEST DUP1 PUSH4 0x8204C326 EQ PUSH2 0x312 JUMPI DUP1 PUSH4 0x9C54DF64 EQ PUSH2 0x330 JUMPI DUP1 PUSH4 0xA22CB465 EQ PUSH2 0x34C JUMPI DUP1 PUSH4 0xA296B323 EQ PUSH2 0x368 JUMPI DUP1 PUSH4 0xAFDDA4EC EQ PUSH2 0x384 JUMPI DUP1 PUSH4 0xB87141BF EQ PUSH2 0x3B6 JUMPI PUSH2 0x157 JUMP JUMPDEST DUP1 PUSH4 0x377E11E0 GT PUSH2 0x115 JUMPI DUP1 PUSH4 0x377E11E0 EQ PUSH2 0x242 JUMPI DUP1 PUSH4 0x4E1273F4 EQ PUSH2 0x25E JUMPI DUP1 PUSH4 0x562592EF EQ PUSH2 0x28E JUMPI DUP1 PUSH4 0x633F439D EQ PUSH2 0x2AA JUMPI DUP1 PUSH4 0x6389E107 EQ PUSH2 0x2C6 JUMPI DUP1 PUSH4 0x70EFF6AD EQ PUSH2 0x2F6 JUMPI PUSH2 0x157 JUMP JUMPDEST DUP1 PUSH3 0xFDD58E EQ PUSH2 0x15C JUMPI DUP1 PUSH4 0x1FFC9A7 EQ PUSH2 0x18C JUMPI DUP1 PUSH4 0xE89341C EQ PUSH2 0x1BC JUMPI DUP1 PUSH4 0x15700052 EQ PUSH2 0x1EC JUMPI DUP1 PUSH4 0x2EB2C2D6 EQ PUSH2 0x208 JUMPI DUP1 PUSH4 0x31AE450B EQ PUSH2 0x224 JUMPI JUMPDEST PUSH1 0x0 DUP1 REVERT JUMPDEST PUSH2 0x176 PUSH1 0x4 DUP1 CALLDATASIZE SUB DUP2 ADD SWAP1 PUSH2 0x171 SWAP2 SWAP1 PUSH2 0x2E24 JUMP JUMPDEST PUSH2 0x4BA JUMP JUMPDEST PUSH1 0x40 MLOAD PUSH2 0x183 SWAP2 SWAP1 PUSH2 0x2E73 JUMP JUMPDEST PUSH1 0x40 MLOAD DUP1 SWAP2 SUB SWAP1 RETURN JUMPDEST PUSH2 0x1A6 PUSH1 0x4 DUP1 CALLDATASIZE SUB DUP2 ADD SWAP1 PUSH2 0x1A1 SWAP2 SWAP1 PUSH2 0x2EE6 JUMP JUMPDEST PUSH2 0x583 JUMP JUMPDEST PUSH1 0x40 MLOAD PUSH2 0x1B3 SWAP2 SWAP1 PUSH2 0x2F2E JUMP JUMPDEST PUSH1 0x40 MLOAD DUP1 SWAP2 SUB SWAP1 RETURN JUMPDEST PUSH2 0x1D6 PUSH1 0x4 DUP1 CALLDATASIZE SUB DUP2 ADD SWAP1 PUSH2 0x1D1 SWAP2 SWAP1 PUSH2 0x2F49 JUMP JUMPDEST PUSH2 0x665 JUMP JUMPDEST PUSH1 0x40 MLOAD PUSH2 0x1E3 SWAP2 SWAP1 PUSH2 0x3006 JUMP JUMPDEST PUSH1 0x40 MLOAD DUP1 SWAP2 SUB SWAP1 RETURN JUMPDEST PUSH2 0x206 PUSH1 0x4 DUP1 CALLDATASIZE SUB DUP2 ADD SWAP1 PUSH2 0x201 SWAP2 SWAP1 PUSH2 0x3028 JUMP JUMPDEST PUSH2 0x6F9 JUMP JUMPDEST STOP JUMPDEST PUSH2 0x222 PUSH1 0x4 DUP1 CALLDATASIZE SUB DUP2 ADD SWAP1 PUSH2 0x21D SWAP2 SWAP1 PUSH2 0x3252 JUMP JUMPDEST PUSH2 0x7CD JUMP JUMPDEST STOP JUMPDEST PUSH2 0x22C PUSH2 0x886 JUMP JUMPDEST PUSH1 0x40 MLOAD PUSH2 0x239 SWAP2 SWAP1 PUSH2 0x33DF JUMP JUMPDEST PUSH1 0x40 MLOAD DUP1 SWAP2 SUB SWAP1 RETURN JUMPDEST PUSH2 0x25C PUSH1 0x4 DUP1 CALLDATASIZE SUB DUP2 ADD SWAP1 PUSH2 0x257 SWAP2 SWAP1 PUSH2 0x34C4 JUMP JUMPDEST PUSH2 0x914 JUMP JUMPDEST STOP JUMPDEST PUSH2 0x278 PUSH1 0x4 DUP1 CALLDATASIZE SUB DUP2 ADD SWAP1 PUSH2 0x273 SWAP2 SWAP1 PUSH2 0x350D JUMP JUMPDEST PUSH2 0xB98 JUMP JUMPDEST PUSH1 0x40 MLOAD PUSH2 0x285 SWAP2 SWAP1 PUSH2 0x3643 JUMP JUMPDEST PUSH1 0x40 MLOAD DUP1 SWAP2 SUB SWAP1 RETURN JUMPDEST PUSH2 0x2A8 PUSH1 0x4 DUP1 CALLDATASIZE SUB DUP2 ADD SWAP1 PUSH2 0x2A3 SWAP2 SWAP1 PUSH2 0x3665 JUMP JUMPDEST PUSH2 0xCB1 JUMP JUMPDEST STOP JUMPDEST PUSH2 0x2C4 PUSH1 0x4 DUP1 CALLDATASIZE SUB DUP2 ADD SWAP1 PUSH2 0x2BF SWAP2 SWAP1 PUSH2 0x375C JUMP JUMPDEST PUSH2 0xE3D JUMP JUMPDEST STOP JUMPDEST PUSH2 0x2E0 PUSH1 0x4 DUP1 CALLDATASIZE SUB DUP2 ADD SWAP1 PUSH2 0x2DB SWAP2 SWAP1 PUSH2 0x2F49 JUMP JUMPDEST PUSH2 0x10FD JUMP JUMPDEST PUSH1 0x40 MLOAD PUSH2 0x2ED SWAP2 SWAP1 PUSH2 0x2E73 JUMP JUMPDEST PUSH1 0x40 MLOAD DUP1 SWAP2 SUB SWAP1 RETURN JUMPDEST PUSH2 0x310 PUSH1 0x4 DUP1 CALLDATASIZE SUB DUP2 ADD SWAP1 PUSH2 0x30B SWAP2 SWAP1 PUSH2 0x37C4 JUMP JUMPDEST PUSH2 0x111A JUMP JUMPDEST STOP JUMPDEST PUSH2 0x31A PUSH2 0x12F7 JUMP JUMPDEST PUSH1 0x40 MLOAD PUSH2 0x327 SWAP2 SWAP1 PUSH2 0x383A JUMP JUMPDEST PUSH1 0x40 MLOAD DUP1 SWAP2 SUB SWAP1 RETURN JUMPDEST PUSH2 0x34A PUSH1 0x4 DUP1 CALLDATASIZE SUB DUP2 ADD SWAP1 PUSH2 0x345 SWAP2 SWAP1 PUSH2 0x34C4 JUMP JUMPDEST PUSH2 0x1321 JUMP JUMPDEST STOP JUMPDEST PUSH2 0x366 PUSH1 0x4 DUP1 CALLDATASIZE SUB DUP2 ADD SWAP1 PUSH2 0x361 SWAP2 SWAP1 PUSH2 0x3881 JUMP JUMPDEST PUSH2 0x1451 JUMP JUMPDEST STOP JUMPDEST PUSH2 0x382 PUSH1 0x4 DUP1 CALLDATASIZE SUB DUP2 ADD SWAP1 PUSH2 0x37D SWAP2 SWAP1 PUSH2 0x38C1 JUMP JUMPDEST PUSH2 0x1467 JUMP JUMPDEST STOP JUMPDEST PUSH2 0x39E PUSH1 0x4 DUP1 CALLDATASIZE SUB DUP2 ADD SWAP1 PUSH2 0x399 SWAP2 SWAP1 PUSH2 0x2F49 JUMP JUMPDEST PUSH2 0x1514 JUMP JUMPDEST PUSH1 0x40 MLOAD PUSH2 0x3AD SWAP4 SWAP3 SWAP2 SWAP1 PUSH2 0x38EE JUMP JUMPDEST PUSH1 0x40 MLOAD DUP1 SWAP2 SUB SWAP1 RETURN JUMPDEST PUSH2 0x3BE PUSH2 0x16AB JUMP JUMPDEST PUSH1 0x40 MLOAD PUSH2 0x3CB SWAP2 SWAP1 PUSH2 0x2F2E JUMP JUMPDEST PUSH1 0x40 MLOAD DUP1 SWAP2 SUB SWAP1 RETURN JUMPDEST PUSH2 0x3DC PUSH2 0x16C2 JUMP JUMPDEST PUSH1 0x40 MLOAD PUSH2 0x3E9 SWAP2 SWAP1 PUSH2 0x2F2E JUMP JUMPDEST PUSH1 0x40 MLOAD DUP1 SWAP2 SUB SWAP1 RETURN JUMPDEST PUSH2 0x40C PUSH1 0x4 DUP1 CALLDATASIZE SUB DUP2 ADD SWAP1 PUSH2 0x407 SWAP2 SWAP1 PUSH2 0x38C1 JUMP JUMPDEST PUSH2 0x16D9 JUMP JUMPDEST STOP JUMPDEST PUSH2 0x428 PUSH1 0x4 DUP1 CALLDATASIZE SUB DUP2 ADD SWAP1 PUSH2 0x423 SWAP2 SWAP1 PUSH2 0x2F49 JUMP JUMPDEST PUSH2 0x1786 JUMP JUMPDEST PUSH1 0x40 MLOAD PUSH2 0x435 SWAP2 SWAP1 PUSH2 0x2E73 JUMP JUMPDEST PUSH1 0x40 MLOAD DUP1 SWAP2 SUB SWAP1 RETURN JUMPDEST PUSH2 0x458 PUSH1 0x4 DUP1 CALLDATASIZE SUB DUP2 ADD SWAP1 PUSH2 0x453 SWAP2 SWAP1 PUSH2 0x392C JUMP JUMPDEST PUSH2 0x17A2 JUMP JUMPDEST PUSH1 0x40 MLOAD PUSH2 0x465 SWAP2 SWAP1 PUSH2 0x2F2E JUMP JUMPDEST PUSH1 0x40 MLOAD DUP1 SWAP2 SUB SWAP1 RETURN JUMPDEST PUSH2 0x488 PUSH1 0x4 DUP1 CALLDATASIZE SUB DUP2 ADD SWAP1 PUSH2 0x483 SWAP2 SWAP1 PUSH2 0x396C JUMP JUMPDEST PUSH2 0x1836 JUMP JUMPDEST STOP JUMPDEST PUSH2 0x4A4 PUSH1 0x4 DUP1 CALLDATASIZE SUB DUP2 ADD SWAP1 PUSH2 0x49F SWAP2 SWAP1 PUSH2 0x2F49 JUMP JUMPDEST PUSH2 0x18EF JUMP JUMPDEST PUSH1 0x40 MLOAD PUSH2 0x4B1 SWAP2 SWAP1 PUSH2 0x2F2E JUMP JUMPDEST PUSH1 0x40 MLOAD DUP1 SWAP2 SUB SWAP1 RETURN JUMPDEST PUSH1 0x0 DUP1 PUSH20 0xFFFFFFFFFFFFFFFFFFFFFFFFFFFFFFFFFFFFFFFF AND DUP4 PUSH20 0xFFFFFFFFFFFFFFFFFFFFFFFFFFFFFFFFFFFFFFFF AND SUB PUSH2 0x52A JUMPI PUSH1 0x40 MLOAD PUSH32 0x8C379A000000000000000000000000000000000000000000000000000000000 DUP2 MSTORE PUSH1 0x4 ADD PUSH2 0x521 SWAP1 PUSH2 0x3A75 JUMP JUMPDEST PUSH1 0x40 MLOAD DUP1 SWAP2 SUB SWAP1 REVERT JUMPDEST PUSH1 0x2 PUSH1 0x0 DUP4 DUP2 MSTORE PUSH1 0x20 ADD SWAP1 DUP2 MSTORE PUSH1 0x20 ADD PUSH1 0x0 KECCAK256 PUSH1 0x0 DUP5 PUSH20 0xFFFFFFFFFFFFFFFFFFFFFFFFFFFFFFFFFFFFFFFF AND PUSH20 0xFFFFFFFFFFFFFFFFFFFFFFFFFFFFFFFFFFFFFFFF AND DUP2 MSTORE PUSH1 0x20 ADD SWAP1 DUP2 MSTORE PUSH1 0x20 ADD PUSH1 0x0 KECCAK256 SLOAD SWAP1 POP SWAP3 SWAP2 POP POP JUMP JUMPDEST PUSH1 0x0 PUSH32 0xD9B67A2600000000000000000000000000000000000000000000000000000000 PUSH28 0xFFFFFFFFFFFFFFFFFFFFFFFFFFFFFFFFFFFFFFFFFFFFFFFFFFFFFFFF NOT AND DUP3 PUSH28 0xFFFFFFFFFFFFFFFFFFFFFFFFFFFFFFFFFFFFFFFFFFFFFFFFFFFFFFFF NOT AND EQ DUP1 PUSH2 0x64E JUMPI POP PUSH32 0xE89341C00000000000000000000000000000000000000000000000000000000 PUSH28 0xFFFFFFFFFFFFFFFFFFFFFFFFFFFFFFFFFFFFFFFFFFFFFFFFFFFFFFFF NOT AND DUP3 PUSH28 0xFFFFFFFFFFFFFFFFFFFFFFFFFFFFFFFFFFFFFFFFFFFFFFFFFFFFFFFF NOT AND EQ JUMPDEST DUP1 PUSH2 0x65E JUMPI POP PUSH2 0x65D DUP3 PUSH2 0x1AE0 JUMP JUMPDEST JUMPDEST SWAP1 POP SWAP2 SWAP1 POP JUMP JUMPDEST PUSH1 0x60 PUSH1 0x4 DUP1 SLOAD PUSH2 0x674 SWAP1 PUSH2 0x3AC4 JUMP JUMPDEST DUP1 PUSH1 0x1F ADD PUSH1 0x20 DUP1 SWAP2 DIV MUL PUSH1 0x20 ADD PUSH1 0x40 MLOAD SWAP1 DUP2 ADD PUSH1 0x40 MSTORE DUP1 SWAP3 SWAP2 SWAP1 DUP2 DUP2 MSTORE PUSH1 0x20 ADD DUP3 DUP1 SLOAD PUSH2 0x6A0 SWAP1 PUSH2 0x3AC4 JUMP JUMPDEST DUP1 ISZERO PUSH2 0x6ED JUMPI DUP1 PUSH1 0x1F LT PUSH2 0x6C2 JUMPI PUSH2 0x100 DUP1 DUP4 SLOAD DIV MUL DUP4 MSTORE SWAP2 PUSH1 0x20 ADD SWAP2 PUSH2 0x6ED JUMP JUMPDEST DUP3 ADD SWAP2 SWAP1 PUSH1 0x0 MSTORE PUSH1 0x20 PUSH1 0x0 KECCAK256 SWAP1 JUMPDEST DUP2 SLOAD DUP2 MSTORE SWAP1 PUSH1 0x1 ADD SWAP1 PUSH1 0x20 ADD DUP1 DUP4 GT PUSH2 0x6D0 JUMPI DUP3 SWAP1 SUB PUSH1 0x1F AND DUP3 ADD SWAP2 JUMPDEST POP POP POP POP POP SWAP1 POP SWAP2 SWAP1 POP JUMP JUMPDEST PUSH1 0x7 PUSH1 0x0 SWAP1 SLOAD SWAP1 PUSH2 0x100 EXP SWAP1 DIV PUSH20 0xFFFFFFFFFFFFFFFFFFFFFFFFFFFFFFFFFFFFFFFF AND PUSH20 0xFFFFFFFFFFFFFFFFFFFFFFFFFFFFFFFFFFFFFFFF AND CALLER PUSH20 0xFFFFFFFFFFFFFFFFFFFFFFFFFFFFFFFFFFFFFFFF AND EQ PUSH2 0x789 JUMPI PUSH1 0x40 MLOAD PUSH32 0x8C379A000000000000000000000000000000000000000000000000000000000 DUP2 MSTORE PUSH1 0x4 ADD PUSH2 0x780 SWAP1 PUSH2 0x3B41 JUMP JUMPDEST PUSH1 0x40 MLOAD DUP1 SWAP2 SUB SWAP1 REVERT JUMPDEST DUP1 PUSH1 0x7 PUSH1 0x0 PUSH2 0x100 EXP DUP2 SLOAD DUP2 PUSH20 0xFFFFFFFFFFFFFFFFFFFFFFFFFFFFFFFFFFFFFFFF MUL NOT AND SWAP1 DUP4 PUSH20 0xFFFFFFFFFFFFFFFFFFFFFFFFFFFFFFFFFFFFFFFF AND MUL OR SWAP1 SSTORE POP POP JUMP JUMPDEST PUSH1 0x5 PUSH1 0x0 SWAP1 SLOAD SWAP1 PUSH2 0x100 EXP SWAP1 DIV PUSH1 0xFF AND DUP1 ISZERO PUSH2 0x833 JUMPI POP PUSH2 0x7EC PUSH2 0x1B4A JUMP JUMPDEST PUSH20 0xFFFFFFFFFFFFFFFFFFFFFFFFFFFFFFFFFFFFFFFF AND DUP6 PUSH20 0xFFFFFFFFFFFFFFFFFFFFFFFFFFFFFFFFFFFFFFFF AND EQ DUP1 PUSH2 0x832 JUMPI POP PUSH2 0x831 DUP6 PUSH2 0x82C PUSH2 0x1B4A JUMP JUMPDEST PUSH2 0x17A2 JUMP JUMPDEST JUMPDEST JUMPDEST PUSH2 0x872 JUMPI PUSH1 0x40 MLOAD PUSH32 0x8C379A000000000000000000000000000000000000000000000000000000000 DUP2 MSTORE PUSH1 0x4 ADD PUSH2 0x869 SWAP1 PUSH2 0x3BD3 JUMP JUMPDEST PUSH1 0x40 MLOAD DUP1 SWAP2 SUB SWAP1 REVERT JUMPDEST PUSH2 0x87F DUP6 DUP6 DUP6 DUP6 DUP6 PUSH2 0x1B52 JUMP JUMPDEST POP POP POP POP POP JUMP JUMPDEST PUSH1 0x60 PUSH1 0x6 DUP1 SLOAD DUP1 PUSH1 0x20 MUL PUSH1 0x20 ADD PUSH1 0x40 MLOAD SWAP1 DUP2 ADD PUSH1 0x40 MSTORE DUP1 SWAP3 SWAP2 SWAP1 DUP2 DUP2 MSTORE PUSH1 0x20 ADD DUP3 DUP1 SLOAD DUP1 ISZERO PUSH2 0x90A JUMPI PUSH1 0x20 MUL DUP3 ADD SWAP2 SWAP1 PUSH1 0x0 MSTORE PUSH1 0x20 PUSH1 0x0 KECCAK256 SWAP1 JUMPDEST DUP2 PUSH1 0x0 SWAP1 SLOAD SWAP1 PUSH2 0x100 EXP SWAP1 DIV PUSH20 0xFFFFFFFFFFFFFFFFFFFFFFFFFFFFFFFFFFFFFFFF AND PUSH20 0xFFFFFFFFFFFFFFFFFFFFFFFFFFFFFFFFFFFFFFFF AND DUP2 MSTORE PUSH1 0x20 ADD SWAP1 PUSH1 0x1 ADD SWAP1 DUP1 DUP4 GT PUSH2 0x8C0 JUMPI JUMPDEST POP POP POP POP POP SWAP1 POP SWAP1 JUMP JUMPDEST PUSH1 0x7 PUSH1 0x0 SWAP1 SLOAD SWAP1 PUSH2 0x100 EXP SWAP1 DIV PUSH20 0xFFFFFFFFFFFFFFFFFFFFFFFFFFFFFFFFFFFFFFFF AND PUSH20 0xFFFFFFFFFFFFFFFFFFFFFFFFFFFFFFFFFFFFFFFF AND CALLER PUSH20 0xFFFFFFFFFFFFFFFFFFFFFFFFFFFFFFFFFFFFFFFF AND EQ PUSH2 0x9A4 JUMPI PUSH1 0x40 MLOAD PUSH32 0x8C379A000000000000000000000000000000000000000000000000000000000 DUP2 MSTORE PUSH1 0x4 ADD PUSH2 0x99B SWAP1 PUSH2 0x3B41 JUMP JUMPDEST PUSH1 0x40 MLOAD DUP1 SWAP2 SUB SWAP1 REVERT JUMPDEST PUSH1 0x0 JUMPDEST DUP2 MLOAD DUP2 LT ISZERO PUSH2 0xB94 JUMPI PUSH1 0x0 JUMPDEST PUSH1 0x6 DUP1 SLOAD SWAP1 POP DUP2 LT ISZERO PUSH2 0xB80 JUMPI PUSH1 0x6 DUP2 DUP2 SLOAD DUP2 LT PUSH2 0x9D4 JUMPI PUSH2 0x9D3 PUSH2 0x3BF3 JUMP JUMPDEST JUMPDEST SWAP1 PUSH1 0x0 MSTORE PUSH1 0x20 PUSH1 0x0 KECCAK256 ADD PUSH1 0x0 SWAP1 SLOAD SWAP1 PUSH2 0x100 EXP SWAP1 DIV PUSH20 0xFFFFFFFFFFFFFFFFFFFFFFFFFFFFFFFFFFFFFFFF AND PUSH20 0xFFFFFFFFFFFFFFFFFFFFFFFFFFFFFFFFFFFFFFFF AND DUP4 DUP4 DUP2 MLOAD DUP2 LT PUSH2 0xA28 JUMPI PUSH2 0xA27 PUSH2 0x3BF3 JUMP JUMPDEST JUMPDEST PUSH1 0x20 MUL PUSH1 0x20 ADD ADD MLOAD PUSH20 0xFFFFFFFFFFFFFFFFFFFFFFFFFFFFFFFFFFFFFFFF AND SUB PUSH2 0xB6D JUMPI PUSH1 0x0 DUP2 SWAP1 POP JUMPDEST PUSH1 0x1 PUSH1 0x6 DUP1 SLOAD SWAP1 POP PUSH2 0xA63 SWAP2 SWAP1 PUSH2 0x3C51 JUMP JUMPDEST DUP2 LT ISZERO PUSH2 0xB24 JUMPI PUSH1 0x6 PUSH1 0x1 DUP3 PUSH2 0xA79 SWAP2 SWAP1 PUSH2 0x3C85 JUMP JUMPDEST DUP2 SLOAD DUP2 LT PUSH2 0xA8A JUMPI PUSH2 0xA89 PUSH2 0x3BF3 JUMP JUMPDEST JUMPDEST SWAP1 PUSH1 0x0 MSTORE PUSH1 0x20 PUSH1 0x0 KECCAK256 ADD PUSH1 0x0 SWAP1 SLOAD SWAP1 PUSH2 0x100 EXP SWAP1 DIV PUSH20 0xFFFFFFFFFFFFFFFFFFFFFFFFFFFFFFFFFFFFFFFF AND PUSH1 0x6 DUP3 DUP2 SLOAD DUP2 LT PUSH2 0xAC9 JUMPI PUSH2 0xAC8 PUSH2 0x3BF3 JUMP JUMPDEST JUMPDEST SWAP1 PUSH1 0x0 MSTORE PUSH1 0x20 PUSH1 0x0 KECCAK256 ADD PUSH1 0x0 PUSH2 0x100 EXP DUP2 SLOAD DUP2 PUSH20 0xFFFFFFFFFFFFFFFFFFFFFFFFFFFFFFFFFFFFFFFF MUL NOT AND SWAP1 DUP4 PUSH20 0xFFFFFFFFFFFFFFFFFFFFFFFFFFFFFFFFFFFFFFFF AND MUL OR SWAP1 SSTORE POP DUP1 DUP1 PUSH2 0xB1C SWAP1 PUSH2 0x3CB9 JUMP JUMPDEST SWAP2 POP POP PUSH2 0xA51 JUMP JUMPDEST PUSH1 0x6 DUP1 SLOAD DUP1 PUSH2 0xB36 JUMPI PUSH2 0xB35 PUSH2 0x3D01 JUMP JUMPDEST JUMPDEST PUSH1 0x1 SWAP1 SUB DUP2 DUP2 SWAP1 PUSH1 0x0 MSTORE PUSH1 0x20 PUSH1 0x0 KECCAK256 ADD PUSH1 0x0 PUSH2 0x100 EXP DUP2 SLOAD SWAP1 PUSH20 0xFFFFFFFFFFFFFFFFFFFFFFFFFFFFFFFFFFFFFFFF MUL NOT AND SWAP1 SSTORE SWAP1 SSTORE POP JUMPDEST DUP1 DUP1 PUSH2 0xB78 SWAP1 PUSH2 0x3CB9 JUMP JUMPDEST SWAP2 POP POP PUSH2 0x9B3 JUMP JUMPDEST POP DUP1 DUP1 PUSH2 0xB8C SWAP1 PUSH2 0x3CB9 JUMP JUMPDEST SWAP2 POP POP PUSH2 0x9A7 JUMP JUMPDEST POP POP JUMP JUMPDEST PUSH1 0x60 DUP2 MLOAD DUP4 MLOAD EQ PUSH2 0xBDE JUMPI PUSH1 0x40 MLOAD PUSH32 0x8C379A000000000000000000000000000000000000000000000000000000000 DUP2 MSTORE PUSH1 0x4 ADD PUSH2 0xBD5 SWAP1 PUSH2 0x3DA2 JUMP JUMPDEST PUSH1 0x40 MLOAD DUP1 SWAP2 SUB SWAP1 REVERT JUMPDEST PUSH1 0x0 DUP4 MLOAD PUSH8 0xFFFFFFFFFFFFFFFF DUP2 GT ISZERO PUSH2 0xBFB JUMPI PUSH2 0xBFA PUSH2 0x305A JUMP JUMPDEST JUMPDEST PUSH1 0x40 MLOAD SWAP1 DUP1 DUP3 MSTORE DUP1 PUSH1 0x20 MUL PUSH1 0x20 ADD DUP3 ADD PUSH1 0x40 MSTORE DUP1 ISZERO PUSH2 0xC29 JUMPI DUP2 PUSH1 0x20 ADD PUSH1 0x20 DUP3 MUL DUP1 CALLDATASIZE DUP4 CALLDATACOPY DUP1 DUP3 ADD SWAP2 POP POP SWAP1 POP JUMPDEST POP SWAP1 POP PUSH1 0x0 JUMPDEST DUP5 MLOAD DUP2 LT ISZERO PUSH2 0xCA6 JUMPI PUSH2 0xC76 DUP6 DUP3 DUP2 MLOAD DUP2 LT PUSH2 0xC4E JUMPI PUSH2 0xC4D PUSH2 0x3BF3 JUMP JUMPDEST JUMPDEST PUSH1 0x20 MUL PUSH1 0x20 ADD ADD MLOAD DUP6 DUP4 DUP2 MLOAD DUP2 LT PUSH2 0xC69 JUMPI PUSH2 0xC68 PUSH2 0x3BF3 JUMP JUMPDEST JUMPDEST PUSH1 0x20 MUL PUSH1 0x20 ADD ADD MLOAD PUSH2 0x4BA JUMP JUMPDEST DUP3 DUP3 DUP2 MLOAD DUP2 LT PUSH2 0xC89 JUMPI PUSH2 0xC88 PUSH2 0x3BF3 JUMP JUMPDEST JUMPDEST PUSH1 0x20 MUL PUSH1 0x20 ADD ADD DUP2 DUP2 MSTORE POP POP DUP1 PUSH2 0xC9F SWAP1 PUSH2 0x3CB9 JUMP JUMPDEST SWAP1 POP PUSH2 0xC2F JUMP JUMPDEST POP DUP1 SWAP2 POP POP SWAP3 SWAP2 POP POP JUMP JUMPDEST PUSH1 0x0 PUSH1 0x7 PUSH1 0x0 SWAP1 SLOAD SWAP1 PUSH2 0x100 EXP SWAP1 DIV PUSH20 0xFFFFFFFFFFFFFFFFFFFFFFFFFFFFFFFFFFFFFFFF AND PUSH20 0xFFFFFFFFFFFFFFFFFFFFFFFFFFFFFFFFFFFFFFFF AND CALLER PUSH20 0xFFFFFFFFFFFFFFFFFFFFFFFFFFFFFFFFFFFFFFFF AND EQ SWAP1 POP DUP1 PUSH2 0xDAA JUMPI PUSH1 0x0 JUMPDEST PUSH1 0x6 DUP1 SLOAD SWAP1 POP DUP2 LT ISZERO PUSH2 0xDA8 JUMPI PUSH1 0x6 DUP2 DUP2 SLOAD DUP2 LT PUSH2 0xD2F JUMPI PUSH2 0xD2E PUSH2 0x3BF3 JUMP JUMPDEST JUMPDEST SWAP1 PUSH1 0x0 MSTORE PUSH1 0x20 PUSH1 0x0 KECCAK256 ADD PUSH1 0x0 SWAP1 SLOAD SWAP1 PUSH2 0x100 EXP SWAP1 DIV PUSH20 0xFFFFFFFFFFFFFFFFFFFFFFFFFFFFFFFFFFFFFFFF AND PUSH20 0xFFFFFFFFFFFFFFFFFFFFFFFFFFFFFFFFFFFFFFFF AND CALLER PUSH20 0xFFFFFFFFFFFFFFFFFFFFFFFFFFFFFFFFFFFFFFFF AND SUB PUSH2 0xD95 JUMPI PUSH1 0x1 SWAP2 POP PUSH2 0xDA8 JUMP JUMPDEST DUP1 DUP1 PUSH2 0xDA0 SWAP1 PUSH2 0x3CB9 JUMP JUMPDEST SWAP2 POP POP PUSH2 0xD0E JUMP JUMPDEST POP JUMPDEST DUP1 PUSH2 0xDEA JUMPI PUSH1 0x40 MLOAD PUSH32 0x8C379A000000000000000000000000000000000000000000000000000000000 DUP2 MSTORE PUSH1 0x4 ADD PUSH2 0xDE1 SWAP1 PUSH2 0x3E0E JUMP JUMPDEST PUSH1 0x40 MLOAD DUP1 SWAP2 SUB SWAP1 REVERT JUMPDEST PUSH1 0x0 DUP6 MLOAD SWAP1 POP PUSH1 0x0 JUMPDEST DUP2 DUP2 LT ISZERO PUSH2 0xE34 JUMPI PUSH2 0xE21 DUP8 DUP3 DUP2 MLOAD DUP2 LT PUSH2 0xE11 JUMPI PUSH2 0xE10 PUSH2 0x3BF3 JUMP JUMPDEST JUMPDEST PUSH1 0x20 MUL PUSH1 0x20 ADD ADD MLOAD DUP8 DUP8 DUP8 PUSH2 0x1EC5 JUMP JUMPDEST DUP1 DUP1 PUSH2 0xE2C SWAP1 PUSH2 0x3CB9 JUMP JUMPDEST SWAP2 POP POP PUSH2 0xDF3 JUMP JUMPDEST POP POP POP POP POP POP POP JUMP JUMPDEST PUSH1 0x0 PUSH1 0x9 PUSH1 0x0 DUP5 DUP2 MSTORE PUSH1 0x20 ADD SWAP1 DUP2 MSTORE PUSH1 0x20 ADD PUSH1 0x0 KECCAK256 PUSH1 0x40 MLOAD DUP1 PUSH1 0x80 ADD PUSH1 0x40 MSTORE SWAP1 DUP2 PUSH1 0x0 DUP3 ADD PUSH1 0x0 SWAP1 SLOAD SWAP1 PUSH2 0x100 EXP SWAP1 DIV PUSH20 0xFFFFFFFFFFFFFFFFFFFFFFFFFFFFFFFFFFFFFFFF AND PUSH20 0xFFFFFFFFFFFFFFFFFFFFFFFFFFFFFFFFFFFFFFFF AND PUSH20 0xFFFFFFFFFFFFFFFFFFFFFFFFFFFFFFFFFFFFFFFF AND DUP2 MSTORE PUSH1 0x20 ADD PUSH1 0x0 DUP3 ADD PUSH1 0x14 SWAP1 SLOAD SWAP1 PUSH2 0x100 EXP SWAP1 DIV PUSH1 0xFF AND PUSH1 0x1 DUP2 GT ISZERO PUSH2 0xED8 JUMPI PUSH2 0xED7 PUSH2 0x3E2E JUMP JUMPDEST JUMPDEST PUSH1 0x1 DUP2 GT ISZERO PUSH2 0xEEA JUMPI PUSH2 0xEE9 PUSH2 0x3E2E JUMP JUMPDEST JUMPDEST DUP2 MSTORE PUSH1 0x20 ADD PUSH1 0x1 DUP3 ADD SLOAD DUP2 MSTORE PUSH1 0x20 ADD PUSH1 0x2 DUP3 ADD SLOAD DUP2 MSTORE POP POP SWAP1 POP PUSH1 0x0 PUSH1 0x1 DUP2 GT ISZERO PUSH2 0xF18 JUMPI PUSH2 0xF17 PUSH2 0x3E2E JUMP JUMPDEST JUMPDEST DUP2 PUSH1 0x20 ADD MLOAD PUSH1 0x1 DUP2 GT ISZERO PUSH2 0xF2F JUMPI PUSH2 0xF2E PUSH2 0x3E2E JUMP JUMPDEST JUMPDEST EQ PUSH2 0xF66 JUMPI PUSH1 0x40 MLOAD PUSH32 0xE1B6C09100000000000000000000000000000000000000000000000000000000 DUP2 MSTORE PUSH1 0x4 ADD PUSH1 0x40 MLOAD DUP1 SWAP2 SUB SWAP1 REVERT JUMPDEST PUSH1 0xA PUSH1 0x0 DUP6 DUP2 MSTORE PUSH1 0x20 ADD SWAP1 DUP2 MSTORE PUSH1 0x20 ADD PUSH1 0x0 KECCAK256 PUSH1 0x0 SWAP1 SLOAD SWAP1 PUSH2 0x100 EXP SWAP1 DIV PUSH1 0xFF AND ISZERO PUSH2 0xFBE JUMPI PUSH1 0x40 MLOAD PUSH32 0x948D067400000000000000000000000000000000000000000000000000000000 DUP2 MSTORE PUSH1 0x4 ADD PUSH1 0x40 MLOAD DUP1 SWAP2 SUB SWAP1 REVERT JUMPDEST PUSH1 0x0 PUSH2 0xFC9 DUP5 PUSH2 0x10FD JUMP JUMPDEST SWAP1 POP PUSH1 0x0 PUSH2 0xFD6 DUP6 PUSH2 0x1786 JUMP JUMPDEST SWAP1 POP PUSH1 0x0 PUSH1 0x8 PUSH1 0x0 DUP5 DUP2 MSTORE PUSH1 0x20 ADD SWAP1 DUP2 MSTORE PUSH1 0x20 ADD PUSH1 0x0 KECCAK256 PUSH1 0x0 SWAP1 SLOAD SWAP1 PUSH2 0x100 EXP SWAP1 DIV PUSH20 0xFFFFFFFFFFFFFFFFFFFFFFFFFFFFFFFFFFFFFFFF AND SWAP1 POP PUSH2 0x101E DUP9 DUP4 DUP10 DUP10 DUP10 DUP7 PUSH2 0x21B0 JUMP JUMPDEST PUSH1 0x1 PUSH1 0xA PUSH1 0x0 DUP10 DUP2 MSTORE PUSH1 0x20 ADD SWAP1 DUP2 MSTORE PUSH1 0x20 ADD PUSH1 0x0 KECCAK256 PUSH1 0x0 PUSH2 0x100 EXP DUP2 SLOAD DUP2 PUSH1 0xFF MUL NOT AND SWAP1 DUP4 ISZERO ISZERO MUL OR SWAP1 SSTORE POP PUSH1 0x1 PUSH2 0xFFF DUP10 PUSH1 0x0 SHR AND SUB PUSH2 0x108C JUMPI PUSH1 0x1 PUSH1 0x9 PUSH1 0x0 DUP9 DUP2 MSTORE PUSH1 0x20 ADD SWAP1 DUP2 MSTORE PUSH1 0x20 ADD PUSH1 0x0 KECCAK256 PUSH1 0x1 ADD PUSH1 0x0 DUP3 DUP3 SLOAD PUSH2 0x1080 SWAP2 SWAP1 PUSH2 0x3C85 JUMP JUMPDEST SWAP3 POP POP DUP2 SWAP1 SSTORE POP PUSH2 0x10BB JUMP JUMPDEST PUSH1 0x1 PUSH1 0x9 PUSH1 0x0 DUP9 DUP2 MSTORE PUSH1 0x20 ADD SWAP1 DUP2 MSTORE PUSH1 0x20 ADD PUSH1 0x0 KECCAK256 PUSH1 0x2 ADD PUSH1 0x0 DUP3 DUP3 SLOAD PUSH2 0x10B3 SWAP2 SWAP1 PUSH2 0x3C85 JUMP JUMPDEST SWAP3 POP POP DUP2 SWAP1 SSTORE POP JUMPDEST DUP6 PUSH32 0x9259C591AF3680137739DC2B275C388EB1639A143B49022E7062FA162F14776D DUP10 PUSH1 0x40 MLOAD PUSH2 0x10EB SWAP2 SWAP1 PUSH2 0x3E6C JUMP JUMPDEST PUSH1 0x40 MLOAD DUP1 SWAP2 SUB SWAP1 LOG2 POP POP POP POP POP POP POP POP JUMP JUMPDEST PUSH1 0x0 PUSH1 0x1 PUSH1 0x0 DUP4 DUP2 MSTORE PUSH1 0x20 ADD SWAP1 DUP2 MSTORE PUSH1 0x20 ADD PUSH1 0x0 KECCAK256 SLOAD SWAP1 POP SWAP2 SWAP1 POP JUMP JUMPDEST PUSH1 0x0 PUSH20 0xFFFFFFFFFFFFFFFFFFFFFFFFFFFFFFFFFFFFFFFF AND PUSH1 0x8 PUSH1 0x0 DUP4 DUP2 MSTORE PUSH1 0x20 ADD SWAP1 DUP2 MSTORE PUSH1 0x20 ADD PUSH1 0x0 KECCAK256 PUSH1 0x0 SWAP1 SLOAD SWAP1 PUSH2 0x100 EXP SWAP1 DIV PUSH20 0xFFFFFFFFFFFFFFFFFFFFFFFFFFFFFFFFFFFFFFFF AND PUSH20 0xFFFFFFFFFFFFFFFFFFFFFFFFFFFFFFFFFFFFFFFF AND SUB PUSH2 0x11B3 JUMPI PUSH1 0x40 MLOAD PUSH32 0xECF64F1200000000000000000000000000000000000000000000000000000000 DUP2 MSTORE PUSH1 0x4 ADD PUSH1 0x40 MLOAD DUP1 SWAP2 SUB SWAP1 REVERT JUMPDEST PUSH2 0x11C0 DUP5 DUP4 DUP4 PUSH1 0x0 PUSH2 0x2379 JUMP JUMPDEST PUSH2 0x11C8 PUSH2 0x2D2C JUMP JUMPDEST DUP4 DUP2 PUSH1 0x0 ADD SWAP1 PUSH20 0xFFFFFFFFFFFFFFFFFFFFFFFFFFFFFFFFFFFFFFFF AND SWAP1 DUP2 PUSH20 0xFFFFFFFFFFFFFFFFFFFFFFFFFFFFFFFFFFFFFFFF AND DUP2 MSTORE POP POP DUP1 PUSH1 0x9 PUSH1 0x0 DUP8 DUP2 MSTORE PUSH1 0x20 ADD SWAP1 DUP2 MSTORE PUSH1 0x20 ADD PUSH1 0x0 KECCAK256 PUSH1 0x0 DUP3 ADD MLOAD DUP2 PUSH1 0x0 ADD PUSH1 0x0 PUSH2 0x100 EXP DUP2 SLOAD DUP2 PUSH20 0xFFFFFFFFFFFFFFFFFFFFFFFFFFFFFFFFFFFFFFFF MUL NOT AND SWAP1 DUP4 PUSH20 0xFFFFFFFFFFFFFFFFFFFFFFFFFFFFFFFFFFFFFFFF AND MUL OR SWAP1 SSTORE POP PUSH1 0x20 DUP3 ADD MLOAD DUP2 PUSH1 0x0 ADD PUSH1 0x14 PUSH2 0x100 EXP DUP2 SLOAD DUP2 PUSH1 0xFF MUL NOT AND SWAP1 DUP4 PUSH1 0x1 DUP2 GT ISZERO PUSH2 0x1286 JUMPI PUSH2 0x1285 PUSH2 0x3E2E JUMP JUMPDEST JUMPDEST MUL OR SWAP1 SSTORE POP PUSH1 0x40 DUP3 ADD MLOAD DUP2 PUSH1 0x1 ADD SSTORE PUSH1 0x60 DUP3 ADD MLOAD DUP2 PUSH1 0x2 ADD SSTORE SWAP1 POP POP DUP4 PUSH20 0xFFFFFFFFFFFFFFFFFFFFFFFFFFFFFFFFFFFFFFFF AND PUSH32 0xB447D309FD3B1A27466CDB08CCC02EE5188E9C71FC58AF042BAFE3E0BB451230 DUP7 PUSH1 0x40 MLOAD PUSH2 0x12E8 SWAP2 SWAP1 PUSH2 0x2E73 JUMP JUMPDEST PUSH1 0x40 MLOAD DUP1 SWAP2 SUB SWAP1 LOG2 POP POP POP POP POP JUMP JUMPDEST PUSH1 0x0 PUSH1 0x7 PUSH1 0x0 SWAP1 SLOAD SWAP1 PUSH2 0x100 EXP SWAP1 DIV PUSH20 0xFFFFFFFFFFFFFFFFFFFFFFFFFFFFFFFFFFFFFFFF AND SWAP1 POP SWAP1 JUMP JUMPDEST PUSH1 0x7 PUSH1 0x0 SWAP1 SLOAD SWAP1 PUSH2 0x100 EXP SWAP1 DIV PUSH20 0xFFFFFFFFFFFFFFFFFFFFFFFFFFFFFFFFFFFFFFFF AND PUSH20 0xFFFFFFFFFFFFFFFFFFFFFFFFFFFFFFFFFFFFFFFF AND CALLER PUSH20 0xFFFFFFFFFFFFFFFFFFFFFFFFFFFFFFFFFFFFFFFF AND EQ PUSH2 0x13B1 JUMPI PUSH1 0x40 MLOAD PUSH32 0x8C379A000000000000000000000000000000000000000000000000000000000 DUP2 MSTORE PUSH1 0x4 ADD PUSH2 0x13A8 SWAP1 PUSH2 0x3B41 JUMP JUMPDEST PUSH1 0x40 MLOAD DUP1 SWAP2 SUB SWAP1 REVERT JUMPDEST PUSH1 0x0 JUMPDEST DUP2 MLOAD DUP2 LT ISZERO PUSH2 0x144D JUMPI PUSH1 0x6 DUP3 DUP3 DUP2 MLOAD DUP2 LT PUSH2 0x13D2 JUMPI PUSH2 0x13D1 PUSH2 0x3BF3 JUMP JUMPDEST JUMPDEST PUSH1 0x20 MUL PUSH1 0x20 ADD ADD MLOAD SWAP1 DUP1 PUSH1 0x1 DUP2 SLOAD ADD DUP1 DUP3 SSTORE DUP1 SWAP2 POP POP PUSH1 0x1 SWAP1 SUB SWAP1 PUSH1 0x0 MSTORE PUSH1 0x20 PUSH1 0x0 KECCAK256 ADD PUSH1 0x0 SWAP1 SWAP2 SWAP1 SWAP2 SWAP1 SWAP2 PUSH2 0x100 EXP DUP2 SLOAD DUP2 PUSH20 0xFFFFFFFFFFFFFFFFFFFFFFFFFFFFFFFFFFFFFFFF MUL NOT AND SWAP1 DUP4 PUSH20 0xFFFFFFFFFFFFFFFFFFFFFFFFFFFFFFFFFFFFFFFF AND MUL OR SWAP1 SSTORE POP DUP1 DUP1 PUSH2 0x1445 SWAP1 PUSH2 0x3CB9 JUMP JUMPDEST SWAP2 POP POP PUSH2 0x13B4 JUMP JUMPDEST POP POP JUMP JUMPDEST PUSH2 0x1463 PUSH2 0x145C PUSH2 0x1B4A JUMP JUMPDEST DUP4 DUP4 PUSH2 0x2441 JUMP JUMPDEST POP POP JUMP JUMPDEST PUSH1 0x7 PUSH1 0x0 SWAP1 SLOAD SWAP1 PUSH2 0x100 EXP SWAP1 DIV PUSH20 0xFFFFFFFFFFFFFFFFFFFFFFFFFFFFFFFFFFFFFFFF AND PUSH20 0xFFFFFFFFFFFFFFFFFFFFFFFFFFFFFFFFFFFFFFFF AND CALLER PUSH20 0xFFFFFFFFFFFFFFFFFFFFFFFFFFFFFFFFFFFFFFFF AND EQ PUSH2 0x14F7 JUMPI PUSH1 0x40 MLOAD PUSH32 0x8C379A000000000000000000000000000000000000000000000000000000000 DUP2 MSTORE PUSH1 0x4 ADD PUSH2 0x14EE SWAP1 PUSH2 0x3B41 JUMP JUMPDEST PUSH1 0x40 MLOAD DUP1 SWAP2 SUB SWAP1 REVERT JUMPDEST DUP1 PUSH1 0x5 PUSH1 0x0 PUSH2 0x100 EXP DUP2 SLOAD DUP2 PUSH1 0xFF MUL NOT AND SWAP1 DUP4 ISZERO ISZERO MUL OR SWAP1 SSTORE POP POP JUMP JUMPDEST PUSH1 0x0 DUP1 PUSH1 0x60 PUSH1 0x0 PUSH1 0x9 PUSH1 0x0 DUP7 DUP2 MSTORE PUSH1 0x20 ADD SWAP1 DUP2 MSTORE PUSH1 0x20 ADD PUSH1 0x0 KECCAK256 PUSH1 0x40 MLOAD DUP1 PUSH1 0x80 ADD PUSH1 0x40 MSTORE SWAP1 DUP2 PUSH1 0x0 DUP3 ADD PUSH1 0x0 SWAP1 SLOAD SWAP1 PUSH2 0x100 EXP SWAP1 DIV PUSH20 0xFFFFFFFFFFFFFFFFFFFFFFFFFFFFFFFFFFFFFFFF AND PUSH20 0xFFFFFFFFFFFFFFFFFFFFFFFFFFFFFFFFFFFFFFFF AND PUSH20 0xFFFFFFFFFFFFFFFFFFFFFFFFFFFFFFFFFFFFFFFF AND DUP2 MSTORE PUSH1 0x20 ADD PUSH1 0x0 DUP3 ADD PUSH1 0x14 SWAP1 SLOAD SWAP1 PUSH2 0x100 EXP SWAP1 DIV PUSH1 0xFF AND PUSH1 0x1 DUP2 GT ISZERO PUSH2 0x15B4 JUMPI PUSH2 0x15B3 PUSH2 0x3E2E JUMP JUMPDEST JUMPDEST PUSH1 0x1 DUP2 GT ISZERO PUSH2 0x15C6 JUMPI PUSH2 0x15C5 PUSH2 0x3E2E JUMP JUMPDEST JUMPDEST DUP2 MSTORE PUSH1 0x20 ADD PUSH1 0x1 DUP3 ADD SLOAD DUP2 MSTORE PUSH1 0x20 ADD PUSH1 0x2 DUP3 ADD SLOAD DUP2 MSTORE POP POP SWAP1 POP PUSH1 0x0 PUSH1 0x1 DUP2 GT ISZERO PUSH2 0x15F4 JUMPI PUSH2 0x15F3 PUSH2 0x3E2E JUMP JUMPDEST JUMPDEST DUP2 PUSH1 0x20 ADD MLOAD PUSH1 0x1 DUP2 GT ISZERO PUSH2 0x160B JUMPI PUSH2 0x160A PUSH2 0x3E2E JUMP JUMPDEST JUMPDEST SUB PUSH2 0x165C JUMPI DUP1 PUSH1 0x40 ADD MLOAD DUP2 PUSH1 0x60 ADD MLOAD PUSH1 0x40 MLOAD DUP1 PUSH1 0x40 ADD PUSH1 0x40 MSTORE DUP1 PUSH1 0x7 DUP2 MSTORE PUSH1 0x20 ADD PUSH32 0x4F6E676F696E6700000000000000000000000000000000000000000000000000 DUP2 MSTORE POP SWAP4 POP SWAP4 POP SWAP4 POP POP PUSH2 0x16A4 JUMP JUMPDEST DUP1 PUSH1 0x40 ADD MLOAD DUP2 PUSH1 0x60 ADD MLOAD PUSH1 0x40 MLOAD DUP1 PUSH1 0x40 ADD PUSH1 0x40 MSTORE DUP1 PUSH1 0x5 DUP2 MSTORE PUSH1 0x20 ADD PUSH32 0x456E646564000000000000000000000000000000000000000000000000000000 DUP2 MSTORE POP SWAP4 POP SWAP4 POP SWAP4 POP POP JUMPDEST SWAP2 SWAP4 SWAP1 SWAP3 POP JUMP JUMPDEST PUSH1 0x0 PUSH1 0x5 PUSH1 0x0 SWAP1 SLOAD SWAP1 PUSH2 0x100 EXP SWAP1 DIV PUSH1 0xFF AND SWAP1 POP SWAP1 JUMP JUMPDEST PUSH1 0x0 PUSH1 0x5 PUSH1 0x1 SWAP1 SLOAD SWAP1 PUSH2 0x100 EXP SWAP1 DIV PUSH1 0xFF AND SWAP1 POP SWAP1 JUMP JUMPDEST PUSH1 0x7 PUSH1 0x0 SWAP1 SLOAD SWAP1 PUSH2 0x100 EXP SWAP1 DIV PUSH20 0xFFFFFFFFFFFFFFFFFFFFFFFFFFFFFFFFFFFFFFFF AND PUSH20 0xFFFFFFFFFFFFFFFFFFFFFFFFFFFFFFFFFFFFFFFF AND CALLER PUSH20 0xFFFFFFFFFFFFFFFFFFFFFFFFFFFFFFFFFFFFFFFF AND EQ PUSH2 0x1769 JUMPI PUSH1 0x40 MLOAD PUSH32 0x8C379A000000000000000000000000000000000000000000000000000000000 DUP2 MSTORE PUSH1 0x4 ADD PUSH2 0x1760 SWAP1 PUSH2 0x3B41 JUMP JUMPDEST PUSH1 0x40 MLOAD DUP1 SWAP2 SUB SWAP1 REVERT JUMPDEST DUP1 PUSH1 0x5 PUSH1 0x1 PUSH2 0x100 EXP DUP2 SLOAD DUP2 PUSH1 0xFF MUL NOT AND SWAP1 DUP4 ISZERO ISZERO MUL OR SWAP1 SSTORE POP POP JUMP JUMPDEST PUSH1 0x0 DUP1 PUSH1 0x0 DUP4 DUP2 MSTORE PUSH1 0x20 ADD SWAP1 DUP2 MSTORE PUSH1 0x20 ADD PUSH1 0x0 KECCAK256 SLOAD SWAP1 POP SWAP2 SWAP1 POP JUMP JUMPDEST PUSH1 0x0 PUSH1 0x3 PUSH1 0x0 DUP5 PUSH20 0xFFFFFFFFFFFFFFFFFFFFFFFFFFFFFFFFFFFFFFFF AND PUSH20 0xFFFFFFFFFFFFFFFFFFFFFFFFFFFFFFFFFFFFFFFF AND DUP2 MSTORE PUSH1 0x20 ADD SWAP1 DUP2 MSTORE PUSH1 0x20 ADD PUSH1 0x0 KECCAK256 PUSH1 0x0 DUP4 PUSH20 0xFFFFFFFFFFFFFFFFFFFFFFFFFFFFFFFFFFFFFFFF AND PUSH20 0xFFFFFFFFFFFFFFFFFFFFFFFFFFFFFFFFFFFFFFFF AND DUP2 MSTORE PUSH1 0x20 ADD SWAP1 DUP2 MSTORE PUSH1 0x20 ADD PUSH1 0x0 KECCAK256 PUSH1 0x0 SWAP1 SLOAD SWAP1 PUSH2 0x100 EXP SWAP1 DIV PUSH1 0xFF AND SWAP1 POP SWAP3 SWAP2 POP POP JUMP JUMPDEST PUSH1 0x5 PUSH1 0x0 SWAP1 SLOAD SWAP1 PUSH2 0x100 EXP SWAP1 DIV PUSH1 0xFF AND DUP1 ISZERO PUSH2 0x189C JUMPI POP PUSH2 0x1855 PUSH2 0x1B4A JUMP JUMPDEST PUSH20 0xFFFFFFFFFFFFFFFFFFFFFFFFFFFFFFFFFFFFFFFF AND DUP6 PUSH20 0xFFFFFFFFFFFFFFFFFFFFFFFFFFFFFFFFFFFFFFFF AND EQ DUP1 PUSH2 0x189B JUMPI POP PUSH2 0x189A DUP6 PUSH2 0x1895 PUSH2 0x1B4A JUMP JUMPDEST PUSH2 0x17A2 JUMP JUMPDEST JUMPDEST JUMPDEST PUSH2 0x18DB JUMPI PUSH1 0x40 MLOAD PUSH32 0x8C379A000000000000000000000000000000000000000000000000000000000 DUP2 MSTORE PUSH1 0x4 ADD PUSH2 0x18D2 SWAP1 PUSH2 0x3BD3 JUMP JUMPDEST PUSH1 0x40 MLOAD DUP1 SWAP2 SUB SWAP1 REVERT JUMPDEST PUSH2 0x18E8 DUP6 DUP6 DUP6 DUP6 DUP6 PUSH2 0x25AD JUMP JUMPDEST POP POP POP POP POP JUMP JUMPDEST PUSH1 0x0 DUP2 PUSH2 0x18FA PUSH2 0x1B4A JUMP JUMPDEST PUSH20 0xFFFFFFFFFFFFFFFFFFFFFFFFFFFFFFFFFFFFFFFF AND PUSH1 0x9 PUSH1 0x0 DUP4 DUP2 MSTORE PUSH1 0x20 ADD SWAP1 DUP2 MSTORE PUSH1 0x20 ADD PUSH1 0x0 KECCAK256 PUSH1 0x0 ADD PUSH1 0x0 SWAP1 SLOAD SWAP1 PUSH2 0x100 EXP SWAP1 DIV PUSH20 0xFFFFFFFFFFFFFFFFFFFFFFFFFFFFFFFFFFFFFFFF AND PUSH20 0xFFFFFFFFFFFFFFFFFFFFFFFFFFFFFFFFFFFFFFFF AND EQ PUSH2 0x1994 JUMPI PUSH1 0x40 MLOAD PUSH32 0xE4A34E1500000000000000000000000000000000000000000000000000000000 DUP2 MSTORE PUSH1 0x4 ADD PUSH1 0x40 MLOAD DUP1 SWAP2 SUB SWAP1 REVERT JUMPDEST PUSH1 0x0 PUSH1 0x1 DUP2 GT ISZERO PUSH2 0x19A8 JUMPI PUSH2 0x19A7 PUSH2 0x3E2E JUMP JUMPDEST JUMPDEST PUSH1 0x9 PUSH1 0x0 DUP6 DUP2 MSTORE PUSH1 0x20 ADD SWAP1 DUP2 MSTORE PUSH1 0x20 ADD PUSH1 0x0 KECCAK256 PUSH1 0x0 ADD PUSH1 0x14 SWAP1 SLOAD SWAP1 PUSH2 0x100 EXP SWAP1 DIV PUSH1 0xFF AND PUSH1 0x1 DUP2 GT ISZERO PUSH2 0x19DE JUMPI PUSH2 0x19DD PUSH2 0x3E2E JUMP JUMPDEST JUMPDEST EQ PUSH2 0x1A15 JUMPI PUSH1 0x40 MLOAD PUSH32 0xE1B6C09100000000000000000000000000000000000000000000000000000000 DUP2 MSTORE PUSH1 0x4 ADD PUSH1 0x40 MLOAD DUP1 SWAP2 SUB SWAP1 REVERT JUMPDEST PUSH1 0x1 PUSH1 0x9 PUSH1 0x0 DUP6 DUP2 MSTORE PUSH1 0x20 ADD SWAP1 DUP2 MSTORE PUSH1 0x20 ADD PUSH1 0x0 KECCAK256 PUSH1 0x0 ADD PUSH1 0x14 PUSH2 0x100 EXP DUP2 SLOAD DUP2 PUSH1 0xFF MUL NOT AND SWAP1 DUP4 PUSH1 0x1 DUP2 GT ISZERO PUSH2 0x1A4F JUMPI PUSH2 0x1A4E PUSH2 0x3E2E JUMP JUMPDEST JUMPDEST MUL OR SWAP1 SSTORE POP PUSH2 0x1A5C PUSH2 0x1B4A JUMP JUMPDEST PUSH20 0xFFFFFFFFFFFFFFFFFFFFFFFFFFFFFFFFFFFFFFFF AND PUSH32 0xCE994EAD15E72A77A86DDF3B0184783C61C9AF7E3AAE02D7C0BDF3B4268FA188 DUP5 PUSH1 0x40 MLOAD PUSH2 0x1AA1 SWAP2 SWAP1 PUSH2 0x2E73 JUMP JUMPDEST PUSH1 0x40 MLOAD DUP1 SWAP2 SUB SWAP1 LOG2 PUSH1 0x9 PUSH1 0x0 DUP5 DUP2 MSTORE PUSH1 0x20 ADD SWAP1 DUP2 MSTORE PUSH1 0x20 ADD PUSH1 0x0 KECCAK256 PUSH1 0x2 ADD SLOAD PUSH1 0x9 PUSH1 0x0 DUP6 DUP2 MSTORE PUSH1 0x20 ADD SWAP1 DUP2 MSTORE PUSH1 0x20 ADD PUSH1 0x0 KECCAK256 PUSH1 0x1 ADD SLOAD GT SWAP2 POP POP SWAP2 SWAP1 POP JUMP JUMPDEST PUSH1 0x0 PUSH32 0x1FFC9A700000000000000000000000000000000000000000000000000000000 PUSH28 0xFFFFFFFFFFFFFFFFFFFFFFFFFFFFFFFFFFFFFFFFFFFFFFFFFFFFFFFF NOT AND DUP3 PUSH28 0xFFFFFFFFFFFFFFFFFFFFFFFFFFFFFFFFFFFFFFFFFFFFFFFFFFFFFFFF NOT AND EQ SWAP1 POP SWAP2 SWAP1 POP JUMP JUMPDEST PUSH1 0x0 CALLER SWAP1 POP SWAP1 JUMP JUMPDEST PUSH1 0x5 PUSH1 0x0 SWAP1 SLOAD SWAP1 PUSH2 0x100 EXP SWAP1 DIV PUSH1 0xFF AND PUSH2 0x1BA1 JUMPI PUSH1 0x40 MLOAD PUSH32 0x8C379A000000000000000000000000000000000000000000000000000000000 DUP2 MSTORE PUSH1 0x4 ADD PUSH2 0x1B98 SWAP1 PUSH2 0x3ED3 JUMP JUMPDEST PUSH1 0x40 MLOAD DUP1 SWAP2 SUB SWAP1 REVERT JUMPDEST DUP2 MLOAD DUP4 MLOAD EQ PUSH2 0x1BE5 JUMPI PUSH1 0x40 MLOAD PUSH32 0x8C379A000000000000000000000000000000000000000000000000000000000 DUP2 MSTORE PUSH1 0x4 ADD PUSH2 0x1BDC SWAP1 PUSH2 0x3F65 JUMP JUMPDEST PUSH1 0x40 MLOAD DUP1 SWAP2 SUB SWAP1 REVERT JUMPDEST PUSH1 0x0 PUSH20 0xFFFFFFFFFFFFFFFFFFFFFFFFFFFFFFFFFFFFFFFF AND DUP5 PUSH20 0xFFFFFFFFFFFFFFFFFFFFFFFFFFFFFFFFFFFFFFFF AND SUB PUSH2 0x1C54 JUMPI PUSH1 0x40 MLOAD PUSH32 0x8C379A000000000000000000000000000000000000000000000000000000000 DUP2 MSTORE PUSH1 0x4 ADD PUSH2 0x1C4B SWAP1 PUSH2 0x3FF7 JUMP JUMPDEST PUSH1 0x40 MLOAD DUP1 SWAP2 SUB SWAP1 REVERT JUMPDEST PUSH1 0x0 PUSH2 0x1C5E PUSH2 0x1B4A JUMP JUMPDEST SWAP1 POP PUSH2 0x1C6E DUP2 DUP8 DUP8 DUP8 DUP8 DUP8 PUSH2 0x289A JUMP JUMPDEST PUSH1 0x0 JUMPDEST DUP5 MLOAD DUP2 LT ISZERO PUSH2 0x1E22 JUMPI PUSH1 0x0 DUP6 DUP3 DUP2 MLOAD DUP2 LT PUSH2 0x1C8F JUMPI PUSH2 0x1C8E PUSH2 0x3BF3 JUMP JUMPDEST JUMPDEST PUSH1 0x20 MUL PUSH1 0x20 ADD ADD MLOAD SWAP1 POP PUSH1 0x0 DUP6 DUP4 DUP2 MLOAD DUP2 LT PUSH2 0x1CAE JUMPI PUSH2 0x1CAD PUSH2 0x3BF3 JUMP JUMPDEST JUMPDEST PUSH1 0x20 MUL PUSH1 0x20 ADD ADD MLOAD SWAP1 POP PUSH1 0x0 PUSH1 0x2 PUSH1 0x0 DUP5 DUP2 MSTORE PUSH1 0x20 ADD SWAP1 DUP2 MSTORE PUSH1 0x20 ADD PUSH1 0x0 KECCAK256 PUSH1 0x0 DUP12 PUSH20 0xFFFFFFFFFFFFFFFFFFFFFFFFFFFFFFFFFFFFFFFF AND PUSH20 0xFFFFFFFFFFFFFFFFFFFFFFFFFFFFFFFFFFFFFFFF AND DUP2 MSTORE PUSH1 0x20 ADD SWAP1 DUP2 MSTORE PUSH1 0x20 ADD PUSH1 0x0 KECCAK256 SLOAD SWAP1 POP DUP2 DUP2 LT ISZERO PUSH2 0x1D50 JUMPI PUSH1 0x40 MLOAD PUSH32 0x8C379A000000000000000000000000000000000000000000000000000000000 DUP2 MSTORE PUSH1 0x4 ADD PUSH2 0x1D47 SWAP1 PUSH2 0x4089 JUMP JUMPDEST PUSH1 0x40 MLOAD DUP1 SWAP2 SUB SWAP1 REVERT JUMPDEST DUP2 DUP2 SUB PUSH1 0x2 PUSH1 0x0 DUP6 DUP2 MSTORE PUSH1 0x20 ADD SWAP1 DUP2 MSTORE PUSH1 0x20 ADD PUSH1 0x0 KECCAK256 PUSH1 0x0 DUP13 PUSH20 0xFFFFFFFFFFFFFFFFFFFFFFFFFFFFFFFFFFFFFFFF AND PUSH20 0xFFFFFFFFFFFFFFFFFFFFFFFFFFFFFFFFFFFFFFFF AND DUP2 MSTORE PUSH1 0x20 ADD SWAP1 DUP2 MSTORE PUSH1 0x20 ADD PUSH1 0x0 KECCAK256 DUP2 SWAP1 SSTORE POP DUP2 PUSH1 0x2 PUSH1 0x0 DUP6 DUP2 MSTORE PUSH1 0x20 ADD SWAP1 DUP2 MSTORE PUSH1 0x20 ADD PUSH1 0x0 KECCAK256 PUSH1 0x0 DUP12 PUSH20 0xFFFFFFFFFFFFFFFFFFFFFFFFFFFFFFFFFFFFFFFF AND PUSH20 0xFFFFFFFFFFFFFFFFFFFFFFFFFFFFFFFFFFFFFFFF AND DUP2 MSTORE PUSH1 0x20 ADD SWAP1 DUP2 MSTORE PUSH1 0x20 ADD PUSH1 0x0 KECCAK256 PUSH1 0x0 DUP3 DUP3 SLOAD PUSH2 0x1E07 SWAP2 SWAP1 PUSH2 0x3C85 JUMP JUMPDEST SWAP3 POP POP DUP2 SWAP1 SSTORE POP POP POP POP DUP1 PUSH2 0x1E1B SWAP1 PUSH2 0x3CB9 JUMP JUMPDEST SWAP1 POP PUSH2 0x1C71 JUMP JUMPDEST POP DUP5 PUSH20 0xFFFFFFFFFFFFFFFFFFFFFFFFFFFFFFFFFFFFFFFF AND DUP7 PUSH20 0xFFFFFFFFFFFFFFFFFFFFFFFFFFFFFFFFFFFFFFFF AND DUP3 PUSH20 0xFFFFFFFFFFFFFFFFFFFFFFFFFFFFFFFFFFFFFFFF AND PUSH32 0x4A39DC06D4C0DBC64B70AF90FD698A233A518AA5D07E595D983B8C0526C8F7FB DUP8 DUP8 PUSH1 0x40 MLOAD PUSH2 0x1E99 SWAP3 SWAP2 SWAP1 PUSH2 0x40A9 JUMP JUMPDEST PUSH1 0x40 MLOAD DUP1 SWAP2 SUB SWAP1 LOG4 PUSH2 0x1EAF DUP2 DUP8 DUP8 DUP8 DUP8 DUP8 PUSH2 0x28A2 JUMP JUMPDEST PUSH2 0x1EBD DUP2 DUP8 DUP8 DUP8 DUP8 DUP8 PUSH2 0x28AA JUMP JUMPDEST POP POP POP POP POP POP JUMP JUMPDEST PUSH1 0x0 PUSH1 0x7 PUSH1 0x0 SWAP1 SLOAD SWAP1 PUSH2 0x100 EXP SWAP1 DIV PUSH20 0xFFFFFFFFFFFFFFFFFFFFFFFFFFFFFFFFFFFFFFFF AND PUSH20 0xFFFFFFFFFFFFFFFFFFFFFFFFFFFFFFFFFFFFFFFF AND CALLER PUSH20 0xFFFFFFFFFFFFFFFFFFFFFFFFFFFFFFFFFFFFFFFF AND EQ SWAP1 POP DUP1 PUSH2 0x1FBE JUMPI PUSH1 0x0 JUMPDEST PUSH1 0x6 DUP1 SLOAD SWAP1 POP DUP2 LT ISZERO PUSH2 0x1FBC JUMPI PUSH1 0x6 DUP2 DUP2 SLOAD DUP2 LT PUSH2 0x1F43 JUMPI PUSH2 0x1F42 PUSH2 0x3BF3 JUMP JUMPDEST JUMPDEST SWAP1 PUSH1 0x0 MSTORE PUSH1 0x20 PUSH1 0x0 KECCAK256 ADD PUSH1 0x0 SWAP1 SLOAD SWAP1 PUSH2 0x100 EXP SWAP1 DIV PUSH20 0xFFFFFFFFFFFFFFFFFFFFFFFFFFFFFFFFFFFFFFFF AND PUSH20 0xFFFFFFFFFFFFFFFFFFFFFFFFFFFFFFFFFFFFFFFF AND CALLER PUSH20 0xFFFFFFFFFFFFFFFFFFFFFFFFFFFFFFFFFFFFFFFF AND SUB PUSH2 0x1FA9 JUMPI PUSH1 0x1 SWAP2 POP PUSH2 0x1FBC JUMP JUMPDEST DUP1 DUP1 PUSH2 0x1FB4 SWAP1 PUSH2 0x3CB9 JUMP JUMPDEST SWAP2 POP POP PUSH2 0x1F22 JUMP JUMPDEST POP JUMPDEST DUP1 PUSH2 0x1FFE JUMPI PUSH1 0x40 MLOAD PUSH32 0x8C379A000000000000000000000000000000000000000000000000000000000 DUP2 MSTORE PUSH1 0x4 ADD PUSH2 0x1FF5 SWAP1 PUSH2 0x3E0E JUMP JUMPDEST PUSH1 0x40 MLOAD DUP1 SWAP2 SUB SWAP1 REVERT JUMPDEST PUSH1 0x0 PUSH20 0xFFFFFFFFFFFFFFFFFFFFFFFFFFFFFFFFFFFFFFFF AND DUP6 PUSH20 0xFFFFFFFFFFFFFFFFFFFFFFFFFFFFFFFFFFFFFFFF AND SUB PUSH2 0x206D JUMPI PUSH1 0x40 MLOAD PUSH32 0x8C379A000000000000000000000000000000000000000000000000000000000 DUP2 MSTORE PUSH1 0x4 ADD PUSH2 0x2064 SWAP1 PUSH2 0x4152 JUMP JUMPDEST PUSH1 0x40 MLOAD DUP1 SWAP2 SUB SWAP1 REVERT JUMPDEST PUSH1 0x0 PUSH2 0x2077 PUSH2 0x1B4A JUMP JUMPDEST SWAP1 POP PUSH1 0x0 PUSH2 0x2084 DUP7 PUSH2 0x2A81 JUMP JUMPDEST SWAP1 POP PUSH1 0x0 PUSH2 0x2091 DUP7 PUSH2 0x2A81 JUMP JUMPDEST SWAP1 POP PUSH2 0x20A2 DUP4 PUSH1 0x0 DUP11 DUP6 DUP6 DUP11 PUSH2 0x289A JUMP JUMPDEST DUP6 PUSH1 0x2 PUSH1 0x0 DUP10 DUP2 MSTORE PUSH1 0x20 ADD SWAP1 DUP2 MSTORE PUSH1 0x20 ADD PUSH1 0x0 KECCAK256 PUSH1 0x0 DUP11 PUSH20 0xFFFFFFFFFFFFFFFFFFFFFFFFFFFFFFFFFFFFFFFF AND PUSH20 0xFFFFFFFFFFFFFFFFFFFFFFFFFFFFFFFFFFFFFFFF AND DUP2 MSTORE PUSH1 0x20 ADD SWAP1 DUP2 MSTORE PUSH1 0x20 ADD PUSH1 0x0 KECCAK256 PUSH1 0x0 DUP3 DUP3 SLOAD PUSH2 0x2102 SWAP2 SWAP1 PUSH2 0x3C85 JUMP JUMPDEST SWAP3 POP POP DUP2 SWAP1 SSTORE POP DUP8 PUSH20 0xFFFFFFFFFFFFFFFFFFFFFFFFFFFFFFFFFFFFFFFF AND PUSH1 0x0 PUSH20 0xFFFFFFFFFFFFFFFFFFFFFFFFFFFFFFFFFFFFFFFF AND DUP5 PUSH20 0xFFFFFFFFFFFFFFFFFFFFFFFFFFFFFFFFFFFFFFFF AND PUSH32 0xC3D58168C5AE7397731D063D5BBF3D657854427343F4C083240F7AACAA2D0F62 DUP11 DUP11 PUSH1 0x40 MLOAD PUSH2 0x2180 SWAP3 SWAP2 SWAP1 PUSH2 0x4172 JUMP JUMPDEST PUSH1 0x40 MLOAD DUP1 SWAP2 SUB SWAP1 LOG4 PUSH2 0x2197 DUP4 PUSH1 0x0 DUP11 DUP6 DUP6 DUP11 PUSH2 0x28A2 JUMP JUMPDEST PUSH2 0x21A6 DUP4 PUSH1 0x0 DUP11 DUP11 DUP11 DUP11 PUSH2 0x2AFB JUMP JUMPDEST POP POP POP POP POP POP POP POP JUMP JUMPDEST PUSH1 0x0 PUSH2 0x21BB DUP8 PUSH2 0x2CD2 JUMP JUMPDEST SWAP1 POP DUP2 PUSH20 0xFFFFFFFFFFFFFFFFFFFFFFFFFFFFFFFFFFFFFFFF AND PUSH4 0x5FE8C13B PUSH1 0x40 MLOAD DUP1 PUSH1 0x40 ADD PUSH1 0x40 MSTORE DUP1 DUP7 PUSH1 0x0 PUSH1 0x8 DUP2 LT PUSH2 0x21F8 JUMPI PUSH2 0x21F7 PUSH2 0x3BF3 JUMP JUMPDEST JUMPDEST PUSH1 0x20 MUL ADD CALLDATALOAD DUP2 MSTORE PUSH1 0x20 ADD DUP7 PUSH1 0x1 PUSH1 0x8 DUP2 LT PUSH2 0x2216 JUMPI PUSH2 0x2215 PUSH2 0x3BF3 JUMP JUMPDEST JUMPDEST PUSH1 0x20 MUL ADD CALLDATALOAD DUP2 MSTORE POP PUSH1 0x40 MLOAD DUP1 PUSH1 0x40 ADD PUSH1 0x40 MSTORE DUP1 PUSH1 0x40 MLOAD DUP1 PUSH1 0x40 ADD PUSH1 0x40 MSTORE DUP1 DUP10 PUSH1 0x2 PUSH1 0x8 DUP2 LT PUSH2 0x2248 JUMPI PUSH2 0x2247 PUSH2 0x3BF3 JUMP JUMPDEST JUMPDEST PUSH1 0x20 MUL ADD CALLDATALOAD DUP2 MSTORE PUSH1 0x20 ADD DUP10 PUSH1 0x3 PUSH1 0x8 DUP2 LT PUSH2 0x2266 JUMPI PUSH2 0x2265 PUSH2 0x3BF3 JUMP JUMPDEST JUMPDEST PUSH1 0x20 MUL ADD CALLDATALOAD DUP2 MSTORE POP DUP2 MSTORE PUSH1 0x20 ADD PUSH1 0x40 MLOAD DUP1 PUSH1 0x40 ADD PUSH1 0x40 MSTORE DUP1 DUP10 PUSH1 0x4 PUSH1 0x8 DUP2 LT PUSH2 0x2292 JUMPI PUSH2 0x2291 PUSH2 0x3BF3 JUMP JUMPDEST JUMPDEST PUSH1 0x20 MUL ADD CALLDATALOAD DUP2 MSTORE PUSH1 0x20 ADD DUP10 PUSH1 0x5 PUSH1 0x8 DUP2 LT PUSH2 0x22B0 JUMPI PUSH2 0x22AF PUSH2 0x3BF3 JUMP JUMPDEST JUMPDEST PUSH1 0x20 MUL ADD CALLDATALOAD DUP2 MSTORE POP DUP2 MSTORE POP PUSH1 0x40 MLOAD DUP1 PUSH1 0x40 ADD PUSH1 0x40 MSTORE DUP1 DUP9 PUSH1 0x6 PUSH1 0x8 DUP2 LT PUSH2 0x22DA JUMPI PUSH2 0x22D9 PUSH2 0x3BF3 JUMP JUMPDEST JUMPDEST PUSH1 0x20 MUL ADD CALLDATALOAD DUP2 MSTORE PUSH1 0x20 ADD DUP9 PUSH1 0x7 PUSH1 0x8 DUP2 LT PUSH2 0x22F8 JUMPI PUSH2 0x22F7 PUSH2 0x3BF3 JUMP JUMPDEST JUMPDEST PUSH1 0x20 MUL ADD CALLDATALOAD DUP2 MSTORE POP PUSH1 0x40 MLOAD DUP1 PUSH1 0x80 ADD PUSH1 0x40 MSTORE DUP1 DUP13 DUP2 MSTORE PUSH1 0x20 ADD DUP12 DUP2 MSTORE PUSH1 0x20 ADD DUP8 DUP2 MSTORE PUSH1 0x20 ADD DUP11 DUP2 MSTORE POP PUSH1 0x40 MLOAD DUP6 PUSH4 0xFFFFFFFF AND PUSH1 0xE0 SHL DUP2 MSTORE PUSH1 0x4 ADD PUSH2 0x2340 SWAP5 SWAP4 SWAP3 SWAP2 SWAP1 PUSH2 0x43A1 JUMP JUMPDEST PUSH1 0x0 PUSH1 0x40 MLOAD DUP1 DUP4 SUB DUP2 DUP7 DUP1 EXTCODESIZE ISZERO DUP1 ISZERO PUSH2 0x2358 JUMPI PUSH1 0x0 DUP1 REVERT JUMPDEST POP GAS STATICCALL ISZERO DUP1 ISZERO PUSH2 0x236C JUMPI RETURNDATASIZE PUSH1 0x0 DUP1 RETURNDATACOPY RETURNDATASIZE PUSH1 0x0 REVERT JUMPDEST POP POP POP POP POP POP POP POP POP POP POP JUMP JUMPDEST PUSH32 0x30644E72E131A029B85045B68181585D2833E84879B9709143E1F593F0000001 DUP5 LT PUSH2 0x23D2 JUMPI PUSH1 0x40 MLOAD PUSH32 0xA61C78CA00000000000000000000000000000000000000000000000000000000 DUP2 MSTORE PUSH1 0x4 ADD PUSH1 0x40 MLOAD DUP1 SWAP2 SUB SWAP1 REVERT JUMPDEST DUP3 PUSH1 0x0 DUP1 DUP7 DUP2 MSTORE PUSH1 0x20 ADD SWAP1 DUP2 MSTORE PUSH1 0x20 ADD PUSH1 0x0 KECCAK256 DUP2 SWAP1 SSTORE POP DUP2 PUSH1 0x1 PUSH1 0x0 DUP7 DUP2 MSTORE PUSH1 0x20 ADD SWAP1 DUP2 MSTORE PUSH1 0x20 ADD PUSH1 0x0 KECCAK256 DUP2 SWAP1 SSTORE POP DUP4 PUSH32 0xD000126C26C1BBE400FD2332187F75D58B69306F9EC47B408686189D3A00833 DUP4 DUP4 PUSH1 0x40 MLOAD PUSH2 0x2433 SWAP3 SWAP2 SWAP1 PUSH2 0x4172 JUMP JUMPDEST PUSH1 0x40 MLOAD DUP1 SWAP2 SUB SWAP1 LOG2 POP POP POP POP JUMP JUMPDEST DUP2 PUSH20 0xFFFFFFFFFFFFFFFFFFFFFFFFFFFFFFFFFFFFFFFF AND DUP4 PUSH20 0xFFFFFFFFFFFFFFFFFFFFFFFFFFFFFFFFFFFFFFFF AND SUB PUSH2 0x24AF JUMPI PUSH1 0x40 MLOAD PUSH32 0x8C379A000000000000000000000000000000000000000000000000000000000 DUP2 MSTORE PUSH1 0x4 ADD PUSH2 0x24A6 SWAP1 PUSH2 0x445A JUMP JUMPDEST PUSH1 0x40 MLOAD DUP1 SWAP2 SUB SWAP1 REVERT JUMPDEST DUP1 PUSH1 0x3 PUSH1 0x0 DUP6 PUSH20 0xFFFFFFFFFFFFFFFFFFFFFFFFFFFFFFFFFFFFFFFF AND PUSH20 0xFFFFFFFFFFFFFFFFFFFFFFFFFFFFFFFFFFFFFFFF AND DUP2 MSTORE PUSH1 0x20 ADD SWAP1 DUP2 MSTORE PUSH1 0x20 ADD PUSH1 0x0 KECCAK256 PUSH1 0x0 DUP5 PUSH20 0xFFFFFFFFFFFFFFFFFFFFFFFFFFFFFFFFFFFFFFFF AND PUSH20 0xFFFFFFFFFFFFFFFFFFFFFFFFFFFFFFFFFFFFFFFF AND DUP2 MSTORE PUSH1 0x20 ADD SWAP1 DUP2 MSTORE PUSH1 0x20 ADD PUSH1 0x0 KECCAK256 PUSH1 0x0 PUSH2 0x100 EXP DUP2 SLOAD DUP2 PUSH1 0xFF MUL NOT AND SWAP1 DUP4 ISZERO ISZERO MUL OR SWAP1 SSTORE POP DUP2 PUSH20 0xFFFFFFFFFFFFFFFFFFFFFFFFFFFFFFFFFFFFFFFF AND DUP4 PUSH20 0xFFFFFFFFFFFFFFFFFFFFFFFFFFFFFFFFFFFFFFFF AND PUSH32 0x17307EAB39AB6107E8899845AD3D59BD9653F200F220920489CA2B5937696C31 DUP4 PUSH1 0x40 MLOAD PUSH2 0x25A0 SWAP2 SWAP1 PUSH2 0x2F2E JUMP JUMPDEST PUSH1 0x40 MLOAD DUP1 SWAP2 SUB SWAP1 LOG3 POP POP POP JUMP JUMPDEST PUSH1 0x5 PUSH1 0x0 SWAP1 SLOAD SWAP1 PUSH2 0x100 EXP SWAP1 DIV PUSH1 0xFF AND PUSH2 0x25FC JUMPI PUSH1 0x40 MLOAD PUSH32 0x8C379A000000000000000000000000000000000000000000000000000000000 DUP2 MSTORE PUSH1 0x4 ADD PUSH2 0x25F3 SWAP1 PUSH2 0x3ED3 JUMP JUMPDEST PUSH1 0x40 MLOAD DUP1 SWAP2 SUB SWAP1 REVERT JUMPDEST PUSH1 0x0 PUSH20 0xFFFFFFFFFFFFFFFFFFFFFFFFFFFFFFFFFFFFFFFF AND DUP5 PUSH20 0xFFFFFFFFFFFFFFFFFFFFFFFFFFFFFFFFFFFFFFFF AND SUB PUSH2 0x266B JUMPI PUSH1 0x40 MLOAD PUSH32 0x8C379A000000000000000000000000000000000000000000000000000000000 DUP2 MSTORE PUSH1 0x4 ADD PUSH2 0x2662 SWAP1 PUSH2 0x3FF7 JUMP JUMPDEST PUSH1 0x40 MLOAD DUP1 SWAP2 SUB SWAP1 REVERT JUMPDEST PUSH1 0x0 PUSH2 0x2675 PUSH2 0x1B4A JUMP JUMPDEST SWAP1 POP PUSH1 0x0 PUSH2 0x2682 DUP6 PUSH2 0x2A81 JUMP JUMPDEST SWAP1 POP PUSH1 0x0 PUSH2 0x268F DUP6 PUSH2 0x2A81 JUMP JUMPDEST SWAP1 POP PUSH2 0x269F DUP4 DUP10 DUP10 DUP6 DUP6 DUP10 PUSH2 0x289A JUMP JUMPDEST PUSH1 0x0 PUSH1 0x2 PUSH1 0x0 DUP9 DUP2 MSTORE PUSH1 0x20 ADD SWAP1 DUP2 MSTORE PUSH1 0x20 ADD PUSH1 0x0 KECCAK256 PUSH1 0x0 DUP11 PUSH20 0xFFFFFFFFFFFFFFFFFFFFFFFFFFFFFFFFFFFFFFFF AND PUSH20 0xFFFFFFFFFFFFFFFFFFFFFFFFFFFFFFFFFFFFFFFF AND DUP2 MSTORE PUSH1 0x20 ADD SWAP1 DUP2 MSTORE PUSH1 0x20 ADD PUSH1 0x0 KECCAK256 SLOAD SWAP1 POP DUP6 DUP2 LT ISZERO PUSH2 0x2737 JUMPI PUSH1 0x40 MLOAD PUSH32 0x8C379A000000000000000000000000000000000000000000000000000000000 DUP2 MSTORE PUSH1 0x4 ADD PUSH2 0x272E SWAP1 PUSH2 0x4089 JUMP JUMPDEST PUSH1 0x40 MLOAD DUP1 SWAP2 SUB SWAP1 REVERT JUMPDEST DUP6 DUP2 SUB PUSH1 0x2 PUSH1 0x0 DUP10 DUP2 MSTORE PUSH1 0x20 ADD SWAP1 DUP2 MSTORE PUSH1 0x20 ADD PUSH1 0x0 KECCAK256 PUSH1 0x0 DUP12 PUSH20 0xFFFFFFFFFFFFFFFFFFFFFFFFFFFFFFFFFFFFFFFF AND PUSH20 0xFFFFFFFFFFFFFFFFFFFFFFFFFFFFFFFFFFFFFFFF AND DUP2 MSTORE PUSH1 0x20 ADD SWAP1 DUP2 MSTORE PUSH1 0x20 ADD PUSH1 0x0 KECCAK256 DUP2 SWAP1 SSTORE POP DUP6 PUSH1 0x2 PUSH1 0x0 DUP10 DUP2 MSTORE PUSH1 0x20 ADD SWAP1 DUP2 MSTORE PUSH1 0x20 ADD PUSH1 0x0 KECCAK256 PUSH1 0x0 DUP11 PUSH20 0xFFFFFFFFFFFFFFFFFFFFFFFFFFFFFFFFFFFFFFFF AND PUSH20 0xFFFFFFFFFFFFFFFFFFFFFFFFFFFFFFFFFFFFFFFF AND DUP2 MSTORE PUSH1 0x20 ADD SWAP1 DUP2 MSTORE PUSH1 0x20 ADD PUSH1 0x0 KECCAK256 PUSH1 0x0 DUP3 DUP3 SLOAD PUSH2 0x27EE SWAP2 SWAP1 PUSH2 0x3C85 JUMP JUMPDEST SWAP3 POP POP DUP2 SWAP1 SSTORE POP DUP8 PUSH20 0xFFFFFFFFFFFFFFFFFFFFFFFFFFFFFFFFFFFFFFFF AND DUP10 PUSH20 0xFFFFFFFFFFFFFFFFFFFFFFFFFFFFFFFFFFFFFFFF AND DUP6 PUSH20 0xFFFFFFFFFFFFFFFFFFFFFFFFFFFFFFFFFFFFFFFF AND PUSH32 0xC3D58168C5AE7397731D063D5BBF3D657854427343F4C083240F7AACAA2D0F62 DUP11 DUP11 PUSH1 0x40 MLOAD PUSH2 0x286B SWAP3 SWAP2 SWAP1 PUSH2 0x4172 JUMP JUMPDEST PUSH1 0x40 MLOAD DUP1 SWAP2 SUB SWAP1 LOG4 PUSH2 0x2881 DUP5 DUP11 DUP11 DUP7 DUP7 DUP11 PUSH2 0x28A2 JUMP JUMPDEST PUSH2 0x288F DUP5 DUP11 DUP11 DUP11 DUP11 DUP11 PUSH2 0x2AFB JUMP JUMPDEST POP POP POP POP POP POP POP POP POP JUMP JUMPDEST POP POP POP POP POP POP JUMP JUMPDEST POP POP POP POP POP POP JUMP JUMPDEST PUSH2 0x28C9 DUP5 PUSH20 0xFFFFFFFFFFFFFFFFFFFFFFFFFFFFFFFFFFFFFFFF AND PUSH2 0x2D09 JUMP JUMPDEST ISZERO PUSH2 0x2A79 JUMPI DUP4 PUSH20 0xFFFFFFFFFFFFFFFFFFFFFFFFFFFFFFFFFFFFFFFF AND PUSH4 0xBC197C81 DUP8 DUP8 DUP7 DUP7 DUP7 PUSH1 0x40 MLOAD DUP7 PUSH4 0xFFFFFFFF AND PUSH1 0xE0 SHL DUP2 MSTORE PUSH1 0x4 ADD PUSH2 0x290F SWAP6 SWAP5 SWAP4 SWAP3 SWAP2 SWAP1 PUSH2 0x44CF JUMP JUMPDEST PUSH1 0x20 PUSH1 0x40 MLOAD DUP1 DUP4 SUB DUP2 PUSH1 0x0 DUP8 GAS CALL SWAP3 POP POP POP DUP1 ISZERO PUSH2 0x294B JUMPI POP PUSH1 0x40 MLOAD RETURNDATASIZE PUSH1 0x1F NOT PUSH1 0x1F DUP3 ADD AND DUP3 ADD DUP1 PUSH1 0x40 MSTORE POP DUP2 ADD SWAP1 PUSH2 0x2948 SWAP2 SWAP1 PUSH2 0x454C JUMP JUMPDEST PUSH1 0x1 JUMPDEST PUSH2 0x29F0 JUMPI PUSH2 0x2957 PUSH2 0x4586 JUMP JUMPDEST DUP1 PUSH4 0x8C379A0 SUB PUSH2 0x29B3 JUMPI POP PUSH2 0x296B PUSH2 0x45A8 JUMP JUMPDEST DUP1 PUSH2 0x2976 JUMPI POP PUSH2 0x29B5 JUMP JUMPDEST DUP1 PUSH1 0x40 MLOAD PUSH32 0x8C379A000000000000000000000000000000000000000000000000000000000 DUP2 MSTORE PUSH1 0x4 ADD PUSH2 0x29AA SWAP2 SWAP1 PUSH2 0x3006 JUMP JUMPDEST PUSH1 0x40 MLOAD DUP1 SWAP2 SUB SWAP1 REVERT JUMPDEST POP JUMPDEST PUSH1 0x40 MLOAD PUSH32 0x8C379A000000000000000000000000000000000000000000000000000000000 DUP2 MSTORE PUSH1 0x4 ADD PUSH2 0x29E7 SWAP1 PUSH2 0x46AA JUMP JUMPDEST PUSH1 0x40 MLOAD DUP1 SWAP2 SUB SWAP1 REVERT JUMPDEST PUSH4 0xBC197C81 PUSH1 0xE0 SHL PUSH28 0xFFFFFFFFFFFFFFFFFFFFFFFFFFFFFFFFFFFFFFFFFFFFFFFFFFFFFFFF NOT AND DUP2 PUSH28 0xFFFFFFFFFFFFFFFFFFFFFFFFFFFFFFFFFFFFFFFFFFFFFFFFFFFFFFFF NOT AND EQ PUSH2 0x2A77 JUMPI PUSH1 0x40 MLOAD PUSH32 0x8C379A000000000000000000000000000000000000000000000000000000000 DUP2 MSTORE PUSH1 0x4 ADD PUSH2 0x2A6E SWAP1 PUSH2 0x473C JUMP JUMPDEST PUSH1 0x40 MLOAD DUP1 SWAP2 SUB SWAP1 REVERT JUMPDEST POP JUMPDEST POP POP POP POP POP POP JUMP JUMPDEST PUSH1 0x60 PUSH1 0x0 PUSH1 0x1 PUSH8 0xFFFFFFFFFFFFFFFF DUP2 GT ISZERO PUSH2 0x2AA0 JUMPI PUSH2 0x2A9F PUSH2 0x305A JUMP JUMPDEST JUMPDEST PUSH1 0x40 MLOAD SWAP1 DUP1 DUP3 MSTORE DUP1 PUSH1 0x20 MUL PUSH1 0x20 ADD DUP3 ADD PUSH1 0x40 MSTORE DUP1 ISZERO PUSH2 0x2ACE JUMPI DUP2 PUSH1 0x20 ADD PUSH1 0x20 DUP3 MUL DUP1 CALLDATASIZE DUP4 CALLDATACOPY DUP1 DUP3 ADD SWAP2 POP POP SWAP1 POP JUMPDEST POP SWAP1 POP DUP3 DUP2 PUSH1 0x0 DUP2 MLOAD DUP2 LT PUSH2 0x2AE6 JUMPI PUSH2 0x2AE5 PUSH2 0x3BF3 JUMP JUMPDEST JUMPDEST PUSH1 0x20 MUL PUSH1 0x20 ADD ADD DUP2 DUP2 MSTORE POP POP DUP1 SWAP2 POP POP SWAP2 SWAP1 POP JUMP JUMPDEST PUSH2 0x2B1A DUP5 PUSH20 0xFFFFFFFFFFFFFFFFFFFFFFFFFFFFFFFFFFFFFFFF AND PUSH2 0x2D09 JUMP JUMPDEST ISZERO PUSH2 0x2CCA JUMPI DUP4 PUSH20 0xFFFFFFFFFFFFFFFFFFFFFFFFFFFFFFFFFFFFFFFF AND PUSH4 0xF23A6E61 DUP8 DUP8 DUP7 DUP7 DUP7 PUSH1 0x40 MLOAD DUP7 PUSH4 0xFFFFFFFF AND PUSH1 0xE0 SHL DUP2 MSTORE PUSH1 0x4 ADD PUSH2 0x2B60 SWAP6 SWAP5 SWAP4 SWAP3 SWAP2 SWAP1 PUSH2 0x475C JUMP JUMPDEST PUSH1 0x20 PUSH1 0x40 MLOAD DUP1 DUP4 SUB DUP2 PUSH1 0x0 DUP8 GAS CALL SWAP3 POP POP POP DUP1 ISZERO PUSH2 0x2B9C JUMPI POP PUSH1 0x40 MLOAD RETURNDATASIZE PUSH1 0x1F NOT PUSH1 0x1F DUP3 ADD AND DUP3 ADD DUP1 PUSH1 0x40 MSTORE POP DUP2 ADD SWAP1 PUSH2 0x2B99 SWAP2 SWAP1 PUSH2 0x454C JUMP JUMPDEST PUSH1 0x1 JUMPDEST PUSH2 0x2C41 JUMPI PUSH2 0x2BA8 PUSH2 0x4586 JUMP JUMPDEST DUP1 PUSH4 0x8C379A0 SUB PUSH2 0x2C04 JUMPI POP PUSH2 0x2BBC PUSH2 0x45A8 JUMP JUMPDEST DUP1 PUSH2 0x2BC7 JUMPI POP PUSH2 0x2C06 JUMP JUMPDEST DUP1 PUSH1 0x40 MLOAD PUSH32 0x8C379A000000000000000000000000000000000000000000000000000000000 DUP2 MSTORE PUSH1 0x4 ADD PUSH2 0x2BFB SWAP2 SWAP1 PUSH2 0x3006 JUMP JUMPDEST PUSH1 0x40 MLOAD DUP1 SWAP2 SUB SWAP1 REVERT JUMPDEST POP JUMPDEST PUSH1 0x40 MLOAD PUSH32 0x8C379A000000000000000000000000000000000000000000000000000000000 DUP2 MSTORE PUSH1 0x4 ADD PUSH2 0x2C38 SWAP1 PUSH2 0x46AA JUMP JUMPDEST PUSH1 0x40 MLOAD DUP1 SWAP2 SUB SWAP1 REVERT JUMPDEST PUSH4 0xF23A6E61 PUSH1 0xE0 SHL PUSH28 0xFFFFFFFFFFFFFFFFFFFFFFFFFFFFFFFFFFFFFFFFFFFFFFFFFFFFFFFF NOT AND DUP2 PUSH28 0xFFFFFFFFFFFFFFFFFFFFFFFFFFFFFFFFFFFFFFFFFFFFFFFFFFFFFFFF NOT AND EQ PUSH2 0x2CC8 JUMPI PUSH1 0x40 MLOAD PUSH32 0x8C379A000000000000000000000000000000000000000000000000000000000 DUP2 MSTORE PUSH1 0x4 ADD PUSH2 0x2CBF SWAP1 PUSH2 0x473C JUMP JUMPDEST PUSH1 0x40 MLOAD DUP1 SWAP2 SUB SWAP1 REVERT JUMPDEST POP JUMPDEST POP POP POP POP POP POP JUMP JUMPDEST PUSH1 0x0 PUSH1 0x8 DUP3 PUSH1 0x40 MLOAD PUSH1 0x20 ADD PUSH2 0x2CE7 SWAP2 SWAP1 PUSH2 0x47D7 JUMP JUMPDEST PUSH1 0x40 MLOAD PUSH1 0x20 DUP2 DUP4 SUB SUB DUP2 MSTORE SWAP1 PUSH1 0x40 MSTORE DUP1 MLOAD SWAP1 PUSH1 0x20 ADD KECCAK256 PUSH1 0x0 SHR SWAP1 SHR SWAP1 POP SWAP2 SWAP1 POP JUMP JUMPDEST PUSH1 0x0 DUP1 DUP3 PUSH20 0xFFFFFFFFFFFFFFFFFFFFFFFFFFFFFFFFFFFFFFFF AND EXTCODESIZE GT SWAP1 POP SWAP2 SWAP1 POP JUMP JUMPDEST PUSH1 0x40 MLOAD DUP1 PUSH1 0x80 ADD PUSH1 0x40 MSTORE DUP1 PUSH1 0x0 PUSH20 0xFFFFFFFFFFFFFFFFFFFFFFFFFFFFFFFFFFFFFFFF AND DUP2 MSTORE PUSH1 0x20 ADD PUSH1 0x0 PUSH1 0x1 DUP2 GT ISZERO PUSH2 0x2D68 JUMPI PUSH2 0x2D67 PUSH2 0x3E2E JUMP JUMPDEST JUMPDEST DUP2 MSTORE PUSH1 0x20 ADD PUSH1 0x0 DUP2 MSTORE PUSH1 0x20 ADD PUSH1 0x0 DUP2 MSTORE POP SWAP1 JUMP JUMPDEST PUSH1 0x0 PUSH1 0x40 MLOAD SWAP1 POP SWAP1 JUMP JUMPDEST PUSH1 0x0 DUP1 REVERT JUMPDEST PUSH1 0x0 DUP1 REVERT JUMPDEST PUSH1 0x0 PUSH20 0xFFFFFFFFFFFFFFFFFFFFFFFFFFFFFFFFFFFFFFFF DUP3 AND SWAP1 POP SWAP2 SWAP1 POP JUMP JUMPDEST PUSH1 0x0 PUSH2 0x2DBB DUP3 PUSH2 0x2D90 JUMP JUMPDEST SWAP1 POP SWAP2 SWAP1 POP JUMP JUMPDEST PUSH2 0x2DCB DUP2 PUSH2 0x2DB0 JUMP JUMPDEST DUP2 EQ PUSH2 0x2DD6 JUMPI PUSH1 0x0 DUP1 REVERT JUMPDEST POP JUMP JUMPDEST PUSH1 0x0 DUP2 CALLDATALOAD SWAP1 POP PUSH2 0x2DE8 DUP2 PUSH2 0x2DC2 JUMP JUMPDEST SWAP3 SWAP2 POP POP JUMP JUMPDEST PUSH1 0x0 DUP2 SWAP1 POP SWAP2 SWAP1 POP JUMP JUMPDEST PUSH2 0x2E01 DUP2 PUSH2 0x2DEE JUMP JUMPDEST DUP2 EQ PUSH2 0x2E0C JUMPI PUSH1 0x0 DUP1 REVERT JUMPDEST POP JUMP JUMPDEST PUSH1 0x0 DUP2 CALLDATALOAD SWAP1 POP PUSH2 0x2E1E DUP2 PUSH2 0x2DF8 JUMP JUMPDEST SWAP3 SWAP2 POP POP JUMP JUMPDEST PUSH1 0x0 DUP1 PUSH1 0x40 DUP4 DUP6 SUB SLT ISZERO PUSH2 0x2E3B JUMPI PUSH2 0x2E3A PUSH2 0x2D86 JUMP JUMPDEST JUMPDEST PUSH1 0x0 PUSH2 0x2E49 DUP6 DUP3 DUP7 ADD PUSH2 0x2DD9 JUMP JUMPDEST SWAP3 POP POP PUSH1 0x20 PUSH2 0x2E5A DUP6 DUP3 DUP7 ADD PUSH2 0x2E0F JUMP JUMPDEST SWAP2 POP POP SWAP3 POP SWAP3 SWAP1 POP JUMP JUMPDEST PUSH2 0x2E6D DUP2 PUSH2 0x2DEE JUMP JUMPDEST DUP3 MSTORE POP POP JUMP JUMPDEST PUSH1 0x0 PUSH1 0x20 DUP3 ADD SWAP1 POP PUSH2 0x2E88 PUSH1 0x0 DUP4 ADD DUP5 PUSH2 0x2E64 JUMP JUMPDEST SWAP3 SWAP2 POP POP JUMP JUMPDEST PUSH1 0x0 PUSH32 0xFFFFFFFF00000000000000000000000000000000000000000000000000000000 DUP3 AND SWAP1 POP SWAP2 SWAP1 POP JUMP JUMPDEST PUSH2 0x2EC3 DUP2 PUSH2 0x2E8E JUMP JUMPDEST DUP2 EQ PUSH2 0x2ECE JUMPI PUSH1 0x0 DUP1 REVERT JUMPDEST POP JUMP JUMPDEST PUSH1 0x0 DUP2 CALLDATALOAD SWAP1 POP PUSH2 0x2EE0 DUP2 PUSH2 0x2EBA JUMP JUMPDEST SWAP3 SWAP2 POP POP JUMP JUMPDEST PUSH1 0x0 PUSH1 0x20 DUP3 DUP5 SUB SLT ISZERO PUSH2 0x2EFC JUMPI PUSH2 0x2EFB PUSH2 0x2D86 JUMP JUMPDEST JUMPDEST PUSH1 0x0 PUSH2 0x2F0A DUP5 DUP3 DUP6 ADD PUSH2 0x2ED1 JUMP JUMPDEST SWAP2 POP POP SWAP3 SWAP2 POP POP JUMP JUMPDEST PUSH1 0x0 DUP2 ISZERO ISZERO SWAP1 POP SWAP2 SWAP1 POP JUMP JUMPDEST PUSH2 0x2F28 DUP2 PUSH2 0x2F13 JUMP JUMPDEST DUP3 MSTORE POP POP JUMP JUMPDEST PUSH1 0x0 PUSH1 0x20 DUP3 ADD SWAP1 POP PUSH2 0x2F43 PUSH1 0x0 DUP4 ADD DUP5 PUSH2 0x2F1F JUMP JUMPDEST SWAP3 SWAP2 POP POP JUMP JUMPDEST PUSH1 0x0 PUSH1 0x20 DUP3 DUP5 SUB SLT ISZERO PUSH2 0x2F5F JUMPI PUSH2 0x2F5E PUSH2 0x2D86 JUMP JUMPDEST JUMPDEST PUSH1 0x0 PUSH2 0x2F6D DUP5 DUP3 DUP6 ADD PUSH2 0x2E0F JUMP JUMPDEST SWAP2 POP POP SWAP3 SWAP2 POP POP JUMP JUMPDEST PUSH1 0x0 DUP2 MLOAD SWAP1 POP SWAP2 SWAP1 POP JUMP JUMPDEST PUSH1 0x0 DUP3 DUP3 MSTORE PUSH1 0x20 DUP3 ADD SWAP1 POP SWAP3 SWAP2 POP POP JUMP JUMPDEST PUSH1 0x0 JUMPDEST DUP4 DUP2 LT ISZERO PUSH2 0x2FB0 JUMPI DUP1 DUP3 ADD MLOAD DUP2 DUP5 ADD MSTORE PUSH1 0x20 DUP2 ADD SWAP1 POP PUSH2 0x2F95 JUMP JUMPDEST PUSH1 0x0 DUP5 DUP5 ADD MSTORE POP POP POP POP JUMP JUMPDEST PUSH1 0x0 PUSH1 0x1F NOT PUSH1 0x1F DUP4 ADD AND SWAP1 POP SWAP2 SWAP1 POP JUMP JUMPDEST PUSH1 0x0 PUSH2 0x2FD8 DUP3 PUSH2 0x2F76 JUMP JUMPDEST PUSH2 0x2FE2 DUP2 DUP6 PUSH2 0x2F81 JUMP JUMPDEST SWAP4 POP PUSH2 0x2FF2 DUP2 DUP6 PUSH1 0x20 DUP7 ADD PUSH2 0x2F92 JUMP JUMPDEST PUSH2 0x2FFB DUP2 PUSH2 0x2FBC JUMP JUMPDEST DUP5 ADD SWAP2 POP POP SWAP3 SWAP2 POP POP JUMP JUMPDEST PUSH1 0x0 PUSH1 0x20 DUP3 ADD SWAP1 POP DUP2 DUP2 SUB PUSH1 0x0 DUP4 ADD MSTORE PUSH2 0x3020 DUP2 DUP5 PUSH2 0x2FCD JUMP JUMPDEST SWAP1 POP SWAP3 SWAP2 POP POP JUMP JUMPDEST PUSH1 0x0 PUSH1 0x20 DUP3 DUP5 SUB SLT ISZERO PUSH2 0x303E JUMPI PUSH2 0x303D PUSH2 0x2D86 JUMP JUMPDEST JUMPDEST PUSH1 0x0 PUSH2 0x304C DUP5 DUP3 DUP6 ADD PUSH2 0x2DD9 JUMP JUMPDEST SWAP2 POP POP SWAP3 SWAP2 POP POP JUMP JUMPDEST PUSH1 0x0 DUP1 REVERT JUMPDEST PUSH32 0x4E487B7100000000000000000000000000000000000000000000000000000000 PUSH1 0x0 MSTORE PUSH1 0x41 PUSH1 0x4 MSTORE PUSH1 0x24 PUSH1 0x0 REVERT JUMPDEST PUSH2 0x3092 DUP3 PUSH2 0x2FBC JUMP JUMPDEST DUP2 ADD DUP2 DUP2 LT PUSH8 0xFFFFFFFFFFFFFFFF DUP3 GT OR ISZERO PUSH2 0x30B1 JUMPI PUSH2 0x30B0 PUSH2 0x305A JUMP JUMPDEST JUMPDEST DUP1 PUSH1 0x40 MSTORE POP POP POP JUMP JUMPDEST PUSH1 0x0 PUSH2 0x30C4 PUSH2 0x2D7C JUMP JUMPDEST SWAP1 POP PUSH2 0x30D0 DUP3 DUP3 PUSH2 0x3089 JUMP JUMPDEST SWAP2 SWAP1 POP JUMP JUMPDEST PUSH1 0x0 PUSH8 0xFFFFFFFFFFFFFFFF DUP3 GT ISZERO PUSH2 0x30F0 JUMPI PUSH2 0x30EF PUSH2 0x305A JUMP JUMPDEST JUMPDEST PUSH1 0x20 DUP3 MUL SWAP1 POP PUSH1 0x20 DUP2 ADD SWAP1 POP SWAP2 SWAP1 POP JUMP JUMPDEST PUSH1 0x0 DUP1 REVERT JUMPDEST PUSH1 0x0 PUSH2 0x3119 PUSH2 0x3114 DUP5 PUSH2 0x30D5 JUMP JUMPDEST PUSH2 0x30BA JUMP JUMPDEST SWAP1 POP DUP1 DUP4 DUP3 MSTORE PUSH1 0x20 DUP3 ADD SWAP1 POP PUSH1 0x20 DUP5 MUL DUP4 ADD DUP6 DUP2 GT ISZERO PUSH2 0x313C JUMPI PUSH2 0x313B PUSH2 0x3101 JUMP JUMPDEST JUMPDEST DUP4 JUMPDEST DUP2 DUP2 LT ISZERO PUSH2 0x3165 JUMPI DUP1 PUSH2 0x3151 DUP9 DUP3 PUSH2 0x2E0F JUMP JUMPDEST DUP5 MSTORE PUSH1 0x20 DUP5 ADD SWAP4 POP POP PUSH1 0x20 DUP2 ADD SWAP1 POP PUSH2 0x313E JUMP JUMPDEST POP POP POP SWAP4 SWAP3 POP POP POP JUMP JUMPDEST PUSH1 0x0 DUP3 PUSH1 0x1F DUP4 ADD SLT PUSH2 0x3184 JUMPI PUSH2 0x3183 PUSH2 0x3055 JUMP JUMPDEST JUMPDEST DUP2 CALLDATALOAD PUSH2 0x3194 DUP5 DUP3 PUSH1 0x20 DUP7 ADD PUSH2 0x3106 JUMP JUMPDEST SWAP2 POP POP SWAP3 SWAP2 POP POP JUMP JUMPDEST PUSH1 0x0 DUP1 REVERT JUMPDEST PUSH1 0x0 PUSH8 0xFFFFFFFFFFFFFFFF DUP3 GT ISZERO PUSH2 0x31BD JUMPI PUSH2 0x31BC PUSH2 0x305A JUMP JUMPDEST JUMPDEST PUSH2 0x31C6 DUP3 PUSH2 0x2FBC JUMP JUMPDEST SWAP1 POP PUSH1 0x20 DUP2 ADD SWAP1 POP SWAP2 SWAP1 POP JUMP JUMPDEST DUP3 DUP2 DUP4 CALLDATACOPY PUSH1 0x0 DUP4 DUP4 ADD MSTORE POP POP POP JUMP JUMPDEST PUSH1 0x0 PUSH2 0x31F5 PUSH2 0x31F0 DUP5 PUSH2 0x31A2 JUMP JUMPDEST PUSH2 0x30BA JUMP JUMPDEST SWAP1 POP DUP3 DUP2 MSTORE PUSH1 0x20 DUP2 ADD DUP5 DUP5 DUP5 ADD GT ISZERO PUSH2 0x3211 JUMPI PUSH2 0x3210 PUSH2 0x319D JUMP JUMPDEST JUMPDEST PUSH2 0x321C DUP5 DUP3 DUP6 PUSH2 0x31D3 JUMP JUMPDEST POP SWAP4 SWAP3 POP POP POP JUMP JUMPDEST PUSH1 0x0 DUP3 PUSH1 0x1F DUP4 ADD SLT PUSH2 0x3239 JUMPI PUSH2 0x3238 PUSH2 0x3055 JUMP JUMPDEST JUMPDEST DUP2 CALLDATALOAD PUSH2 0x3249 DUP5 DUP3 PUSH1 0x20 DUP7 ADD PUSH2 0x31E2 JUMP JUMPDEST SWAP2 POP POP SWAP3 SWAP2 POP POP JUMP JUMPDEST PUSH1 0x0 DUP1 PUSH1 0x0 DUP1 PUSH1 0x0 PUSH1 0xA0 DUP7 DUP9 SUB SLT ISZERO PUSH2 0x326E JUMPI PUSH2 0x326D PUSH2 0x2D86 JUMP JUMPDEST JUMPDEST PUSH1 0x0 PUSH2 0x327C DUP9 DUP3 DUP10 ADD PUSH2 0x2DD9 JUMP JUMPDEST SWAP6 POP POP PUSH1 0x20 PUSH2 0x328D DUP9 DUP3 DUP10 ADD PUSH2 0x2DD9 JUMP JUMPDEST SWAP5 POP POP PUSH1 0x40 DUP7 ADD CALLDATALOAD PUSH8 0xFFFFFFFFFFFFFFFF DUP2 GT ISZERO PUSH2 0x32AE JUMPI PUSH2 0x32AD PUSH2 0x2D8B JUMP JUMPDEST JUMPDEST PUSH2 0x32BA DUP9 DUP3 DUP10 ADD PUSH2 0x316F JUMP JUMPDEST SWAP4 POP POP PUSH1 0x60 DUP7 ADD CALLDATALOAD PUSH8 0xFFFFFFFFFFFFFFFF DUP2 GT ISZERO PUSH2 0x32DB JUMPI PUSH2 0x32DA PUSH2 0x2D8B JUMP JUMPDEST JUMPDEST PUSH2 0x32E7 DUP9 DUP3 DUP10 ADD PUSH2 0x316F JUMP JUMPDEST SWAP3 POP POP PUSH1 0x80 DUP7 ADD CALLDATALOAD PUSH8 0xFFFFFFFFFFFFFFFF DUP2 GT ISZERO PUSH2 0x3308 JUMPI PUSH2 0x3307 PUSH2 0x2D8B JUMP JUMPDEST JUMPDEST PUSH2 0x3314 DUP9 DUP3 DUP10 ADD PUSH2 0x3224 JUMP JUMPDEST SWAP2 POP POP SWAP3 SWAP6 POP SWAP3 SWAP6 SWAP1 SWAP4 POP JUMP JUMPDEST PUSH1 0x0 DUP2 MLOAD SWAP1 POP SWAP2 SWAP1 POP JUMP JUMPDEST PUSH1 0x0 DUP3 DUP3 MSTORE PUSH1 0x20 DUP3 ADD SWAP1 POP SWAP3 SWAP2 POP POP JUMP JUMPDEST PUSH1 0x0 DUP2 SWAP1 POP PUSH1 0x20 DUP3 ADD SWAP1 POP SWAP2 SWAP1 POP JUMP JUMPDEST PUSH2 0x3356 DUP2 PUSH2 0x2DB0 JUMP JUMPDEST DUP3 MSTORE POP POP JUMP JUMPDEST PUSH1 0x0 PUSH2 0x3368 DUP4 DUP4 PUSH2 0x334D JUMP JUMPDEST PUSH1 0x20 DUP4 ADD SWAP1 POP SWAP3 SWAP2 POP POP JUMP JUMPDEST PUSH1 0x0 PUSH1 0x20 DUP3 ADD SWAP1 POP SWAP2 SWAP1 POP JUMP JUMPDEST PUSH1 0x0 PUSH2 0x338C DUP3 PUSH2 0x3321 JUMP JUMPDEST PUSH2 0x3396 DUP2 DUP6 PUSH2 0x332C JUMP JUMPDEST SWAP4 POP PUSH2 0x33A1 DUP4 PUSH2 0x333D JUMP JUMPDEST DUP1 PUSH1 0x0 JUMPDEST DUP4 DUP2 LT ISZERO PUSH2 0x33D2 JUMPI DUP2 MLOAD PUSH2 0x33B9 DUP9 DUP3 PUSH2 0x335C JUMP JUMPDEST SWAP8 POP PUSH2 0x33C4 DUP4 PUSH2 0x3374 JUMP JUMPDEST SWAP3 POP POP PUSH1 0x1 DUP2 ADD SWAP1 POP PUSH2 0x33A5 JUMP JUMPDEST POP DUP6 SWAP4 POP POP POP POP SWAP3 SWAP2 POP POP JUMP JUMPDEST PUSH1 0x0 PUSH1 0x20 DUP3 ADD SWAP1 POP DUP2 DUP2 SUB PUSH1 0x0 DUP4 ADD MSTORE PUSH2 0x33F9 DUP2 DUP5 PUSH2 0x3381 JUMP JUMPDEST SWAP1 POP SWAP3 SWAP2 POP POP JUMP JUMPDEST PUSH1 0x0 PUSH8 0xFFFFFFFFFFFFFFFF DUP3 GT ISZERO PUSH2 0x341C JUMPI PUSH2 0x341B PUSH2 0x305A JUMP JUMPDEST JUMPDEST PUSH1 0x20 DUP3 MUL SWAP1 POP PUSH1 0x20 DUP2 ADD SWAP1 POP SWAP2 SWAP1 POP JUMP JUMPDEST PUSH1 0x0 PUSH2 0x3440 PUSH2 0x343B DUP5 PUSH2 0x3401 JUMP JUMPDEST PUSH2 0x30BA JUMP JUMPDEST SWAP1 POP DUP1 DUP4 DUP3 MSTORE PUSH1 0x20 DUP3 ADD SWAP1 POP PUSH1 0x20 DUP5 MUL DUP4 ADD DUP6 DUP2 GT ISZERO PUSH2 0x3463 JUMPI PUSH2 0x3462 PUSH2 0x3101 JUMP JUMPDEST JUMPDEST DUP4 JUMPDEST DUP2 DUP2 LT ISZERO PUSH2 0x348C JUMPI DUP1 PUSH2 0x3478 DUP9 DUP3 PUSH2 0x2DD9 JUMP JUMPDEST DUP5 MSTORE PUSH1 0x20 DUP5 ADD SWAP4 POP POP PUSH1 0x20 DUP2 ADD SWAP1 POP PUSH2 0x3465 JUMP JUMPDEST POP POP POP SWAP4 SWAP3 POP POP POP JUMP JUMPDEST PUSH1 0x0 DUP3 PUSH1 0x1F DUP4 ADD SLT PUSH2 0x34AB JUMPI PUSH2 0x34AA PUSH2 0x3055 JUMP JUMPDEST JUMPDEST DUP2 CALLDATALOAD PUSH2 0x34BB DUP5 DUP3 PUSH1 0x20 DUP7 ADD PUSH2 0x342D JUMP JUMPDEST SWAP2 POP POP SWAP3 SWAP2 POP POP JUMP JUMPDEST PUSH1 0x0 PUSH1 0x20 DUP3 DUP5 SUB SLT ISZERO PUSH2 0x34DA JUMPI PUSH2 0x34D9 PUSH2 0x2D86 JUMP JUMPDEST JUMPDEST PUSH1 0x0 DUP3 ADD CALLDATALOAD PUSH8 0xFFFFFFFFFFFFFFFF DUP2 GT ISZERO PUSH2 0x34F8 JUMPI PUSH2 0x34F7 PUSH2 0x2D8B JUMP JUMPDEST JUMPDEST PUSH2 0x3504 DUP5 DUP3 DUP6 ADD PUSH2 0x3496 JUMP JUMPDEST SWAP2 POP POP SWAP3 SWAP2 POP POP JUMP JUMPDEST PUSH1 0x0 DUP1 PUSH1 0x40 DUP4 DUP6 SUB SLT ISZERO PUSH2 0x3524 JUMPI PUSH2 0x3523 PUSH2 0x2D86 JUMP JUMPDEST JUMPDEST PUSH1 0x0 DUP4 ADD CALLDATALOAD PUSH8 0xFFFFFFFFFFFFFFFF DUP2 GT ISZERO PUSH2 0x3542 JUMPI PUSH2 0x3541 PUSH2 0x2D8B JUMP JUMPDEST JUMPDEST PUSH2 0x354E DUP6 DUP3 DUP7 ADD PUSH2 0x3496 JUMP JUMPDEST SWAP3 POP POP PUSH1 0x20 DUP4 ADD CALLDATALOAD PUSH8 0xFFFFFFFFFFFFFFFF DUP2 GT ISZERO PUSH2 0x356F JUMPI PUSH2 0x356E PUSH2 0x2D8B JUMP JUMPDEST JUMPDEST PUSH2 0x357B DUP6 DUP3 DUP7 ADD PUSH2 0x316F JUMP JUMPDEST SWAP2 POP POP SWAP3 POP SWAP3 SWAP1 POP JUMP JUMPDEST PUSH1 0x0 DUP2 MLOAD SWAP1 POP SWAP2 SWAP1 POP JUMP JUMPDEST PUSH1 0x0 DUP3 DUP3 MSTORE PUSH1 0x20 DUP3 ADD SWAP1 POP SWAP3 SWAP2 POP POP JUMP JUMPDEST PUSH1 0x0 DUP2 SWAP1 POP PUSH1 0x20 DUP3 ADD SWAP1 POP SWAP2 SWAP1 POP JUMP JUMPDEST PUSH2 0x35BA DUP2 PUSH2 0x2DEE JUMP JUMPDEST DUP3 MSTORE POP POP JUMP JUMPDEST PUSH1 0x0 PUSH2 0x35CC DUP4 DUP4 PUSH2 0x35B1 JUMP JUMPDEST PUSH1 0x20 DUP4 ADD SWAP1 POP SWAP3 SWAP2 POP POP JUMP JUMPDEST PUSH1 0x0 PUSH1 0x20 DUP3 ADD SWAP1 POP SWAP2 SWAP1 POP JUMP JUMPDEST PUSH1 0x0 PUSH2 0x35F0 DUP3 PUSH2 0x3585 JUMP JUMPDEST PUSH2 0x35FA DUP2 DUP6 PUSH2 0x3590 JUMP JUMPDEST SWAP4 POP PUSH2 0x3605 DUP4 PUSH2 0x35A1 JUMP JUMPDEST DUP1 PUSH1 0x0 JUMPDEST DUP4 DUP2 LT ISZERO PUSH2 0x3636 JUMPI DUP2 MLOAD PUSH2 0x361D DUP9 DUP3 PUSH2 0x35C0 JUMP JUMPDEST SWAP8 POP PUSH2 0x3628 DUP4 PUSH2 0x35D8 JUMP JUMPDEST SWAP3 POP POP PUSH1 0x1 DUP2 ADD SWAP1 POP PUSH2 0x3609 JUMP JUMPDEST POP DUP6 SWAP4 POP POP POP POP SWAP3 SWAP2 POP POP JUMP JUMPDEST PUSH1 0x0 PUSH1 0x20 DUP3 ADD SWAP1 POP DUP2 DUP2 SUB PUSH1 0x0 DUP4 ADD MSTORE PUSH2 0x365D DUP2 DUP5 PUSH2 0x35E5 JUMP JUMPDEST SWAP1 POP SWAP3 SWAP2 POP POP JUMP JUMPDEST PUSH1 0x0 DUP1 PUSH1 0x0 DUP1 PUSH1 0x80 DUP6 DUP8 SUB SLT ISZERO PUSH2 0x367F JUMPI PUSH2 0x367E PUSH2 0x2D86 JUMP JUMPDEST JUMPDEST PUSH1 0x0 DUP6 ADD CALLDATALOAD PUSH8 0xFFFFFFFFFFFFFFFF DUP2 GT ISZERO PUSH2 0x369D JUMPI PUSH2 0x369C PUSH2 0x2D8B JUMP JUMPDEST JUMPDEST PUSH2 0x36A9 DUP8 DUP3 DUP9 ADD PUSH2 0x3496 JUMP JUMPDEST SWAP5 POP POP PUSH1 0x20 PUSH2 0x36BA DUP8 DUP3 DUP9 ADD PUSH2 0x2E0F JUMP JUMPDEST SWAP4 POP POP PUSH1 0x40 PUSH2 0x36CB DUP8 DUP3 DUP9 ADD PUSH2 0x2E0F JUMP JUMPDEST SWAP3 POP POP PUSH1 0x60 DUP6 ADD CALLDATALOAD PUSH8 0xFFFFFFFFFFFFFFFF DUP2 GT ISZERO PUSH2 0x36EC JUMPI PUSH2 0x36EB PUSH2 0x2D8B JUMP JUMPDEST JUMPDEST PUSH2 0x36F8 DUP8 DUP3 DUP9 ADD PUSH2 0x3224 JUMP JUMPDEST SWAP2 POP POP SWAP3 SWAP6 SWAP2 SWAP5 POP SWAP3 POP JUMP JUMPDEST PUSH1 0x0 DUP2 SWAP1 POP SWAP2 SWAP1 POP JUMP JUMPDEST PUSH2 0x3717 DUP2 PUSH2 0x3704 JUMP JUMPDEST DUP2 EQ PUSH2 0x3722 JUMPI PUSH1 0x0 DUP1 REVERT JUMPDEST POP JUMP JUMPDEST PUSH1 0x0 DUP2 CALLDATALOAD SWAP1 POP PUSH2 0x3734 DUP2 PUSH2 0x370E JUMP JUMPDEST SWAP3 SWAP2 POP POP JUMP JUMPDEST PUSH1 0x0 DUP2 SWAP1 POP DUP3 PUSH1 0x20 PUSH1 0x8 MUL DUP3 ADD GT ISZERO PUSH2 0x3756 JUMPI PUSH2 0x3755 PUSH2 0x3101 JUMP JUMPDEST JUMPDEST SWAP3 SWAP2 POP POP JUMP JUMPDEST PUSH1 0x0 DUP1 PUSH1 0x0 DUP1 PUSH2 0x160 DUP6 DUP8 SUB SLT ISZERO PUSH2 0x3777 JUMPI PUSH2 0x3776 PUSH2 0x2D86 JUMP JUMPDEST JUMPDEST PUSH1 0x0 PUSH2 0x3785 DUP8 DUP3 DUP9 ADD PUSH2 0x3725 JUMP JUMPDEST SWAP5 POP POP PUSH1 0x20 PUSH2 0x3796 DUP8 DUP3 DUP9 ADD PUSH2 0x2E0F JUMP JUMPDEST SWAP4 POP POP PUSH1 0x40 PUSH2 0x37A7 DUP8 DUP3 DUP9 ADD PUSH2 0x2E0F JUMP JUMPDEST SWAP3 POP POP PUSH1 0x60 PUSH2 0x37B8 DUP8 DUP3 DUP9 ADD PUSH2 0x373A JUMP JUMPDEST SWAP2 POP POP SWAP3 SWAP6 SWAP2 SWAP5 POP SWAP3 POP JUMP JUMPDEST PUSH1 0x0 DUP1 PUSH1 0x0 DUP1 PUSH1 0x80 DUP6 DUP8 SUB SLT ISZERO PUSH2 0x37DE JUMPI PUSH2 0x37DD PUSH2 0x2D86 JUMP JUMPDEST JUMPDEST PUSH1 0x0 PUSH2 0x37EC DUP8 DUP3 DUP9 ADD PUSH2 0x2E0F JUMP JUMPDEST SWAP5 POP POP PUSH1 0x20 PUSH2 0x37FD DUP8 DUP3 DUP9 ADD PUSH2 0x2DD9 JUMP JUMPDEST SWAP4 POP POP PUSH1 0x40 PUSH2 0x380E DUP8 DUP3 DUP9 ADD PUSH2 0x2E0F JUMP JUMPDEST SWAP3 POP POP PUSH1 0x60 PUSH2 0x381F DUP8 DUP3 DUP9 ADD PUSH2 0x2E0F JUMP JUMPDEST SWAP2 POP POP SWAP3 SWAP6 SWAP2 SWAP5 POP SWAP3 POP JUMP JUMPDEST PUSH2 0x3834 DUP2 PUSH2 0x2DB0 JUMP JUMPDEST DUP3 MSTORE POP POP JUMP JUMPDEST PUSH1 0x0 PUSH1 0x20 DUP3 ADD SWAP1 POP PUSH2 0x384F PUSH1 0x0 DUP4 ADD DUP5 PUSH2 0x382B JUMP JUMPDEST SWAP3 SWAP2 POP POP JUMP JUMPDEST PUSH2 0x385E DUP2 PUSH2 0x2F13 JUMP JUMPDEST DUP2 EQ PUSH2 0x3869 JUMPI PUSH1 0x0 DUP1 REVERT JUMPDEST POP JUMP JUMPDEST PUSH1 0x0 DUP2 CALLDATALOAD SWAP1 POP PUSH2 0x387B DUP2 PUSH2 0x3855 JUMP JUMPDEST SWAP3 SWAP2 POP POP JUMP JUMPDEST PUSH1 0x0 DUP1 PUSH1 0x40 DUP4 DUP6 SUB SLT ISZERO PUSH2 0x3898 JUMPI PUSH2 0x3897 PUSH2 0x2D86 JUMP JUMPDEST JUMPDEST PUSH1 0x0 PUSH2 0x38A6 DUP6 DUP3 DUP7 ADD PUSH2 0x2DD9 JUMP JUMPDEST SWAP3 POP POP PUSH1 0x20 PUSH2 0x38B7 DUP6 DUP3 DUP7 ADD PUSH2 0x386C JUMP JUMPDEST SWAP2 POP POP SWAP3 POP SWAP3 SWAP1 POP JUMP JUMPDEST PUSH1 0x0 PUSH1 0x20 DUP3 DUP5 SUB SLT ISZERO PUSH2 0x38D7 JUMPI PUSH2 0x38D6 PUSH2 0x2D86 JUMP JUMPDEST JUMPDEST PUSH1 0x0 PUSH2 0x38E5 DUP5 DUP3 DUP6 ADD PUSH2 0x386C JUMP JUMPDEST SWAP2 POP POP SWAP3 SWAP2 POP POP JUMP JUMPDEST PUSH1 0x0 PUSH1 0x60 DUP3 ADD SWAP1 POP PUSH2 0x3903 PUSH1 0x0 DUP4 ADD DUP7 PUSH2 0x2E64 JUMP JUMPDEST PUSH2 0x3910 PUSH1 0x20 DUP4 ADD DUP6 PUSH2 0x2E64 JUMP JUMPDEST DUP2 DUP2 SUB PUSH1 0x40 DUP4 ADD MSTORE PUSH2 0x3922 DUP2 DUP5 PUSH2 0x2FCD JUMP JUMPDEST SWAP1 POP SWAP5 SWAP4 POP POP POP POP JUMP JUMPDEST PUSH1 0x0 DUP1 PUSH1 0x40 DUP4 DUP6 SUB SLT ISZERO PUSH2 0x3943 JUMPI PUSH2 0x3942 PUSH2 0x2D86 JUMP JUMPDEST JUMPDEST PUSH1 0x0 PUSH2 0x3951 DUP6 DUP3 DUP7 ADD PUSH2 0x2DD9 JUMP JUMPDEST SWAP3 POP POP PUSH1 0x20 PUSH2 0x3962 DUP6 DUP3 DUP7 ADD PUSH2 0x2DD9 JUMP JUMPDEST SWAP2 POP POP SWAP3 POP SWAP3 SWAP1 POP JUMP JUMPDEST PUSH1 0x0 DUP1 PUSH1 0x0 DUP1 PUSH1 0x0 PUSH1 0xA0 DUP7 DUP9 SUB SLT ISZERO PUSH2 0x3988 JUMPI PUSH2 0x3987 PUSH2 0x2D86 JUMP JUMPDEST JUMPDEST PUSH1 0x0 PUSH2 0x3996 DUP9 DUP3 DUP10 ADD PUSH2 0x2DD9 JUMP JUMPDEST SWAP6 POP POP PUSH1 0x20 PUSH2 0x39A7 DUP9 DUP3 DUP10 ADD PUSH2 0x2DD9 JUMP JUMPDEST SWAP5 POP POP PUSH1 0x40 PUSH2 0x39B8 DUP9 DUP3 DUP10 ADD PUSH2 0x2E0F JUMP JUMPDEST SWAP4 POP POP PUSH1 0x60 PUSH2 0x39C9 DUP9 DUP3 DUP10 ADD PUSH2 0x2E0F JUMP JUMPDEST SWAP3 POP POP PUSH1 0x80 DUP7 ADD CALLDATALOAD PUSH8 0xFFFFFFFFFFFFFFFF DUP2 GT ISZERO PUSH2 0x39EA JUMPI PUSH2 0x39E9 PUSH2 0x2D8B JUMP JUMPDEST JUMPDEST PUSH2 0x39F6 DUP9 DUP3 DUP10 ADD PUSH2 0x3224 JUMP JUMPDEST SWAP2 POP POP SWAP3 SWAP6 POP SWAP3 SWAP6 SWAP1 SWAP4 POP JUMP JUMPDEST PUSH32 0x455243313135353A2061646472657373207A65726F206973206E6F7420612076 PUSH1 0x0 DUP3 ADD MSTORE PUSH32 0x616C6964206F776E657200000000000000000000000000000000000000000000 PUSH1 0x20 DUP3 ADD MSTORE POP JUMP JUMPDEST PUSH1 0x0 PUSH2 0x3A5F PUSH1 0x2A DUP4 PUSH2 0x2F81 JUMP JUMPDEST SWAP2 POP PUSH2 0x3A6A DUP3 PUSH2 0x3A03 JUMP JUMPDEST PUSH1 0x40 DUP3 ADD SWAP1 POP SWAP2 SWAP1 POP JUMP JUMPDEST PUSH1 0x0 PUSH1 0x20 DUP3 ADD SWAP1 POP DUP2 DUP2 SUB PUSH1 0x0 DUP4 ADD MSTORE PUSH2 0x3A8E DUP2 PUSH2 0x3A52 JUMP JUMPDEST SWAP1 POP SWAP2 SWAP1 POP JUMP JUMPDEST PUSH32 0x4E487B7100000000000000000000000000000000000000000000000000000000 PUSH1 0x0 MSTORE PUSH1 0x22 PUSH1 0x4 MSTORE PUSH1 0x24 PUSH1 0x0 REVERT JUMPDEST PUSH1 0x0 PUSH1 0x2 DUP3 DIV SWAP1 POP PUSH1 0x1 DUP3 AND DUP1 PUSH2 0x3ADC JUMPI PUSH1 0x7F DUP3 AND SWAP2 POP JUMPDEST PUSH1 0x20 DUP3 LT DUP2 SUB PUSH2 0x3AEF JUMPI PUSH2 0x3AEE PUSH2 0x3A95 JUMP JUMPDEST JUMPDEST POP SWAP2 SWAP1 POP JUMP JUMPDEST PUSH32 0x4E6F742073757065722061646D696E0000000000000000000000000000000000 PUSH1 0x0 DUP3 ADD MSTORE POP JUMP JUMPDEST PUSH1 0x0 PUSH2 0x3B2B PUSH1 0xF DUP4 PUSH2 0x2F81 JUMP JUMPDEST SWAP2 POP PUSH2 0x3B36 DUP3 PUSH2 0x3AF5 JUMP JUMPDEST PUSH1 0x20 DUP3 ADD SWAP1 POP SWAP2 SWAP1 POP JUMP JUMPDEST PUSH1 0x0 PUSH1 0x20 DUP3 ADD SWAP1 POP DUP2 DUP2 SUB PUSH1 0x0 DUP4 ADD MSTORE PUSH2 0x3B5A DUP2 PUSH2 0x3B1E JUMP JUMPDEST SWAP1 POP SWAP2 SWAP1 POP JUMP JUMPDEST PUSH32 0x455243313135353A2063616C6C6572206973206E6F7420746F6B656E206F776E PUSH1 0x0 DUP3 ADD MSTORE PUSH32 0x6572206E6F7220617070726F7665640000000000000000000000000000000000 PUSH1 0x20 DUP3 ADD MSTORE POP JUMP JUMPDEST PUSH1 0x0 PUSH2 0x3BBD PUSH1 0x2F DUP4 PUSH2 0x2F81 JUMP JUMPDEST SWAP2 POP PUSH2 0x3BC8 DUP3 PUSH2 0x3B61 JUMP JUMPDEST PUSH1 0x40 DUP3 ADD SWAP1 POP SWAP2 SWAP1 POP JUMP JUMPDEST PUSH1 0x0 PUSH1 0x20 DUP3 ADD SWAP1 POP DUP2 DUP2 SUB PUSH1 0x0 DUP4 ADD MSTORE PUSH2 0x3BEC DUP2 PUSH2 0x3BB0 JUMP JUMPDEST SWAP1 POP SWAP2 SWAP1 POP JUMP JUMPDEST PUSH32 0x4E487B7100000000000000000000000000000000000000000000000000000000 PUSH1 0x0 MSTORE PUSH1 0x32 PUSH1 0x4 MSTORE PUSH1 0x24 PUSH1 0x0 REVERT JUMPDEST PUSH32 0x4E487B7100000000000000000000000000000000000000000000000000000000 PUSH1 0x0 MSTORE PUSH1 0x11 PUSH1 0x4 MSTORE PUSH1 0x24 PUSH1 0x0 REVERT JUMPDEST PUSH1 0x0 PUSH2 0x3C5C DUP3 PUSH2 0x2DEE JUMP JUMPDEST SWAP2 POP PUSH2 0x3C67 DUP4 PUSH2 0x2DEE JUMP JUMPDEST SWAP3 POP DUP3 DUP3 SUB SWAP1 POP DUP2 DUP2 GT ISZERO PUSH2 0x3C7F JUMPI PUSH2 0x3C7E PUSH2 0x3C22 JUMP JUMPDEST JUMPDEST SWAP3 SWAP2 POP POP JUMP JUMPDEST PUSH1 0x0 PUSH2 0x3C90 DUP3 PUSH2 0x2DEE JUMP JUMPDEST SWAP2 POP PUSH2 0x3C9B DUP4 PUSH2 0x2DEE JUMP JUMPDEST SWAP3 POP DUP3 DUP3 ADD SWAP1 POP DUP1 DUP3 GT ISZERO PUSH2 0x3CB3 JUMPI PUSH2 0x3CB2 PUSH2 0x3C22 JUMP JUMPDEST JUMPDEST SWAP3 SWAP2 POP POP JUMP JUMPDEST PUSH1 0x0 PUSH2 0x3CC4 DUP3 PUSH2 0x2DEE JUMP JUMPDEST SWAP2 POP PUSH32 0xFFFFFFFFFFFFFFFFFFFFFFFFFFFFFFFFFFFFFFFFFFFFFFFFFFFFFFFFFFFFFFFF DUP3 SUB PUSH2 0x3CF6 JUMPI PUSH2 0x3CF5 PUSH2 0x3C22 JUMP JUMPDEST JUMPDEST PUSH1 0x1 DUP3 ADD SWAP1 POP SWAP2 SWAP1 POP JUMP JUMPDEST PUSH32 0x4E487B7100000000000000000000000000000000000000000000000000000000 PUSH1 0x0 MSTORE PUSH1 0x31 PUSH1 0x4 MSTORE PUSH1 0x24 PUSH1 0x0 REVERT JUMPDEST PUSH32 0x455243313135353A206163636F756E747320616E6420696473206C656E677468 PUSH1 0x0 DUP3 ADD MSTORE PUSH32 0x206D69736D617463680000000000000000000000000000000000000000000000 PUSH1 0x20 DUP3 ADD MSTORE POP JUMP JUMPDEST PUSH1 0x0 PUSH2 0x3D8C PUSH1 0x29 DUP4 PUSH2 0x2F81 JUMP JUMPDEST SWAP2 POP PUSH2 0x3D97 DUP3 PUSH2 0x3D30 JUMP JUMPDEST PUSH1 0x40 DUP3 ADD SWAP1 POP SWAP2 SWAP1 POP JUMP JUMPDEST PUSH1 0x0 PUSH1 0x20 DUP3 ADD SWAP1 POP DUP2 DUP2 SUB PUSH1 0x0 DUP4 ADD MSTORE PUSH2 0x3DBB DUP2 PUSH2 0x3D7F JUMP JUMPDEST SWAP1 POP SWAP2 SWAP1 POP JUMP JUMPDEST PUSH32 0x4E6F742061646D696E0000000000000000000000000000000000000000000000 PUSH1 0x0 DUP3 ADD MSTORE POP JUMP JUMPDEST PUSH1 0x0 PUSH2 0x3DF8 PUSH1 0x9 DUP4 PUSH2 0x2F81 JUMP JUMPDEST SWAP2 POP PUSH2 0x3E03 DUP3 PUSH2 0x3DC2 JUMP JUMPDEST PUSH1 0x20 DUP3 ADD SWAP1 POP SWAP2 SWAP1 POP JUMP JUMPDEST PUSH1 0x0 PUSH1 0x20 DUP3 ADD SWAP1 POP DUP2 DUP2 SUB PUSH1 0x0 DUP4 ADD MSTORE PUSH2 0x3E27 DUP2 PUSH2 0x3DEB JUMP JUMPDEST SWAP1 POP SWAP2 SWAP1 POP JUMP JUMPDEST PUSH32 0x4E487B7100000000000000000000000000000000000000000000000000000000 PUSH1 0x0 MSTORE PUSH1 0x21 PUSH1 0x4 MSTORE PUSH1 0x24 PUSH1 0x0 REVERT JUMPDEST PUSH2 0x3E66 DUP2 PUSH2 0x3704 JUMP JUMPDEST DUP3 MSTORE POP POP JUMP JUMPDEST PUSH1 0x0 PUSH1 0x20 DUP3 ADD SWAP1 POP PUSH2 0x3E81 PUSH1 0x0 DUP4 ADD DUP5 PUSH2 0x3E5D JUMP JUMPDEST SWAP3 SWAP2 POP POP JUMP JUMPDEST PUSH32 0x547261736E666572732064697361626C65640000000000000000000000000000 PUSH1 0x0 DUP3 ADD MSTORE POP JUMP JUMPDEST PUSH1 0x0 PUSH2 0x3EBD PUSH1 0x12 DUP4 PUSH2 0x2F81 JUMP JUMPDEST SWAP2 POP PUSH2 0x3EC8 DUP3 PUSH2 0x3E87 JUMP JUMPDEST PUSH1 0x20 DUP3 ADD SWAP1 POP SWAP2 SWAP1 POP JUMP JUMPDEST PUSH1 0x0 PUSH1 0x20 DUP3 ADD SWAP1 POP DUP2 DUP2 SUB PUSH1 0x0 DUP4 ADD MSTORE PUSH2 0x3EEC DUP2 PUSH2 0x3EB0 JUMP JUMPDEST SWAP1 POP SWAP2 SWAP1 POP JUMP JUMPDEST PUSH32 0x455243313135353A2069647320616E6420616D6F756E7473206C656E67746820 PUSH1 0x0 DUP3 ADD MSTORE PUSH32 0x6D69736D61746368000000000000000000000000000000000000000000000000 PUSH1 0x20 DUP3 ADD MSTORE POP JUMP JUMPDEST PUSH1 0x0 PUSH2 0x3F4F PUSH1 0x28 DUP4 PUSH2 0x2F81 JUMP JUMPDEST SWAP2 POP PUSH2 0x3F5A DUP3 PUSH2 0x3EF3 JUMP JUMPDEST PUSH1 0x40 DUP3 ADD SWAP1 POP SWAP2 SWAP1 POP JUMP JUMPDEST PUSH1 0x0 PUSH1 0x20 DUP3 ADD SWAP1 POP DUP2 DUP2 SUB PUSH1 0x0 DUP4 ADD MSTORE PUSH2 0x3F7E DUP2 PUSH2 0x3F42 JUMP JUMPDEST SWAP1 POP SWAP2 SWAP1 POP JUMP JUMPDEST PUSH32 0x455243313135353A207472616E7366657220746F20746865207A65726F206164 PUSH1 0x0 DUP3 ADD MSTORE PUSH32 0x6472657373000000000000000000000000000000000000000000000000000000 PUSH1 0x20 DUP3 ADD MSTORE POP JUMP JUMPDEST PUSH1 0x0 PUSH2 0x3FE1 PUSH1 0x25 DUP4 PUSH2 0x2F81 JUMP JUMPDEST SWAP2 POP PUSH2 0x3FEC DUP3 PUSH2 0x3F85 JUMP JUMPDEST PUSH1 0x40 DUP3 ADD SWAP1 POP SWAP2 SWAP1 POP JUMP JUMPDEST PUSH1 0x0 PUSH1 0x20 DUP3 ADD SWAP1 POP DUP2 DUP2 SUB PUSH1 0x0 DUP4 ADD MSTORE PUSH2 0x4010 DUP2 PUSH2 0x3FD4 JUMP JUMPDEST SWAP1 POP SWAP2 SWAP1 POP JUMP JUMPDEST PUSH32 0x455243313135353A20696E73756666696369656E742062616C616E636520666F PUSH1 0x0 DUP3 ADD MSTORE PUSH32 0x72207472616E7366657200000000000000000000000000000000000000000000 PUSH1 0x20 DUP3 ADD MSTORE POP JUMP JUMPDEST PUSH1 0x0 PUSH2 0x4073 PUSH1 0x2A DUP4 PUSH2 0x2F81 JUMP JUMPDEST SWAP2 POP PUSH2 0x407E DUP3 PUSH2 0x4017 JUMP JUMPDEST PUSH1 0x40 DUP3 ADD SWAP1 POP SWAP2 SWAP1 POP JUMP JUMPDEST PUSH1 0x0 PUSH1 0x20 DUP3 ADD SWAP1 POP DUP2 DUP2 SUB PUSH1 0x0 DUP4 ADD MSTORE PUSH2 0x40A2 DUP2 PUSH2 0x4066 JUMP JUMPDEST SWAP1 POP SWAP2 SWAP1 POP JUMP JUMPDEST PUSH1 0x0 PUSH1 0x40 DUP3 ADD SWAP1 POP DUP2 DUP2 SUB PUSH1 0x0 DUP4 ADD MSTORE PUSH2 0x40C3 DUP2 DUP6 PUSH2 0x35E5 JUMP JUMPDEST SWAP1 POP DUP2 DUP2 SUB PUSH1 0x20 DUP4 ADD MSTORE PUSH2 0x40D7 DUP2 DUP5 PUSH2 0x35E5 JUMP JUMPDEST SWAP1 POP SWAP4 SWAP3 POP POP POP JUMP JUMPDEST PUSH32 0x455243313135353A206D696E7420746F20746865207A65726F20616464726573 PUSH1 0x0 DUP3 ADD MSTORE PUSH32 0x7300000000000000000000000000000000000000000000000000000000000000 PUSH1 0x20 DUP3 ADD MSTORE POP JUMP JUMPDEST PUSH1 0x0 PUSH2 0x413C PUSH1 0x21 DUP4 PUSH2 0x2F81 JUMP JUMPDEST SWAP2 POP PUSH2 0x4147 DUP3 PUSH2 0x40E0 JUMP JUMPDEST PUSH1 0x40 DUP3 ADD SWAP1 POP SWAP2 SWAP1 POP JUMP JUMPDEST PUSH1 0x0 PUSH1 0x20 DUP3 ADD SWAP1 POP DUP2 DUP2 SUB PUSH1 0x0 DUP4 ADD MSTORE PUSH2 0x416B DUP2 PUSH2 0x412F JUMP JUMPDEST SWAP1 POP SWAP2 SWAP1 POP JUMP JUMPDEST PUSH1 0x0 PUSH1 0x40 DUP3 ADD SWAP1 POP PUSH2 0x4187 PUSH1 0x0 DUP4 ADD DUP6 PUSH2 0x2E64 JUMP JUMPDEST PUSH2 0x4194 PUSH1 0x20 DUP4 ADD DUP5 PUSH2 0x2E64 JUMP JUMPDEST SWAP4 SWAP3 POP POP POP JUMP JUMPDEST PUSH1 0x0 PUSH1 0x2 SWAP1 POP SWAP2 SWAP1 POP JUMP JUMPDEST PUSH1 0x0 DUP2 SWAP1 POP SWAP3 SWAP2 POP POP JUMP JUMPDEST PUSH1 0x0 DUP2 SWAP1 POP SWAP2 SWAP1 POP JUMP JUMPDEST PUSH1 0x0 PUSH1 0x20 DUP3 ADD SWAP1 POP SWAP2 SWAP1 POP JUMP JUMPDEST PUSH2 0x41D1 DUP2 PUSH2 0x419B JUMP JUMPDEST PUSH2 0x41DB DUP2 DUP5 PUSH2 0x41A6 JUMP JUMPDEST SWAP3 POP PUSH2 0x41E6 DUP3 PUSH2 0x41B1 JUMP JUMPDEST DUP1 PUSH1 0x0 JUMPDEST DUP4 DUP2 LT ISZERO PUSH2 0x4217 JUMPI DUP2 MLOAD PUSH2 0x41FE DUP8 DUP3 PUSH2 0x35C0 JUMP JUMPDEST SWAP7 POP PUSH2 0x4209 DUP4 PUSH2 0x41BB JUMP JUMPDEST SWAP3 POP POP PUSH1 0x1 DUP2 ADD SWAP1 POP PUSH2 0x41EA JUMP JUMPDEST POP POP POP POP POP POP JUMP JUMPDEST PUSH1 0x0 PUSH1 0x2 SWAP1 POP SWAP2 SWAP1 POP JUMP JUMPDEST PUSH1 0x0 DUP2 SWAP1 POP SWAP3 SWAP2 POP POP JUMP JUMPDEST PUSH1 0x0 DUP2 SWAP1 POP SWAP2 SWAP1 POP JUMP JUMPDEST PUSH1 0x0 DUP2 SWAP1 POP SWAP3 SWAP2 POP POP JUMP JUMPDEST PUSH2 0x4253 DUP2 PUSH2 0x419B JUMP JUMPDEST PUSH2 0x425D DUP2 DUP5 PUSH2 0x423F JUMP JUMPDEST SWAP3 POP PUSH2 0x4268 DUP3 PUSH2 0x41B1 JUMP JUMPDEST DUP1 PUSH1 0x0 JUMPDEST DUP4 DUP2 LT ISZERO PUSH2 0x4299 JUMPI DUP2 MLOAD PUSH2 0x4280 DUP8 DUP3 PUSH2 0x35C0 JUMP JUMPDEST SWAP7 POP PUSH2 0x428B DUP4 PUSH2 0x41BB JUMP JUMPDEST SWAP3 POP POP PUSH1 0x1 DUP2 ADD SWAP1 POP PUSH2 0x426C JUMP JUMPDEST POP POP POP POP POP POP JUMP JUMPDEST PUSH1 0x0 PUSH2 0x42AD DUP4 DUP4 PUSH2 0x424A JUMP JUMPDEST PUSH1 0x40 DUP4 ADD SWAP1 POP SWAP3 SWAP2 POP POP JUMP JUMPDEST PUSH1 0x0 PUSH1 0x20 DUP3 ADD SWAP1 POP SWAP2 SWAP1 POP JUMP JUMPDEST PUSH2 0x42CF DUP2 PUSH2 0x421F JUMP JUMPDEST PUSH2 0x42D9 DUP2 DUP5 PUSH2 0x422A JUMP JUMPDEST SWAP3 POP PUSH2 0x42E4 DUP3 PUSH2 0x4235 JUMP JUMPDEST DUP1 PUSH1 0x0 JUMPDEST DUP4 DUP2 LT ISZERO PUSH2 0x4315 JUMPI DUP2 MLOAD PUSH2 0x42FC DUP8 DUP3 PUSH2 0x42A1 JUMP JUMPDEST SWAP7 POP PUSH2 0x4307 DUP4 PUSH2 0x42B9 JUMP JUMPDEST SWAP3 POP POP PUSH1 0x1 DUP2 ADD SWAP1 POP PUSH2 0x42E8 JUMP JUMPDEST POP POP POP POP POP POP JUMP JUMPDEST PUSH1 0x0 PUSH1 0x4 SWAP1 POP SWAP2 SWAP1 POP JUMP JUMPDEST PUSH1 0x0 DUP2 SWAP1 POP SWAP3 SWAP2 POP POP JUMP JUMPDEST PUSH1 0x0 DUP2 SWAP1 POP SWAP2 SWAP1 POP JUMP JUMPDEST PUSH1 0x0 PUSH1 0x20 DUP3 ADD SWAP1 POP SWAP2 SWAP1 POP JUMP JUMPDEST PUSH2 0x4353 DUP2 PUSH2 0x431D JUMP JUMPDEST PUSH2 0x435D DUP2 DUP5 PUSH2 0x4328 JUMP JUMPDEST SWAP3 POP PUSH2 0x4368 DUP3 PUSH2 0x4333 JUMP JUMPDEST DUP1 PUSH1 0x0 JUMPDEST DUP4 DUP2 LT ISZERO PUSH2 0x4399 JUMPI DUP2 MLOAD PUSH2 0x4380 DUP8 DUP3 PUSH2 0x35C0 JUMP JUMPDEST SWAP7 POP PUSH2 0x438B DUP4 PUSH2 0x433D JUMP JUMPDEST SWAP3 POP POP PUSH1 0x1 DUP2 ADD SWAP1 POP PUSH2 0x436C JUMP JUMPDEST POP POP POP POP POP POP JUMP JUMPDEST PUSH1 0x0 PUSH2 0x180 DUP3 ADD SWAP1 POP PUSH2 0x43B7 PUSH1 0x0 DUP4 ADD DUP8 PUSH2 0x41C8 JUMP JUMPDEST PUSH2 0x43C4 PUSH1 0x40 DUP4 ADD DUP7 PUSH2 0x42C6 JUMP JUMPDEST PUSH2 0x43D1 PUSH1 0xC0 DUP4 ADD DUP6 PUSH2 0x41C8 JUMP JUMPDEST PUSH2 0x43DF PUSH2 0x100 DUP4 ADD DUP5 PUSH2 0x434A JUMP JUMPDEST SWAP6 SWAP5 POP POP POP POP POP JUMP JUMPDEST PUSH32 0x455243313135353A2073657474696E6720617070726F76616C20737461747573 PUSH1 0x0 DUP3 ADD MSTORE PUSH32 0x20666F722073656C660000000000000000000000000000000000000000000000 PUSH1 0x20 DUP3 ADD MSTORE POP JUMP JUMPDEST PUSH1 0x0 PUSH2 0x4444 PUSH1 0x29 DUP4 PUSH2 0x2F81 JUMP JUMPDEST SWAP2 POP PUSH2 0x444F DUP3 PUSH2 0x43E8 JUMP JUMPDEST PUSH1 0x40 DUP3 ADD SWAP1 POP SWAP2 SWAP1 POP JUMP JUMPDEST PUSH1 0x0 PUSH1 0x20 DUP3 ADD SWAP1 POP DUP2 DUP2 SUB PUSH1 0x0 DUP4 ADD MSTORE PUSH2 0x4473 DUP2 PUSH2 0x4437 JUMP JUMPDEST SWAP1 POP SWAP2 SWAP1 POP JUMP JUMPDEST PUSH1 0x0 DUP2 MLOAD SWAP1 POP SWAP2 SWAP1 POP JUMP JUMPDEST PUSH1 0x0 DUP3 DUP3 MSTORE PUSH1 0x20 DUP3 ADD SWAP1 POP SWAP3 SWAP2 POP POP JUMP JUMPDEST PUSH1 0x0 PUSH2 0x44A1 DUP3 PUSH2 0x447A JUMP JUMPDEST PUSH2 0x44AB DUP2 DUP6 PUSH2 0x4485 JUMP JUMPDEST SWAP4 POP PUSH2 0x44BB DUP2 DUP6 PUSH1 0x20 DUP7 ADD PUSH2 0x2F92 JUMP JUMPDEST PUSH2 0x44C4 DUP2 PUSH2 0x2FBC JUMP JUMPDEST DUP5 ADD SWAP2 POP POP SWAP3 SWAP2 POP POP JUMP JUMPDEST PUSH1 0x0 PUSH1 0xA0 DUP3 ADD SWAP1 POP PUSH2 0x44E4 PUSH1 0x0 DUP4 ADD DUP9 PUSH2 0x382B JUMP JUMPDEST PUSH2 0x44F1 PUSH1 0x20 DUP4 ADD DUP8 PUSH2 0x382B JUMP JUMPDEST DUP2 DUP2 SUB PUSH1 0x40 DUP4 ADD MSTORE PUSH2 0x4503 DUP2 DUP7 PUSH2 0x35E5 JUMP JUMPDEST SWAP1 POP DUP2 DUP2 SUB PUSH1 0x60 DUP4 ADD MSTORE PUSH2 0x4517 DUP2 DUP6 PUSH2 0x35E5 JUMP JUMPDEST SWAP1 POP DUP2 DUP2 SUB PUSH1 0x80 DUP4 ADD MSTORE PUSH2 0x452B DUP2 DUP5 PUSH2 0x4496 JUMP JUMPDEST SWAP1 POP SWAP7 SWAP6 POP POP POP POP POP POP JUMP JUMPDEST PUSH1 0x0 DUP2 MLOAD SWAP1 POP PUSH2 0x4546 DUP2 PUSH2 0x2EBA JUMP JUMPDEST SWAP3 SWAP2 POP POP JUMP JUMPDEST PUSH1 0x0 PUSH1 0x20 DUP3 DUP5 SUB SLT ISZERO PUSH2 0x4562 JUMPI PUSH2 0x4561 PUSH2 0x2D86 JUMP JUMPDEST JUMPDEST PUSH1 0x0 PUSH2 0x4570 DUP5 DUP3 DUP6 ADD PUSH2 0x4537 JUMP JUMPDEST SWAP2 POP POP SWAP3 SWAP2 POP POP JUMP JUMPDEST PUSH1 0x0 DUP2 PUSH1 0xE0 SHR SWAP1 POP SWAP2 SWAP1 POP JUMP JUMPDEST PUSH1 0x0 PUSH1 0x3 RETURNDATASIZE GT ISZERO PUSH2 0x45A5 JUMPI PUSH1 0x4 PUSH1 0x0 DUP1 RETURNDATACOPY PUSH2 0x45A2 PUSH1 0x0 MLOAD PUSH2 0x4579 JUMP JUMPDEST SWAP1 POP JUMPDEST SWAP1 JUMP JUMPDEST PUSH1 0x0 PUSH1 0x44 RETURNDATASIZE LT PUSH2 0x4635 JUMPI PUSH2 0x45BA PUSH2 0x2D7C JUMP JUMPDEST PUSH1 0x4 RETURNDATASIZE SUB PUSH1 0x4 DUP3 RETURNDATACOPY DUP1 MLOAD RETURNDATASIZE PUSH1 0x24 DUP3 ADD GT PUSH8 0xFFFFFFFFFFFFFFFF DUP3 GT OR ISZERO PUSH2 0x45E2 JUMPI POP POP PUSH2 0x4635 JUMP JUMPDEST DUP1 DUP3 ADD DUP1 MLOAD PUSH8 0xFFFFFFFFFFFFFFFF DUP2 GT ISZERO PUSH2 0x4600 JUMPI POP POP POP POP PUSH2 0x4635 JUMP JUMPDEST DUP1 PUSH1 0x20 DUP4 ADD ADD PUSH1 0x4 RETURNDATASIZE SUB DUP6 ADD DUP2 GT ISZERO PUSH2 0x461D JUMPI POP POP POP POP POP PUSH2 0x4635 JUMP JUMPDEST PUSH2 0x462C DUP3 PUSH1 0x20 ADD DUP6 ADD DUP7 PUSH2 0x3089 JUMP JUMPDEST DUP3 SWAP6 POP POP POP POP POP POP JUMPDEST SWAP1 JUMP JUMPDEST PUSH32 0x455243313135353A207472616E7366657220746F206E6F6E2045524331313535 PUSH1 0x0 DUP3 ADD MSTORE PUSH32 0x526563656976657220696D706C656D656E746572000000000000000000000000 PUSH1 0x20 DUP3 ADD MSTORE POP JUMP JUMPDEST PUSH1 0x0 PUSH2 0x4694 PUSH1 0x34 DUP4 PUSH2 0x2F81 JUMP JUMPDEST SWAP2 POP PUSH2 0x469F DUP3 PUSH2 0x4638 JUMP JUMPDEST PUSH1 0x40 DUP3 ADD SWAP1 POP SWAP2 SWAP1 POP JUMP JUMPDEST PUSH1 0x0 PUSH1 0x20 DUP3 ADD SWAP1 POP DUP2 DUP2 SUB PUSH1 0x0 DUP4 ADD MSTORE PUSH2 0x46C3 DUP2 PUSH2 0x4687 JUMP JUMPDEST SWAP1 POP SWAP2 SWAP1 POP JUMP JUMPDEST PUSH32 0x455243313135353A204552433131353552656365697665722072656A65637465 PUSH1 0x0 DUP3 ADD MSTORE PUSH32 0x6420746F6B656E73000000000000000000000000000000000000000000000000 PUSH1 0x20 DUP3 ADD MSTORE POP JUMP JUMPDEST PUSH1 0x0 PUSH2 0x4726 PUSH1 0x28 DUP4 PUSH2 0x2F81 JUMP JUMPDEST SWAP2 POP PUSH2 0x4731 DUP3 PUSH2 0x46CA JUMP JUMPDEST PUSH1 0x40 DUP3 ADD SWAP1 POP SWAP2 SWAP1 POP JUMP JUMPDEST PUSH1 0x0 PUSH1 0x20 DUP3 ADD SWAP1 POP DUP2 DUP2 SUB PUSH1 0x0 DUP4 ADD MSTORE PUSH2 0x4755 DUP2 PUSH2 0x4719 JUMP JUMPDEST SWAP1 POP SWAP2 SWAP1 POP JUMP JUMPDEST PUSH1 0x0 PUSH1 0xA0 DUP3 ADD SWAP1 POP PUSH2 0x4771 PUSH1 0x0 DUP4 ADD DUP9 PUSH2 0x382B JUMP JUMPDEST PUSH2 0x477E PUSH1 0x20 DUP4 ADD DUP8 PUSH2 0x382B JUMP JUMPDEST PUSH2 0x478B PUSH1 0x40 DUP4 ADD DUP7 PUSH2 0x2E64 JUMP JUMPDEST PUSH2 0x4798 PUSH1 0x60 DUP4 ADD DUP6 PUSH2 0x2E64 JUMP JUMPDEST DUP2 DUP2 SUB PUSH1 0x80 DUP4 ADD MSTORE PUSH2 0x47AA DUP2 DUP5 PUSH2 0x4496 JUMP JUMPDEST SWAP1 POP SWAP7 SWAP6 POP POP POP POP POP POP JUMP JUMPDEST PUSH1 0x0 DUP2 SWAP1 POP SWAP2 SWAP1 POP JUMP JUMPDEST PUSH2 0x47D1 PUSH2 0x47CC DUP3 PUSH2 0x3704 JUMP JUMPDEST PUSH2 0x47B6 JUMP JUMPDEST DUP3 MSTORE POP POP JUMP JUMPDEST PUSH1 0x0 PUSH2 0x47E3 DUP3 DUP5 PUSH2 0x47C0 JUMP JUMPDEST PUSH1 0x20 DUP3 ADD SWAP2 POP DUP2 SWAP1 POP SWAP3 SWAP2 POP POP JUMP INVALID LOG2 PUSH5 0x6970667358 0x22 SLT KECCAK256 SWAP3 0xD CALL 0xEF 0xC2 PUSH20 0x2F92DC9560D49CC5806A0B990743A715F8569339 CHAINID SWAP13 0xAB PUSH19 0xE8A264736F6C63430008130033000000000000 "},"methodIdentifiers":{"addAdmins(address[])":"9c54df64","airdrop(address[],uint256,uint256,bytes)":"562592ef","balanceOf(address,uint256)":"00fdd58e","balanceOfBatch(address[],uint256[])":"4e1273f4","castVote(bytes32,uint256,uint256,uint256[8])":"633f439d","createPoll(uint256,address,uint256,uint256)":"70eff6ad","endPoll(uint256)":"f43b8778","getAdmins()":"31ae450b","getBurn()":"b8ccaedd","getMerkleTreeDepth(uint256)":"6389e107","getMerkleTreeRoot(uint256)":"dabc4d51","getPollState(uint256)":"afdda4ec","getSuperAdmin()":"8204c326","getTransfer()":"b87141bf","isApprovedForAll(address,address)":"e985e9c5","removeAdmins(address[])":"377e11e0","safeBatchTransferFrom(address,address,uint256[],uint256[],bytes)":"2eb2c2d6","safeTransferFrom(address,address,uint256,uint256,bytes)":"f242432a","setApprovalForAll(address,bool)":"a22cb465","setBurn(bool)":"bd55cf0d","setSuperAdmin(address)":"15700052","setTransfer(bool)":"a296b323","supportsInterface(bytes4)":"01ffc9a7","uri(uint256)":"0e89341c"}}}}}