{"@zk-kit/incremental-merkle-tree.sol/IncrementalBinaryTree.sol":{"IncrementalBinaryTree":{"abi":[{"inputs":[],"name":"Z_0","outputs":[{"internalType":"uint256","name":"","type":"uint256"}],"stateMutability":"view","type":"function"},{"inputs":[],"name":"Z_1","outputs":[{"internalType":"uint256","name":"","type":"uint256"}],"stateMutability":"view","type":"function"},{"inputs":[],"name":"Z_10","outputs":[{"internalType":"uint256","name":"","type":"uint256"}],"stateMutability":"view","type":"function"},{"inputs":[],"name":"Z_11","outputs":[{"internalType":"uint256","name":"","type":"uint256"}],"stateMutability":"view","type":"function"},{"inputs":[],"name":"Z_12","outputs":[{"internalType":"uint256","name":"","type":"uint256"}],"stateMutability":"view","type":"function"},{"inputs":[],"name":"Z_13","outputs":[{"internalType":"uint256","name":"","type":"uint256"}],"stateMutability":"view","type":"function"},{"inputs":[],"name":"Z_14","outputs":[{"internalType":"uint256","name":"","type":"uint256"}],"stateMutability":"view","type":"function"},{"inputs":[],"name":"Z_15","outputs":[{"internalType":"uint256","name":"","type":"uint256"}],"stateMutability":"view","type":"function"},{"inputs":[],"name":"Z_16","outputs":[{"internalType":"uint256","name":"","type":"uint256"}],"stateMutability":"view","type":"function"},{"inputs":[],"name":"Z_17","outputs":[{"internalType":"uint256","name":"","type":"uint256"}],"stateMutability":"view","type":"function"},{"inputs":[],"name":"Z_18","outputs":[{"internalType":"uint256","name":"","type":"uint256"}],"stateMutability":"view","type":"function"},{"inputs":[],"name":"Z_19","outputs":[{"internalType":"uint256","name":"","type":"uint256"}],"stateMutability":"view","type":"function"},{"inputs":[],"name":"Z_2","outputs":[{"internalType":"uint256","name":"","type":"uint256"}],"stateMutability":"view","type":"function"},{"inputs":[],"name":"Z_20","outputs":[{"internalType":"uint256","name":"","type":"uint256"}],"stateMutability":"view","type":"function"},{"inputs":[],"name":"Z_21","outputs":[{"internalType":"uint256","name":"","type":"uint256"}],"stateMutability":"view","type":"function"},{"inputs":[],"name":"Z_22","outputs":[{"internalType":"uint256","name":"","type":"uint256"}],"stateMutability":"view","type":"function"},{"inputs":[],"name":"Z_23","outputs":[{"internalType":"uint256","name":"","type":"uint256"}],"stateMutability":"view","type":"function"},{"inputs":[],"name":"Z_24","outputs":[{"internalType":"uint256","name":"","type":"uint256"}],"stateMutability":"view","type":"function"},{"inputs":[],"name":"Z_25","outputs":[{"internalType":"uint256","name":"","type":"uint256"}],"stateMutability":"view","type":"function"},{"inputs":[],"name":"Z_26","outputs":[{"internalType":"uint256","name":"","type":"uint256"}],"stateMutability":"view","type":"function"},{"inputs":[],"name":"Z_27","outputs":[{"internalType":"uint256","name":"","type":"uint256"}],"stateMutability":"view","type":"function"},{"inputs":[],"name":"Z_28","outputs":[{"internalType":"uint256","name":"","type":"uint256"}],"stateMutability":"view","type":"function"},{"inputs":[],"name":"Z_29","outputs":[{"internalType":"uint256","name":"","type":"uint256"}],"stateMutability":"view","type":"function"},{"inputs":[],"name":"Z_3","outputs":[{"internalType":"uint256","name":"","type":"uint256"}],"stateMutability":"view","type":"function"},{"inputs":[],"name":"Z_30","outputs":[{"internalType":"uint256","name":"","type":"uint256"}],"stateMutability":"view","type":"function"},{"inputs":[],"name":"Z_31","outputs":[{"internalType":"uint256","name":"","type":"uint256"}],"stateMutability":"view","type":"function"},{"inputs":[],"name":"Z_32","outputs":[{"internalType":"uint256","name":"","type":"uint256"}],"stateMutability":"view","type":"function"},{"inputs":[],"name":"Z_4","outputs":[{"internalType":"uint256","name":"","type":"uint256"}],"stateMutability":"view","type":"function"},{"inputs":[],"name":"Z_5","outputs":[{"internalType":"uint256","name":"","type":"uint256"}],"stateMutability":"view","type":"function"},{"inputs":[],"name":"Z_6","outputs":[{"internalType":"uint256","name":"","type":"uint256"}],"stateMutability":"view","type":"function"},{"inputs":[],"name":"Z_7","outputs":[{"internalType":"uint256","name":"","type":"uint256"}],"stateMutability":"view","type":"function"},{"inputs":[],"name":"Z_8","outputs":[{"internalType":"uint256","name":"","type":"uint256"}],"stateMutability":"view","type":"function"},{"inputs":[],"name":"Z_9","outputs":[{"internalType":"uint256","name":"","type":"uint256"}],"stateMutability":"view","type":"function"},{"inputs":[{"internalType":"uint256","name":"index","type":"uint256"}],"name":"defaultZero","outputs":[{"internalType":"uint256","name":"","type":"uint256"}],"stateMutability":"pure","type":"function"}],"evm":{"bytecode":{"linkReferences":{"poseidon-solidity/PoseidonT3.sol":{"PoseidonT3":[{"length":20,"start":2243},{"length":20,"start":3002},{"length":20,"start":6071},{"length":20,"start":6375},{"length":20,"start":7603},{"length":20,"start":7778}]}},"object":"612dc4610053600b82828239805160001a607314610046577f4e487b7100000000000000000000000000000000000000000000000000000000600052600060045260246000fd5b30600052607381538281f3fe73000000000000000000000000000000000000000030146080604052600436106102475760003560e01c806365ad985e11610145578063b1849a1a116100c2578063c7fadc6711610086578063c7fadc67146106a5578063ccbad174146106c3578063d2aa5c62146106e1578063eb095a7d146106ff578063f49babe61461071d57610247565b8063b1849a1a1461060f578063b410396a1461062d578063b5f35eb91461064b578063c0c5bf6714610669578063c6675bbf1461068757610247565b80639bf21071116101095780639bf210711461056e5780639cda47741461058c578063a3205067146105aa578063a5478827146105c8578063af9d047c146105f157610247565b806365ad985e146104d857806365f7bec3146104f65780638836ccf61461051457806389d0e93214610532578063948042151461055057610247565b80633994a957116101d3578063565b427e11610197578063565b427e14610442578063583f8af4146104605780635da707d41461047e5780635fcde0671461049c57806364048bf2146104ba57610247565b80633994a957146103ac57806344f9e1ac146103ca57806352be1fb8146103e857806354f5a9011461040657806355005f761461042457610247565b8063168703fa1161021a578063168703fa146102e557806318f18fb1146103225780631ddbea001461035257806330314fc014610370578063309ec3c31461038e57610247565b80630629596f1461024c5780631095fbb414610275578063115055441461029e57806312b3a2fb146102bc575b600080fd5b81801561025857600080fd5b50610273600480360381019061026e9190612067565b61073b565b005b81801561028157600080fd5b5061029c6004803603810190610297919061210e565b610785565b005b6102a6610916565b6040516102b39190612170565b60405180910390f35b8180156102c857600080fd5b506102e360048036038101906102de919061218b565b61093a565b005b8180156102f157600080fd5b5061030c6004803603810190610307919061218b565b6109c8565b6040516103199190612170565b60405180910390f35b61033c600480360381019061033791906121cb565b610c3b565b6040516103499190612170565b60405180910390f35b61035a61128d565b6040516103679190612170565b60405180910390f35b6103786112b1565b6040516103859190612170565b60405180910390f35b6103966112d5565b6040516103a39190612170565b60405180910390f35b6103b46112f9565b6040516103c19190612170565b60405180910390f35b6103d261131d565b6040516103df9190612170565b60405180910390f35b6103f0611341565b6040516103fd9190612170565b60405180910390f35b61040e611365565b60405161041b9190612170565b60405180910390f35b61042c611389565b6040516104399190612170565b60405180910390f35b61044a6113ad565b6040516104579190612170565b60405180910390f35b6104686113d1565b6040516104759190612170565b60405180910390f35b6104866113f5565b6040516104939190612170565b60405180910390f35b6104a4611419565b6040516104b19190612170565b60405180910390f35b6104c261143d565b6040516104cf9190612170565b60405180910390f35b6104e0611461565b6040516104ed9190612170565b60405180910390f35b6104fe611466565b60405161050b9190612170565b60405180910390f35b61051c61148a565b6040516105299190612170565b60405180910390f35b61053a6114ae565b6040516105479190612170565b60405180910390f35b6105586114d2565b6040516105659190612170565b60405180910390f35b6105766114f6565b6040516105839190612170565b60405180910390f35b61059461151a565b6040516105a19190612170565b60405180910390f35b6105b261153e565b6040516105bf9190612170565b60405180910390f35b8180156105d457600080fd5b506105ef60048036038101906105ea91906121f8565b611562565b005b6105f96119a4565b6040516106069190612170565b60405180910390f35b6106176119c8565b6040516106249190612170565b60405180910390f35b6106356119ec565b6040516106429190612170565b60405180910390f35b610653611a10565b6040516106609190612170565b60405180910390f35b610671611a34565b60405161067e9190612170565b60405180910390f35b61068f611a58565b60405161069c9190612170565b60405180910390f35b6106ad611a7c565b6040516106ba9190612170565b60405180910390f35b6106cb611aa0565b6040516106d89190612170565b60405180910390f35b6106e9611ac4565b6040516106f69190612170565b60405180910390f35b610707611ae8565b6040516107149190612170565b60405180910390f35b610725611b0c565b6040516107329190612170565b60405180910390f35b61077d86868860050160009054906101000a900460ff166107715788600301600080815260200190815260200160002054610774565b60005b87878787611562565b505050505050565b7f30644e72e131a029b85045b68181585d2833e84879b9709143e1f593f000000181106107e7576040517f08c379a00000000000000000000000000000000000000000000000000000000081526004016107de90612337565b60405180910390fd5b6000821180156107fb5750602060ff168211155b61083a576040517f08c379a0000000000000000000000000000000000000000000000000000000008152600401610831906123c9565b60405180910390fd5b81836000018190555060005b828160ff16101561090757818460030160008360ff1681526020019081526020016000208190555073__$75f79a42d9bcbdbb69ad79ebd80f556f39$__63561558fe6040518060400160405280858152602001858152506040518263ffffffff1660e01b81526004016108b99190612494565b602060405180830381865af41580156108d6573d6000803e3d6000fd5b505050506040513d601f19601f820116820180604052508101906108fa91906124c4565b9150806001019050610846565b50808360010181905550505050565b7f120c58f143d491e95902f7f5277778a2e0ad5168f6add75669932630ce61151881565b60008111801561094e5750602060ff168111155b61098d576040517f08c379a0000000000000000000000000000000000000000000000000000000008152600401610984906123c9565b60405180910390fd5b80826000018190555060018260050160006101000a81548160ff0219169083151502179055506109bc81610c3b565b82600101819055505050565b600080836000015490507f30644e72e131a029b85045b68181585d2833e84879b9709143e1f593f00000018310610a34576040517f08c379a0000000000000000000000000000000000000000000000000000000008152600401610a2b90612337565b60405180910390fd5b806002610a419190612653565b846002015410610a86576040517f08c379a0000000000000000000000000000000000000000000000000000000008152600401610a7d90612710565b60405180910390fd5b600084600201549050600084905060008660050160009054906101000a900460ff16905060005b848160ff161015610c085760006001851603610b3357604051806040016040528084815260200183610af7578960030160008460ff16815260200190815260200160002054610b04565b610b038360ff16610c3b565b5b8152508860040160008360ff168152602001908152602001600020906002610b2d929190611ed9565b50610b65565b828860040160008360ff168152602001908152602001600020600160028110610b5f57610b5e612730565b5b01819055505b73__$75f79a42d9bcbdbb69ad79ebd80f556f39$__63561558fe8960040160008460ff1681526020019081526020016000206040518263ffffffff1660e01b8152600401610bb39190612823565b602060405180830381865af4158015610bd0573d6000803e3d6000fd5b505050506040513d601f19601f82011682018060405250810190610bf491906124c4565b9250600184901c9350806001019050610aad565b508187600101819055506001876002016000828254610c27919061283e565b925050819055508194505050505092915050565b6000808203610c4d5760009050611288565b60018203610c7d577f2098f5fb9e239eab3ceac3f27b81e481dc3124d55ffed523a839ee8446b648649050611288565b60028203610cad577f1069673dcdb12263df301a6ff584a7ec261a44cb9dc68df067a4774460b1f1e19050611288565b60038203610cdd577f18f43331537ee2af2e3d758d50f72106467c6eea50371dd528d57eb2b856d2389050611288565b60048203610d0d577f07f9d837cb17b0d36320ffe93ba52345f1b728571a568265caac97559dbc952a9050611288565b60058203610d3d577f2b94cf5e8746b3f5c9631f4c5df32907a699c58c94b2ad4d7b5cec1639183f559050611288565b60068203610d6d577f2dee93c5a666459646ea7d22cca9e1bcfed71e6951b953611d11dda32ea09d789050611288565b60078203610d9d577f078295e5a22b84e982cf601eb639597b8b0515a88cb5ac7fa8a4aabe3c87349d9050611288565b60088203610dcd577f2fa5e5f18f6027a6501bec864564472a616b2e274a41211a444cbe3a99f3cc619050611288565b60098203610dfd577f0e884376d0d8fd21ecb780389e941f66e45e7acce3e228ab3e2156a614fcd7479050611288565b600a8203610e2d577f1b7201da72494f1e28717ad1a52eb469f95892f957713533de6175e5da190af29050611288565b600b8203610e5d577f1f8d8822725e36385200c0b201249819a6e6e1e4650808b5bebc6bface7d76369050611288565b600c8203610e8d577f2c5d82f66c914bafb9701589ba8cfcfb6162b0a12acf88a8d0879a0471b5f85a9050611288565b600d8203610ebd577f14c54148a0940bb820957f5adf3fa1134ef5c4aaa113f4646458f270e0bfbfd09050611288565b600e8203610eed577f190d33b12f986f961e10c0ee44d8b9af11be25588cad89d416118e4bf4ebe80c9050611288565b600f8203610f1d577f22f98aa9ce704152ac17354914ad73ed1167ae6596af510aa5b3649325e06c929050611288565b60108203610f4d577f2a7c7c9b6ce5880b9f6f228d72bf6a575a526f29c66ecceef8b753d38bba73239050611288565b60118203610f7d577f2e8186e558698ec1c67af9c14d463ffc470043c9c2988b954d75dd643f36b9929050611288565b60128203610fad577f0f57c5571e9a4eab49e2c8cf050dae948aef6ead647392273546249d1c1ff10f9050611288565b60138203610fdd577f1830ee67b5fb554ad5f63d4388800e1cfe78e310697d46e43c9ce36134f72cca9050611288565b6014820361100d577f2134e76ac5d21aab186c2be1dd8f84ee880a1e46eaf712f9d371b6df22191f3e9050611288565b6015820361103d577f19df90ec844ebc4ffeebd866f33859b0c051d8c958ee3aa88f8f8df3db91a5b19050611288565b6016820361106d577f18cca2a66b5c0787981e69aefd84852d74af0e93ef4912b4648c05f722efe52b9050611288565b6017820361109d577f2388909415230d1b4d1304d2d54f473a628338f2efad83fadf05644549d2538d9050611288565b601882036110cd577f27171fb4a97b6cc0e9e8f543b5294de866a2af2c9c8d0b1d96e673e4529ed5409050611288565b601982036110fd577f2ff6650540f629fd5711a0bc74fc0d28dcb230b9392583e5f8d59696dde6ae219050611288565b601a820361112d577f120c58f143d491e95902f7f5277778a2e0ad5168f6add75669932630ce6115189050611288565b601b820361115d577f1f21feb70d3f21b07bf853d5e5db03071ec495a0a565a21da2d665d2794837959050611288565b601c820361118d577f24be905fa71335e14c638cc0f66a8623a826e768068a9e968bb1a1dde18a72d29050611288565b601d82036111bd577f0f8666b62ed17491c50ceadead57d4cd597ef3821d65c328744c74e553dac26d9050611288565b601e82036111ed577f0918d46bf52d98b034413f4a1a1c41594e7a7a3f6ae08cb43d1a2a230e1959ef9050611288565b601f820361121d577f1bbeb01b4c479ecde76917645e404dfa2e26f90d0afc5a65128513ad375c5ff29050611288565b6020820361124d577f2f68a1c58e257e42a17a6c61dff5551ed560b9922ab119d5ac8e184c9734ead99050611288565b6040517f08c379a000000000000000000000000000000000000000000000000000000000815260040161127f906128e4565b60405180910390fd5b919050565b7f2388909415230d1b4d1304d2d54f473a628338f2efad83fadf05644549d2538d81565b7f18cca2a66b5c0787981e69aefd84852d74af0e93ef4912b4648c05f722efe52b81565b7f2e8186e558698ec1c67af9c14d463ffc470043c9c2988b954d75dd643f36b99281565b7f2ff6650540f629fd5711a0bc74fc0d28dcb230b9392583e5f8d59696dde6ae2181565b7f24be905fa71335e14c638cc0f66a8623a826e768068a9e968bb1a1dde18a72d281565b7f1069673dcdb12263df301a6ff584a7ec261a44cb9dc68df067a4774460b1f1e181565b7f14c54148a0940bb820957f5adf3fa1134ef5c4aaa113f4646458f270e0bfbfd081565b7f0f57c5571e9a4eab49e2c8cf050dae948aef6ead647392273546249d1c1ff10f81565b7f2dee93c5a666459646ea7d22cca9e1bcfed71e6951b953611d11dda32ea09d7881565b7f2fa5e5f18f6027a6501bec864564472a616b2e274a41211a444cbe3a99f3cc6181565b7f27171fb4a97b6cc0e9e8f543b5294de866a2af2c9c8d0b1d96e673e4529ed54081565b7f078295e5a22b84e982cf601eb639597b8b0515a88cb5ac7fa8a4aabe3c87349d81565b7f1830ee67b5fb554ad5f63d4388800e1cfe78e310697d46e43c9ce36134f72cca81565b600081565b7f190d33b12f986f961e10c0ee44d8b9af11be25588cad89d416118e4bf4ebe80c81565b7f18f43331537ee2af2e3d758d50f72106467c6eea50371dd528d57eb2b856d23881565b7f2a7c7c9b6ce5880b9f6f228d72bf6a575a526f29c66ecceef8b753d38bba732381565b7f0e884376d0d8fd21ecb780389e941f66e45e7acce3e228ab3e2156a614fcd74781565b7f2c5d82f66c914bafb9701589ba8cfcfb6162b0a12acf88a8d0879a0471b5f85a81565b7f0f8666b62ed17491c50ceadead57d4cd597ef3821d65c328744c74e553dac26d81565b7f22f98aa9ce704152ac17354914ad73ed1167ae6596af510aa5b3649325e06c9281565b8585036115a4576040517f08c379a000000000000000000000000000000000000000000000000000000000815260040161159b9061299c565b60405180910390fd5b7f30644e72e131a029b85045b68181585d2833e84879b9709143e1f593f00000018510611606576040517f08c379a00000000000000000000000000000000000000000000000000000000081526004016115fd90612a2e565b60405180910390fd5b611614878786868686611b30565b611653576040517f08c379a000000000000000000000000000000000000000000000000000000000815260040161164a90612ac0565b60405180910390fd5b6000876000015490506000869050600080600090505b838160ff161015611948578060ff1686868360ff1681811061168e5761168d612730565b5b90506020020160208101906116a39190612b19565b60ff16901b82179150600086868360ff168181106116c4576116c3612730565b5b90506020020160208101906116d99190612b19565b60ff1603611811578a60040160008260ff16815260200190815260200160002060016002811061170c5761170b612730565b5b015488888360ff1681811061172457611723612730565b5b905060200201350361176257828b60040160008360ff16815260200190815260200160002060006002811061175c5761175b612730565b5b01819055505b73__$75f79a42d9bcbdbb69ad79ebd80f556f39$__63561558fe60405180604001604052808681526020018b8b8660ff168181106117a3576117a2612730565b5b905060200201358152506040518263ffffffff1660e01b81526004016117c99190612494565b602060405180830381865af41580156117e6573d6000803e3d6000fd5b505050506040513d601f19601f8201168201806040525081019061180a91906124c4565b925061193d565b8a60040160008260ff16815260200190815260200160002060006002811061183c5761183b612730565b5b015488888360ff1681811061185457611853612730565b5b905060200201350361189257828b60040160008360ff16815260200190815260200160002060016002811061188c5761188b612730565b5b01819055505b73__$75f79a42d9bcbdbb69ad79ebd80f556f39$__63561558fe60405180604001604052808b8b8660ff168181106118cd576118cc612730565b5b905060200201358152602001868152506040518263ffffffff1660e01b81526004016118f99190612494565b602060405180830381865af4158015611916573d6000803e3d6000fd5b505050506040513d601f19601f8201168201806040525081019061193a91906124c4565b92505b806001019050611669565b508960020154811061198f576040517f08c379a000000000000000000000000000000000000000000000000000000000815260040161198690612bb8565b60405180910390fd5b818a6001018190555050505050505050505050565b7f0918d46bf52d98b034413f4a1a1c41594e7a7a3f6ae08cb43d1a2a230e1959ef81565b7f19df90ec844ebc4ffeebd866f33859b0c051d8c958ee3aa88f8f8df3db91a5b181565b7f1f21feb70d3f21b07bf853d5e5db03071ec495a0a565a21da2d665d27948379581565b7f2134e76ac5d21aab186c2be1dd8f84ee880a1e46eaf712f9d371b6df22191f3e81565b7f2b94cf5e8746b3f5c9631f4c5df32907a699c58c94b2ad4d7b5cec1639183f5581565b7f07f9d837cb17b0d36320ffe93ba52345f1b728571a568265caac97559dbc952a81565b7f1bbeb01b4c479ecde76917645e404dfa2e26f90d0afc5a65128513ad375c5ff281565b7f2098f5fb9e239eab3ceac3f27b81e481dc3124d55ffed523a839ee8446b6486481565b7f1f8d8822725e36385200c0b201249819a6e6e1e4650808b5bebc6bface7d763681565b7f1b7201da72494f1e28717ad1a52eb469f95892f957713533de6175e5da190af281565b7f2f68a1c58e257e42a17a6c61dff5551ed560b9922ab119d5ac8e184c9734ead981565b60007f30644e72e131a029b85045b68181585d2833e84879b9709143e1f593f00000018610611b94576040517f08c379a0000000000000000000000000000000000000000000000000000000008152600401611b8b90612337565b60405180910390fd5b6000876000015490508084849050148015611bb157508086869050145b611bf0576040517f08c379a0000000000000000000000000000000000000000000000000000000008152600401611be790612c4a565b60405180910390fd5b600087905060005b828160ff161015611ec3577f30644e72e131a029b85045b68181585d2833e84879b9709143e1f593f000000188888360ff16818110611c3a57611c39612730565b5b9050602002013510611c81576040517f08c379a0000000000000000000000000000000000000000000000000000000008152600401611c7890612cdc565b60405180910390fd5b600186868360ff16818110611c9957611c98612730565b5b9050602002016020810190611cae9190612b19565b60ff161480611cea5750600086868360ff16818110611cd057611ccf612730565b5b9050602002016020810190611ce59190612b19565b60ff16145b611d29576040517f08c379a0000000000000000000000000000000000000000000000000000000008152600401611d2090612d6e565b60405180910390fd5b600086868360ff16818110611d4157611d40612730565b5b9050602002016020810190611d569190612b19565b60ff1603611e0d5773__$75f79a42d9bcbdbb69ad79ebd80f556f39$__63561558fe60405180604001604052808581526020018b8b8660ff16818110611d9f57611d9e612730565b5b905060200201358152506040518263ffffffff1660e01b8152600401611dc59190612494565b602060405180830381865af4158015611de2573d6000803e3d6000fd5b505050506040513d601f19601f82011682018060405250810190611e0691906124c4565b9150611eb8565b73__$75f79a42d9bcbdbb69ad79ebd80f556f39$__63561558fe60405180604001604052808b8b8660ff16818110611e4857611e47612730565b5b905060200201358152602001858152506040518263ffffffff1660e01b8152600401611e749190612494565b602060405180830381865af4158015611e91573d6000803e3d6000fd5b505050506040513d601f19601f82011682018060405250810190611eb591906124c4565b91505b806001019050611bf8565b5088600101548114925050509695505050505050565b8260028101928215611f08579160200282015b82811115611f07578251825591602001919060010190611eec565b5b509050611f159190611f19565b5090565b5b80821115611f32576000816000905550600101611f1a565b5090565b600080fd5b600080fd5b6000819050919050565b611f5381611f40565b8114611f5e57600080fd5b50565b600081359050611f7081611f4a565b92915050565b6000819050919050565b611f8981611f76565b8114611f9457600080fd5b50565b600081359050611fa681611f80565b92915050565b600080fd5b600080fd5b600080fd5b60008083601f840112611fd157611fd0611fac565b5b8235905067ffffffffffffffff811115611fee57611fed611fb1565b5b60208301915083602082028301111561200a57612009611fb6565b5b9250929050565b60008083601f84011261202757612026611fac565b5b8235905067ffffffffffffffff81111561204457612043611fb1565b5b6020830191508360208202830111156120605761205f611fb6565b5b9250929050565b6000806000806000806080878903121561208457612083611f36565b5b600061209289828a01611f61565b96505060206120a389828a01611f97565b955050604087013567ffffffffffffffff8111156120c4576120c3611f3b565b5b6120d089828a01611fbb565b9450945050606087013567ffffffffffffffff8111156120f3576120f2611f3b565b5b6120ff89828a01612011565b92509250509295509295509295565b60008060006060848603121561212757612126611f36565b5b600061213586828701611f61565b935050602061214686828701611f97565b925050604061215786828701611f97565b9150509250925092565b61216a81611f76565b82525050565b60006020820190506121856000830184612161565b92915050565b600080604083850312156121a2576121a1611f36565b5b60006121b085828601611f61565b92505060206121c185828601611f97565b9150509250929050565b6000602082840312156121e1576121e0611f36565b5b60006121ef84828501611f97565b91505092915050565b600080600080600080600060a0888a03121561221757612216611f36565b5b60006122258a828b01611f61565b97505060206122368a828b01611f97565b96505060406122478a828b01611f97565b955050606088013567ffffffffffffffff81111561226857612267611f3b565b5b6122748a828b01611fbb565b9450945050608088013567ffffffffffffffff81111561229757612296611f3b565b5b6122a38a828b01612011565b925092505092959891949750929550565b600082825260208201905092915050565b7f496e6372656d656e74616c42696e617279547265653a206c656166206d75737460008201527f206265203c20534e41524b5f5343414c41525f4649454c440000000000000000602082015250565b60006123216038836122b4565b915061232c826122c5565b604082019050919050565b6000602082019050818103600083015261235081612314565b9050919050565b7f496e6372656d656e74616c42696e617279547265653a2074726565206465707460008201527f68206d757374206265206265747765656e203120616e64203332000000000000602082015250565b60006123b3603a836122b4565b91506123be82612357565b604082019050919050565b600060208201905081810360008301526123e2816123a6565b9050919050565b600060029050919050565b600081905092915050565b6000819050919050565b61241281611f76565b82525050565b60006124248383612409565b60208301905092915050565b6000602082019050919050565b612446816123e9565b61245081846123f4565b925061245b826123ff565b8060005b8381101561248c5781516124738782612418565b965061247e83612430565b92505060018101905061245f565b505050505050565b60006040820190506124a9600083018461243d565b92915050565b6000815190506124be81611f80565b92915050565b6000602082840312156124da576124d9611f36565b5b60006124e8848285016124af565b91505092915050565b7f4e487b7100000000000000000000000000000000000000000000000000000000600052601160045260246000fd5b60008160011c9050919050565b6000808291508390505b600185111561257757808604811115612553576125526124f1565b5b60018516156125625780820291505b808102905061257085612520565b9450612537565b94509492505050565b600082612590576001905061264c565b8161259e576000905061264c565b81600181146125b457600281146125be576125ed565b600191505061264c565b60ff8411156125d0576125cf6124f1565b5b8360020a9150848211156125e7576125e66124f1565b5b5061264c565b5060208310610133831016604e8410600b84101617156126225782820a90508381111561261d5761261c6124f1565b5b61264c565b61262f848484600161252d565b92509050818404811115612646576126456124f1565b5b81810290505b9392505050565b600061265e82611f76565b915061266983611f76565b92506126967fffffffffffffffffffffffffffffffffffffffffffffffffffffffffffffffff8484612580565b905092915050565b7f496e6372656d656e74616c42696e617279547265653a2074726565206973206660008201527f756c6c0000000000000000000000000000000000000000000000000000000000602082015250565b60006126fa6023836122b4565b91506127058261269e565b604082019050919050565b60006020820190508181036000830152612729816126ed565b9050919050565b7f4e487b7100000000000000000000000000000000000000000000000000000000600052603260045260246000fd5b600060029050919050565b6000819050919050565b60008160001c9050919050565b6000819050919050565b600061279e61279983612774565b612781565b9050919050565b60006127b1825461278b565b9050919050565b6000600182019050919050565b6127ce8161275f565b6127d881846123f4565b92506127e38261276a565b8060005b8381101561281b576127f8826127a5565b6128028782612418565b965061280d836127b8565b9250506001810190506127e7565b505050505050565b600060408201905061283860008301846127c5565b92915050565b600061284982611f76565b915061285483611f76565b925082820190508082111561286c5761286b6124f1565b5b92915050565b7f496e6372656d656e74616c42696e617279547265653a2064656661756c745a6560008201527f726f2062616420696e6465780000000000000000000000000000000000000000602082015250565b60006128ce602c836122b4565b91506128d982612872565b604082019050919050565b600060208201905081810360008301526128fd816128c1565b9050919050565b7f496e6372656d656e74616c42696e617279547265653a206e6577206c6561662060008201527f63616e6e6f74206265207468652073616d6520617320746865206f6c64206f6e60208201527f6500000000000000000000000000000000000000000000000000000000000000604082015250565b60006129866041836122b4565b915061299182612904565b606082019050919050565b600060208201905081810360008301526129b581612979565b9050919050565b7f496e6372656d656e74616c42696e617279547265653a206e6577206c6561662060008201527f6d757374206265203c20534e41524b5f5343414c41525f4649454c4400000000602082015250565b6000612a18603c836122b4565b9150612a23826129bc565b604082019050919050565b60006020820190508181036000830152612a4781612a0b565b9050919050565b7f496e6372656d656e74616c42696e617279547265653a206c656166206973206e60008201527f6f742070617274206f6620746865207472656500000000000000000000000000602082015250565b6000612aaa6033836122b4565b9150612ab582612a4e565b604082019050919050565b60006020820190508181036000830152612ad981612a9d565b9050919050565b600060ff82169050919050565b612af681612ae0565b8114612b0157600080fd5b50565b600081359050612b1381612aed565b92915050565b600060208284031215612b2f57612b2e611f36565b5b6000612b3d84828501612b04565b91505092915050565b7f496e6372656d656e74616c42696e617279547265653a206c65616620696e646560008201527f78206f7574206f662072616e6765000000000000000000000000000000000000602082015250565b6000612ba2602e836122b4565b9150612bad82612b46565b604082019050919050565b60006020820190508181036000830152612bd181612b95565b9050919050565b7f496e6372656d656e74616c42696e617279547265653a206c656e677468206f6660008201527f2070617468206973206e6f7420636f7272656374000000000000000000000000602082015250565b6000612c346034836122b4565b9150612c3f82612bd8565b604082019050919050565b60006020820190508181036000830152612c6381612c27565b9050919050565b7f496e6372656d656e74616c42696e617279547265653a207369626c696e67206e60008201527f6f6465206d757374206265203c20534e41524b5f5343414c41525f4649454c44602082015250565b6000612cc66040836122b4565b9150612cd182612c6a565b604082019050919050565b60006020820190508181036000830152612cf581612cb9565b9050919050565b7f496e6372656d656e74616c42696e617279547265653a207061746820696e646560008201527f78206973206e6569746865722030206e6f722031000000000000000000000000602082015250565b6000612d586034836122b4565b9150612d6382612cfc565b604082019050919050565b60006020820190508181036000830152612d8781612d4b565b905091905056fea2646970667358221220debcf5c60e48194f7c837a4d4df0e613fc8e7ee6180cf167340701d21b62b5e364736f6c63430008130033","opcodes":"PUSH2 0x2DC4 PUSH2 0x53 PUSH1 0xB DUP3 DUP3 DUP3 CODECOPY DUP1 MLOAD PUSH1 0x0 BYTE PUSH1 0x73 EQ PUSH2 0x46 JUMPI PUSH32 0x4E487B7100000000000000000000000000000000000000000000000000000000 PUSH1 0x0 MSTORE PUSH1 0x0 PUSH1 0x4 MSTORE PUSH1 0x24 PUSH1 0x0 REVERT JUMPDEST ADDRESS PUSH1 0x0 MSTORE PUSH1 0x73 DUP2 MSTORE8 DUP3 DUP2 RETURN INVALID PUSH20 0x0 ADDRESS EQ PUSH1 0x80 PUSH1 0x40 MSTORE PUSH1 0x4 CALLDATASIZE LT PUSH2 0x247 JUMPI PUSH1 0x0 CALLDATALOAD PUSH1 0xE0 SHR DUP1 PUSH4 0x65AD985E GT PUSH2 0x145 JUMPI DUP1 PUSH4 0xB1849A1A GT PUSH2 0xC2 JUMPI DUP1 PUSH4 0xC7FADC67 GT PUSH2 0x86 JUMPI DUP1 PUSH4 0xC7FADC67 EQ PUSH2 0x6A5 JUMPI DUP1 PUSH4 0xCCBAD174 EQ PUSH2 0x6C3 JUMPI DUP1 PUSH4 0xD2AA5C62 EQ PUSH2 0x6E1 JUMPI DUP1 PUSH4 0xEB095A7D EQ PUSH2 0x6FF JUMPI DUP1 PUSH4 0xF49BABE6 EQ PUSH2 0x71D JUMPI PUSH2 0x247 JUMP JUMPDEST DUP1 PUSH4 0xB1849A1A EQ PUSH2 0x60F JUMPI DUP1 PUSH4 0xB410396A EQ PUSH2 0x62D JUMPI DUP1 PUSH4 0xB5F35EB9 EQ PUSH2 0x64B JUMPI DUP1 PUSH4 0xC0C5BF67 EQ PUSH2 0x669 JUMPI DUP1 PUSH4 0xC6675BBF EQ PUSH2 0x687 JUMPI PUSH2 0x247 JUMP JUMPDEST DUP1 PUSH4 0x9BF21071 GT PUSH2 0x109 JUMPI DUP1 PUSH4 0x9BF21071 EQ PUSH2 0x56E JUMPI DUP1 PUSH4 0x9CDA4774 EQ PUSH2 0x58C JUMPI DUP1 PUSH4 0xA3205067 EQ PUSH2 0x5AA JUMPI DUP1 PUSH4 0xA5478827 EQ PUSH2 0x5C8 JUMPI DUP1 PUSH4 0xAF9D047C EQ PUSH2 0x5F1 JUMPI PUSH2 0x247 JUMP JUMPDEST DUP1 PUSH4 0x65AD985E EQ PUSH2 0x4D8 JUMPI DUP1 PUSH4 0x65F7BEC3 EQ PUSH2 0x4F6 JUMPI DUP1 PUSH4 0x8836CCF6 EQ PUSH2 0x514 JUMPI DUP1 PUSH4 0x89D0E932 EQ PUSH2 0x532 JUMPI DUP1 PUSH4 0x94804215 EQ PUSH2 0x550 JUMPI PUSH2 0x247 JUMP JUMPDEST DUP1 PUSH4 0x3994A957 GT PUSH2 0x1D3 JUMPI DUP1 PUSH4 0x565B427E GT PUSH2 0x197 JUMPI DUP1 PUSH4 0x565B427E EQ PUSH2 0x442 JUMPI DUP1 PUSH4 0x583F8AF4 EQ PUSH2 0x460 JUMPI DUP1 PUSH4 0x5DA707D4 EQ PUSH2 0x47E JUMPI DUP1 PUSH4 0x5FCDE067 EQ PUSH2 0x49C JUMPI DUP1 PUSH4 0x64048BF2 EQ PUSH2 0x4BA JUMPI PUSH2 0x247 JUMP JUMPDEST DUP1 PUSH4 0x3994A957 EQ PUSH2 0x3AC JUMPI DUP1 PUSH4 0x44F9E1AC EQ PUSH2 0x3CA JUMPI DUP1 PUSH4 0x52BE1FB8 EQ PUSH2 0x3E8 JUMPI DUP1 PUSH4 0x54F5A901 EQ PUSH2 0x406 JUMPI DUP1 PUSH4 0x55005F76 EQ PUSH2 0x424 JUMPI PUSH2 0x247 JUMP JUMPDEST DUP1 PUSH4 0x168703FA GT PUSH2 0x21A JUMPI DUP1 PUSH4 0x168703FA EQ PUSH2 0x2E5 JUMPI DUP1 PUSH4 0x18F18FB1 EQ PUSH2 0x322 JUMPI DUP1 PUSH4 0x1DDBEA00 EQ PUSH2 0x352 JUMPI DUP1 PUSH4 0x30314FC0 EQ PUSH2 0x370 JUMPI DUP1 PUSH4 0x309EC3C3 EQ PUSH2 0x38E JUMPI PUSH2 0x247 JUMP JUMPDEST DUP1 PUSH4 0x629596F EQ PUSH2 0x24C JUMPI DUP1 PUSH4 0x1095FBB4 EQ PUSH2 0x275 JUMPI DUP1 PUSH4 0x11505544 EQ PUSH2 0x29E JUMPI DUP1 PUSH4 0x12B3A2FB EQ PUSH2 0x2BC JUMPI JUMPDEST PUSH1 0x0 DUP1 REVERT JUMPDEST DUP2 DUP1 ISZERO PUSH2 0x258 JUMPI PUSH1 0x0 DUP1 REVERT JUMPDEST POP PUSH2 0x273 PUSH1 0x4 DUP1 CALLDATASIZE SUB DUP2 ADD SWAP1 PUSH2 0x26E SWAP2 SWAP1 PUSH2 0x2067 JUMP JUMPDEST PUSH2 0x73B JUMP JUMPDEST STOP JUMPDEST DUP2 DUP1 ISZERO PUSH2 0x281 JUMPI PUSH1 0x0 DUP1 REVERT JUMPDEST POP PUSH2 0x29C PUSH1 0x4 DUP1 CALLDATASIZE SUB DUP2 ADD SWAP1 PUSH2 0x297 SWAP2 SWAP1 PUSH2 0x210E JUMP JUMPDEST PUSH2 0x785 JUMP JUMPDEST STOP JUMPDEST PUSH2 0x2A6 PUSH2 0x916 JUMP JUMPDEST PUSH1 0x40 MLOAD PUSH2 0x2B3 SWAP2 SWAP1 PUSH2 0x2170 JUMP JUMPDEST PUSH1 0x40 MLOAD DUP1 SWAP2 SUB SWAP1 RETURN JUMPDEST DUP2 DUP1 ISZERO PUSH2 0x2C8 JUMPI PUSH1 0x0 DUP1 REVERT JUMPDEST POP PUSH2 0x2E3 PUSH1 0x4 DUP1 CALLDATASIZE SUB DUP2 ADD SWAP1 PUSH2 0x2DE SWAP2 SWAP1 PUSH2 0x218B JUMP JUMPDEST PUSH2 0x93A JUMP JUMPDEST STOP JUMPDEST DUP2 DUP1 ISZERO PUSH2 0x2F1 JUMPI PUSH1 0x0 DUP1 REVERT JUMPDEST POP PUSH2 0x30C PUSH1 0x4 DUP1 CALLDATASIZE SUB DUP2 ADD SWAP1 PUSH2 0x307 SWAP2 SWAP1 PUSH2 0x218B JUMP JUMPDEST PUSH2 0x9C8 JUMP JUMPDEST PUSH1 0x40 MLOAD PUSH2 0x319 SWAP2 SWAP1 PUSH2 0x2170 JUMP JUMPDEST PUSH1 0x40 MLOAD DUP1 SWAP2 SUB SWAP1 RETURN JUMPDEST PUSH2 0x33C PUSH1 0x4 DUP1 CALLDATASIZE SUB DUP2 ADD SWAP1 PUSH2 0x337 SWAP2 SWAP1 PUSH2 0x21CB JUMP JUMPDEST PUSH2 0xC3B JUMP JUMPDEST PUSH1 0x40 MLOAD PUSH2 0x349 SWAP2 SWAP1 PUSH2 0x2170 JUMP JUMPDEST PUSH1 0x40 MLOAD DUP1 SWAP2 SUB SWAP1 RETURN JUMPDEST PUSH2 0x35A PUSH2 0x128D JUMP JUMPDEST PUSH1 0x40 MLOAD PUSH2 0x367 SWAP2 SWAP1 PUSH2 0x2170 JUMP JUMPDEST PUSH1 0x40 MLOAD DUP1 SWAP2 SUB SWAP1 RETURN JUMPDEST PUSH2 0x378 PUSH2 0x12B1 JUMP JUMPDEST PUSH1 0x40 MLOAD PUSH2 0x385 SWAP2 SWAP1 PUSH2 0x2170 JUMP JUMPDEST PUSH1 0x40 MLOAD DUP1 SWAP2 SUB SWAP1 RETURN JUMPDEST PUSH2 0x396 PUSH2 0x12D5 JUMP JUMPDEST PUSH1 0x40 MLOAD PUSH2 0x3A3 SWAP2 SWAP1 PUSH2 0x2170 JUMP JUMPDEST PUSH1 0x40 MLOAD DUP1 SWAP2 SUB SWAP1 RETURN JUMPDEST PUSH2 0x3B4 PUSH2 0x12F9 JUMP JUMPDEST PUSH1 0x40 MLOAD PUSH2 0x3C1 SWAP2 SWAP1 PUSH2 0x2170 JUMP JUMPDEST PUSH1 0x40 MLOAD DUP1 SWAP2 SUB SWAP1 RETURN JUMPDEST PUSH2 0x3D2 PUSH2 0x131D JUMP JUMPDEST PUSH1 0x40 MLOAD PUSH2 0x3DF SWAP2 SWAP1 PUSH2 0x2170 JUMP JUMPDEST PUSH1 0x40 MLOAD DUP1 SWAP2 SUB SWAP1 RETURN JUMPDEST PUSH2 0x3F0 PUSH2 0x1341 JUMP JUMPDEST PUSH1 0x40 MLOAD PUSH2 0x3FD SWAP2 SWAP1 PUSH2 0x2170 JUMP JUMPDEST PUSH1 0x40 MLOAD DUP1 SWAP2 SUB SWAP1 RETURN JUMPDEST PUSH2 0x40E PUSH2 0x1365 JUMP JUMPDEST PUSH1 0x40 MLOAD PUSH2 0x41B SWAP2 SWAP1 PUSH2 0x2170 JUMP JUMPDEST PUSH1 0x40 MLOAD DUP1 SWAP2 SUB SWAP1 RETURN JUMPDEST PUSH2 0x42C PUSH2 0x1389 JUMP JUMPDEST PUSH1 0x40 MLOAD PUSH2 0x439 SWAP2 SWAP1 PUSH2 0x2170 JUMP JUMPDEST PUSH1 0x40 MLOAD DUP1 SWAP2 SUB SWAP1 RETURN JUMPDEST PUSH2 0x44A PUSH2 0x13AD JUMP JUMPDEST PUSH1 0x40 MLOAD PUSH2 0x457 SWAP2 SWAP1 PUSH2 0x2170 JUMP JUMPDEST PUSH1 0x40 MLOAD DUP1 SWAP2 SUB SWAP1 RETURN JUMPDEST PUSH2 0x468 PUSH2 0x13D1 JUMP JUMPDEST PUSH1 0x40 MLOAD PUSH2 0x475 SWAP2 SWAP1 PUSH2 0x2170 JUMP JUMPDEST PUSH1 0x40 MLOAD DUP1 SWAP2 SUB SWAP1 RETURN JUMPDEST PUSH2 0x486 PUSH2 0x13F5 JUMP JUMPDEST PUSH1 0x40 MLOAD PUSH2 0x493 SWAP2 SWAP1 PUSH2 0x2170 JUMP JUMPDEST PUSH1 0x40 MLOAD DUP1 SWAP2 SUB SWAP1 RETURN JUMPDEST PUSH2 0x4A4 PUSH2 0x1419 JUMP JUMPDEST PUSH1 0x40 MLOAD PUSH2 0x4B1 SWAP2 SWAP1 PUSH2 0x2170 JUMP JUMPDEST PUSH1 0x40 MLOAD DUP1 SWAP2 SUB SWAP1 RETURN JUMPDEST PUSH2 0x4C2 PUSH2 0x143D JUMP JUMPDEST PUSH1 0x40 MLOAD PUSH2 0x4CF SWAP2 SWAP1 PUSH2 0x2170 JUMP JUMPDEST PUSH1 0x40 MLOAD DUP1 SWAP2 SUB SWAP1 RETURN JUMPDEST PUSH2 0x4E0 PUSH2 0x1461 JUMP JUMPDEST PUSH1 0x40 MLOAD PUSH2 0x4ED SWAP2 SWAP1 PUSH2 0x2170 JUMP JUMPDEST PUSH1 0x40 MLOAD DUP1 SWAP2 SUB SWAP1 RETURN JUMPDEST PUSH2 0x4FE PUSH2 0x1466 JUMP JUMPDEST PUSH1 0x40 MLOAD PUSH2 0x50B SWAP2 SWAP1 PUSH2 0x2170 JUMP JUMPDEST PUSH1 0x40 MLOAD DUP1 SWAP2 SUB SWAP1 RETURN JUMPDEST PUSH2 0x51C PUSH2 0x148A JUMP JUMPDEST PUSH1 0x40 MLOAD PUSH2 0x529 SWAP2 SWAP1 PUSH2 0x2170 JUMP JUMPDEST PUSH1 0x40 MLOAD DUP1 SWAP2 SUB SWAP1 RETURN JUMPDEST PUSH2 0x53A PUSH2 0x14AE JUMP JUMPDEST PUSH1 0x40 MLOAD PUSH2 0x547 SWAP2 SWAP1 PUSH2 0x2170 JUMP JUMPDEST PUSH1 0x40 MLOAD DUP1 SWAP2 SUB SWAP1 RETURN JUMPDEST PUSH2 0x558 PUSH2 0x14D2 JUMP JUMPDEST PUSH1 0x40 MLOAD PUSH2 0x565 SWAP2 SWAP1 PUSH2 0x2170 JUMP JUMPDEST PUSH1 0x40 MLOAD DUP1 SWAP2 SUB SWAP1 RETURN JUMPDEST PUSH2 0x576 PUSH2 0x14F6 JUMP JUMPDEST PUSH1 0x40 MLOAD PUSH2 0x583 SWAP2 SWAP1 PUSH2 0x2170 JUMP JUMPDEST PUSH1 0x40 MLOAD DUP1 SWAP2 SUB SWAP1 RETURN JUMPDEST PUSH2 0x594 PUSH2 0x151A JUMP JUMPDEST PUSH1 0x40 MLOAD PUSH2 0x5A1 SWAP2 SWAP1 PUSH2 0x2170 JUMP JUMPDEST PUSH1 0x40 MLOAD DUP1 SWAP2 SUB SWAP1 RETURN JUMPDEST PUSH2 0x5B2 PUSH2 0x153E JUMP JUMPDEST PUSH1 0x40 MLOAD PUSH2 0x5BF SWAP2 SWAP1 PUSH2 0x2170 JUMP JUMPDEST PUSH1 0x40 MLOAD DUP1 SWAP2 SUB SWAP1 RETURN JUMPDEST DUP2 DUP1 ISZERO PUSH2 0x5D4 JUMPI PUSH1 0x0 DUP1 REVERT JUMPDEST POP PUSH2 0x5EF PUSH1 0x4 DUP1 CALLDATASIZE SUB DUP2 ADD SWAP1 PUSH2 0x5EA SWAP2 SWAP1 PUSH2 0x21F8 JUMP JUMPDEST PUSH2 0x1562 JUMP JUMPDEST STOP JUMPDEST PUSH2 0x5F9 PUSH2 0x19A4 JUMP JUMPDEST PUSH1 0x40 MLOAD PUSH2 0x606 SWAP2 SWAP1 PUSH2 0x2170 JUMP JUMPDEST PUSH1 0x40 MLOAD DUP1 SWAP2 SUB SWAP1 RETURN JUMPDEST PUSH2 0x617 PUSH2 0x19C8 JUMP JUMPDEST PUSH1 0x40 MLOAD PUSH2 0x624 SWAP2 SWAP1 PUSH2 0x2170 JUMP JUMPDEST PUSH1 0x40 MLOAD DUP1 SWAP2 SUB SWAP1 RETURN JUMPDEST PUSH2 0x635 PUSH2 0x19EC JUMP JUMPDEST PUSH1 0x40 MLOAD PUSH2 0x642 SWAP2 SWAP1 PUSH2 0x2170 JUMP JUMPDEST PUSH1 0x40 MLOAD DUP1 SWAP2 SUB SWAP1 RETURN JUMPDEST PUSH2 0x653 PUSH2 0x1A10 JUMP JUMPDEST PUSH1 0x40 MLOAD PUSH2 0x660 SWAP2 SWAP1 PUSH2 0x2170 JUMP JUMPDEST PUSH1 0x40 MLOAD DUP1 SWAP2 SUB SWAP1 RETURN JUMPDEST PUSH2 0x671 PUSH2 0x1A34 JUMP JUMPDEST PUSH1 0x40 MLOAD PUSH2 0x67E SWAP2 SWAP1 PUSH2 0x2170 JUMP JUMPDEST PUSH1 0x40 MLOAD DUP1 SWAP2 SUB SWAP1 RETURN JUMPDEST PUSH2 0x68F PUSH2 0x1A58 JUMP JUMPDEST PUSH1 0x40 MLOAD PUSH2 0x69C SWAP2 SWAP1 PUSH2 0x2170 JUMP JUMPDEST PUSH1 0x40 MLOAD DUP1 SWAP2 SUB SWAP1 RETURN JUMPDEST PUSH2 0x6AD PUSH2 0x1A7C JUMP JUMPDEST PUSH1 0x40 MLOAD PUSH2 0x6BA SWAP2 SWAP1 PUSH2 0x2170 JUMP JUMPDEST PUSH1 0x40 MLOAD DUP1 SWAP2 SUB SWAP1 RETURN JUMPDEST PUSH2 0x6CB PUSH2 0x1AA0 JUMP JUMPDEST PUSH1 0x40 MLOAD PUSH2 0x6D8 SWAP2 SWAP1 PUSH2 0x2170 JUMP JUMPDEST PUSH1 0x40 MLOAD DUP1 SWAP2 SUB SWAP1 RETURN JUMPDEST PUSH2 0x6E9 PUSH2 0x1AC4 JUMP JUMPDEST PUSH1 0x40 MLOAD PUSH2 0x6F6 SWAP2 SWAP1 PUSH2 0x2170 JUMP JUMPDEST PUSH1 0x40 MLOAD DUP1 SWAP2 SUB SWAP1 RETURN JUMPDEST PUSH2 0x707 PUSH2 0x1AE8 JUMP JUMPDEST PUSH1 0x40 MLOAD PUSH2 0x714 SWAP2 SWAP1 PUSH2 0x2170 JUMP JUMPDEST PUSH1 0x40 MLOAD DUP1 SWAP2 SUB SWAP1 RETURN JUMPDEST PUSH2 0x725 PUSH2 0x1B0C JUMP JUMPDEST PUSH1 0x40 MLOAD PUSH2 0x732 SWAP2 SWAP1 PUSH2 0x2170 JUMP JUMPDEST PUSH1 0x40 MLOAD DUP1 SWAP2 SUB SWAP1 RETURN JUMPDEST PUSH2 0x77D DUP7 DUP7 DUP9 PUSH1 0x5 ADD PUSH1 0x0 SWAP1 SLOAD SWAP1 PUSH2 0x100 EXP SWAP1 DIV PUSH1 0xFF AND PUSH2 0x771 JUMPI DUP9 PUSH1 0x3 ADD PUSH1 0x0 DUP1 DUP2 MSTORE PUSH1 0x20 ADD SWAP1 DUP2 MSTORE PUSH1 0x20 ADD PUSH1 0x0 KECCAK256 SLOAD PUSH2 0x774 JUMP JUMPDEST PUSH1 0x0 JUMPDEST DUP8 DUP8 DUP8 DUP8 PUSH2 0x1562 JUMP JUMPDEST POP POP POP POP POP POP JUMP JUMPDEST PUSH32 0x30644E72E131A029B85045B68181585D2833E84879B9709143E1F593F0000001 DUP2 LT PUSH2 0x7E7 JUMPI PUSH1 0x40 MLOAD PUSH32 0x8C379A000000000000000000000000000000000000000000000000000000000 DUP2 MSTORE PUSH1 0x4 ADD PUSH2 0x7DE SWAP1 PUSH2 0x2337 JUMP JUMPDEST PUSH1 0x40 MLOAD DUP1 SWAP2 SUB SWAP1 REVERT JUMPDEST PUSH1 0x0 DUP3 GT DUP1 ISZERO PUSH2 0x7FB JUMPI POP PUSH1 0x20 PUSH1 0xFF AND DUP3 GT ISZERO JUMPDEST PUSH2 0x83A JUMPI PUSH1 0x40 MLOAD PUSH32 0x8C379A000000000000000000000000000000000000000000000000000000000 DUP2 MSTORE PUSH1 0x4 ADD PUSH2 0x831 SWAP1 PUSH2 0x23C9 JUMP JUMPDEST PUSH1 0x40 MLOAD DUP1 SWAP2 SUB SWAP1 REVERT JUMPDEST DUP2 DUP4 PUSH1 0x0 ADD DUP2 SWAP1 SSTORE POP PUSH1 0x0 JUMPDEST DUP3 DUP2 PUSH1 0xFF AND LT ISZERO PUSH2 0x907 JUMPI DUP2 DUP5 PUSH1 0x3 ADD PUSH1 0x0 DUP4 PUSH1 0xFF AND DUP2 MSTORE PUSH1 0x20 ADD SWAP1 DUP2 MSTORE PUSH1 0x20 ADD PUSH1 0x0 KECCAK256 DUP2 SWAP1 SSTORE POP PUSH20 0x0 PUSH4 0x561558FE PUSH1 0x40 MLOAD DUP1 PUSH1 0x40 ADD PUSH1 0x40 MSTORE DUP1 DUP6 DUP2 MSTORE PUSH1 0x20 ADD DUP6 DUP2 MSTORE POP PUSH1 0x40 MLOAD DUP3 PUSH4 0xFFFFFFFF AND PUSH1 0xE0 SHL DUP2 MSTORE PUSH1 0x4 ADD PUSH2 0x8B9 SWAP2 SWAP1 PUSH2 0x2494 JUMP JUMPDEST PUSH1 0x20 PUSH1 0x40 MLOAD DUP1 DUP4 SUB DUP2 DUP7 GAS DELEGATECALL ISZERO DUP1 ISZERO PUSH2 0x8D6 JUMPI RETURNDATASIZE PUSH1 0x0 DUP1 RETURNDATACOPY RETURNDATASIZE PUSH1 0x0 REVERT JUMPDEST POP POP POP POP PUSH1 0x40 MLOAD RETURNDATASIZE PUSH1 0x1F NOT PUSH1 0x1F DUP3 ADD AND DUP3 ADD DUP1 PUSH1 0x40 MSTORE POP DUP2 ADD SWAP1 PUSH2 0x8FA SWAP2 SWAP1 PUSH2 0x24C4 JUMP JUMPDEST SWAP2 POP DUP1 PUSH1 0x1 ADD SWAP1 POP PUSH2 0x846 JUMP JUMPDEST POP DUP1 DUP4 PUSH1 0x1 ADD DUP2 SWAP1 SSTORE POP POP POP POP JUMP JUMPDEST PUSH32 0x120C58F143D491E95902F7F5277778A2E0AD5168F6ADD75669932630CE611518 DUP2 JUMP JUMPDEST PUSH1 0x0 DUP2 GT DUP1 ISZERO PUSH2 0x94E JUMPI POP PUSH1 0x20 PUSH1 0xFF AND DUP2 GT ISZERO JUMPDEST PUSH2 0x98D JUMPI PUSH1 0x40 MLOAD PUSH32 0x8C379A000000000000000000000000000000000000000000000000000000000 DUP2 MSTORE PUSH1 0x4 ADD PUSH2 0x984 SWAP1 PUSH2 0x23C9 JUMP JUMPDEST PUSH1 0x40 MLOAD DUP1 SWAP2 SUB SWAP1 REVERT JUMPDEST DUP1 DUP3 PUSH1 0x0 ADD DUP2 SWAP1 SSTORE POP PUSH1 0x1 DUP3 PUSH1 0x5 ADD PUSH1 0x0 PUSH2 0x100 EXP DUP2 SLOAD DUP2 PUSH1 0xFF MUL NOT AND SWAP1 DUP4 ISZERO ISZERO MUL OR SWAP1 SSTORE POP PUSH2 0x9BC DUP2 PUSH2 0xC3B JUMP JUMPDEST DUP3 PUSH1 0x1 ADD DUP2 SWAP1 SSTORE POP POP POP JUMP JUMPDEST PUSH1 0x0 DUP1 DUP4 PUSH1 0x0 ADD SLOAD SWAP1 POP PUSH32 0x30644E72E131A029B85045B68181585D2833E84879B9709143E1F593F0000001 DUP4 LT PUSH2 0xA34 JUMPI PUSH1 0x40 MLOAD PUSH32 0x8C379A000000000000000000000000000000000000000000000000000000000 DUP2 MSTORE PUSH1 0x4 ADD PUSH2 0xA2B SWAP1 PUSH2 0x2337 JUMP JUMPDEST PUSH1 0x40 MLOAD DUP1 SWAP2 SUB SWAP1 REVERT JUMPDEST DUP1 PUSH1 0x2 PUSH2 0xA41 SWAP2 SWAP1 PUSH2 0x2653 JUMP JUMPDEST DUP5 PUSH1 0x2 ADD SLOAD LT PUSH2 0xA86 JUMPI PUSH1 0x40 MLOAD PUSH32 0x8C379A000000000000000000000000000000000000000000000000000000000 DUP2 MSTORE PUSH1 0x4 ADD PUSH2 0xA7D SWAP1 PUSH2 0x2710 JUMP JUMPDEST PUSH1 0x40 MLOAD DUP1 SWAP2 SUB SWAP1 REVERT JUMPDEST PUSH1 0x0 DUP5 PUSH1 0x2 ADD SLOAD SWAP1 POP PUSH1 0x0 DUP5 SWAP1 POP PUSH1 0x0 DUP7 PUSH1 0x5 ADD PUSH1 0x0 SWAP1 SLOAD SWAP1 PUSH2 0x100 EXP SWAP1 DIV PUSH1 0xFF AND SWAP1 POP PUSH1 0x0 JUMPDEST DUP5 DUP2 PUSH1 0xFF AND LT ISZERO PUSH2 0xC08 JUMPI PUSH1 0x0 PUSH1 0x1 DUP6 AND SUB PUSH2 0xB33 JUMPI PUSH1 0x40 MLOAD DUP1 PUSH1 0x40 ADD PUSH1 0x40 MSTORE DUP1 DUP5 DUP2 MSTORE PUSH1 0x20 ADD DUP4 PUSH2 0xAF7 JUMPI DUP10 PUSH1 0x3 ADD PUSH1 0x0 DUP5 PUSH1 0xFF AND DUP2 MSTORE PUSH1 0x20 ADD SWAP1 DUP2 MSTORE PUSH1 0x20 ADD PUSH1 0x0 KECCAK256 SLOAD PUSH2 0xB04 JUMP JUMPDEST PUSH2 0xB03 DUP4 PUSH1 0xFF AND PUSH2 0xC3B JUMP JUMPDEST JUMPDEST DUP2 MSTORE POP DUP9 PUSH1 0x4 ADD PUSH1 0x0 DUP4 PUSH1 0xFF AND DUP2 MSTORE PUSH1 0x20 ADD SWAP1 DUP2 MSTORE PUSH1 0x20 ADD PUSH1 0x0 KECCAK256 SWAP1 PUSH1 0x2 PUSH2 0xB2D SWAP3 SWAP2 SWAP1 PUSH2 0x1ED9 JUMP JUMPDEST POP PUSH2 0xB65 JUMP JUMPDEST DUP3 DUP9 PUSH1 0x4 ADD PUSH1 0x0 DUP4 PUSH1 0xFF AND DUP2 MSTORE PUSH1 0x20 ADD SWAP1 DUP2 MSTORE PUSH1 0x20 ADD PUSH1 0x0 KECCAK256 PUSH1 0x1 PUSH1 0x2 DUP2 LT PUSH2 0xB5F JUMPI PUSH2 0xB5E PUSH2 0x2730 JUMP JUMPDEST JUMPDEST ADD DUP2 SWAP1 SSTORE POP JUMPDEST PUSH20 0x0 PUSH4 0x561558FE DUP10 PUSH1 0x4 ADD PUSH1 0x0 DUP5 PUSH1 0xFF AND DUP2 MSTORE PUSH1 0x20 ADD SWAP1 DUP2 MSTORE PUSH1 0x20 ADD PUSH1 0x0 KECCAK256 PUSH1 0x40 MLOAD DUP3 PUSH4 0xFFFFFFFF AND PUSH1 0xE0 SHL DUP2 MSTORE PUSH1 0x4 ADD PUSH2 0xBB3 SWAP2 SWAP1 PUSH2 0x2823 JUMP JUMPDEST PUSH1 0x20 PUSH1 0x40 MLOAD DUP1 DUP4 SUB DUP2 DUP7 GAS DELEGATECALL ISZERO DUP1 ISZERO PUSH2 0xBD0 JUMPI RETURNDATASIZE PUSH1 0x0 DUP1 RETURNDATACOPY RETURNDATASIZE PUSH1 0x0 REVERT JUMPDEST POP POP POP POP PUSH1 0x40 MLOAD RETURNDATASIZE PUSH1 0x1F NOT PUSH1 0x1F DUP3 ADD AND DUP3 ADD DUP1 PUSH1 0x40 MSTORE POP DUP2 ADD SWAP1 PUSH2 0xBF4 SWAP2 SWAP1 PUSH2 0x24C4 JUMP JUMPDEST SWAP3 POP PUSH1 0x1 DUP5 SWAP1 SHR SWAP4 POP DUP1 PUSH1 0x1 ADD SWAP1 POP PUSH2 0xAAD JUMP JUMPDEST POP DUP2 DUP8 PUSH1 0x1 ADD DUP2 SWAP1 SSTORE POP PUSH1 0x1 DUP8 PUSH1 0x2 ADD PUSH1 0x0 DUP3 DUP3 SLOAD PUSH2 0xC27 SWAP2 SWAP1 PUSH2 0x283E JUMP JUMPDEST SWAP3 POP POP DUP2 SWAP1 SSTORE POP DUP2 SWAP5 POP POP POP POP POP SWAP3 SWAP2 POP POP JUMP JUMPDEST PUSH1 0x0 DUP1 DUP3 SUB PUSH2 0xC4D JUMPI PUSH1 0x0 SWAP1 POP PUSH2 0x1288 JUMP JUMPDEST PUSH1 0x1 DUP3 SUB PUSH2 0xC7D JUMPI PUSH32 0x2098F5FB9E239EAB3CEAC3F27B81E481DC3124D55FFED523A839EE8446B64864 SWAP1 POP PUSH2 0x1288 JUMP JUMPDEST PUSH1 0x2 DUP3 SUB PUSH2 0xCAD JUMPI PUSH32 0x1069673DCDB12263DF301A6FF584A7EC261A44CB9DC68DF067A4774460B1F1E1 SWAP1 POP PUSH2 0x1288 JUMP JUMPDEST PUSH1 0x3 DUP3 SUB PUSH2 0xCDD JUMPI PUSH32 0x18F43331537EE2AF2E3D758D50F72106467C6EEA50371DD528D57EB2B856D238 SWAP1 POP PUSH2 0x1288 JUMP JUMPDEST PUSH1 0x4 DUP3 SUB PUSH2 0xD0D JUMPI PUSH32 0x7F9D837CB17B0D36320FFE93BA52345F1B728571A568265CAAC97559DBC952A SWAP1 POP PUSH2 0x1288 JUMP JUMPDEST PUSH1 0x5 DUP3 SUB PUSH2 0xD3D JUMPI PUSH32 0x2B94CF5E8746B3F5C9631F4C5DF32907A699C58C94B2AD4D7B5CEC1639183F55 SWAP1 POP PUSH2 0x1288 JUMP JUMPDEST PUSH1 0x6 DUP3 SUB PUSH2 0xD6D JUMPI PUSH32 0x2DEE93C5A666459646EA7D22CCA9E1BCFED71E6951B953611D11DDA32EA09D78 SWAP1 POP PUSH2 0x1288 JUMP JUMPDEST PUSH1 0x7 DUP3 SUB PUSH2 0xD9D JUMPI PUSH32 0x78295E5A22B84E982CF601EB639597B8B0515A88CB5AC7FA8A4AABE3C87349D SWAP1 POP PUSH2 0x1288 JUMP JUMPDEST PUSH1 0x8 DUP3 SUB PUSH2 0xDCD JUMPI PUSH32 0x2FA5E5F18F6027A6501BEC864564472A616B2E274A41211A444CBE3A99F3CC61 SWAP1 POP PUSH2 0x1288 JUMP JUMPDEST PUSH1 0x9 DUP3 SUB PUSH2 0xDFD JUMPI PUSH32 0xE884376D0D8FD21ECB780389E941F66E45E7ACCE3E228AB3E2156A614FCD747 SWAP1 POP PUSH2 0x1288 JUMP JUMPDEST PUSH1 0xA DUP3 SUB PUSH2 0xE2D JUMPI PUSH32 0x1B7201DA72494F1E28717AD1A52EB469F95892F957713533DE6175E5DA190AF2 SWAP1 POP PUSH2 0x1288 JUMP JUMPDEST PUSH1 0xB DUP3 SUB PUSH2 0xE5D JUMPI PUSH32 0x1F8D8822725E36385200C0B201249819A6E6E1E4650808B5BEBC6BFACE7D7636 SWAP1 POP PUSH2 0x1288 JUMP JUMPDEST PUSH1 0xC DUP3 SUB PUSH2 0xE8D JUMPI PUSH32 0x2C5D82F66C914BAFB9701589BA8CFCFB6162B0A12ACF88A8D0879A0471B5F85A SWAP1 POP PUSH2 0x1288 JUMP JUMPDEST PUSH1 0xD DUP3 SUB PUSH2 0xEBD JUMPI PUSH32 0x14C54148A0940BB820957F5ADF3FA1134EF5C4AAA113F4646458F270E0BFBFD0 SWAP1 POP PUSH2 0x1288 JUMP JUMPDEST PUSH1 0xE DUP3 SUB PUSH2 0xEED JUMPI PUSH32 0x190D33B12F986F961E10C0EE44D8B9AF11BE25588CAD89D416118E4BF4EBE80C SWAP1 POP PUSH2 0x1288 JUMP JUMPDEST PUSH1 0xF DUP3 SUB PUSH2 0xF1D JUMPI PUSH32 0x22F98AA9CE704152AC17354914AD73ED1167AE6596AF510AA5B3649325E06C92 SWAP1 POP PUSH2 0x1288 JUMP JUMPDEST PUSH1 0x10 DUP3 SUB PUSH2 0xF4D JUMPI PUSH32 0x2A7C7C9B6CE5880B9F6F228D72BF6A575A526F29C66ECCEEF8B753D38BBA7323 SWAP1 POP PUSH2 0x1288 JUMP JUMPDEST PUSH1 0x11 DUP3 SUB PUSH2 0xF7D JUMPI PUSH32 0x2E8186E558698EC1C67AF9C14D463FFC470043C9C2988B954D75DD643F36B992 SWAP1 POP PUSH2 0x1288 JUMP JUMPDEST PUSH1 0x12 DUP3 SUB PUSH2 0xFAD JUMPI PUSH32 0xF57C5571E9A4EAB49E2C8CF050DAE948AEF6EAD647392273546249D1C1FF10F SWAP1 POP PUSH2 0x1288 JUMP JUMPDEST PUSH1 0x13 DUP3 SUB PUSH2 0xFDD JUMPI PUSH32 0x1830EE67B5FB554AD5F63D4388800E1CFE78E310697D46E43C9CE36134F72CCA SWAP1 POP PUSH2 0x1288 JUMP JUMPDEST PUSH1 0x14 DUP3 SUB PUSH2 0x100D JUMPI PUSH32 0x2134E76AC5D21AAB186C2BE1DD8F84EE880A1E46EAF712F9D371B6DF22191F3E SWAP1 POP PUSH2 0x1288 JUMP JUMPDEST PUSH1 0x15 DUP3 SUB PUSH2 0x103D JUMPI PUSH32 0x19DF90EC844EBC4FFEEBD866F33859B0C051D8C958EE3AA88F8F8DF3DB91A5B1 SWAP1 POP PUSH2 0x1288 JUMP JUMPDEST PUSH1 0x16 DUP3 SUB PUSH2 0x106D JUMPI PUSH32 0x18CCA2A66B5C0787981E69AEFD84852D74AF0E93EF4912B4648C05F722EFE52B SWAP1 POP PUSH2 0x1288 JUMP JUMPDEST PUSH1 0x17 DUP3 SUB PUSH2 0x109D JUMPI PUSH32 0x2388909415230D1B4D1304D2D54F473A628338F2EFAD83FADF05644549D2538D SWAP1 POP PUSH2 0x1288 JUMP JUMPDEST PUSH1 0x18 DUP3 SUB PUSH2 0x10CD JUMPI PUSH32 0x27171FB4A97B6CC0E9E8F543B5294DE866A2AF2C9C8D0B1D96E673E4529ED540 SWAP1 POP PUSH2 0x1288 JUMP JUMPDEST PUSH1 0x19 DUP3 SUB PUSH2 0x10FD JUMPI PUSH32 0x2FF6650540F629FD5711A0BC74FC0D28DCB230B9392583E5F8D59696DDE6AE21 SWAP1 POP PUSH2 0x1288 JUMP JUMPDEST PUSH1 0x1A DUP3 SUB PUSH2 0x112D JUMPI PUSH32 0x120C58F143D491E95902F7F5277778A2E0AD5168F6ADD75669932630CE611518 SWAP1 POP PUSH2 0x1288 JUMP JUMPDEST PUSH1 0x1B DUP3 SUB PUSH2 0x115D JUMPI PUSH32 0x1F21FEB70D3F21B07BF853D5E5DB03071EC495A0A565A21DA2D665D279483795 SWAP1 POP PUSH2 0x1288 JUMP JUMPDEST PUSH1 0x1C DUP3 SUB PUSH2 0x118D JUMPI PUSH32 0x24BE905FA71335E14C638CC0F66A8623A826E768068A9E968BB1A1DDE18A72D2 SWAP1 POP PUSH2 0x1288 JUMP JUMPDEST PUSH1 0x1D DUP3 SUB PUSH2 0x11BD JUMPI PUSH32 0xF8666B62ED17491C50CEADEAD57D4CD597EF3821D65C328744C74E553DAC26D SWAP1 POP PUSH2 0x1288 JUMP JUMPDEST PUSH1 0x1E DUP3 SUB PUSH2 0x11ED JUMPI PUSH32 0x918D46BF52D98B034413F4A1A1C41594E7A7A3F6AE08CB43D1A2A230E1959EF SWAP1 POP PUSH2 0x1288 JUMP JUMPDEST PUSH1 0x1F DUP3 SUB PUSH2 0x121D JUMPI PUSH32 0x1BBEB01B4C479ECDE76917645E404DFA2E26F90D0AFC5A65128513AD375C5FF2 SWAP1 POP PUSH2 0x1288 JUMP JUMPDEST PUSH1 0x20 DUP3 SUB PUSH2 0x124D JUMPI PUSH32 0x2F68A1C58E257E42A17A6C61DFF5551ED560B9922AB119D5AC8E184C9734EAD9 SWAP1 POP PUSH2 0x1288 JUMP JUMPDEST PUSH1 0x40 MLOAD PUSH32 0x8C379A000000000000000000000000000000000000000000000000000000000 DUP2 MSTORE PUSH1 0x4 ADD PUSH2 0x127F SWAP1 PUSH2 0x28E4 JUMP JUMPDEST PUSH1 0x40 MLOAD DUP1 SWAP2 SUB SWAP1 REVERT JUMPDEST SWAP2 SWAP1 POP JUMP JUMPDEST PUSH32 0x2388909415230D1B4D1304D2D54F473A628338F2EFAD83FADF05644549D2538D DUP2 JUMP JUMPDEST PUSH32 0x18CCA2A66B5C0787981E69AEFD84852D74AF0E93EF4912B4648C05F722EFE52B DUP2 JUMP JUMPDEST PUSH32 0x2E8186E558698EC1C67AF9C14D463FFC470043C9C2988B954D75DD643F36B992 DUP2 JUMP JUMPDEST PUSH32 0x2FF6650540F629FD5711A0BC74FC0D28DCB230B9392583E5F8D59696DDE6AE21 DUP2 JUMP JUMPDEST PUSH32 0x24BE905FA71335E14C638CC0F66A8623A826E768068A9E968BB1A1DDE18A72D2 DUP2 JUMP JUMPDEST PUSH32 0x1069673DCDB12263DF301A6FF584A7EC261A44CB9DC68DF067A4774460B1F1E1 DUP2 JUMP JUMPDEST PUSH32 0x14C54148A0940BB820957F5ADF3FA1134EF5C4AAA113F4646458F270E0BFBFD0 DUP2 JUMP JUMPDEST PUSH32 0xF57C5571E9A4EAB49E2C8CF050DAE948AEF6EAD647392273546249D1C1FF10F DUP2 JUMP JUMPDEST PUSH32 0x2DEE93C5A666459646EA7D22CCA9E1BCFED71E6951B953611D11DDA32EA09D78 DUP2 JUMP JUMPDEST PUSH32 0x2FA5E5F18F6027A6501BEC864564472A616B2E274A41211A444CBE3A99F3CC61 DUP2 JUMP JUMPDEST PUSH32 0x27171FB4A97B6CC0E9E8F543B5294DE866A2AF2C9C8D0B1D96E673E4529ED540 DUP2 JUMP JUMPDEST PUSH32 0x78295E5A22B84E982CF601EB639597B8B0515A88CB5AC7FA8A4AABE3C87349D DUP2 JUMP JUMPDEST PUSH32 0x1830EE67B5FB554AD5F63D4388800E1CFE78E310697D46E43C9CE36134F72CCA DUP2 JUMP JUMPDEST PUSH1 0x0 DUP2 JUMP JUMPDEST PUSH32 0x190D33B12F986F961E10C0EE44D8B9AF11BE25588CAD89D416118E4BF4EBE80C DUP2 JUMP JUMPDEST PUSH32 0x18F43331537EE2AF2E3D758D50F72106467C6EEA50371DD528D57EB2B856D238 DUP2 JUMP JUMPDEST PUSH32 0x2A7C7C9B6CE5880B9F6F228D72BF6A575A526F29C66ECCEEF8B753D38BBA7323 DUP2 JUMP JUMPDEST PUSH32 0xE884376D0D8FD21ECB780389E941F66E45E7ACCE3E228AB3E2156A614FCD747 DUP2 JUMP JUMPDEST PUSH32 0x2C5D82F66C914BAFB9701589BA8CFCFB6162B0A12ACF88A8D0879A0471B5F85A DUP2 JUMP JUMPDEST PUSH32 0xF8666B62ED17491C50CEADEAD57D4CD597EF3821D65C328744C74E553DAC26D DUP2 JUMP JUMPDEST PUSH32 0x22F98AA9CE704152AC17354914AD73ED1167AE6596AF510AA5B3649325E06C92 DUP2 JUMP JUMPDEST DUP6 DUP6 SUB PUSH2 0x15A4 JUMPI PUSH1 0x40 MLOAD PUSH32 0x8C379A000000000000000000000000000000000000000000000000000000000 DUP2 MSTORE PUSH1 0x4 ADD PUSH2 0x159B SWAP1 PUSH2 0x299C JUMP JUMPDEST PUSH1 0x40 MLOAD DUP1 SWAP2 SUB SWAP1 REVERT JUMPDEST PUSH32 0x30644E72E131A029B85045B68181585D2833E84879B9709143E1F593F0000001 DUP6 LT PUSH2 0x1606 JUMPI PUSH1 0x40 MLOAD PUSH32 0x8C379A000000000000000000000000000000000000000000000000000000000 DUP2 MSTORE PUSH1 0x4 ADD PUSH2 0x15FD SWAP1 PUSH2 0x2A2E JUMP JUMPDEST PUSH1 0x40 MLOAD DUP1 SWAP2 SUB SWAP1 REVERT JUMPDEST PUSH2 0x1614 DUP8 DUP8 DUP7 DUP7 DUP7 DUP7 PUSH2 0x1B30 JUMP JUMPDEST PUSH2 0x1653 JUMPI PUSH1 0x40 MLOAD PUSH32 0x8C379A000000000000000000000000000000000000000000000000000000000 DUP2 MSTORE PUSH1 0x4 ADD PUSH2 0x164A SWAP1 PUSH2 0x2AC0 JUMP JUMPDEST PUSH1 0x40 MLOAD DUP1 SWAP2 SUB SWAP1 REVERT JUMPDEST PUSH1 0x0 DUP8 PUSH1 0x0 ADD SLOAD SWAP1 POP PUSH1 0x0 DUP7 SWAP1 POP PUSH1 0x0 DUP1 PUSH1 0x0 SWAP1 POP JUMPDEST DUP4 DUP2 PUSH1 0xFF AND LT ISZERO PUSH2 0x1948 JUMPI DUP1 PUSH1 0xFF AND DUP7 DUP7 DUP4 PUSH1 0xFF AND DUP2 DUP2 LT PUSH2 0x168E JUMPI PUSH2 0x168D PUSH2 0x2730 JUMP JUMPDEST JUMPDEST SWAP1 POP PUSH1 0x20 MUL ADD PUSH1 0x20 DUP2 ADD SWAP1 PUSH2 0x16A3 SWAP2 SWAP1 PUSH2 0x2B19 JUMP JUMPDEST PUSH1 0xFF AND SWAP1 SHL DUP3 OR SWAP2 POP PUSH1 0x0 DUP7 DUP7 DUP4 PUSH1 0xFF AND DUP2 DUP2 LT PUSH2 0x16C4 JUMPI PUSH2 0x16C3 PUSH2 0x2730 JUMP JUMPDEST JUMPDEST SWAP1 POP PUSH1 0x20 MUL ADD PUSH1 0x20 DUP2 ADD SWAP1 PUSH2 0x16D9 SWAP2 SWAP1 PUSH2 0x2B19 JUMP JUMPDEST PUSH1 0xFF AND SUB PUSH2 0x1811 JUMPI DUP11 PUSH1 0x4 ADD PUSH1 0x0 DUP3 PUSH1 0xFF AND DUP2 MSTORE PUSH1 0x20 ADD SWAP1 DUP2 MSTORE PUSH1 0x20 ADD PUSH1 0x0 KECCAK256 PUSH1 0x1 PUSH1 0x2 DUP2 LT PUSH2 0x170C JUMPI PUSH2 0x170B PUSH2 0x2730 JUMP JUMPDEST JUMPDEST ADD SLOAD DUP9 DUP9 DUP4 PUSH1 0xFF AND DUP2 DUP2 LT PUSH2 0x1724 JUMPI PUSH2 0x1723 PUSH2 0x2730 JUMP JUMPDEST JUMPDEST SWAP1 POP PUSH1 0x20 MUL ADD CALLDATALOAD SUB PUSH2 0x1762 JUMPI DUP3 DUP12 PUSH1 0x4 ADD PUSH1 0x0 DUP4 PUSH1 0xFF AND DUP2 MSTORE PUSH1 0x20 ADD SWAP1 DUP2 MSTORE PUSH1 0x20 ADD PUSH1 0x0 KECCAK256 PUSH1 0x0 PUSH1 0x2 DUP2 LT PUSH2 0x175C JUMPI PUSH2 0x175B PUSH2 0x2730 JUMP JUMPDEST JUMPDEST ADD DUP2 SWAP1 SSTORE POP JUMPDEST PUSH20 0x0 PUSH4 0x561558FE PUSH1 0x40 MLOAD DUP1 PUSH1 0x40 ADD PUSH1 0x40 MSTORE DUP1 DUP7 DUP2 MSTORE PUSH1 0x20 ADD DUP12 DUP12 DUP7 PUSH1 0xFF AND DUP2 DUP2 LT PUSH2 0x17A3 JUMPI PUSH2 0x17A2 PUSH2 0x2730 JUMP JUMPDEST JUMPDEST SWAP1 POP PUSH1 0x20 MUL ADD CALLDATALOAD DUP2 MSTORE POP PUSH1 0x40 MLOAD DUP3 PUSH4 0xFFFFFFFF AND PUSH1 0xE0 SHL DUP2 MSTORE PUSH1 0x4 ADD PUSH2 0x17C9 SWAP2 SWAP1 PUSH2 0x2494 JUMP JUMPDEST PUSH1 0x20 PUSH1 0x40 MLOAD DUP1 DUP4 SUB DUP2 DUP7 GAS DELEGATECALL ISZERO DUP1 ISZERO PUSH2 0x17E6 JUMPI RETURNDATASIZE PUSH1 0x0 DUP1 RETURNDATACOPY RETURNDATASIZE PUSH1 0x0 REVERT JUMPDEST POP POP POP POP PUSH1 0x40 MLOAD RETURNDATASIZE PUSH1 0x1F NOT PUSH1 0x1F DUP3 ADD AND DUP3 ADD DUP1 PUSH1 0x40 MSTORE POP DUP2 ADD SWAP1 PUSH2 0x180A SWAP2 SWAP1 PUSH2 0x24C4 JUMP JUMPDEST SWAP3 POP PUSH2 0x193D JUMP JUMPDEST DUP11 PUSH1 0x4 ADD PUSH1 0x0 DUP3 PUSH1 0xFF AND DUP2 MSTORE PUSH1 0x20 ADD SWAP1 DUP2 MSTORE PUSH1 0x20 ADD PUSH1 0x0 KECCAK256 PUSH1 0x0 PUSH1 0x2 DUP2 LT PUSH2 0x183C JUMPI PUSH2 0x183B PUSH2 0x2730 JUMP JUMPDEST JUMPDEST ADD SLOAD DUP9 DUP9 DUP4 PUSH1 0xFF AND DUP2 DUP2 LT PUSH2 0x1854 JUMPI PUSH2 0x1853 PUSH2 0x2730 JUMP JUMPDEST JUMPDEST SWAP1 POP PUSH1 0x20 MUL ADD CALLDATALOAD SUB PUSH2 0x1892 JUMPI DUP3 DUP12 PUSH1 0x4 ADD PUSH1 0x0 DUP4 PUSH1 0xFF AND DUP2 MSTORE PUSH1 0x20 ADD SWAP1 DUP2 MSTORE PUSH1 0x20 ADD PUSH1 0x0 KECCAK256 PUSH1 0x1 PUSH1 0x2 DUP2 LT PUSH2 0x188C JUMPI PUSH2 0x188B PUSH2 0x2730 JUMP JUMPDEST JUMPDEST ADD DUP2 SWAP1 SSTORE POP JUMPDEST PUSH20 0x0 PUSH4 0x561558FE PUSH1 0x40 MLOAD DUP1 PUSH1 0x40 ADD PUSH1 0x40 MSTORE DUP1 DUP12 DUP12 DUP7 PUSH1 0xFF AND DUP2 DUP2 LT PUSH2 0x18CD JUMPI PUSH2 0x18CC PUSH2 0x2730 JUMP JUMPDEST JUMPDEST SWAP1 POP PUSH1 0x20 MUL ADD CALLDATALOAD DUP2 MSTORE PUSH1 0x20 ADD DUP7 DUP2 MSTORE POP PUSH1 0x40 MLOAD DUP3 PUSH4 0xFFFFFFFF AND PUSH1 0xE0 SHL DUP2 MSTORE PUSH1 0x4 ADD PUSH2 0x18F9 SWAP2 SWAP1 PUSH2 0x2494 JUMP JUMPDEST PUSH1 0x20 PUSH1 0x40 MLOAD DUP1 DUP4 SUB DUP2 DUP7 GAS DELEGATECALL ISZERO DUP1 ISZERO PUSH2 0x1916 JUMPI RETURNDATASIZE PUSH1 0x0 DUP1 RETURNDATACOPY RETURNDATASIZE PUSH1 0x0 REVERT JUMPDEST POP POP POP POP PUSH1 0x40 MLOAD RETURNDATASIZE PUSH1 0x1F NOT PUSH1 0x1F DUP3 ADD AND DUP3 ADD DUP1 PUSH1 0x40 MSTORE POP DUP2 ADD SWAP1 PUSH2 0x193A SWAP2 SWAP1 PUSH2 0x24C4 JUMP JUMPDEST SWAP3 POP JUMPDEST DUP1 PUSH1 0x1 ADD SWAP1 POP PUSH2 0x1669 JUMP JUMPDEST POP DUP10 PUSH1 0x2 ADD SLOAD DUP2 LT PUSH2 0x198F JUMPI PUSH1 0x40 MLOAD PUSH32 0x8C379A000000000000000000000000000000000000000000000000000000000 DUP2 MSTORE PUSH1 0x4 ADD PUSH2 0x1986 SWAP1 PUSH2 0x2BB8 JUMP JUMPDEST PUSH1 0x40 MLOAD DUP1 SWAP2 SUB SWAP1 REVERT JUMPDEST DUP2 DUP11 PUSH1 0x1 ADD DUP2 SWAP1 SSTORE POP POP POP POP POP POP POP POP POP POP POP JUMP JUMPDEST PUSH32 0x918D46BF52D98B034413F4A1A1C41594E7A7A3F6AE08CB43D1A2A230E1959EF DUP2 JUMP JUMPDEST PUSH32 0x19DF90EC844EBC4FFEEBD866F33859B0C051D8C958EE3AA88F8F8DF3DB91A5B1 DUP2 JUMP JUMPDEST PUSH32 0x1F21FEB70D3F21B07BF853D5E5DB03071EC495A0A565A21DA2D665D279483795 DUP2 JUMP JUMPDEST PUSH32 0x2134E76AC5D21AAB186C2BE1DD8F84EE880A1E46EAF712F9D371B6DF22191F3E DUP2 JUMP JUMPDEST PUSH32 0x2B94CF5E8746B3F5C9631F4C5DF32907A699C58C94B2AD4D7B5CEC1639183F55 DUP2 JUMP JUMPDEST PUSH32 0x7F9D837CB17B0D36320FFE93BA52345F1B728571A568265CAAC97559DBC952A DUP2 JUMP JUMPDEST PUSH32 0x1BBEB01B4C479ECDE76917645E404DFA2E26F90D0AFC5A65128513AD375C5FF2 DUP2 JUMP JUMPDEST PUSH32 0x2098F5FB9E239EAB3CEAC3F27B81E481DC3124D55FFED523A839EE8446B64864 DUP2 JUMP JUMPDEST PUSH32 0x1F8D8822725E36385200C0B201249819A6E6E1E4650808B5BEBC6BFACE7D7636 DUP2 JUMP JUMPDEST PUSH32 0x1B7201DA72494F1E28717AD1A52EB469F95892F957713533DE6175E5DA190AF2 DUP2 JUMP JUMPDEST PUSH32 0x2F68A1C58E257E42A17A6C61DFF5551ED560B9922AB119D5AC8E184C9734EAD9 DUP2 JUMP JUMPDEST PUSH1 0x0 PUSH32 0x30644E72E131A029B85045B68181585D2833E84879B9709143E1F593F0000001 DUP7 LT PUSH2 0x1B94 JUMPI PUSH1 0x40 MLOAD PUSH32 0x8C379A000000000000000000000000000000000000000000000000000000000 DUP2 MSTORE PUSH1 0x4 ADD PUSH2 0x1B8B SWAP1 PUSH2 0x2337 JUMP JUMPDEST PUSH1 0x40 MLOAD DUP1 SWAP2 SUB SWAP1 REVERT JUMPDEST PUSH1 0x0 DUP8 PUSH1 0x0 ADD SLOAD SWAP1 POP DUP1 DUP5 DUP5 SWAP1 POP EQ DUP1 ISZERO PUSH2 0x1BB1 JUMPI POP DUP1 DUP7 DUP7 SWAP1 POP EQ JUMPDEST PUSH2 0x1BF0 JUMPI PUSH1 0x40 MLOAD PUSH32 0x8C379A000000000000000000000000000000000000000000000000000000000 DUP2 MSTORE PUSH1 0x4 ADD PUSH2 0x1BE7 SWAP1 PUSH2 0x2C4A JUMP JUMPDEST PUSH1 0x40 MLOAD DUP1 SWAP2 SUB SWAP1 REVERT JUMPDEST PUSH1 0x0 DUP8 SWAP1 POP PUSH1 0x0 JUMPDEST DUP3 DUP2 PUSH1 0xFF AND LT ISZERO PUSH2 0x1EC3 JUMPI PUSH32 0x30644E72E131A029B85045B68181585D2833E84879B9709143E1F593F0000001 DUP9 DUP9 DUP4 PUSH1 0xFF AND DUP2 DUP2 LT PUSH2 0x1C3A JUMPI PUSH2 0x1C39 PUSH2 0x2730 JUMP JUMPDEST JUMPDEST SWAP1 POP PUSH1 0x20 MUL ADD CALLDATALOAD LT PUSH2 0x1C81 JUMPI PUSH1 0x40 MLOAD PUSH32 0x8C379A000000000000000000000000000000000000000000000000000000000 DUP2 MSTORE PUSH1 0x4 ADD PUSH2 0x1C78 SWAP1 PUSH2 0x2CDC JUMP JUMPDEST PUSH1 0x40 MLOAD DUP1 SWAP2 SUB SWAP1 REVERT JUMPDEST PUSH1 0x1 DUP7 DUP7 DUP4 PUSH1 0xFF AND DUP2 DUP2 LT PUSH2 0x1C99 JUMPI PUSH2 0x1C98 PUSH2 0x2730 JUMP JUMPDEST JUMPDEST SWAP1 POP PUSH1 0x20 MUL ADD PUSH1 0x20 DUP2 ADD SWAP1 PUSH2 0x1CAE SWAP2 SWAP1 PUSH2 0x2B19 JUMP JUMPDEST PUSH1 0xFF AND EQ DUP1 PUSH2 0x1CEA JUMPI POP PUSH1 0x0 DUP7 DUP7 DUP4 PUSH1 0xFF AND DUP2 DUP2 LT PUSH2 0x1CD0 JUMPI PUSH2 0x1CCF PUSH2 0x2730 JUMP JUMPDEST JUMPDEST SWAP1 POP PUSH1 0x20 MUL ADD PUSH1 0x20 DUP2 ADD SWAP1 PUSH2 0x1CE5 SWAP2 SWAP1 PUSH2 0x2B19 JUMP JUMPDEST PUSH1 0xFF AND EQ JUMPDEST PUSH2 0x1D29 JUMPI PUSH1 0x40 MLOAD PUSH32 0x8C379A000000000000000000000000000000000000000000000000000000000 DUP2 MSTORE PUSH1 0x4 ADD PUSH2 0x1D20 SWAP1 PUSH2 0x2D6E JUMP JUMPDEST PUSH1 0x40 MLOAD DUP1 SWAP2 SUB SWAP1 REVERT JUMPDEST PUSH1 0x0 DUP7 DUP7 DUP4 PUSH1 0xFF AND DUP2 DUP2 LT PUSH2 0x1D41 JUMPI PUSH2 0x1D40 PUSH2 0x2730 JUMP JUMPDEST JUMPDEST SWAP1 POP PUSH1 0x20 MUL ADD PUSH1 0x20 DUP2 ADD SWAP1 PUSH2 0x1D56 SWAP2 SWAP1 PUSH2 0x2B19 JUMP JUMPDEST PUSH1 0xFF AND SUB PUSH2 0x1E0D JUMPI PUSH20 0x0 PUSH4 0x561558FE PUSH1 0x40 MLOAD DUP1 PUSH1 0x40 ADD PUSH1 0x40 MSTORE DUP1 DUP6 DUP2 MSTORE PUSH1 0x20 ADD DUP12 DUP12 DUP7 PUSH1 0xFF AND DUP2 DUP2 LT PUSH2 0x1D9F JUMPI PUSH2 0x1D9E PUSH2 0x2730 JUMP JUMPDEST JUMPDEST SWAP1 POP PUSH1 0x20 MUL ADD CALLDATALOAD DUP2 MSTORE POP PUSH1 0x40 MLOAD DUP3 PUSH4 0xFFFFFFFF AND PUSH1 0xE0 SHL DUP2 MSTORE PUSH1 0x4 ADD PUSH2 0x1DC5 SWAP2 SWAP1 PUSH2 0x2494 JUMP JUMPDEST PUSH1 0x20 PUSH1 0x40 MLOAD DUP1 DUP4 SUB DUP2 DUP7 GAS DELEGATECALL ISZERO DUP1 ISZERO PUSH2 0x1DE2 JUMPI RETURNDATASIZE PUSH1 0x0 DUP1 RETURNDATACOPY RETURNDATASIZE PUSH1 0x0 REVERT JUMPDEST POP POP POP POP PUSH1 0x40 MLOAD RETURNDATASIZE PUSH1 0x1F NOT PUSH1 0x1F DUP3 ADD AND DUP3 ADD DUP1 PUSH1 0x40 MSTORE POP DUP2 ADD SWAP1 PUSH2 0x1E06 SWAP2 SWAP1 PUSH2 0x24C4 JUMP JUMPDEST SWAP2 POP PUSH2 0x1EB8 JUMP JUMPDEST PUSH20 0x0 PUSH4 0x561558FE PUSH1 0x40 MLOAD DUP1 PUSH1 0x40 ADD PUSH1 0x40 MSTORE DUP1 DUP12 DUP12 DUP7 PUSH1 0xFF AND DUP2 DUP2 LT PUSH2 0x1E48 JUMPI PUSH2 0x1E47 PUSH2 0x2730 JUMP JUMPDEST JUMPDEST SWAP1 POP PUSH1 0x20 MUL ADD CALLDATALOAD DUP2 MSTORE PUSH1 0x20 ADD DUP6 DUP2 MSTORE POP PUSH1 0x40 MLOAD DUP3 PUSH4 0xFFFFFFFF AND PUSH1 0xE0 SHL DUP2 MSTORE PUSH1 0x4 ADD PUSH2 0x1E74 SWAP2 SWAP1 PUSH2 0x2494 JUMP JUMPDEST PUSH1 0x20 PUSH1 0x40 MLOAD DUP1 DUP4 SUB DUP2 DUP7 GAS DELEGATECALL ISZERO DUP1 ISZERO PUSH2 0x1E91 JUMPI RETURNDATASIZE PUSH1 0x0 DUP1 RETURNDATACOPY RETURNDATASIZE PUSH1 0x0 REVERT JUMPDEST POP POP POP POP PUSH1 0x40 MLOAD RETURNDATASIZE PUSH1 0x1F NOT PUSH1 0x1F DUP3 ADD AND DUP3 ADD DUP1 PUSH1 0x40 MSTORE POP DUP2 ADD SWAP1 PUSH2 0x1EB5 SWAP2 SWAP1 PUSH2 0x24C4 JUMP JUMPDEST SWAP2 POP JUMPDEST DUP1 PUSH1 0x1 ADD SWAP1 POP PUSH2 0x1BF8 JUMP JUMPDEST POP DUP9 PUSH1 0x1 ADD SLOAD DUP2 EQ SWAP3 POP POP POP SWAP7 SWAP6 POP POP POP POP POP POP JUMP JUMPDEST DUP3 PUSH1 0x2 DUP2 ADD SWAP3 DUP3 ISZERO PUSH2 0x1F08 JUMPI SWAP2 PUSH1 0x20 MUL DUP3 ADD JUMPDEST DUP3 DUP2 GT ISZERO PUSH2 0x1F07 JUMPI DUP3 MLOAD DUP3 SSTORE SWAP2 PUSH1 0x20 ADD SWAP2 SWAP1 PUSH1 0x1 ADD SWAP1 PUSH2 0x1EEC JUMP JUMPDEST JUMPDEST POP SWAP1 POP PUSH2 0x1F15 SWAP2 SWAP1 PUSH2 0x1F19 JUMP JUMPDEST POP SWAP1 JUMP JUMPDEST JUMPDEST DUP1 DUP3 GT ISZERO PUSH2 0x1F32 JUMPI PUSH1 0x0 DUP2 PUSH1 0x0 SWAP1 SSTORE POP PUSH1 0x1 ADD PUSH2 0x1F1A JUMP JUMPDEST POP SWAP1 JUMP JUMPDEST PUSH1 0x0 DUP1 REVERT JUMPDEST PUSH1 0x0 DUP1 REVERT JUMPDEST PUSH1 0x0 DUP2 SWAP1 POP SWAP2 SWAP1 POP JUMP JUMPDEST PUSH2 0x1F53 DUP2 PUSH2 0x1F40 JUMP JUMPDEST DUP2 EQ PUSH2 0x1F5E JUMPI PUSH1 0x0 DUP1 REVERT JUMPDEST POP JUMP JUMPDEST PUSH1 0x0 DUP2 CALLDATALOAD SWAP1 POP PUSH2 0x1F70 DUP2 PUSH2 0x1F4A JUMP JUMPDEST SWAP3 SWAP2 POP POP JUMP JUMPDEST PUSH1 0x0 DUP2 SWAP1 POP SWAP2 SWAP1 POP JUMP JUMPDEST PUSH2 0x1F89 DUP2 PUSH2 0x1F76 JUMP JUMPDEST DUP2 EQ PUSH2 0x1F94 JUMPI PUSH1 0x0 DUP1 REVERT JUMPDEST POP JUMP JUMPDEST PUSH1 0x0 DUP2 CALLDATALOAD SWAP1 POP PUSH2 0x1FA6 DUP2 PUSH2 0x1F80 JUMP JUMPDEST SWAP3 SWAP2 POP POP JUMP JUMPDEST PUSH1 0x0 DUP1 REVERT JUMPDEST PUSH1 0x0 DUP1 REVERT JUMPDEST PUSH1 0x0 DUP1 REVERT JUMPDEST PUSH1 0x0 DUP1 DUP4 PUSH1 0x1F DUP5 ADD SLT PUSH2 0x1FD1 JUMPI PUSH2 0x1FD0 PUSH2 0x1FAC JUMP JUMPDEST JUMPDEST DUP3 CALLDATALOAD SWAP1 POP PUSH8 0xFFFFFFFFFFFFFFFF DUP2 GT ISZERO PUSH2 0x1FEE JUMPI PUSH2 0x1FED PUSH2 0x1FB1 JUMP JUMPDEST JUMPDEST PUSH1 0x20 DUP4 ADD SWAP2 POP DUP4 PUSH1 0x20 DUP3 MUL DUP4 ADD GT ISZERO PUSH2 0x200A JUMPI PUSH2 0x2009 PUSH2 0x1FB6 JUMP JUMPDEST JUMPDEST SWAP3 POP SWAP3 SWAP1 POP JUMP JUMPDEST PUSH1 0x0 DUP1 DUP4 PUSH1 0x1F DUP5 ADD SLT PUSH2 0x2027 JUMPI PUSH2 0x2026 PUSH2 0x1FAC JUMP JUMPDEST JUMPDEST DUP3 CALLDATALOAD SWAP1 POP PUSH8 0xFFFFFFFFFFFFFFFF DUP2 GT ISZERO PUSH2 0x2044 JUMPI PUSH2 0x2043 PUSH2 0x1FB1 JUMP JUMPDEST JUMPDEST PUSH1 0x20 DUP4 ADD SWAP2 POP DUP4 PUSH1 0x20 DUP3 MUL DUP4 ADD GT ISZERO PUSH2 0x2060 JUMPI PUSH2 0x205F PUSH2 0x1FB6 JUMP JUMPDEST JUMPDEST SWAP3 POP SWAP3 SWAP1 POP JUMP JUMPDEST PUSH1 0x0 DUP1 PUSH1 0x0 DUP1 PUSH1 0x0 DUP1 PUSH1 0x80 DUP8 DUP10 SUB SLT ISZERO PUSH2 0x2084 JUMPI PUSH2 0x2083 PUSH2 0x1F36 JUMP JUMPDEST JUMPDEST PUSH1 0x0 PUSH2 0x2092 DUP10 DUP3 DUP11 ADD PUSH2 0x1F61 JUMP JUMPDEST SWAP7 POP POP PUSH1 0x20 PUSH2 0x20A3 DUP10 DUP3 DUP11 ADD PUSH2 0x1F97 JUMP JUMPDEST SWAP6 POP POP PUSH1 0x40 DUP8 ADD CALLDATALOAD PUSH8 0xFFFFFFFFFFFFFFFF DUP2 GT ISZERO PUSH2 0x20C4 JUMPI PUSH2 0x20C3 PUSH2 0x1F3B JUMP JUMPDEST JUMPDEST PUSH2 0x20D0 DUP10 DUP3 DUP11 ADD PUSH2 0x1FBB JUMP JUMPDEST SWAP5 POP SWAP5 POP POP PUSH1 0x60 DUP8 ADD CALLDATALOAD PUSH8 0xFFFFFFFFFFFFFFFF DUP2 GT ISZERO PUSH2 0x20F3 JUMPI PUSH2 0x20F2 PUSH2 0x1F3B JUMP JUMPDEST JUMPDEST PUSH2 0x20FF DUP10 DUP3 DUP11 ADD PUSH2 0x2011 JUMP JUMPDEST SWAP3 POP SWAP3 POP POP SWAP3 SWAP6 POP SWAP3 SWAP6 POP SWAP3 SWAP6 JUMP JUMPDEST PUSH1 0x0 DUP1 PUSH1 0x0 PUSH1 0x60 DUP5 DUP7 SUB SLT ISZERO PUSH2 0x2127 JUMPI PUSH2 0x2126 PUSH2 0x1F36 JUMP JUMPDEST JUMPDEST PUSH1 0x0 PUSH2 0x2135 DUP7 DUP3 DUP8 ADD PUSH2 0x1F61 JUMP JUMPDEST SWAP4 POP POP PUSH1 0x20 PUSH2 0x2146 DUP7 DUP3 DUP8 ADD PUSH2 0x1F97 JUMP JUMPDEST SWAP3 POP POP PUSH1 0x40 PUSH2 0x2157 DUP7 DUP3 DUP8 ADD PUSH2 0x1F97 JUMP JUMPDEST SWAP2 POP POP SWAP3 POP SWAP3 POP SWAP3 JUMP JUMPDEST PUSH2 0x216A DUP2 PUSH2 0x1F76 JUMP JUMPDEST DUP3 MSTORE POP POP JUMP JUMPDEST PUSH1 0x0 PUSH1 0x20 DUP3 ADD SWAP1 POP PUSH2 0x2185 PUSH1 0x0 DUP4 ADD DUP5 PUSH2 0x2161 JUMP JUMPDEST SWAP3 SWAP2 POP POP JUMP JUMPDEST PUSH1 0x0 DUP1 PUSH1 0x40 DUP4 DUP6 SUB SLT ISZERO PUSH2 0x21A2 JUMPI PUSH2 0x21A1 PUSH2 0x1F36 JUMP JUMPDEST JUMPDEST PUSH1 0x0 PUSH2 0x21B0 DUP6 DUP3 DUP7 ADD PUSH2 0x1F61 JUMP JUMPDEST SWAP3 POP POP PUSH1 0x20 PUSH2 0x21C1 DUP6 DUP3 DUP7 ADD PUSH2 0x1F97 JUMP JUMPDEST SWAP2 POP POP SWAP3 POP SWAP3 SWAP1 POP JUMP JUMPDEST PUSH1 0x0 PUSH1 0x20 DUP3 DUP5 SUB SLT ISZERO PUSH2 0x21E1 JUMPI PUSH2 0x21E0 PUSH2 0x1F36 JUMP JUMPDEST JUMPDEST PUSH1 0x0 PUSH2 0x21EF DUP5 DUP3 DUP6 ADD PUSH2 0x1F97 JUMP JUMPDEST SWAP2 POP POP SWAP3 SWAP2 POP POP JUMP JUMPDEST PUSH1 0x0 DUP1 PUSH1 0x0 DUP1 PUSH1 0x0 DUP1 PUSH1 0x0 PUSH1 0xA0 DUP9 DUP11 SUB SLT ISZERO PUSH2 0x2217 JUMPI PUSH2 0x2216 PUSH2 0x1F36 JUMP JUMPDEST JUMPDEST PUSH1 0x0 PUSH2 0x2225 DUP11 DUP3 DUP12 ADD PUSH2 0x1F61 JUMP JUMPDEST SWAP8 POP POP PUSH1 0x20 PUSH2 0x2236 DUP11 DUP3 DUP12 ADD PUSH2 0x1F97 JUMP JUMPDEST SWAP7 POP POP PUSH1 0x40 PUSH2 0x2247 DUP11 DUP3 DUP12 ADD PUSH2 0x1F97 JUMP JUMPDEST SWAP6 POP POP PUSH1 0x60 DUP9 ADD CALLDATALOAD PUSH8 0xFFFFFFFFFFFFFFFF DUP2 GT ISZERO PUSH2 0x2268 JUMPI PUSH2 0x2267 PUSH2 0x1F3B JUMP JUMPDEST JUMPDEST PUSH2 0x2274 DUP11 DUP3 DUP12 ADD PUSH2 0x1FBB JUMP JUMPDEST SWAP5 POP SWAP5 POP POP PUSH1 0x80 DUP9 ADD CALLDATALOAD PUSH8 0xFFFFFFFFFFFFFFFF DUP2 GT ISZERO PUSH2 0x2297 JUMPI PUSH2 0x2296 PUSH2 0x1F3B JUMP JUMPDEST JUMPDEST PUSH2 0x22A3 DUP11 DUP3 DUP12 ADD PUSH2 0x2011 JUMP JUMPDEST SWAP3 POP SWAP3 POP POP SWAP3 SWAP6 SWAP9 SWAP2 SWAP5 SWAP8 POP SWAP3 SWAP6 POP JUMP JUMPDEST PUSH1 0x0 DUP3 DUP3 MSTORE PUSH1 0x20 DUP3 ADD SWAP1 POP SWAP3 SWAP2 POP POP JUMP JUMPDEST PUSH32 0x496E6372656D656E74616C42696E617279547265653A206C656166206D757374 PUSH1 0x0 DUP3 ADD MSTORE PUSH32 0x206265203C20534E41524B5F5343414C41525F4649454C440000000000000000 PUSH1 0x20 DUP3 ADD MSTORE POP JUMP JUMPDEST PUSH1 0x0 PUSH2 0x2321 PUSH1 0x38 DUP4 PUSH2 0x22B4 JUMP JUMPDEST SWAP2 POP PUSH2 0x232C DUP3 PUSH2 0x22C5 JUMP JUMPDEST PUSH1 0x40 DUP3 ADD SWAP1 POP SWAP2 SWAP1 POP JUMP JUMPDEST PUSH1 0x0 PUSH1 0x20 DUP3 ADD SWAP1 POP DUP2 DUP2 SUB PUSH1 0x0 DUP4 ADD MSTORE PUSH2 0x2350 DUP2 PUSH2 0x2314 JUMP JUMPDEST SWAP1 POP SWAP2 SWAP1 POP JUMP JUMPDEST PUSH32 0x496E6372656D656E74616C42696E617279547265653A20747265652064657074 PUSH1 0x0 DUP3 ADD MSTORE PUSH32 0x68206D757374206265206265747765656E203120616E64203332000000000000 PUSH1 0x20 DUP3 ADD MSTORE POP JUMP JUMPDEST PUSH1 0x0 PUSH2 0x23B3 PUSH1 0x3A DUP4 PUSH2 0x22B4 JUMP JUMPDEST SWAP2 POP PUSH2 0x23BE DUP3 PUSH2 0x2357 JUMP JUMPDEST PUSH1 0x40 DUP3 ADD SWAP1 POP SWAP2 SWAP1 POP JUMP JUMPDEST PUSH1 0x0 PUSH1 0x20 DUP3 ADD SWAP1 POP DUP2 DUP2 SUB PUSH1 0x0 DUP4 ADD MSTORE PUSH2 0x23E2 DUP2 PUSH2 0x23A6 JUMP JUMPDEST SWAP1 POP SWAP2 SWAP1 POP JUMP JUMPDEST PUSH1 0x0 PUSH1 0x2 SWAP1 POP SWAP2 SWAP1 POP JUMP JUMPDEST PUSH1 0x0 DUP2 SWAP1 POP SWAP3 SWAP2 POP POP JUMP JUMPDEST PUSH1 0x0 DUP2 SWAP1 POP SWAP2 SWAP1 POP JUMP JUMPDEST PUSH2 0x2412 DUP2 PUSH2 0x1F76 JUMP JUMPDEST DUP3 MSTORE POP POP JUMP JUMPDEST PUSH1 0x0 PUSH2 0x2424 DUP4 DUP4 PUSH2 0x2409 JUMP JUMPDEST PUSH1 0x20 DUP4 ADD SWAP1 POP SWAP3 SWAP2 POP POP JUMP JUMPDEST PUSH1 0x0 PUSH1 0x20 DUP3 ADD SWAP1 POP SWAP2 SWAP1 POP JUMP JUMPDEST PUSH2 0x2446 DUP2 PUSH2 0x23E9 JUMP JUMPDEST PUSH2 0x2450 DUP2 DUP5 PUSH2 0x23F4 JUMP JUMPDEST SWAP3 POP PUSH2 0x245B DUP3 PUSH2 0x23FF JUMP JUMPDEST DUP1 PUSH1 0x0 JUMPDEST DUP4 DUP2 LT ISZERO PUSH2 0x248C JUMPI DUP2 MLOAD PUSH2 0x2473 DUP8 DUP3 PUSH2 0x2418 JUMP JUMPDEST SWAP7 POP PUSH2 0x247E DUP4 PUSH2 0x2430 JUMP JUMPDEST SWAP3 POP POP PUSH1 0x1 DUP2 ADD SWAP1 POP PUSH2 0x245F JUMP JUMPDEST POP POP POP POP POP POP JUMP JUMPDEST PUSH1 0x0 PUSH1 0x40 DUP3 ADD SWAP1 POP PUSH2 0x24A9 PUSH1 0x0 DUP4 ADD DUP5 PUSH2 0x243D JUMP JUMPDEST SWAP3 SWAP2 POP POP JUMP JUMPDEST PUSH1 0x0 DUP2 MLOAD SWAP1 POP PUSH2 0x24BE DUP2 PUSH2 0x1F80 JUMP JUMPDEST SWAP3 SWAP2 POP POP JUMP JUMPDEST PUSH1 0x0 PUSH1 0x20 DUP3 DUP5 SUB SLT ISZERO PUSH2 0x24DA JUMPI PUSH2 0x24D9 PUSH2 0x1F36 JUMP JUMPDEST JUMPDEST PUSH1 0x0 PUSH2 0x24E8 DUP5 DUP3 DUP6 ADD PUSH2 0x24AF JUMP JUMPDEST SWAP2 POP POP SWAP3 SWAP2 POP POP JUMP JUMPDEST PUSH32 0x4E487B7100000000000000000000000000000000000000000000000000000000 PUSH1 0x0 MSTORE PUSH1 0x11 PUSH1 0x4 MSTORE PUSH1 0x24 PUSH1 0x0 REVERT JUMPDEST PUSH1 0x0 DUP2 PUSH1 0x1 SHR SWAP1 POP SWAP2 SWAP1 POP JUMP JUMPDEST PUSH1 0x0 DUP1 DUP3 SWAP2 POP DUP4 SWAP1 POP JUMPDEST PUSH1 0x1 DUP6 GT ISZERO PUSH2 0x2577 JUMPI DUP1 DUP7 DIV DUP2 GT ISZERO PUSH2 0x2553 JUMPI PUSH2 0x2552 PUSH2 0x24F1 JUMP JUMPDEST JUMPDEST PUSH1 0x1 DUP6 AND ISZERO PUSH2 0x2562 JUMPI DUP1 DUP3 MUL SWAP2 POP JUMPDEST DUP1 DUP2 MUL SWAP1 POP PUSH2 0x2570 DUP6 PUSH2 0x2520 JUMP JUMPDEST SWAP5 POP PUSH2 0x2537 JUMP JUMPDEST SWAP5 POP SWAP5 SWAP3 POP POP POP JUMP JUMPDEST PUSH1 0x0 DUP3 PUSH2 0x2590 JUMPI PUSH1 0x1 SWAP1 POP PUSH2 0x264C JUMP JUMPDEST DUP2 PUSH2 0x259E JUMPI PUSH1 0x0 SWAP1 POP PUSH2 0x264C JUMP JUMPDEST DUP2 PUSH1 0x1 DUP2 EQ PUSH2 0x25B4 JUMPI PUSH1 0x2 DUP2 EQ PUSH2 0x25BE JUMPI PUSH2 0x25ED JUMP JUMPDEST PUSH1 0x1 SWAP2 POP POP PUSH2 0x264C JUMP JUMPDEST PUSH1 0xFF DUP5 GT ISZERO PUSH2 0x25D0 JUMPI PUSH2 0x25CF PUSH2 0x24F1 JUMP JUMPDEST JUMPDEST DUP4 PUSH1 0x2 EXP SWAP2 POP DUP5 DUP3 GT ISZERO PUSH2 0x25E7 JUMPI PUSH2 0x25E6 PUSH2 0x24F1 JUMP JUMPDEST JUMPDEST POP PUSH2 0x264C JUMP JUMPDEST POP PUSH1 0x20 DUP4 LT PUSH2 0x133 DUP4 LT AND PUSH1 0x4E DUP5 LT PUSH1 0xB DUP5 LT AND OR ISZERO PUSH2 0x2622 JUMPI DUP3 DUP3 EXP SWAP1 POP DUP4 DUP2 GT ISZERO PUSH2 0x261D JUMPI PUSH2 0x261C PUSH2 0x24F1 JUMP JUMPDEST JUMPDEST PUSH2 0x264C JUMP JUMPDEST PUSH2 0x262F DUP5 DUP5 DUP5 PUSH1 0x1 PUSH2 0x252D JUMP JUMPDEST SWAP3 POP SWAP1 POP DUP2 DUP5 DIV DUP2 GT ISZERO PUSH2 0x2646 JUMPI PUSH2 0x2645 PUSH2 0x24F1 JUMP JUMPDEST JUMPDEST DUP2 DUP2 MUL SWAP1 POP JUMPDEST SWAP4 SWAP3 POP POP POP JUMP JUMPDEST PUSH1 0x0 PUSH2 0x265E DUP3 PUSH2 0x1F76 JUMP JUMPDEST SWAP2 POP PUSH2 0x2669 DUP4 PUSH2 0x1F76 JUMP JUMPDEST SWAP3 POP PUSH2 0x2696 PUSH32 0xFFFFFFFFFFFFFFFFFFFFFFFFFFFFFFFFFFFFFFFFFFFFFFFFFFFFFFFFFFFFFFFF DUP5 DUP5 PUSH2 0x2580 JUMP JUMPDEST SWAP1 POP SWAP3 SWAP2 POP POP JUMP JUMPDEST PUSH32 0x496E6372656D656E74616C42696E617279547265653A20747265652069732066 PUSH1 0x0 DUP3 ADD MSTORE PUSH32 0x756C6C0000000000000000000000000000000000000000000000000000000000 PUSH1 0x20 DUP3 ADD MSTORE POP JUMP JUMPDEST PUSH1 0x0 PUSH2 0x26FA PUSH1 0x23 DUP4 PUSH2 0x22B4 JUMP JUMPDEST SWAP2 POP PUSH2 0x2705 DUP3 PUSH2 0x269E JUMP JUMPDEST PUSH1 0x40 DUP3 ADD SWAP1 POP SWAP2 SWAP1 POP JUMP JUMPDEST PUSH1 0x0 PUSH1 0x20 DUP3 ADD SWAP1 POP DUP2 DUP2 SUB PUSH1 0x0 DUP4 ADD MSTORE PUSH2 0x2729 DUP2 PUSH2 0x26ED JUMP JUMPDEST SWAP1 POP SWAP2 SWAP1 POP JUMP JUMPDEST PUSH32 0x4E487B7100000000000000000000000000000000000000000000000000000000 PUSH1 0x0 MSTORE PUSH1 0x32 PUSH1 0x4 MSTORE PUSH1 0x24 PUSH1 0x0 REVERT JUMPDEST PUSH1 0x0 PUSH1 0x2 SWAP1 POP SWAP2 SWAP1 POP JUMP JUMPDEST PUSH1 0x0 DUP2 SWAP1 POP SWAP2 SWAP1 POP JUMP JUMPDEST PUSH1 0x0 DUP2 PUSH1 0x0 SHR SWAP1 POP SWAP2 SWAP1 POP JUMP JUMPDEST PUSH1 0x0 DUP2 SWAP1 POP SWAP2 SWAP1 POP JUMP JUMPDEST PUSH1 0x0 PUSH2 0x279E PUSH2 0x2799 DUP4 PUSH2 0x2774 JUMP JUMPDEST PUSH2 0x2781 JUMP JUMPDEST SWAP1 POP SWAP2 SWAP1 POP JUMP JUMPDEST PUSH1 0x0 PUSH2 0x27B1 DUP3 SLOAD PUSH2 0x278B JUMP JUMPDEST SWAP1 POP SWAP2 SWAP1 POP JUMP JUMPDEST PUSH1 0x0 PUSH1 0x1 DUP3 ADD SWAP1 POP SWAP2 SWAP1 POP JUMP JUMPDEST PUSH2 0x27CE DUP2 PUSH2 0x275F JUMP JUMPDEST PUSH2 0x27D8 DUP2 DUP5 PUSH2 0x23F4 JUMP JUMPDEST SWAP3 POP PUSH2 0x27E3 DUP3 PUSH2 0x276A JUMP JUMPDEST DUP1 PUSH1 0x0 JUMPDEST DUP4 DUP2 LT ISZERO PUSH2 0x281B JUMPI PUSH2 0x27F8 DUP3 PUSH2 0x27A5 JUMP JUMPDEST PUSH2 0x2802 DUP8 DUP3 PUSH2 0x2418 JUMP JUMPDEST SWAP7 POP PUSH2 0x280D DUP4 PUSH2 0x27B8 JUMP JUMPDEST SWAP3 POP POP PUSH1 0x1 DUP2 ADD SWAP1 POP PUSH2 0x27E7 JUMP JUMPDEST POP POP POP POP POP POP JUMP JUMPDEST PUSH1 0x0 PUSH1 0x40 DUP3 ADD SWAP1 POP PUSH2 0x2838 PUSH1 0x0 DUP4 ADD DUP5 PUSH2 0x27C5 JUMP JUMPDEST SWAP3 SWAP2 POP POP JUMP JUMPDEST PUSH1 0x0 PUSH2 0x2849 DUP3 PUSH2 0x1F76 JUMP JUMPDEST SWAP2 POP PUSH2 0x2854 DUP4 PUSH2 0x1F76 JUMP JUMPDEST SWAP3 POP DUP3 DUP3 ADD SWAP1 POP DUP1 DUP3 GT ISZERO PUSH2 0x286C JUMPI PUSH2 0x286B PUSH2 0x24F1 JUMP JUMPDEST JUMPDEST SWAP3 SWAP2 POP POP JUMP JUMPDEST PUSH32 0x496E6372656D656E74616C42696E617279547265653A2064656661756C745A65 PUSH1 0x0 DUP3 ADD MSTORE PUSH32 0x726F2062616420696E6465780000000000000000000000000000000000000000 PUSH1 0x20 DUP3 ADD MSTORE POP JUMP JUMPDEST PUSH1 0x0 PUSH2 0x28CE PUSH1 0x2C DUP4 PUSH2 0x22B4 JUMP JUMPDEST SWAP2 POP PUSH2 0x28D9 DUP3 PUSH2 0x2872 JUMP JUMPDEST PUSH1 0x40 DUP3 ADD SWAP1 POP SWAP2 SWAP1 POP JUMP JUMPDEST PUSH1 0x0 PUSH1 0x20 DUP3 ADD SWAP1 POP DUP2 DUP2 SUB PUSH1 0x0 DUP4 ADD MSTORE PUSH2 0x28FD DUP2 PUSH2 0x28C1 JUMP JUMPDEST SWAP1 POP SWAP2 SWAP1 POP JUMP JUMPDEST PUSH32 0x496E6372656D656E74616C42696E617279547265653A206E6577206C65616620 PUSH1 0x0 DUP3 ADD MSTORE PUSH32 0x63616E6E6F74206265207468652073616D6520617320746865206F6C64206F6E PUSH1 0x20 DUP3 ADD MSTORE PUSH32 0x6500000000000000000000000000000000000000000000000000000000000000 PUSH1 0x40 DUP3 ADD MSTORE POP JUMP JUMPDEST PUSH1 0x0 PUSH2 0x2986 PUSH1 0x41 DUP4 PUSH2 0x22B4 JUMP JUMPDEST SWAP2 POP PUSH2 0x2991 DUP3 PUSH2 0x2904 JUMP JUMPDEST PUSH1 0x60 DUP3 ADD SWAP1 POP SWAP2 SWAP1 POP JUMP JUMPDEST PUSH1 0x0 PUSH1 0x20 DUP3 ADD SWAP1 POP DUP2 DUP2 SUB PUSH1 0x0 DUP4 ADD MSTORE PUSH2 0x29B5 DUP2 PUSH2 0x2979 JUMP JUMPDEST SWAP1 POP SWAP2 SWAP1 POP JUMP JUMPDEST PUSH32 0x496E6372656D656E74616C42696E617279547265653A206E6577206C65616620 PUSH1 0x0 DUP3 ADD MSTORE PUSH32 0x6D757374206265203C20534E41524B5F5343414C41525F4649454C4400000000 PUSH1 0x20 DUP3 ADD MSTORE POP JUMP JUMPDEST PUSH1 0x0 PUSH2 0x2A18 PUSH1 0x3C DUP4 PUSH2 0x22B4 JUMP JUMPDEST SWAP2 POP PUSH2 0x2A23 DUP3 PUSH2 0x29BC JUMP JUMPDEST PUSH1 0x40 DUP3 ADD SWAP1 POP SWAP2 SWAP1 POP JUMP JUMPDEST PUSH1 0x0 PUSH1 0x20 DUP3 ADD SWAP1 POP DUP2 DUP2 SUB PUSH1 0x0 DUP4 ADD MSTORE PUSH2 0x2A47 DUP2 PUSH2 0x2A0B JUMP JUMPDEST SWAP1 POP SWAP2 SWAP1 POP JUMP JUMPDEST PUSH32 0x496E6372656D656E74616C42696E617279547265653A206C656166206973206E PUSH1 0x0 DUP3 ADD MSTORE PUSH32 0x6F742070617274206F6620746865207472656500000000000000000000000000 PUSH1 0x20 DUP3 ADD MSTORE POP JUMP JUMPDEST PUSH1 0x0 PUSH2 0x2AAA PUSH1 0x33 DUP4 PUSH2 0x22B4 JUMP JUMPDEST SWAP2 POP PUSH2 0x2AB5 DUP3 PUSH2 0x2A4E JUMP JUMPDEST PUSH1 0x40 DUP3 ADD SWAP1 POP SWAP2 SWAP1 POP JUMP JUMPDEST PUSH1 0x0 PUSH1 0x20 DUP3 ADD SWAP1 POP DUP2 DUP2 SUB PUSH1 0x0 DUP4 ADD MSTORE PUSH2 0x2AD9 DUP2 PUSH2 0x2A9D JUMP JUMPDEST SWAP1 POP SWAP2 SWAP1 POP JUMP JUMPDEST PUSH1 0x0 PUSH1 0xFF DUP3 AND SWAP1 POP SWAP2 SWAP1 POP JUMP JUMPDEST PUSH2 0x2AF6 DUP2 PUSH2 0x2AE0 JUMP JUMPDEST DUP2 EQ PUSH2 0x2B01 JUMPI PUSH1 0x0 DUP1 REVERT JUMPDEST POP JUMP JUMPDEST PUSH1 0x0 DUP2 CALLDATALOAD SWAP1 POP PUSH2 0x2B13 DUP2 PUSH2 0x2AED JUMP JUMPDEST SWAP3 SWAP2 POP POP JUMP JUMPDEST PUSH1 0x0 PUSH1 0x20 DUP3 DUP5 SUB SLT ISZERO PUSH2 0x2B2F JUMPI PUSH2 0x2B2E PUSH2 0x1F36 JUMP JUMPDEST JUMPDEST PUSH1 0x0 PUSH2 0x2B3D DUP5 DUP3 DUP6 ADD PUSH2 0x2B04 JUMP JUMPDEST SWAP2 POP POP SWAP3 SWAP2 POP POP JUMP JUMPDEST PUSH32 0x496E6372656D656E74616C42696E617279547265653A206C65616620696E6465 PUSH1 0x0 DUP3 ADD MSTORE PUSH32 0x78206F7574206F662072616E6765000000000000000000000000000000000000 PUSH1 0x20 DUP3 ADD MSTORE POP JUMP JUMPDEST PUSH1 0x0 PUSH2 0x2BA2 PUSH1 0x2E DUP4 PUSH2 0x22B4 JUMP JUMPDEST SWAP2 POP PUSH2 0x2BAD DUP3 PUSH2 0x2B46 JUMP JUMPDEST PUSH1 0x40 DUP3 ADD SWAP1 POP SWAP2 SWAP1 POP JUMP JUMPDEST PUSH1 0x0 PUSH1 0x20 DUP3 ADD SWAP1 POP DUP2 DUP2 SUB PUSH1 0x0 DUP4 ADD MSTORE PUSH2 0x2BD1 DUP2 PUSH2 0x2B95 JUMP JUMPDEST SWAP1 POP SWAP2 SWAP1 POP JUMP JUMPDEST PUSH32 0x496E6372656D656E74616C42696E617279547265653A206C656E677468206F66 PUSH1 0x0 DUP3 ADD MSTORE PUSH32 0x2070617468206973206E6F7420636F7272656374000000000000000000000000 PUSH1 0x20 DUP3 ADD MSTORE POP JUMP JUMPDEST PUSH1 0x0 PUSH2 0x2C34 PUSH1 0x34 DUP4 PUSH2 0x22B4 JUMP JUMPDEST SWAP2 POP PUSH2 0x2C3F DUP3 PUSH2 0x2BD8 JUMP JUMPDEST PUSH1 0x40 DUP3 ADD SWAP1 POP SWAP2 SWAP1 POP JUMP JUMPDEST PUSH1 0x0 PUSH1 0x20 DUP3 ADD SWAP1 POP DUP2 DUP2 SUB PUSH1 0x0 DUP4 ADD MSTORE PUSH2 0x2C63 DUP2 PUSH2 0x2C27 JUMP JUMPDEST SWAP1 POP SWAP2 SWAP1 POP JUMP JUMPDEST PUSH32 0x496E6372656D656E74616C42696E617279547265653A207369626C696E67206E PUSH1 0x0 DUP3 ADD MSTORE PUSH32 0x6F6465206D757374206265203C20534E41524B5F5343414C41525F4649454C44 PUSH1 0x20 DUP3 ADD MSTORE POP JUMP JUMPDEST PUSH1 0x0 PUSH2 0x2CC6 PUSH1 0x40 DUP4 PUSH2 0x22B4 JUMP JUMPDEST SWAP2 POP PUSH2 0x2CD1 DUP3 PUSH2 0x2C6A JUMP JUMPDEST PUSH1 0x40 DUP3 ADD SWAP1 POP SWAP2 SWAP1 POP JUMP JUMPDEST PUSH1 0x0 PUSH1 0x20 DUP3 ADD SWAP1 POP DUP2 DUP2 SUB PUSH1 0x0 DUP4 ADD MSTORE PUSH2 0x2CF5 DUP2 PUSH2 0x2CB9 JUMP JUMPDEST SWAP1 POP SWAP2 SWAP1 POP JUMP JUMPDEST PUSH32 0x496E6372656D656E74616C42696E617279547265653A207061746820696E6465 PUSH1 0x0 DUP3 ADD MSTORE PUSH32 0x78206973206E6569746865722030206E6F722031000000000000000000000000 PUSH1 0x20 DUP3 ADD MSTORE POP JUMP JUMPDEST PUSH1 0x0 PUSH2 0x2D58 PUSH1 0x34 DUP4 PUSH2 0x22B4 JUMP JUMPDEST SWAP2 POP PUSH2 0x2D63 DUP3 PUSH2 0x2CFC JUMP JUMPDEST PUSH1 0x40 DUP3 ADD SWAP1 POP SWAP2 SWAP1 POP JUMP JUMPDEST PUSH1 0x0 PUSH1 0x20 DUP3 ADD SWAP1 POP DUP2 DUP2 SUB PUSH1 0x0 DUP4 ADD MSTORE PUSH2 0x2D87 DUP2 PUSH2 0x2D4B JUMP JUMPDEST SWAP1 POP SWAP2 SWAP1 POP JUMP INVALID LOG2 PUSH5 0x6970667358 0x22 SLT KECCAK256 0xDE 0xBC CREATE2 0xC6 0xE BASEFEE NOT 0x4F PUSH29 0x837A4D4DF0E613FC8E7EE6180CF167340701D21B62B5E364736F6C6343 STOP ADDMOD SGT STOP CALLER "},"methodIdentifiers":{"Z_0()":"65ad985e","Z_1()":"ccbad174","Z_10()":"eb095a7d","Z_11()":"d2aa5c62","Z_12()":"9bf21071","Z_13()":"54f5a901","Z_14()":"65f7bec3","Z_15()":"a3205067","Z_16()":"89d0e932","Z_17()":"309ec3c3","Z_18()":"55005f76","Z_19()":"64048bf2","Z_2()":"52be1fb8","Z_20()":"b5f35eb9","Z_21()":"b1849a1a","Z_22()":"30314fc0","Z_23()":"1ddbea00","Z_24()":"5da707d4","Z_25()":"3994a957","Z_26()":"11505544","Z_27()":"b410396a","Z_28()":"44f9e1ac","Z_29()":"9cda4774","Z_3()":"8836ccf6","Z_30()":"af9d047c","Z_31()":"c7fadc67","Z_32()":"f49babe6","Z_4()":"c6675bbf","Z_5()":"c0c5bf67","Z_6()":"565b427e","Z_7()":"5fcde067","Z_8()":"583f8af4","Z_9()":"94804215","defaultZero(uint256)":"18f18fb1","init(IncrementalTreeData storage,uint256,uint256)":"1095fbb4","initWithDefaultZeroes(IncrementalTreeData storage,uint256)":"12b3a2fb","insert(IncrementalTreeData storage,uint256)":"168703fa","remove(IncrementalTreeData storage,uint256,uint256[],uint8[])":"0629596f","update(IncrementalTreeData storage,uint256,uint256,uint256[],uint8[])":"a5478827"}}}}}