{
  "_format": "hh-sol-artifact-1",
  "contractName": "BabCoinContract",
  "sourceName": "contracts/BabCoinContract.sol",
  "abi": [
    {
      "inputs": [
        {
          "internalType": "string",
          "name": "uri_",
          "type": "string"
        },
        {
          "internalType": "address",
          "name": "superAdmin_",
          "type": "address"
        },
        {
          "components": [
            {
              "internalType": "address",
              "name": "contractAddress",
              "type": "address"
            },
            {
              "internalType": "uint256",
              "name": "merkleTreeDepth",
              "type": "uint256"
            }
          ],
          "internalType": "struct IPrivPoll.Verifier[]",
          "name": "_verifiers",
          "type": "tuple[]"
        }
      ],
      "stateMutability": "nonpayable",
      "type": "constructor"
    },
    {
      "inputs": [],
      "name": "Semaphore__CallerIsNotThePollCoordinator",
      "type": "error"
    },
    {
      "inputs": [],
      "name": "Semaphore__GroupAlreadyExists",
      "type": "error"
    },
    {
      "inputs": [],
      "name": "Semaphore__GroupDoesNotExist",
      "type": "error"
    },
    {
      "inputs": [],
      "name": "Semaphore__GroupIdIsNotLessThanSnarkScalarField",
      "type": "error"
    },
    {
      "inputs": [],
      "name": "Semaphore__MerkleTreeDepthIsNotSupported",
      "type": "error"
    },
    {
      "inputs": [],
      "name": "Semaphore__PollHasAlreadyBeenStarted",
      "type": "error"
    },
    {
      "inputs": [],
      "name": "Semaphore__PollIsNotOngoing",
      "type": "error"
    },
    {
      "inputs": [],
      "name": "Semaphore__YouAreUsingTheSameNillifierTwice",
      "type": "error"
    },
    {
      "anonymous": false,
      "inputs": [
        {
          "indexed": true,
          "internalType": "address",
          "name": "account",
          "type": "address"
        },
        {
          "indexed": true,
          "internalType": "address",
          "name": "operator",
          "type": "address"
        },
        {
          "indexed": false,
          "internalType": "bool",
          "name": "approved",
          "type": "bool"
        }
      ],
      "name": "ApprovalForAll",
      "type": "event"
    },
    {
      "anonymous": false,
      "inputs": [
        {
          "indexed": true,
          "internalType": "uint256",
          "name": "groupId",
          "type": "uint256"
        },
        {
          "indexed": false,
          "internalType": "uint256",
          "name": "merkleTreeDepth",
          "type": "uint256"
        },
        {
          "indexed": false,
          "internalType": "uint256",
          "name": "zeroValue",
          "type": "uint256"
        }
      ],
      "name": "GroupCreated",
      "type": "event"
    },
    {
      "anonymous": false,
      "inputs": [
        {
          "indexed": true,
          "internalType": "uint256",
          "name": "groupId",
          "type": "uint256"
        },
        {
          "indexed": false,
          "internalType": "uint256",
          "name": "index",
          "type": "uint256"
        },
        {
          "indexed": false,
          "internalType": "uint256",
          "name": "identityCommitment",
          "type": "uint256"
        },
        {
          "indexed": false,
          "internalType": "uint256",
          "name": "merkleTreeRoot",
          "type": "uint256"
        }
      ],
      "name": "MemberAdded",
      "type": "event"
    },
    {
      "anonymous": false,
      "inputs": [
        {
          "indexed": true,
          "internalType": "uint256",
          "name": "groupId",
          "type": "uint256"
        },
        {
          "indexed": false,
          "internalType": "uint256",
          "name": "index",
          "type": "uint256"
        },
        {
          "indexed": false,
          "internalType": "uint256",
          "name": "identityCommitment",
          "type": "uint256"
        },
        {
          "indexed": false,
          "internalType": "uint256",
          "name": "merkleTreeRoot",
          "type": "uint256"
        }
      ],
      "name": "MemberRemoved",
      "type": "event"
    },
    {
      "anonymous": false,
      "inputs": [
        {
          "indexed": true,
          "internalType": "uint256",
          "name": "groupId",
          "type": "uint256"
        },
        {
          "indexed": false,
          "internalType": "uint256",
          "name": "index",
          "type": "uint256"
        },
        {
          "indexed": false,
          "internalType": "uint256",
          "name": "identityCommitment",
          "type": "uint256"
        },
        {
          "indexed": false,
          "internalType": "uint256",
          "name": "newIdentityCommitment",
          "type": "uint256"
        },
        {
          "indexed": false,
          "internalType": "uint256",
          "name": "merkleTreeRoot",
          "type": "uint256"
        }
      ],
      "name": "MemberUpdated",
      "type": "event"
    },
    {
      "anonymous": false,
      "inputs": [
        {
          "indexed": false,
          "internalType": "uint256",
          "name": "nullifierHash",
          "type": "uint256"
        }
      ],
      "name": "NullifierHashAdded",
      "type": "event"
    },
    {
      "anonymous": false,
      "inputs": [
        {
          "indexed": false,
          "internalType": "uint256",
          "name": "pollId",
          "type": "uint256"
        },
        {
          "indexed": true,
          "internalType": "address",
          "name": "coordinator",
          "type": "address"
        }
      ],
      "name": "PollCreated",
      "type": "event"
    },
    {
      "anonymous": false,
      "inputs": [
        {
          "indexed": false,
          "internalType": "uint256",
          "name": "pollId",
          "type": "uint256"
        },
        {
          "indexed": true,
          "internalType": "address",
          "name": "coordinator",
          "type": "address"
        }
      ],
      "name": "PollEnded",
      "type": "event"
    },
    {
      "anonymous": false,
      "inputs": [
        {
          "indexed": true,
          "internalType": "address",
          "name": "operator",
          "type": "address"
        },
        {
          "indexed": true,
          "internalType": "address",
          "name": "from",
          "type": "address"
        },
        {
          "indexed": true,
          "internalType": "address",
          "name": "to",
          "type": "address"
        },
        {
          "indexed": false,
          "internalType": "uint256[]",
          "name": "ids",
          "type": "uint256[]"
        },
        {
          "indexed": false,
          "internalType": "uint256[]",
          "name": "values",
          "type": "uint256[]"
        }
      ],
      "name": "TransferBatch",
      "type": "event"
    },
    {
      "anonymous": false,
      "inputs": [
        {
          "indexed": true,
          "internalType": "address",
          "name": "operator",
          "type": "address"
        },
        {
          "indexed": true,
          "internalType": "address",
          "name": "from",
          "type": "address"
        },
        {
          "indexed": true,
          "internalType": "address",
          "name": "to",
          "type": "address"
        },
        {
          "indexed": false,
          "internalType": "uint256",
          "name": "id",
          "type": "uint256"
        },
        {
          "indexed": false,
          "internalType": "uint256",
          "name": "value",
          "type": "uint256"
        }
      ],
      "name": "TransferSingle",
      "type": "event"
    },
    {
      "anonymous": false,
      "inputs": [
        {
          "indexed": false,
          "internalType": "string",
          "name": "value",
          "type": "string"
        },
        {
          "indexed": true,
          "internalType": "uint256",
          "name": "id",
          "type": "uint256"
        }
      ],
      "name": "URI",
      "type": "event"
    },
    {
      "anonymous": false,
      "inputs": [
        {
          "indexed": true,
          "internalType": "uint256",
          "name": "pollId",
          "type": "uint256"
        },
        {
          "indexed": false,
          "internalType": "bytes32",
          "name": "vote",
          "type": "bytes32"
        }
      ],
      "name": "VoteAdded",
      "type": "event"
    },
    {
      "inputs": [
        {
          "internalType": "address[]",
          "name": "newAdmins",
          "type": "address[]"
        }
      ],
      "name": "addAdmins",
      "outputs": [],
      "stateMutability": "nonpayable",
      "type": "function"
    },
    {
      "inputs": [
        {
          "internalType": "address[]",
          "name": "attendees",
          "type": "address[]"
        },
        {
          "internalType": "uint256",
          "name": "id",
          "type": "uint256"
        },
        {
          "internalType": "uint256",
          "name": "amount",
          "type": "uint256"
        },
        {
          "internalType": "bytes",
          "name": "data",
          "type": "bytes"
        }
      ],
      "name": "airdrop",
      "outputs": [],
      "stateMutability": "nonpayable",
      "type": "function"
    },
    {
      "inputs": [
        {
          "internalType": "address",
          "name": "account",
          "type": "address"
        },
        {
          "internalType": "uint256",
          "name": "id",
          "type": "uint256"
        }
      ],
      "name": "balanceOf",
      "outputs": [
        {
          "internalType": "uint256",
          "name": "",
          "type": "uint256"
        }
      ],
      "stateMutability": "view",
      "type": "function"
    },
    {
      "inputs": [
        {
          "internalType": "address[]",
          "name": "accounts",
          "type": "address[]"
        },
        {
          "internalType": "uint256[]",
          "name": "ids",
          "type": "uint256[]"
        }
      ],
      "name": "balanceOfBatch",
      "outputs": [
        {
          "internalType": "uint256[]",
          "name": "",
          "type": "uint256[]"
        }
      ],
      "stateMutability": "view",
      "type": "function"
    },
    {
      "inputs": [
        {
          "internalType": "bytes32",
          "name": "vote",
          "type": "bytes32"
        },
        {
          "internalType": "uint256",
          "name": "nullifierHash",
          "type": "uint256"
        },
        {
          "internalType": "uint256",
          "name": "pollId",
          "type": "uint256"
        },
        {
          "internalType": "uint256[8]",
          "name": "proof",
          "type": "uint256[8]"
        }
      ],
      "name": "castVote",
      "outputs": [],
      "stateMutability": "nonpayable",
      "type": "function"
    },
    {
      "inputs": [
        {
          "internalType": "uint256",
          "name": "pollId",
          "type": "uint256"
        },
        {
          "internalType": "address",
          "name": "coordinator",
          "type": "address"
        },
        {
          "internalType": "uint256",
          "name": "merkleRoot",
          "type": "uint256"
        },
        {
          "internalType": "uint256",
          "name": "merkleTreeDepth",
          "type": "uint256"
        }
      ],
      "name": "createPoll",
      "outputs": [],
      "stateMutability": "nonpayable",
      "type": "function"
    },
    {
      "inputs": [
        {
          "internalType": "uint256",
          "name": "pollId",
          "type": "uint256"
        }
      ],
      "name": "endPoll",
      "outputs": [
        {
          "internalType": "bool",
          "name": "",
          "type": "bool"
        }
      ],
      "stateMutability": "nonpayable",
      "type": "function"
    },
    {
      "inputs": [],
      "name": "getAdmins",
      "outputs": [
        {
          "internalType": "address[]",
          "name": "",
          "type": "address[]"
        }
      ],
      "stateMutability": "view",
      "type": "function"
    },
    {
      "inputs": [],
      "name": "getBurn",
      "outputs": [
        {
          "internalType": "bool",
          "name": "",
          "type": "bool"
        }
      ],
      "stateMutability": "view",
      "type": "function"
    },
    {
      "inputs": [
        {
          "internalType": "uint256",
          "name": "groupId",
          "type": "uint256"
        }
      ],
      "name": "getMerkleTreeDepth",
      "outputs": [
        {
          "internalType": "uint256",
          "name": "",
          "type": "uint256"
        }
      ],
      "stateMutability": "view",
      "type": "function"
    },
    {
      "inputs": [
        {
          "internalType": "uint256",
          "name": "groupId",
          "type": "uint256"
        }
      ],
      "name": "getMerkleTreeRoot",
      "outputs": [
        {
          "internalType": "uint256",
          "name": "",
          "type": "uint256"
        }
      ],
      "stateMutability": "view",
      "type": "function"
    },
    {
      "inputs": [
        {
          "internalType": "uint256",
          "name": "pollId",
          "type": "uint256"
        }
      ],
      "name": "getPollState",
      "outputs": [
        {
          "internalType": "uint256",
          "name": "",
          "type": "uint256"
        },
        {
          "internalType": "uint256",
          "name": "",
          "type": "uint256"
        },
        {
          "internalType": "string",
          "name": "",
          "type": "string"
        }
      ],
      "stateMutability": "view",
      "type": "function"
    },
    {
      "inputs": [],
      "name": "getSuperAdmin",
      "outputs": [
        {
          "internalType": "address",
          "name": "",
          "type": "address"
        }
      ],
      "stateMutability": "view",
      "type": "function"
    },
    {
      "inputs": [],
      "name": "getTransfer",
      "outputs": [
        {
          "internalType": "bool",
          "name": "",
          "type": "bool"
        }
      ],
      "stateMutability": "view",
      "type": "function"
    },
    {
      "inputs": [
        {
          "internalType": "address",
          "name": "account",
          "type": "address"
        },
        {
          "internalType": "address",
          "name": "operator",
          "type": "address"
        }
      ],
      "name": "isApprovedForAll",
      "outputs": [
        {
          "internalType": "bool",
          "name": "",
          "type": "bool"
        }
      ],
      "stateMutability": "view",
      "type": "function"
    },
    {
      "inputs": [
        {
          "internalType": "address[]",
          "name": "oldAdmins",
          "type": "address[]"
        }
      ],
      "name": "removeAdmins",
      "outputs": [],
      "stateMutability": "nonpayable",
      "type": "function"
    },
    {
      "inputs": [
        {
          "internalType": "address",
          "name": "from",
          "type": "address"
        },
        {
          "internalType": "address",
          "name": "to",
          "type": "address"
        },
        {
          "internalType": "uint256[]",
          "name": "ids",
          "type": "uint256[]"
        },
        {
          "internalType": "uint256[]",
          "name": "amounts",
          "type": "uint256[]"
        },
        {
          "internalType": "bytes",
          "name": "data",
          "type": "bytes"
        }
      ],
      "name": "safeBatchTransferFrom",
      "outputs": [],
      "stateMutability": "nonpayable",
      "type": "function"
    },
    {
      "inputs": [
        {
          "internalType": "address",
          "name": "from",
          "type": "address"
        },
        {
          "internalType": "address",
          "name": "to",
          "type": "address"
        },
        {
          "internalType": "uint256",
          "name": "id",
          "type": "uint256"
        },
        {
          "internalType": "uint256",
          "name": "amount",
          "type": "uint256"
        },
        {
          "internalType": "bytes",
          "name": "data",
          "type": "bytes"
        }
      ],
      "name": "safeTransferFrom",
      "outputs": [],
      "stateMutability": "nonpayable",
      "type": "function"
    },
    {
      "inputs": [
        {
          "internalType": "address",
          "name": "operator",
          "type": "address"
        },
        {
          "internalType": "bool",
          "name": "approved",
          "type": "bool"
        }
      ],
      "name": "setApprovalForAll",
      "outputs": [],
      "stateMutability": "nonpayable",
      "type": "function"
    },
    {
      "inputs": [
        {
          "internalType": "bool",
          "name": "status",
          "type": "bool"
        }
      ],
      "name": "setBurn",
      "outputs": [],
      "stateMutability": "nonpayable",
      "type": "function"
    },
    {
      "inputs": [
        {
          "internalType": "address",
          "name": "newSuperAdmin",
          "type": "address"
        }
      ],
      "name": "setSuperAdmin",
      "outputs": [],
      "stateMutability": "nonpayable",
      "type": "function"
    },
    {
      "inputs": [
        {
          "internalType": "bool",
          "name": "status",
          "type": "bool"
        }
      ],
      "name": "setTransfer",
      "outputs": [],
      "stateMutability": "nonpayable",
      "type": "function"
    },
    {
      "inputs": [
        {
          "internalType": "bytes4",
          "name": "interfaceId",
          "type": "bytes4"
        }
      ],
      "name": "supportsInterface",
      "outputs": [
        {
          "internalType": "bool",
          "name": "",
          "type": "bool"
        }
      ],
      "stateMutability": "view",
      "type": "function"
    },
    {
      "inputs": [
        {
          "internalType": "uint256",
          "name": "",
          "type": "uint256"
        }
      ],
      "name": "uri",
      "outputs": [
        {
          "internalType": "string",
          "name": "",
          "type": "string"
        }
      ],
      "stateMutability": "view",
      "type": "function"
    }
  ],
  "bytecode": "0x60806040523480156200001157600080fd5b5060405162005115380380620051158339818101604052810190620000379190620004ec565b8260049081620000489190620007c7565b5081600760006101000a81548173ffffffffffffffffffffffffffffffffffffffff021916908373ffffffffffffffffffffffffffffffffffffffff1602179055506000600560006101000a81548160ff0219169083151502179055506000600560016101000a81548160ff02191690831515021790555060005b81518160ff1610156200017657818160ff1681518110620000e957620000e8620008ae565b5b60200260200101516000015160086000848460ff1681518110620001125762000111620008ae565b5b602002602001015160200151815260200190815260200160002060006101000a81548173ffffffffffffffffffffffffffffffffffffffff021916908373ffffffffffffffffffffffffffffffffffffffff160217905550806001019050620000c3565b50505050620008dd565b6000604051905090565b600080fd5b600080fd5b600080fd5b600080fd5b6000601f19601f8301169050919050565b7f4e487b7100000000000000000000000000000000000000000000000000000000600052604160045260246000fd5b620001e9826200019e565b810181811067ffffffffffffffff821117156200020b576200020a620001af565b5b80604052505050565b60006200022062000180565b90506200022e8282620001de565b919050565b600067ffffffffffffffff821115620002515762000250620001af565b5b6200025c826200019e565b9050602081019050919050565b60005b83811015620002895780820151818401526020810190506200026c565b60008484015250505050565b6000620002ac620002a68462000233565b62000214565b905082815260208101848484011115620002cb57620002ca62000199565b5b620002d884828562000269565b509392505050565b600082601f830112620002f857620002f762000194565b5b81516200030a84826020860162000295565b91505092915050565b600073ffffffffffffffffffffffffffffffffffffffff82169050919050565b6000620003408262000313565b9050919050565b620003528162000333565b81146200035e57600080fd5b50565b600081519050620003728162000347565b92915050565b600067ffffffffffffffff821115620003965762000395620001af565b5b602082029050602081019050919050565b600080fd5b600080fd5b6000819050919050565b620003c681620003b1565b8114620003d257600080fd5b50565b600081519050620003e681620003bb565b92915050565b600060408284031215620004055762000404620003ac565b5b62000411604062000214565b90506000620004238482850162000361565b60008301525060206200043984828501620003d5565b60208301525092915050565b60006200045c620004568462000378565b62000214565b90508083825260208201905060408402830185811115620004825762000481620003a7565b5b835b81811015620004af57806200049a8882620003ec565b84526020840193505060408101905062000484565b5050509392505050565b600082601f830112620004d157620004d062000194565b5b8151620004e384826020860162000445565b91505092915050565b6000806000606084860312156200050857620005076200018a565b5b600084015167ffffffffffffffff8111156200052957620005286200018f565b5b6200053786828701620002e0565b93505060206200054a8682870162000361565b925050604084015167ffffffffffffffff8111156200056e576200056d6200018f565b5b6200057c86828701620004b9565b9150509250925092565b600081519050919050565b7f4e487b7100000000000000000000000000000000000000000000000000000000600052602260045260246000fd5b60006002820490506001821680620005d957607f821691505b602082108103620005ef57620005ee62000591565b5b50919050565b60008190508160005260206000209050919050565b60006020601f8301049050919050565b600082821b905092915050565b600060088302620006597fffffffffffffffffffffffffffffffffffffffffffffffffffffffffffffffff826200061a565b6200066586836200061a565b95508019841693508086168417925050509392505050565b6000819050919050565b6000620006a8620006a26200069c84620003b1565b6200067d565b620003b1565b9050919050565b6000819050919050565b620006c48362000687565b620006dc620006d382620006af565b84845462000627565b825550505050565b600090565b620006f3620006e4565b62000700818484620006b9565b505050565b5b8181101562000728576200071c600082620006e9565b60018101905062000706565b5050565b601f82111562000777576200074181620005f5565b6200074c846200060a565b810160208510156200075c578190505b620007746200076b856200060a565b83018262000705565b50505b505050565b600082821c905092915050565b60006200079c600019846008026200077c565b1980831691505092915050565b6000620007b7838362000789565b9150826002028217905092915050565b620007d28262000586565b67ffffffffffffffff811115620007ee57620007ed620001af565b5b620007fa8254620005c0565b620008078282856200072c565b600060209050601f8311600181146200083f57600084156200082a578287015190505b620008368582620007a9565b865550620008a6565b601f1984166200084f86620005f5565b60005b82811015620008795784890151825560018201915060208501945060208101905062000852565b8683101562000899578489015162000895601f89168262000789565b8355505b6001600288020188555050505b505050505050565b7f4e487b7100000000000000000000000000000000000000000000000000000000600052603260045260246000fd5b61482880620008ed6000396000f3fe608060405234801561001057600080fd5b50600436106101575760003560e01c80638204c326116100c3578063b8ccaedd1161007c578063b8ccaedd146103d4578063bd55cf0d146103f2578063dabc4d511461040e578063e985e9c51461043e578063f242432a1461046e578063f43b87781461048a57610157565b80638204c326146103125780639c54df6414610330578063a22cb4651461034c578063a296b32314610368578063afdda4ec14610384578063b87141bf146103b657610157565b8063377e11e011610115578063377e11e0146102425780634e1273f41461025e578063562592ef1461028e578063633f439d146102aa5780636389e107146102c657806370eff6ad146102f657610157565b8062fdd58e1461015c57806301ffc9a71461018c5780630e89341c146101bc57806315700052146101ec5780632eb2c2d61461020857806331ae450b14610224575b600080fd5b61017660048036038101906101719190612e24565b6104ba565b6040516101839190612e73565b60405180910390f35b6101a660048036038101906101a19190612ee6565b610583565b6040516101b39190612f2e565b60405180910390f35b6101d660048036038101906101d19190612f49565b610665565b6040516101e39190613006565b60405180910390f35b61020660048036038101906102019190613028565b6106f9565b005b610222600480360381019061021d9190613252565b6107cd565b005b61022c610886565b60405161023991906133df565b60405180910390f35b61025c600480360381019061025791906134c4565b610914565b005b6102786004803603810190610273919061350d565b610b98565b6040516102859190613643565b60405180910390f35b6102a860048036038101906102a39190613665565b610cb1565b005b6102c460048036038101906102bf919061375c565b610e3d565b005b6102e060048036038101906102db9190612f49565b6110fd565b6040516102ed9190612e73565b60405180910390f35b610310600480360381019061030b91906137c4565b61111a565b005b61031a6112f7565b604051610327919061383a565b60405180910390f35b61034a600480360381019061034591906134c4565b611321565b005b61036660048036038101906103619190613881565b611451565b005b610382600480360381019061037d91906138c1565b611467565b005b61039e60048036038101906103999190612f49565b611514565b6040516103ad939291906138ee565b60405180910390f35b6103be6116ab565b6040516103cb9190612f2e565b60405180910390f35b6103dc6116c2565b6040516103e99190612f2e565b60405180910390f35b61040c600480360381019061040791906138c1565b6116d9565b005b61042860048036038101906104239190612f49565b611786565b6040516104359190612e73565b60405180910390f35b6104586004803603810190610453919061392c565b6117a2565b6040516104659190612f2e565b60405180910390f35b6104886004803603810190610483919061396c565b611836565b005b6104a4600480360381019061049f9190612f49565b6118ef565b6040516104b19190612f2e565b60405180910390f35b60008073ffffffffffffffffffffffffffffffffffffffff168373ffffffffffffffffffffffffffffffffffffffff160361052a576040517f08c379a000000000000000000000000000000000000000000000000000000000815260040161052190613a75565b60405180910390fd5b6002600083815260200190815260200160002060008473ffffffffffffffffffffffffffffffffffffffff1673ffffffffffffffffffffffffffffffffffffffff16815260200190815260200160002054905092915050565b60007fd9b67a26000000000000000000000000000000000000000000000000000000007bffffffffffffffffffffffffffffffffffffffffffffffffffffffff1916827bffffffffffffffffffffffffffffffffffffffffffffffffffffffff1916148061064e57507f0e89341c000000000000000000000000000000000000000000000000000000007bffffffffffffffffffffffffffffffffffffffffffffffffffffffff1916827bffffffffffffffffffffffffffffffffffffffffffffffffffffffff1916145b8061065e575061065d82611ae0565b5b9050919050565b60606004805461067490613ac4565b80601f01602080910402602001604051908101604052809291908181526020018280546106a090613ac4565b80156106ed5780601f106106c2576101008083540402835291602001916106ed565b820191906000526020600020905b8154815290600101906020018083116106d057829003601f168201915b50505050509050919050565b600760009054906101000a900473ffffffffffffffffffffffffffffffffffffffff1673ffffffffffffffffffffffffffffffffffffffff163373ffffffffffffffffffffffffffffffffffffffff1614610789576040517f08c379a000000000000000000000000000000000000000000000000000000000815260040161078090613b41565b60405180910390fd5b80600760006101000a81548173ffffffffffffffffffffffffffffffffffffffff021916908373ffffffffffffffffffffffffffffffffffffffff16021790555050565b600560009054906101000a900460ff16801561083357506107ec611b4a565b73ffffffffffffffffffffffffffffffffffffffff168573ffffffffffffffffffffffffffffffffffffffff16148061083257506108318561082c611b4a565b6117a2565b5b5b610872576040517f08c379a000000000000000000000000000000000000000000000000000000000815260040161086990613bd3565b60405180910390fd5b61087f8585858585611b52565b5050505050565b6060600680548060200260200160405190810160405280929190818152602001828054801561090a57602002820191906000526020600020905b8160009054906101000a900473ffffffffffffffffffffffffffffffffffffffff1673ffffffffffffffffffffffffffffffffffffffff16815260200190600101908083116108c0575b5050505050905090565b600760009054906101000a900473ffffffffffffffffffffffffffffffffffffffff1673ffffffffffffffffffffffffffffffffffffffff163373ffffffffffffffffffffffffffffffffffffffff16146109a4576040517f08c379a000000000000000000000000000000000000000000000000000000000815260040161099b90613b41565b60405180910390fd5b60005b8151811015610b945760005b600680549050811015610b8057600681815481106109d4576109d3613bf3565b5b9060005260206000200160009054906101000a900473ffffffffffffffffffffffffffffffffffffffff1673ffffffffffffffffffffffffffffffffffffffff16838381518110610a2857610a27613bf3565b5b602002602001015173ffffffffffffffffffffffffffffffffffffffff1603610b6d5760008190505b6001600680549050610a639190613c51565b811015610b24576006600182610a799190613c85565b81548110610a8a57610a89613bf3565b5b9060005260206000200160009054906101000a900473ffffffffffffffffffffffffffffffffffffffff1660068281548110610ac957610ac8613bf3565b5b9060005260206000200160006101000a81548173ffffffffffffffffffffffffffffffffffffffff021916908373ffffffffffffffffffffffffffffffffffffffff1602179055508080610b1c90613cb9565b915050610a51565b6006805480610b3657610b35613d01565b5b6001900381819060005260206000200160006101000a81549073ffffffffffffffffffffffffffffffffffffffff02191690559055505b8080610b7890613cb9565b9150506109b3565b508080610b8c90613cb9565b9150506109a7565b5050565b60608151835114610bde576040517f08c379a0000000000000000000000000000000000000000000000000000000008152600401610bd590613da2565b60405180910390fd5b6000835167ffffffffffffffff811115610bfb57610bfa61305a565b5b604051908082528060200260200182016040528015610c295781602001602082028036833780820191505090505b50905060005b8451811015610ca657610c76858281518110610c4e57610c4d613bf3565b5b6020026020010151858381518110610c6957610c68613bf3565b5b60200260200101516104ba565b828281518110610c8957610c88613bf3565b5b60200260200101818152505080610c9f90613cb9565b9050610c2f565b508091505092915050565b6000600760009054906101000a900473ffffffffffffffffffffffffffffffffffffffff1673ffffffffffffffffffffffffffffffffffffffff163373ffffffffffffffffffffffffffffffffffffffff1614905080610daa5760005b600680549050811015610da85760068181548110610d2f57610d2e613bf3565b5b9060005260206000200160009054906101000a900473ffffffffffffffffffffffffffffffffffffffff1673ffffffffffffffffffffffffffffffffffffffff163373ffffffffffffffffffffffffffffffffffffffff1603610d955760019150610da8565b8080610da090613cb9565b915050610d0e565b505b80610dea576040517f08c379a0000000000000000000000000000000000000000000000000000000008152600401610de190613e0e565b60405180910390fd5b60008551905060005b81811015610e3457610e21878281518110610e1157610e10613bf3565b5b6020026020010151878787611ec5565b8080610e2c90613cb9565b915050610df3565b50505050505050565b6000600960008481526020019081526020016000206040518060800160405290816000820160009054906101000a900473ffffffffffffffffffffffffffffffffffffffff1673ffffffffffffffffffffffffffffffffffffffff1673ffffffffffffffffffffffffffffffffffffffff1681526020016000820160149054906101000a900460ff166001811115610ed857610ed7613e2e565b5b6001811115610eea57610ee9613e2e565b5b815260200160018201548152602001600282015481525050905060006001811115610f1857610f17613e2e565b5b81602001516001811115610f2f57610f2e613e2e565b5b14610f66576040517fe1b6c09100000000000000000000000000000000000000000000000000000000815260040160405180910390fd5b600a600085815260200190815260200160002060009054906101000a900460ff1615610fbe576040517f948d067400000000000000000000000000000000000000000000000000000000815260040160405180910390fd5b6000610fc9846110fd565b90506000610fd685611786565b905060006008600084815260200190815260200160002060009054906101000a900473ffffffffffffffffffffffffffffffffffffffff16905061101e8883898989866121b0565b6001600a600089815260200190815260200160002060006101000a81548160ff0219169083151502179055506001610fff8960001c160361108c5760016009600088815260200190815260200160002060010160008282546110809190613c85565b925050819055506110bb565b60016009600088815260200190815260200160002060020160008282546110b39190613c85565b925050819055505b857f9259c591af3680137739dc2b275c388eb1639a143b49022e7062fa162f14776d896040516110eb9190613e6c565b60405180910390a25050505050505050565b600060016000838152602001908152602001600020549050919050565b600073ffffffffffffffffffffffffffffffffffffffff166008600083815260200190815260200160002060009054906101000a900473ffffffffffffffffffffffffffffffffffffffff1673ffffffffffffffffffffffffffffffffffffffff16036111b3576040517fecf64f1200000000000000000000000000000000000000000000000000000000815260040160405180910390fd5b6111c08483836000612379565b6111c8612d2c565b83816000019073ffffffffffffffffffffffffffffffffffffffff16908173ffffffffffffffffffffffffffffffffffffffff1681525050806009600087815260200190815260200160002060008201518160000160006101000a81548173ffffffffffffffffffffffffffffffffffffffff021916908373ffffffffffffffffffffffffffffffffffffffff16021790555060208201518160000160146101000a81548160ff0219169083600181111561128657611285613e2e565b5b021790555060408201518160010155606082015181600201559050508373ffffffffffffffffffffffffffffffffffffffff167fb447d309fd3b1a27466cdb08ccc02ee5188e9c71fc58af042bafe3e0bb451230866040516112e89190612e73565b60405180910390a25050505050565b6000600760009054906101000a900473ffffffffffffffffffffffffffffffffffffffff16905090565b600760009054906101000a900473ffffffffffffffffffffffffffffffffffffffff1673ffffffffffffffffffffffffffffffffffffffff163373ffffffffffffffffffffffffffffffffffffffff16146113b1576040517f08c379a00000000000000000000000000000000000000000000000000000000081526004016113a890613b41565b60405180910390fd5b60005b815181101561144d5760068282815181106113d2576113d1613bf3565b5b60200260200101519080600181540180825580915050600190039060005260206000200160009091909190916101000a81548173ffffffffffffffffffffffffffffffffffffffff021916908373ffffffffffffffffffffffffffffffffffffffff160217905550808061144590613cb9565b9150506113b4565b5050565b61146361145c611b4a565b8383612441565b5050565b600760009054906101000a900473ffffffffffffffffffffffffffffffffffffffff1673ffffffffffffffffffffffffffffffffffffffff163373ffffffffffffffffffffffffffffffffffffffff16146114f7576040517f08c379a00000000000000000000000000000000000000000000000000000000081526004016114ee90613b41565b60405180910390fd5b80600560006101000a81548160ff02191690831515021790555050565b60008060606000600960008681526020019081526020016000206040518060800160405290816000820160009054906101000a900473ffffffffffffffffffffffffffffffffffffffff1673ffffffffffffffffffffffffffffffffffffffff1673ffffffffffffffffffffffffffffffffffffffff1681526020016000820160149054906101000a900460ff1660018111156115b4576115b3613e2e565b5b60018111156115c6576115c5613e2e565b5b8152602001600182015481526020016002820154815250509050600060018111156115f4576115f3613e2e565b5b8160200151600181111561160b5761160a613e2e565b5b0361165c57806040015181606001516040518060400160405280600781526020017f4f6e676f696e6700000000000000000000000000000000000000000000000000815250935093509350506116a4565b806040015181606001516040518060400160405280600581526020017f456e646564000000000000000000000000000000000000000000000000000000815250935093509350505b9193909250565b6000600560009054906101000a900460ff16905090565b6000600560019054906101000a900460ff16905090565b600760009054906101000a900473ffffffffffffffffffffffffffffffffffffffff1673ffffffffffffffffffffffffffffffffffffffff163373ffffffffffffffffffffffffffffffffffffffff1614611769576040517f08c379a000000000000000000000000000000000000000000000000000000000815260040161176090613b41565b60405180910390fd5b80600560016101000a81548160ff02191690831515021790555050565b6000806000838152602001908152602001600020549050919050565b6000600360008473ffffffffffffffffffffffffffffffffffffffff1673ffffffffffffffffffffffffffffffffffffffff16815260200190815260200160002060008373ffffffffffffffffffffffffffffffffffffffff1673ffffffffffffffffffffffffffffffffffffffff16815260200190815260200160002060009054906101000a900460ff16905092915050565b600560009054906101000a900460ff16801561189c5750611855611b4a565b73ffffffffffffffffffffffffffffffffffffffff168573ffffffffffffffffffffffffffffffffffffffff16148061189b575061189a85611895611b4a565b6117a2565b5b5b6118db576040517f08c379a00000000000000000000000000000000000000000000000000000000081526004016118d290613bd3565b60405180910390fd5b6118e885858585856125ad565b5050505050565b6000816118fa611b4a565b73ffffffffffffffffffffffffffffffffffffffff166009600083815260200190815260200160002060000160009054906101000a900473ffffffffffffffffffffffffffffffffffffffff1673ffffffffffffffffffffffffffffffffffffffff1614611994576040517fe4a34e1500000000000000000000000000000000000000000000000000000000815260040160405180910390fd5b600060018111156119a8576119a7613e2e565b5b6009600085815260200190815260200160002060000160149054906101000a900460ff1660018111156119de576119dd613e2e565b5b14611a15576040517fe1b6c09100000000000000000000000000000000000000000000000000000000815260040160405180910390fd5b60016009600085815260200190815260200160002060000160146101000a81548160ff02191690836001811115611a4f57611a4e613e2e565b5b0217905550611a5c611b4a565b73ffffffffffffffffffffffffffffffffffffffff167fce994ead15e72a77a86ddf3b0184783c61c9af7e3aae02d7c0bdf3b4268fa18884604051611aa19190612e73565b60405180910390a26009600084815260200190815260200160002060020154600960008581526020019081526020016000206001015411915050919050565b60007f01ffc9a7000000000000000000000000000000000000000000000000000000007bffffffffffffffffffffffffffffffffffffffffffffffffffffffff1916827bffffffffffffffffffffffffffffffffffffffffffffffffffffffff1916149050919050565b600033905090565b600560009054906101000a900460ff16611ba1576040517f08c379a0000000000000000000000000000000000000000000000000000000008152600401611b9890613ed3565b60405180910390fd5b8151835114611be5576040517f08c379a0000000000000000000000000000000000000000000000000000000008152600401611bdc90613f65565b60405180910390fd5b600073ffffffffffffffffffffffffffffffffffffffff168473ffffffffffffffffffffffffffffffffffffffff1603611c54576040517f08c379a0000000000000000000000000000000000000000000000000000000008152600401611c4b90613ff7565b60405180910390fd5b6000611c5e611b4a565b9050611c6e81878787878761289a565b60005b8451811015611e22576000858281518110611c8f57611c8e613bf3565b5b602002602001015190506000858381518110611cae57611cad613bf3565b5b6020026020010151905060006002600084815260200190815260200160002060008b73ffffffffffffffffffffffffffffffffffffffff1673ffffffffffffffffffffffffffffffffffffffff16815260200190815260200160002054905081811015611d50576040517f08c379a0000000000000000000000000000000000000000000000000000000008152600401611d4790614089565b60405180910390fd5b8181036002600085815260200190815260200160002060008c73ffffffffffffffffffffffffffffffffffffffff1673ffffffffffffffffffffffffffffffffffffffff16815260200190815260200160002081905550816002600085815260200190815260200160002060008b73ffffffffffffffffffffffffffffffffffffffff1673ffffffffffffffffffffffffffffffffffffffff1681526020019081526020016000206000828254611e079190613c85565b9250508190555050505080611e1b90613cb9565b9050611c71565b508473ffffffffffffffffffffffffffffffffffffffff168673ffffffffffffffffffffffffffffffffffffffff168273ffffffffffffffffffffffffffffffffffffffff167f4a39dc06d4c0dbc64b70af90fd698a233a518aa5d07e595d983b8c0526c8f7fb8787604051611e999291906140a9565b60405180910390a4611eaf8187878787876128a2565b611ebd8187878787876128aa565b505050505050565b6000600760009054906101000a900473ffffffffffffffffffffffffffffffffffffffff1673ffffffffffffffffffffffffffffffffffffffff163373ffffffffffffffffffffffffffffffffffffffff1614905080611fbe5760005b600680549050811015611fbc5760068181548110611f4357611f42613bf3565b5b9060005260206000200160009054906101000a900473ffffffffffffffffffffffffffffffffffffffff1673ffffffffffffffffffffffffffffffffffffffff163373ffffffffffffffffffffffffffffffffffffffff1603611fa95760019150611fbc565b8080611fb490613cb9565b915050611f22565b505b80611ffe576040517f08c379a0000000000000000000000000000000000000000000000000000000008152600401611ff590613e0e565b60405180910390fd5b600073ffffffffffffffffffffffffffffffffffffffff168573ffffffffffffffffffffffffffffffffffffffff160361206d576040517f08c379a000000000000000000000000000000000000000000000000000000000815260040161206490614152565b60405180910390fd5b6000612077611b4a565b9050600061208486612a81565b9050600061209186612a81565b90506120a28360008a85858a61289a565b856002600089815260200190815260200160002060008a73ffffffffffffffffffffffffffffffffffffffff1673ffffffffffffffffffffffffffffffffffffffff16815260200190815260200160002060008282546121029190613c85565b925050819055508773ffffffffffffffffffffffffffffffffffffffff16600073ffffffffffffffffffffffffffffffffffffffff168473ffffffffffffffffffffffffffffffffffffffff167fc3d58168c5ae7397731d063d5bbf3d657854427343f4c083240f7aacaa2d0f628a8a604051612180929190614172565b60405180910390a46121978360008a85858a6128a2565b6121a68360008a8a8a8a612afb565b5050505050505050565b60006121bb87612cd2565b90508173ffffffffffffffffffffffffffffffffffffffff16635fe8c13b6040518060400160405280866000600881106121f8576121f7613bf3565b5b602002013581526020018660016008811061221657612215613bf3565b5b6020020135815250604051806040016040528060405180604001604052808960026008811061224857612247613bf3565b5b602002013581526020018960036008811061226657612265613bf3565b5b6020020135815250815260200160405180604001604052808960046008811061229257612291613bf3565b5b60200201358152602001896005600881106122b0576122af613bf3565b5b60200201358152508152506040518060400160405280886006600881106122da576122d9613bf3565b5b60200201358152602001886007600881106122f8576122f7613bf3565b5b602002013581525060405180608001604052808c81526020018b81526020018781526020018a8152506040518563ffffffff1660e01b815260040161234094939291906143a1565b60006040518083038186803b15801561235857600080fd5b505afa15801561236c573d6000803e3d6000fd5b5050505050505050505050565b7f30644e72e131a029b85045b68181585d2833e84879b9709143e1f593f000000184106123d2576040517fa61c78ca00000000000000000000000000000000000000000000000000000000815260040160405180910390fd5b8260008086815260200190815260200160002081905550816001600086815260200190815260200160002081905550837f0d000126c26c1bbe400fd2332187f75d58b69306f9ec47b408686189d3a008338383604051612433929190614172565b60405180910390a250505050565b8173ffffffffffffffffffffffffffffffffffffffff168373ffffffffffffffffffffffffffffffffffffffff16036124af576040517f08c379a00000000000000000000000000000000000000000000000000000000081526004016124a69061445a565b60405180910390fd5b80600360008573ffffffffffffffffffffffffffffffffffffffff1673ffffffffffffffffffffffffffffffffffffffff16815260200190815260200160002060008473ffffffffffffffffffffffffffffffffffffffff1673ffffffffffffffffffffffffffffffffffffffff16815260200190815260200160002060006101000a81548160ff0219169083151502179055508173ffffffffffffffffffffffffffffffffffffffff168373ffffffffffffffffffffffffffffffffffffffff167f17307eab39ab6107e8899845ad3d59bd9653f200f220920489ca2b5937696c31836040516125a09190612f2e565b60405180910390a3505050565b600560009054906101000a900460ff166125fc576040517f08c379a00000000000000000000000000000000000000000000000000000000081526004016125f390613ed3565b60405180910390fd5b600073ffffffffffffffffffffffffffffffffffffffff168473ffffffffffffffffffffffffffffffffffffffff160361266b576040517f08c379a000000000000000000000000000000000000000000000000000000000815260040161266290613ff7565b60405180910390fd5b6000612675611b4a565b9050600061268285612a81565b9050600061268f85612a81565b905061269f83898985858961289a565b60006002600088815260200190815260200160002060008a73ffffffffffffffffffffffffffffffffffffffff1673ffffffffffffffffffffffffffffffffffffffff16815260200190815260200160002054905085811015612737576040517f08c379a000000000000000000000000000000000000000000000000000000000815260040161272e90614089565b60405180910390fd5b8581036002600089815260200190815260200160002060008b73ffffffffffffffffffffffffffffffffffffffff1673ffffffffffffffffffffffffffffffffffffffff16815260200190815260200160002081905550856002600089815260200190815260200160002060008a73ffffffffffffffffffffffffffffffffffffffff1673ffffffffffffffffffffffffffffffffffffffff16815260200190815260200160002060008282546127ee9190613c85565b925050819055508773ffffffffffffffffffffffffffffffffffffffff168973ffffffffffffffffffffffffffffffffffffffff168573ffffffffffffffffffffffffffffffffffffffff167fc3d58168c5ae7397731d063d5bbf3d657854427343f4c083240f7aacaa2d0f628a8a60405161286b929190614172565b60405180910390a4612881848a8a86868a6128a2565b61288f848a8a8a8a8a612afb565b505050505050505050565b505050505050565b505050505050565b6128c98473ffffffffffffffffffffffffffffffffffffffff16612d09565b15612a79578373ffffffffffffffffffffffffffffffffffffffff1663bc197c8187878686866040518663ffffffff1660e01b815260040161290f9594939291906144cf565b6020604051808303816000875af192505050801561294b57506040513d601f19601f82011682018060405250810190612948919061454c565b60015b6129f057612957614586565b806308c379a0036129b3575061296b6145a8565b8061297657506129b5565b806040517f08c379a00000000000000000000000000000000000000000000000000000000081526004016129aa9190613006565b60405180910390fd5b505b6040517f08c379a00000000000000000000000000000000000000000000000000000000081526004016129e7906146aa565b60405180910390fd5b63bc197c8160e01b7bffffffffffffffffffffffffffffffffffffffffffffffffffffffff1916817bffffffffffffffffffffffffffffffffffffffffffffffffffffffff191614612a77576040517f08c379a0000000000000000000000000000000000000000000000000000000008152600401612a6e9061473c565b60405180910390fd5b505b505050505050565b60606000600167ffffffffffffffff811115612aa057612a9f61305a565b5b604051908082528060200260200182016040528015612ace5781602001602082028036833780820191505090505b5090508281600081518110612ae657612ae5613bf3565b5b60200260200101818152505080915050919050565b612b1a8473ffffffffffffffffffffffffffffffffffffffff16612d09565b15612cca578373ffffffffffffffffffffffffffffffffffffffff1663f23a6e6187878686866040518663ffffffff1660e01b8152600401612b6095949392919061475c565b6020604051808303816000875af1925050508015612b9c57506040513d601f19601f82011682018060405250810190612b99919061454c565b60015b612c4157612ba8614586565b806308c379a003612c045750612bbc6145a8565b80612bc75750612c06565b806040517f08c379a0000000000000000000000000000000000000000000000000000000008152600401612bfb9190613006565b60405180910390fd5b505b6040517f08c379a0000000000000000000000000000000000000000000000000000000008152600401612c38906146aa565b60405180910390fd5b63f23a6e6160e01b7bffffffffffffffffffffffffffffffffffffffffffffffffffffffff1916817bffffffffffffffffffffffffffffffffffffffffffffffffffffffff191614612cc8576040517f08c379a0000000000000000000000000000000000000000000000000000000008152600401612cbf9061473c565b60405180910390fd5b505b505050505050565b6000600882604051602001612ce791906147d7565b6040516020818303038152906040528051906020012060001c901c9050919050565b6000808273ffffffffffffffffffffffffffffffffffffffff163b119050919050565b6040518060800160405280600073ffffffffffffffffffffffffffffffffffffffff16815260200160006001811115612d6857612d67613e2e565b5b815260200160008152602001600081525090565b6000604051905090565b600080fd5b600080fd5b600073ffffffffffffffffffffffffffffffffffffffff82169050919050565b6000612dbb82612d90565b9050919050565b612dcb81612db0565b8114612dd657600080fd5b50565b600081359050612de881612dc2565b92915050565b6000819050919050565b612e0181612dee565b8114612e0c57600080fd5b50565b600081359050612e1e81612df8565b92915050565b60008060408385031215612e3b57612e3a612d86565b5b6000612e4985828601612dd9565b9250506020612e5a85828601612e0f565b9150509250929050565b612e6d81612dee565b82525050565b6000602082019050612e886000830184612e64565b92915050565b60007fffffffff0000000000000000000000000000000000000000000000000000000082169050919050565b612ec381612e8e565b8114612ece57600080fd5b50565b600081359050612ee081612eba565b92915050565b600060208284031215612efc57612efb612d86565b5b6000612f0a84828501612ed1565b91505092915050565b60008115159050919050565b612f2881612f13565b82525050565b6000602082019050612f436000830184612f1f565b92915050565b600060208284031215612f5f57612f5e612d86565b5b6000612f6d84828501612e0f565b91505092915050565b600081519050919050565b600082825260208201905092915050565b60005b83811015612fb0578082015181840152602081019050612f95565b60008484015250505050565b6000601f19601f8301169050919050565b6000612fd882612f76565b612fe28185612f81565b9350612ff2818560208601612f92565b612ffb81612fbc565b840191505092915050565b600060208201905081810360008301526130208184612fcd565b905092915050565b60006020828403121561303e5761303d612d86565b5b600061304c84828501612dd9565b91505092915050565b600080fd5b7f4e487b7100000000000000000000000000000000000000000000000000000000600052604160045260246000fd5b61309282612fbc565b810181811067ffffffffffffffff821117156130b1576130b061305a565b5b80604052505050565b60006130c4612d7c565b90506130d08282613089565b919050565b600067ffffffffffffffff8211156130f0576130ef61305a565b5b602082029050602081019050919050565b600080fd5b6000613119613114846130d5565b6130ba565b9050808382526020820190506020840283018581111561313c5761313b613101565b5b835b8181101561316557806131518882612e0f565b84526020840193505060208101905061313e565b5050509392505050565b600082601f83011261318457613183613055565b5b8135613194848260208601613106565b91505092915050565b600080fd5b600067ffffffffffffffff8211156131bd576131bc61305a565b5b6131c682612fbc565b9050602081019050919050565b82818337600083830152505050565b60006131f56131f0846131a2565b6130ba565b9050828152602081018484840111156132115761321061319d565b5b61321c8482856131d3565b509392505050565b600082601f83011261323957613238613055565b5b81356132498482602086016131e2565b91505092915050565b600080600080600060a0868803121561326e5761326d612d86565b5b600061327c88828901612dd9565b955050602061328d88828901612dd9565b945050604086013567ffffffffffffffff8111156132ae576132ad612d8b565b5b6132ba8882890161316f565b935050606086013567ffffffffffffffff8111156132db576132da612d8b565b5b6132e78882890161316f565b925050608086013567ffffffffffffffff81111561330857613307612d8b565b5b61331488828901613224565b9150509295509295909350565b600081519050919050565b600082825260208201905092915050565b6000819050602082019050919050565b61335681612db0565b82525050565b6000613368838361334d565b60208301905092915050565b6000602082019050919050565b600061338c82613321565b613396818561332c565b93506133a18361333d565b8060005b838110156133d25781516133b9888261335c565b97506133c483613374565b9250506001810190506133a5565b5085935050505092915050565b600060208201905081810360008301526133f98184613381565b905092915050565b600067ffffffffffffffff82111561341c5761341b61305a565b5b602082029050602081019050919050565b600061344061343b84613401565b6130ba565b9050808382526020820190506020840283018581111561346357613462613101565b5b835b8181101561348c57806134788882612dd9565b845260208401935050602081019050613465565b5050509392505050565b600082601f8301126134ab576134aa613055565b5b81356134bb84826020860161342d565b91505092915050565b6000602082840312156134da576134d9612d86565b5b600082013567ffffffffffffffff8111156134f8576134f7612d8b565b5b61350484828501613496565b91505092915050565b6000806040838503121561352457613523612d86565b5b600083013567ffffffffffffffff81111561354257613541612d8b565b5b61354e85828601613496565b925050602083013567ffffffffffffffff81111561356f5761356e612d8b565b5b61357b8582860161316f565b9150509250929050565b600081519050919050565b600082825260208201905092915050565b6000819050602082019050919050565b6135ba81612dee565b82525050565b60006135cc83836135b1565b60208301905092915050565b6000602082019050919050565b60006135f082613585565b6135fa8185613590565b9350613605836135a1565b8060005b8381101561363657815161361d88826135c0565b9750613628836135d8565b925050600181019050613609565b5085935050505092915050565b6000602082019050818103600083015261365d81846135e5565b905092915050565b6000806000806080858703121561367f5761367e612d86565b5b600085013567ffffffffffffffff81111561369d5761369c612d8b565b5b6136a987828801613496565b94505060206136ba87828801612e0f565b93505060406136cb87828801612e0f565b925050606085013567ffffffffffffffff8111156136ec576136eb612d8b565b5b6136f887828801613224565b91505092959194509250565b6000819050919050565b61371781613704565b811461372257600080fd5b50565b6000813590506137348161370e565b92915050565b60008190508260206008028201111561375657613755613101565b5b92915050565b600080600080610160858703121561377757613776612d86565b5b600061378587828801613725565b945050602061379687828801612e0f565b93505060406137a787828801612e0f565b92505060606137b88782880161373a565b91505092959194509250565b600080600080608085870312156137de576137dd612d86565b5b60006137ec87828801612e0f565b94505060206137fd87828801612dd9565b935050604061380e87828801612e0f565b925050606061381f87828801612e0f565b91505092959194509250565b61383481612db0565b82525050565b600060208201905061384f600083018461382b565b92915050565b61385e81612f13565b811461386957600080fd5b50565b60008135905061387b81613855565b92915050565b6000806040838503121561389857613897612d86565b5b60006138a685828601612dd9565b92505060206138b78582860161386c565b9150509250929050565b6000602082840312156138d7576138d6612d86565b5b60006138e58482850161386c565b91505092915050565b60006060820190506139036000830186612e64565b6139106020830185612e64565b81810360408301526139228184612fcd565b9050949350505050565b6000806040838503121561394357613942612d86565b5b600061395185828601612dd9565b925050602061396285828601612dd9565b9150509250929050565b600080600080600060a0868803121561398857613987612d86565b5b600061399688828901612dd9565b95505060206139a788828901612dd9565b94505060406139b888828901612e0f565b93505060606139c988828901612e0f565b925050608086013567ffffffffffffffff8111156139ea576139e9612d8b565b5b6139f688828901613224565b9150509295509295909350565b7f455243313135353a2061646472657373207a65726f206973206e6f742061207660008201527f616c6964206f776e657200000000000000000000000000000000000000000000602082015250565b6000613a5f602a83612f81565b9150613a6a82613a03565b604082019050919050565b60006020820190508181036000830152613a8e81613a52565b9050919050565b7f4e487b7100000000000000000000000000000000000000000000000000000000600052602260045260246000fd5b60006002820490506001821680613adc57607f821691505b602082108103613aef57613aee613a95565b5b50919050565b7f4e6f742073757065722061646d696e0000000000000000000000000000000000600082015250565b6000613b2b600f83612f81565b9150613b3682613af5565b602082019050919050565b60006020820190508181036000830152613b5a81613b1e565b9050919050565b7f455243313135353a2063616c6c6572206973206e6f7420746f6b656e206f776e60008201527f6572206e6f7220617070726f7665640000000000000000000000000000000000602082015250565b6000613bbd602f83612f81565b9150613bc882613b61565b604082019050919050565b60006020820190508181036000830152613bec81613bb0565b9050919050565b7f4e487b7100000000000000000000000000000000000000000000000000000000600052603260045260246000fd5b7f4e487b7100000000000000000000000000000000000000000000000000000000600052601160045260246000fd5b6000613c5c82612dee565b9150613c6783612dee565b9250828203905081811115613c7f57613c7e613c22565b5b92915050565b6000613c9082612dee565b9150613c9b83612dee565b9250828201905080821115613cb357613cb2613c22565b5b92915050565b6000613cc482612dee565b91507fffffffffffffffffffffffffffffffffffffffffffffffffffffffffffffffff8203613cf657613cf5613c22565b5b600182019050919050565b7f4e487b7100000000000000000000000000000000000000000000000000000000600052603160045260246000fd5b7f455243313135353a206163636f756e747320616e6420696473206c656e67746860008201527f206d69736d617463680000000000000000000000000000000000000000000000602082015250565b6000613d8c602983612f81565b9150613d9782613d30565b604082019050919050565b60006020820190508181036000830152613dbb81613d7f565b9050919050565b7f4e6f742061646d696e0000000000000000000000000000000000000000000000600082015250565b6000613df8600983612f81565b9150613e0382613dc2565b602082019050919050565b60006020820190508181036000830152613e2781613deb565b9050919050565b7f4e487b7100000000000000000000000000000000000000000000000000000000600052602160045260246000fd5b613e6681613704565b82525050565b6000602082019050613e816000830184613e5d565b92915050565b7f547261736e666572732064697361626c65640000000000000000000000000000600082015250565b6000613ebd601283612f81565b9150613ec882613e87565b602082019050919050565b60006020820190508181036000830152613eec81613eb0565b9050919050565b7f455243313135353a2069647320616e6420616d6f756e7473206c656e6774682060008201527f6d69736d61746368000000000000000000000000000000000000000000000000602082015250565b6000613f4f602883612f81565b9150613f5a82613ef3565b604082019050919050565b60006020820190508181036000830152613f7e81613f42565b9050919050565b7f455243313135353a207472616e7366657220746f20746865207a65726f20616460008201527f6472657373000000000000000000000000000000000000000000000000000000602082015250565b6000613fe1602583612f81565b9150613fec82613f85565b604082019050919050565b6000602082019050818103600083015261401081613fd4565b9050919050565b7f455243313135353a20696e73756666696369656e742062616c616e636520666f60008201527f72207472616e7366657200000000000000000000000000000000000000000000602082015250565b6000614073602a83612f81565b915061407e82614017565b604082019050919050565b600060208201905081810360008301526140a281614066565b9050919050565b600060408201905081810360008301526140c381856135e5565b905081810360208301526140d781846135e5565b90509392505050565b7f455243313135353a206d696e7420746f20746865207a65726f2061646472657360008201527f7300000000000000000000000000000000000000000000000000000000000000602082015250565b600061413c602183612f81565b9150614147826140e0565b604082019050919050565b6000602082019050818103600083015261416b8161412f565b9050919050565b60006040820190506141876000830185612e64565b6141946020830184612e64565b9392505050565b600060029050919050565b600081905092915050565b6000819050919050565b6000602082019050919050565b6141d18161419b565b6141db81846141a6565b92506141e6826141b1565b8060005b838110156142175781516141fe87826135c0565b9650614209836141bb565b9250506001810190506141ea565b505050505050565b600060029050919050565b600081905092915050565b6000819050919050565b600081905092915050565b6142538161419b565b61425d818461423f565b9250614268826141b1565b8060005b8381101561429957815161428087826135c0565b965061428b836141bb565b92505060018101905061426c565b505050505050565b60006142ad838361424a565b60408301905092915050565b6000602082019050919050565b6142cf8161421f565b6142d9818461422a565b92506142e482614235565b8060005b838110156143155781516142fc87826142a1565b9650614307836142b9565b9250506001810190506142e8565b505050505050565b600060049050919050565b600081905092915050565b6000819050919050565b6000602082019050919050565b6143538161431d565b61435d8184614328565b925061436882614333565b8060005b8381101561439957815161438087826135c0565b965061438b8361433d565b92505060018101905061436c565b505050505050565b6000610180820190506143b760008301876141c8565b6143c460408301866142c6565b6143d160c08301856141c8565b6143df61010083018461434a565b95945050505050565b7f455243313135353a2073657474696e6720617070726f76616c2073746174757360008201527f20666f722073656c660000000000000000000000000000000000000000000000602082015250565b6000614444602983612f81565b915061444f826143e8565b604082019050919050565b6000602082019050818103600083015261447381614437565b9050919050565b600081519050919050565b600082825260208201905092915050565b60006144a18261447a565b6144ab8185614485565b93506144bb818560208601612f92565b6144c481612fbc565b840191505092915050565b600060a0820190506144e4600083018861382b565b6144f1602083018761382b565b818103604083015261450381866135e5565b9050818103606083015261451781856135e5565b9050818103608083015261452b8184614496565b90509695505050505050565b60008151905061454681612eba565b92915050565b60006020828403121561456257614561612d86565b5b600061457084828501614537565b91505092915050565b60008160e01c9050919050565b600060033d11156145a55760046000803e6145a2600051614579565b90505b90565b600060443d10614635576145ba612d7c565b60043d036004823e80513d602482011167ffffffffffffffff821117156145e2575050614635565b808201805167ffffffffffffffff8111156146005750505050614635565b80602083010160043d03850181111561461d575050505050614635565b61462c82602001850186613089565b82955050505050505b90565b7f455243313135353a207472616e7366657220746f206e6f6e204552433131353560008201527f526563656976657220696d706c656d656e746572000000000000000000000000602082015250565b6000614694603483612f81565b915061469f82614638565b604082019050919050565b600060208201905081810360008301526146c381614687565b9050919050565b7f455243313135353a204552433131353552656365697665722072656a6563746560008201527f6420746f6b656e73000000000000000000000000000000000000000000000000602082015250565b6000614726602883612f81565b9150614731826146ca565b604082019050919050565b6000602082019050818103600083015261475581614719565b9050919050565b600060a082019050614771600083018861382b565b61477e602083018761382b565b61478b6040830186612e64565b6147986060830185612e64565b81810360808301526147aa8184614496565b90509695505050505050565b6000819050919050565b6147d16147cc82613704565b6147b6565b82525050565b60006147e382846147c0565b6020820191508190509291505056fea2646970667358221220920df1efc2732f92dc9560d49cc5806a0b990743a715f8569339469cab72e8a264736f6c63430008130033",
  "linkReferences": {},
  "deployedLinkReferences": {}
}