{
  "_format": "hh-sol-artifact-1",
  "contractName": "BabCoinContract",
  "sourceName": "contracts/BabCoinContract.sol",
  "abi": [
    {
      "inputs": [
        {
          "internalType": "string",
          "name": "uri_",
          "type": "string"
        },
        {
          "internalType": "address",
          "name": "superAdmin_",
          "type": "address"
        },
        {
          "components": [
            {
              "internalType": "address",
              "name": "contractAddress",
              "type": "address"
            },
            {
              "internalType": "uint256",
              "name": "merkleTreeDepth",
              "type": "uint256"
            }
          ],
          "internalType": "struct IPrivPoll.Verifier[]",
          "name": "_verifiers",
          "type": "tuple[]"
        }
      ],
      "stateMutability": "nonpayable",
      "type": "constructor"
    },
    {
      "inputs": [],
      "name": "Semaphore__CallerIsNotTheGroupAdmin",
      "type": "error"
    },
    {
      "inputs": [],
      "name": "Semaphore__CallerIsNotThePollCoordinator",
      "type": "error"
    },
    {
      "inputs": [],
      "name": "Semaphore__GroupAlreadyExists",
      "type": "error"
    },
    {
      "inputs": [],
      "name": "Semaphore__GroupDoesNotExist",
      "type": "error"
    },
    {
      "inputs": [],
      "name": "Semaphore__GroupIdIsNotLessThanSnarkScalarField",
      "type": "error"
    },
    {
      "inputs": [],
      "name": "Semaphore__MerkleTreeDepthIsNotSupported",
      "type": "error"
    },
    {
      "inputs": [],
      "name": "Semaphore__MerkleTreeRootIsExpired",
      "type": "error"
    },
    {
      "inputs": [],
      "name": "Semaphore__MerkleTreeRootIsNotPartOfTheGroup",
      "type": "error"
    },
    {
      "inputs": [],
      "name": "Semaphore__PollHasAlreadyBeenStarted",
      "type": "error"
    },
    {
      "inputs": [],
      "name": "Semaphore__PollIsNotOngoing",
      "type": "error"
    },
    {
      "inputs": [],
      "name": "Semaphore__YouAreUsingTheSameNillifierTwice",
      "type": "error"
    },
    {
      "anonymous": false,
      "inputs": [
        {
          "indexed": true,
          "internalType": "address",
          "name": "account",
          "type": "address"
        },
        {
          "indexed": true,
          "internalType": "address",
          "name": "operator",
          "type": "address"
        },
        {
          "indexed": false,
          "internalType": "bool",
          "name": "approved",
          "type": "bool"
        }
      ],
      "name": "ApprovalForAll",
      "type": "event"
    },
    {
      "anonymous": false,
      "inputs": [
        {
          "indexed": true,
          "internalType": "uint256",
          "name": "groupId",
          "type": "uint256"
        },
        {
          "indexed": true,
          "internalType": "address",
          "name": "oldAdmin",
          "type": "address"
        },
        {
          "indexed": true,
          "internalType": "address",
          "name": "newAdmin",
          "type": "address"
        }
      ],
      "name": "GroupAdminUpdated",
      "type": "event"
    },
    {
      "anonymous": false,
      "inputs": [
        {
          "indexed": true,
          "internalType": "uint256",
          "name": "groupId",
          "type": "uint256"
        },
        {
          "indexed": false,
          "internalType": "uint256",
          "name": "merkleTreeDepth",
          "type": "uint256"
        },
        {
          "indexed": false,
          "internalType": "uint256",
          "name": "zeroValue",
          "type": "uint256"
        }
      ],
      "name": "GroupCreated",
      "type": "event"
    },
    {
      "anonymous": false,
      "inputs": [
        {
          "indexed": true,
          "internalType": "uint256",
          "name": "groupId",
          "type": "uint256"
        },
        {
          "indexed": false,
          "internalType": "uint256",
          "name": "index",
          "type": "uint256"
        },
        {
          "indexed": false,
          "internalType": "uint256",
          "name": "identityCommitment",
          "type": "uint256"
        },
        {
          "indexed": false,
          "internalType": "uint256",
          "name": "merkleTreeRoot",
          "type": "uint256"
        }
      ],
      "name": "MemberAdded",
      "type": "event"
    },
    {
      "anonymous": false,
      "inputs": [
        {
          "indexed": true,
          "internalType": "uint256",
          "name": "groupId",
          "type": "uint256"
        },
        {
          "indexed": false,
          "internalType": "uint256",
          "name": "index",
          "type": "uint256"
        },
        {
          "indexed": false,
          "internalType": "uint256",
          "name": "identityCommitment",
          "type": "uint256"
        },
        {
          "indexed": false,
          "internalType": "uint256",
          "name": "merkleTreeRoot",
          "type": "uint256"
        }
      ],
      "name": "MemberRemoved",
      "type": "event"
    },
    {
      "anonymous": false,
      "inputs": [
        {
          "indexed": true,
          "internalType": "uint256",
          "name": "groupId",
          "type": "uint256"
        },
        {
          "indexed": false,
          "internalType": "uint256",
          "name": "index",
          "type": "uint256"
        },
        {
          "indexed": false,
          "internalType": "uint256",
          "name": "identityCommitment",
          "type": "uint256"
        },
        {
          "indexed": false,
          "internalType": "uint256",
          "name": "newIdentityCommitment",
          "type": "uint256"
        },
        {
          "indexed": false,
          "internalType": "uint256",
          "name": "merkleTreeRoot",
          "type": "uint256"
        }
      ],
      "name": "MemberUpdated",
      "type": "event"
    },
    {
      "anonymous": false,
      "inputs": [
        {
          "indexed": false,
          "internalType": "uint256",
          "name": "nullifierHash",
          "type": "uint256"
        }
      ],
      "name": "NullifierHashAdded",
      "type": "event"
    },
    {
      "anonymous": false,
      "inputs": [
        {
          "indexed": false,
          "internalType": "uint256",
          "name": "pollId",
          "type": "uint256"
        },
        {
          "indexed": true,
          "internalType": "address",
          "name": "coordinator",
          "type": "address"
        }
      ],
      "name": "PollCreated",
      "type": "event"
    },
    {
      "anonymous": false,
      "inputs": [
        {
          "indexed": false,
          "internalType": "uint256",
          "name": "pollId",
          "type": "uint256"
        },
        {
          "indexed": true,
          "internalType": "address",
          "name": "coordinator",
          "type": "address"
        }
      ],
      "name": "PollEnded",
      "type": "event"
    },
    {
      "anonymous": false,
      "inputs": [
        {
          "indexed": true,
          "internalType": "uint256",
          "name": "groupId",
          "type": "uint256"
        },
        {
          "indexed": false,
          "internalType": "uint256",
          "name": "merkleTreeRoot",
          "type": "uint256"
        },
        {
          "indexed": false,
          "internalType": "uint256",
          "name": "externalNullifier",
          "type": "uint256"
        },
        {
          "indexed": false,
          "internalType": "uint256",
          "name": "nullifierHash",
          "type": "uint256"
        },
        {
          "indexed": false,
          "internalType": "bytes32",
          "name": "signal",
          "type": "bytes32"
        }
      ],
      "name": "ProofVerified",
      "type": "event"
    },
    {
      "anonymous": false,
      "inputs": [
        {
          "indexed": true,
          "internalType": "address",
          "name": "operator",
          "type": "address"
        },
        {
          "indexed": true,
          "internalType": "address",
          "name": "from",
          "type": "address"
        },
        {
          "indexed": true,
          "internalType": "address",
          "name": "to",
          "type": "address"
        },
        {
          "indexed": false,
          "internalType": "uint256[]",
          "name": "ids",
          "type": "uint256[]"
        },
        {
          "indexed": false,
          "internalType": "uint256[]",
          "name": "values",
          "type": "uint256[]"
        }
      ],
      "name": "TransferBatch",
      "type": "event"
    },
    {
      "anonymous": false,
      "inputs": [
        {
          "indexed": true,
          "internalType": "address",
          "name": "operator",
          "type": "address"
        },
        {
          "indexed": true,
          "internalType": "address",
          "name": "from",
          "type": "address"
        },
        {
          "indexed": true,
          "internalType": "address",
          "name": "to",
          "type": "address"
        },
        {
          "indexed": false,
          "internalType": "uint256",
          "name": "id",
          "type": "uint256"
        },
        {
          "indexed": false,
          "internalType": "uint256",
          "name": "value",
          "type": "uint256"
        }
      ],
      "name": "TransferSingle",
      "type": "event"
    },
    {
      "anonymous": false,
      "inputs": [
        {
          "indexed": false,
          "internalType": "string",
          "name": "value",
          "type": "string"
        },
        {
          "indexed": true,
          "internalType": "uint256",
          "name": "id",
          "type": "uint256"
        }
      ],
      "name": "URI",
      "type": "event"
    },
    {
      "anonymous": false,
      "inputs": [
        {
          "indexed": true,
          "internalType": "uint256",
          "name": "pollId",
          "type": "uint256"
        },
        {
          "indexed": false,
          "internalType": "bytes32",
          "name": "vote",
          "type": "bytes32"
        }
      ],
      "name": "VoteAdded",
      "type": "event"
    },
    {
      "inputs": [
        {
          "internalType": "address[]",
          "name": "newAdmins",
          "type": "address[]"
        }
      ],
      "name": "addAdmins",
      "outputs": [],
      "stateMutability": "nonpayable",
      "type": "function"
    },
    {
      "inputs": [
        {
          "internalType": "address[]",
          "name": "attendees",
          "type": "address[]"
        },
        {
          "internalType": "uint256",
          "name": "id",
          "type": "uint256"
        },
        {
          "internalType": "uint256",
          "name": "amount",
          "type": "uint256"
        },
        {
          "internalType": "bytes",
          "name": "data",
          "type": "bytes"
        }
      ],
      "name": "airdrop",
      "outputs": [],
      "stateMutability": "nonpayable",
      "type": "function"
    },
    {
      "inputs": [
        {
          "internalType": "address",
          "name": "account",
          "type": "address"
        },
        {
          "internalType": "uint256",
          "name": "id",
          "type": "uint256"
        }
      ],
      "name": "balanceOf",
      "outputs": [
        {
          "internalType": "uint256",
          "name": "",
          "type": "uint256"
        }
      ],
      "stateMutability": "view",
      "type": "function"
    },
    {
      "inputs": [
        {
          "internalType": "address[]",
          "name": "accounts",
          "type": "address[]"
        },
        {
          "internalType": "uint256[]",
          "name": "ids",
          "type": "uint256[]"
        }
      ],
      "name": "balanceOfBatch",
      "outputs": [
        {
          "internalType": "uint256[]",
          "name": "",
          "type": "uint256[]"
        }
      ],
      "stateMutability": "view",
      "type": "function"
    },
    {
      "inputs": [
        {
          "internalType": "bytes32",
          "name": "vote",
          "type": "bytes32"
        },
        {
          "internalType": "uint256",
          "name": "nullifierHash",
          "type": "uint256"
        },
        {
          "internalType": "uint256",
          "name": "pollId",
          "type": "uint256"
        },
        {
          "internalType": "uint256[8]",
          "name": "proof",
          "type": "uint256[8]"
        }
      ],
      "name": "castVote",
      "outputs": [],
      "stateMutability": "nonpayable",
      "type": "function"
    },
    {
      "inputs": [
        {
          "internalType": "uint256",
          "name": "groupId",
          "type": "uint256"
        },
        {
          "internalType": "uint256",
          "name": "merkleTreeRoot",
          "type": "uint256"
        },
        {
          "internalType": "uint256",
          "name": "merkleTreeDepth",
          "type": "uint256"
        },
        {
          "internalType": "uint256",
          "name": "zeroValue",
          "type": "uint256"
        },
        {
          "internalType": "address",
          "name": "admin",
          "type": "address"
        }
      ],
      "name": "createGroup",
      "outputs": [],
      "stateMutability": "nonpayable",
      "type": "function"
    },
    {
      "inputs": [
        {
          "internalType": "uint256",
          "name": "pollId",
          "type": "uint256"
        },
        {
          "internalType": "address",
          "name": "coordinator",
          "type": "address"
        },
        {
          "internalType": "uint256",
          "name": "merkleRoot",
          "type": "uint256"
        },
        {
          "internalType": "uint256",
          "name": "merkleTreeDepth",
          "type": "uint256"
        }
      ],
      "name": "createPoll",
      "outputs": [],
      "stateMutability": "nonpayable",
      "type": "function"
    },
    {
      "inputs": [
        {
          "internalType": "uint256",
          "name": "pollId",
          "type": "uint256"
        }
      ],
      "name": "endPoll",
      "outputs": [
        {
          "internalType": "bool",
          "name": "",
          "type": "bool"
        }
      ],
      "stateMutability": "nonpayable",
      "type": "function"
    },
    {
      "inputs": [],
      "name": "getAdmins",
      "outputs": [
        {
          "internalType": "address[]",
          "name": "",
          "type": "address[]"
        }
      ],
      "stateMutability": "view",
      "type": "function"
    },
    {
      "inputs": [],
      "name": "getBurn",
      "outputs": [
        {
          "internalType": "bool",
          "name": "",
          "type": "bool"
        }
      ],
      "stateMutability": "view",
      "type": "function"
    },
    {
      "inputs": [
        {
          "internalType": "uint256",
          "name": "groupId",
          "type": "uint256"
        }
      ],
      "name": "getMerkleTreeDepth",
      "outputs": [
        {
          "internalType": "uint256",
          "name": "",
          "type": "uint256"
        }
      ],
      "stateMutability": "view",
      "type": "function"
    },
    {
      "inputs": [
        {
          "internalType": "uint256",
          "name": "groupId",
          "type": "uint256"
        }
      ],
      "name": "getMerkleTreeRoot",
      "outputs": [
        {
          "internalType": "uint256",
          "name": "",
          "type": "uint256"
        }
      ],
      "stateMutability": "view",
      "type": "function"
    },
    {
      "inputs": [
        {
          "internalType": "uint256",
          "name": "pollId",
          "type": "uint256"
        }
      ],
      "name": "getPollState",
      "outputs": [
        {
          "internalType": "uint256",
          "name": "",
          "type": "uint256"
        },
        {
          "internalType": "uint256",
          "name": "",
          "type": "uint256"
        },
        {
          "internalType": "string",
          "name": "",
          "type": "string"
        }
      ],
      "stateMutability": "view",
      "type": "function"
    },
    {
      "inputs": [],
      "name": "getSuperAdmin",
      "outputs": [
        {
          "internalType": "address",
          "name": "",
          "type": "address"
        }
      ],
      "stateMutability": "view",
      "type": "function"
    },
    {
      "inputs": [],
      "name": "getTransfer",
      "outputs": [
        {
          "internalType": "bool",
          "name": "",
          "type": "bool"
        }
      ],
      "stateMutability": "view",
      "type": "function"
    },
    {
      "inputs": [
        {
          "internalType": "uint256",
          "name": "",
          "type": "uint256"
        }
      ],
      "name": "groups",
      "outputs": [
        {
          "internalType": "address",
          "name": "admin",
          "type": "address"
        },
        {
          "internalType": "uint256",
          "name": "merkleRootDuration",
          "type": "uint256"
        }
      ],
      "stateMutability": "view",
      "type": "function"
    },
    {
      "inputs": [
        {
          "internalType": "address",
          "name": "account",
          "type": "address"
        },
        {
          "internalType": "address",
          "name": "operator",
          "type": "address"
        }
      ],
      "name": "isApprovedForAll",
      "outputs": [
        {
          "internalType": "bool",
          "name": "",
          "type": "bool"
        }
      ],
      "stateMutability": "view",
      "type": "function"
    },
    {
      "inputs": [
        {
          "internalType": "address[]",
          "name": "oldAdmins",
          "type": "address[]"
        }
      ],
      "name": "removeAdmins",
      "outputs": [],
      "stateMutability": "nonpayable",
      "type": "function"
    },
    {
      "inputs": [
        {
          "internalType": "address",
          "name": "from",
          "type": "address"
        },
        {
          "internalType": "address",
          "name": "to",
          "type": "address"
        },
        {
          "internalType": "uint256[]",
          "name": "ids",
          "type": "uint256[]"
        },
        {
          "internalType": "uint256[]",
          "name": "amounts",
          "type": "uint256[]"
        },
        {
          "internalType": "bytes",
          "name": "data",
          "type": "bytes"
        }
      ],
      "name": "safeBatchTransferFrom",
      "outputs": [],
      "stateMutability": "nonpayable",
      "type": "function"
    },
    {
      "inputs": [
        {
          "internalType": "address",
          "name": "from",
          "type": "address"
        },
        {
          "internalType": "address",
          "name": "to",
          "type": "address"
        },
        {
          "internalType": "uint256",
          "name": "id",
          "type": "uint256"
        },
        {
          "internalType": "uint256",
          "name": "amount",
          "type": "uint256"
        },
        {
          "internalType": "bytes",
          "name": "data",
          "type": "bytes"
        }
      ],
      "name": "safeTransferFrom",
      "outputs": [],
      "stateMutability": "nonpayable",
      "type": "function"
    },
    {
      "inputs": [
        {
          "internalType": "address",
          "name": "operator",
          "type": "address"
        },
        {
          "internalType": "bool",
          "name": "approved",
          "type": "bool"
        }
      ],
      "name": "setApprovalForAll",
      "outputs": [],
      "stateMutability": "nonpayable",
      "type": "function"
    },
    {
      "inputs": [
        {
          "internalType": "bool",
          "name": "status",
          "type": "bool"
        }
      ],
      "name": "setBurn",
      "outputs": [],
      "stateMutability": "nonpayable",
      "type": "function"
    },
    {
      "inputs": [
        {
          "internalType": "address",
          "name": "newSuperAdmin",
          "type": "address"
        }
      ],
      "name": "setSuperAdmin",
      "outputs": [],
      "stateMutability": "nonpayable",
      "type": "function"
    },
    {
      "inputs": [
        {
          "internalType": "bool",
          "name": "status",
          "type": "bool"
        }
      ],
      "name": "setTransfer",
      "outputs": [],
      "stateMutability": "nonpayable",
      "type": "function"
    },
    {
      "inputs": [
        {
          "internalType": "bytes4",
          "name": "interfaceId",
          "type": "bytes4"
        }
      ],
      "name": "supportsInterface",
      "outputs": [
        {
          "internalType": "bool",
          "name": "",
          "type": "bool"
        }
      ],
      "stateMutability": "view",
      "type": "function"
    },
    {
      "inputs": [
        {
          "internalType": "uint256",
          "name": "",
          "type": "uint256"
        }
      ],
      "name": "uri",
      "outputs": [
        {
          "internalType": "string",
          "name": "",
          "type": "string"
        }
      ],
      "stateMutability": "view",
      "type": "function"
    },
    {
      "inputs": [
        {
          "internalType": "uint256",
          "name": "",
          "type": "uint256"
        }
      ],
      "name": "verifiers",
      "outputs": [
        {
          "internalType": "contract IVerifier",
          "name": "",
          "type": "address"
        }
      ],
      "stateMutability": "view",
      "type": "function"
    },
    {
      "inputs": [
        {
          "internalType": "uint256",
          "name": "groupId",
          "type": "uint256"
        },
        {
          "internalType": "uint256",
          "name": "merkleTreeRoot",
          "type": "uint256"
        },
        {
          "internalType": "bytes32",
          "name": "signal",
          "type": "bytes32"
        },
        {
          "internalType": "uint256",
          "name": "nullifierHash",
          "type": "uint256"
        },
        {
          "internalType": "uint256",
          "name": "externalNullifier",
          "type": "uint256"
        },
        {
          "internalType": "uint256[8]",
          "name": "proof",
          "type": "uint256[8]"
        }
      ],
      "name": "verifyProof",
      "outputs": [],
      "stateMutability": "nonpayable",
      "type": "function"
    }
  ],
  "bytecode": "0x60806040523480156200001157600080fd5b506040516200585e3803806200585e8339818101604052810190620000379190620004ec565b8260049081620000489190620007c7565b5081600760006101000a81548173ffffffffffffffffffffffffffffffffffffffff021916908373ffffffffffffffffffffffffffffffffffffffff1602179055506000600560006101000a81548160ff0219169083151502179055506000600560016101000a81548160ff02191690831515021790555060005b81518160ff1610156200017657818160ff1681518110620000e957620000e8620008ae565b5b60200260200101516000015160086000848460ff1681518110620001125762000111620008ae565b5b602002602001015160200151815260200190815260200160002060006101000a81548173ffffffffffffffffffffffffffffffffffffffff021916908373ffffffffffffffffffffffffffffffffffffffff160217905550806001019050620000c3565b50505050620008dd565b6000604051905090565b600080fd5b600080fd5b600080fd5b600080fd5b6000601f19601f8301169050919050565b7f4e487b7100000000000000000000000000000000000000000000000000000000600052604160045260246000fd5b620001e9826200019e565b810181811067ffffffffffffffff821117156200020b576200020a620001af565b5b80604052505050565b60006200022062000180565b90506200022e8282620001de565b919050565b600067ffffffffffffffff821115620002515762000250620001af565b5b6200025c826200019e565b9050602081019050919050565b60005b83811015620002895780820151818401526020810190506200026c565b60008484015250505050565b6000620002ac620002a68462000233565b62000214565b905082815260208101848484011115620002cb57620002ca62000199565b5b620002d884828562000269565b509392505050565b600082601f830112620002f857620002f762000194565b5b81516200030a84826020860162000295565b91505092915050565b600073ffffffffffffffffffffffffffffffffffffffff82169050919050565b6000620003408262000313565b9050919050565b620003528162000333565b81146200035e57600080fd5b50565b600081519050620003728162000347565b92915050565b600067ffffffffffffffff821115620003965762000395620001af565b5b602082029050602081019050919050565b600080fd5b600080fd5b6000819050919050565b620003c681620003b1565b8114620003d257600080fd5b50565b600081519050620003e681620003bb565b92915050565b600060408284031215620004055762000404620003ac565b5b62000411604062000214565b90506000620004238482850162000361565b60008301525060206200043984828501620003d5565b60208301525092915050565b60006200045c620004568462000378565b62000214565b90508083825260208201905060408402830185811115620004825762000481620003a7565b5b835b81811015620004af57806200049a8882620003ec565b84526020840193505060408101905062000484565b5050509392505050565b600082601f830112620004d157620004d062000194565b5b8151620004e384826020860162000445565b91505092915050565b6000806000606084860312156200050857620005076200018a565b5b600084015167ffffffffffffffff8111156200052957620005286200018f565b5b6200053786828701620002e0565b93505060206200054a8682870162000361565b925050604084015167ffffffffffffffff8111156200056e576200056d6200018f565b5b6200057c86828701620004b9565b9150509250925092565b600081519050919050565b7f4e487b7100000000000000000000000000000000000000000000000000000000600052602260045260246000fd5b60006002820490506001821680620005d957607f821691505b602082108103620005ef57620005ee62000591565b5b50919050565b60008190508160005260206000209050919050565b60006020601f8301049050919050565b600082821b905092915050565b600060088302620006597fffffffffffffffffffffffffffffffffffffffffffffffffffffffffffffffff826200061a565b6200066586836200061a565b95508019841693508086168417925050509392505050565b6000819050919050565b6000620006a8620006a26200069c84620003b1565b6200067d565b620003b1565b9050919050565b6000819050919050565b620006c48362000687565b620006dc620006d382620006af565b84845462000627565b825550505050565b600090565b620006f3620006e4565b62000700818484620006b9565b505050565b5b8181101562000728576200071c600082620006e9565b60018101905062000706565b5050565b601f82111562000777576200074181620005f5565b6200074c846200060a565b810160208510156200075c578190505b620007746200076b856200060a565b83018262000705565b50505b505050565b600082821c905092915050565b60006200079c600019846008026200077c565b1980831691505092915050565b6000620007b7838362000789565b9150826002028217905092915050565b620007d28262000586565b67ffffffffffffffff811115620007ee57620007ed620001af565b5b620007fa8254620005c0565b620008078282856200072c565b600060209050601f8311600181146200083f57600084156200082a578287015190505b620008368582620007a9565b865550620008a6565b601f1984166200084f86620005f5565b60005b82811015620008795784890151825560018201915060208501945060208101905062000852565b8683101562000899578489015162000895601f89168262000789565b8355505b6001600288020188555050505b505050505050565b7f4e487b7100000000000000000000000000000000000000000000000000000000600052603260045260246000fd5b614f7180620008ed6000396000f3fe608060405234801561001057600080fd5b50600436106101c35760003560e01c80638b69310a116100f9578063b87141bf11610097578063dabc4d5111610071578063dabc4d5114610513578063e985e9c514610543578063f242432a14610573578063f43b87781461058f576101c3565b8063b87141bf146104bb578063b8ccaedd146104d9578063bd55cf0d146104f7576101c3565b8063a22cb465116100d3578063a22cb46514610421578063a296b3231461043d578063ac1eff6814610459578063afdda4ec14610489576101c3565b80638b69310a146103b857806396324bd4146103d45780639c54df6414610405576101c3565b8063377e11e011610166578063633f439d11610140578063633f439d146103325780636389e1071461034e57806370eff6ad1461037e5780638204c3261461039a576101c3565b8063377e11e0146102ca5780634e1273f4146102e6578063562592ef14610316576101c3565b806315700052116101a257806315700052146102585780631ed54caf146102745780632eb2c2d61461029057806331ae450b146102ac576101c3565b8062fdd58e146101c857806301ffc9a7146101f85780630e89341c14610228575b600080fd5b6101e260048036038101906101dd919061337c565b6105bf565b6040516101ef91906133cb565b60405180910390f35b610212600480360381019061020d919061343e565b610688565b60405161021f9190613486565b60405180910390f35b610242600480360381019061023d91906134a1565b61076a565b60405161024f919061355e565b60405180910390f35b610272600480360381019061026d9190613580565b6107fe565b005b61028e600480360381019061028991906135ad565b6108d2565b005b6102aa60048036038101906102a59190613825565b610a4f565b005b6102b4610b08565b6040516102c191906139b2565b60405180910390f35b6102e460048036038101906102df9190613a97565b610b96565b005b61030060048036038101906102fb9190613ae0565b610e1a565b60405161030d9190613c16565b60405180910390f35b610330600480360381019061032b9190613c38565b610f33565b005b61034c60048036038101906103479190613d2f565b6110bf565b005b610368600480360381019061036391906134a1565b61137f565b60405161037591906133cb565b60405180910390f35b61039860048036038101906103939190613d97565b61139c565b005b6103a2611579565b6040516103af9190613e0d565b60405180910390f35b6103d260048036038101906103cd9190613e28565b6115a3565b005b6103ee60048036038101906103e991906134a1565b611802565b6040516103fc929190613eb6565b60405180910390f35b61041f600480360381019061041a9190613a97565b611846565b005b61043b60048036038101906104369190613f0b565b611976565b005b61045760048036038101906104529190613f4b565b61198c565b005b610473600480360381019061046e91906134a1565b611a39565b6040516104809190613fd7565b60405180910390f35b6104a3600480360381019061049e91906134a1565b611a6c565b6040516104b293929190613ff2565b60405180910390f35b6104c3611c03565b6040516104d09190613486565b60405180910390f35b6104e1611c1a565b6040516104ee9190613486565b60405180910390f35b610511600480360381019061050c9190613f4b565b611c31565b005b61052d600480360381019061052891906134a1565b611cde565b60405161053a91906133cb565b60405180910390f35b61055d60048036038101906105589190614030565b611cfa565b60405161056a9190613486565b60405180910390f35b61058d60048036038101906105889190614070565b611d8e565b005b6105a960048036038101906105a491906134a1565b611e47565b6040516105b69190613486565b60405180910390f35b60008073ffffffffffffffffffffffffffffffffffffffff168373ffffffffffffffffffffffffffffffffffffffff160361062f576040517f08c379a000000000000000000000000000000000000000000000000000000000815260040161062690614179565b60405180910390fd5b6002600083815260200190815260200160002060008473ffffffffffffffffffffffffffffffffffffffff1673ffffffffffffffffffffffffffffffffffffffff16815260200190815260200160002054905092915050565b60007fd9b67a26000000000000000000000000000000000000000000000000000000007bffffffffffffffffffffffffffffffffffffffffffffffffffffffff1916827bffffffffffffffffffffffffffffffffffffffffffffffffffffffff1916148061075357507f0e89341c000000000000000000000000000000000000000000000000000000007bffffffffffffffffffffffffffffffffffffffffffffffffffffffff1916827bffffffffffffffffffffffffffffffffffffffffffffffffffffffff1916145b80610763575061076282612038565b5b9050919050565b606060048054610779906141c8565b80601f01602080910402602001604051908101604052809291908181526020018280546107a5906141c8565b80156107f25780601f106107c7576101008083540402835291602001916107f2565b820191906000526020600020905b8154815290600101906020018083116107d557829003601f168201915b50505050509050919050565b600760009054906101000a900473ffffffffffffffffffffffffffffffffffffffff1673ffffffffffffffffffffffffffffffffffffffff163373ffffffffffffffffffffffffffffffffffffffff161461088e576040517f08c379a000000000000000000000000000000000000000000000000000000000815260040161088590614245565b60405180910390fd5b80600760006101000a81548173ffffffffffffffffffffffffffffffffffffffff021916908373ffffffffffffffffffffffffffffffffffffffff16021790555050565b82600073ffffffffffffffffffffffffffffffffffffffff166008600083815260200190815260200160002060009054906101000a900473ffffffffffffffffffffffffffffffffffffffff1673ffffffffffffffffffffffffffffffffffffffff160361096c576040517fecf64f1200000000000000000000000000000000000000000000000000000000815260040160405180910390fd5b610978868686866120a2565b81600b600088815260200190815260200160002060000160006101000a81548173ffffffffffffffffffffffffffffffffffffffff021916908373ffffffffffffffffffffffffffffffffffffffff16021790555062015180600b6000888152602001908152602001600020600101819055508173ffffffffffffffffffffffffffffffffffffffff16600073ffffffffffffffffffffffffffffffffffffffff16877f0ba83579a0e79193ef649b9f5a8759d35af086ba62a3e207b52e4a8ae30d49e360405160405180910390a4505050505050565b600560009054906101000a900460ff168015610ab55750610a6e61216a565b73ffffffffffffffffffffffffffffffffffffffff168573ffffffffffffffffffffffffffffffffffffffff161480610ab45750610ab385610aae61216a565b611cfa565b5b5b610af4576040517f08c379a0000000000000000000000000000000000000000000000000000000008152600401610aeb906142d7565b60405180910390fd5b610b018585858585612172565b5050505050565b60606006805480602002602001604051908101604052809291908181526020018280548015610b8c57602002820191906000526020600020905b8160009054906101000a900473ffffffffffffffffffffffffffffffffffffffff1673ffffffffffffffffffffffffffffffffffffffff1681526020019060010190808311610b42575b5050505050905090565b600760009054906101000a900473ffffffffffffffffffffffffffffffffffffffff1673ffffffffffffffffffffffffffffffffffffffff163373ffffffffffffffffffffffffffffffffffffffff1614610c26576040517f08c379a0000000000000000000000000000000000000000000000000000000008152600401610c1d90614245565b60405180910390fd5b60005b8151811015610e165760005b600680549050811015610e025760068181548110610c5657610c556142f7565b5b9060005260206000200160009054906101000a900473ffffffffffffffffffffffffffffffffffffffff1673ffffffffffffffffffffffffffffffffffffffff16838381518110610caa57610ca96142f7565b5b602002602001015173ffffffffffffffffffffffffffffffffffffffff1603610def5760008190505b6001600680549050610ce59190614355565b811015610da6576006600182610cfb9190614389565b81548110610d0c57610d0b6142f7565b5b9060005260206000200160009054906101000a900473ffffffffffffffffffffffffffffffffffffffff1660068281548110610d4b57610d4a6142f7565b5b9060005260206000200160006101000a81548173ffffffffffffffffffffffffffffffffffffffff021916908373ffffffffffffffffffffffffffffffffffffffff1602179055508080610d9e906143bd565b915050610cd3565b6006805480610db857610db7614405565b5b6001900381819060005260206000200160006101000a81549073ffffffffffffffffffffffffffffffffffffffff02191690559055505b8080610dfa906143bd565b915050610c35565b508080610e0e906143bd565b915050610c29565b5050565b60608151835114610e60576040517f08c379a0000000000000000000000000000000000000000000000000000000008152600401610e57906144a6565b60405180910390fd5b6000835167ffffffffffffffff811115610e7d57610e7c61362d565b5b604051908082528060200260200182016040528015610eab5781602001602082028036833780820191505090505b50905060005b8451811015610f2857610ef8858281518110610ed057610ecf6142f7565b5b6020026020010151858381518110610eeb57610eea6142f7565b5b60200260200101516105bf565b828281518110610f0b57610f0a6142f7565b5b60200260200101818152505080610f21906143bd565b9050610eb1565b508091505092915050565b6000600760009054906101000a900473ffffffffffffffffffffffffffffffffffffffff1673ffffffffffffffffffffffffffffffffffffffff163373ffffffffffffffffffffffffffffffffffffffff161490508061102c5760005b60068054905081101561102a5760068181548110610fb157610fb06142f7565b5b9060005260206000200160009054906101000a900473ffffffffffffffffffffffffffffffffffffffff1673ffffffffffffffffffffffffffffffffffffffff163373ffffffffffffffffffffffffffffffffffffffff1603611017576001915061102a565b8080611022906143bd565b915050610f90565b505b8061106c576040517f08c379a000000000000000000000000000000000000000000000000000000000815260040161106390614512565b60405180910390fd5b60008551905060005b818110156110b6576110a3878281518110611093576110926142f7565b5b60200260200101518787876124e5565b80806110ae906143bd565b915050611075565b50505050505050565b6000600960008481526020019081526020016000206040518060800160405290816000820160009054906101000a900473ffffffffffffffffffffffffffffffffffffffff1673ffffffffffffffffffffffffffffffffffffffff1673ffffffffffffffffffffffffffffffffffffffff1681526020016000820160149054906101000a900460ff16600181111561115a57611159614532565b5b600181111561116c5761116b614532565b5b81526020016001820154815260200160028201548152505090506000600181111561119a57611199614532565b5b816020015160018111156111b1576111b0614532565b5b146111e8576040517fe1b6c09100000000000000000000000000000000000000000000000000000000815260040160405180910390fd5b600a600085815260200190815260200160002060009054906101000a900460ff1615611240576040517f948d067400000000000000000000000000000000000000000000000000000000815260040160405180910390fd5b600061124b8461137f565b9050600061125885611cde565b905060006008600084815260200190815260200160002060009054906101000a900473ffffffffffffffffffffffffffffffffffffffff1690506112a08883898989866127d0565b6001600a600089815260200190815260200160002060006101000a81548160ff0219169083151502179055506001610fff8960001c160361130e5760016009600088815260200190815260200160002060010160008282546113029190614389565b9250508190555061133d565b60016009600088815260200190815260200160002060020160008282546113359190614389565b925050819055505b857f9259c591af3680137739dc2b275c388eb1639a143b49022e7062fa162f14776d8960405161136d9190614570565b60405180910390a25050505050505050565b600060016000838152602001908152602001600020549050919050565b600073ffffffffffffffffffffffffffffffffffffffff166008600083815260200190815260200160002060009054906101000a900473ffffffffffffffffffffffffffffffffffffffff1673ffffffffffffffffffffffffffffffffffffffff1603611435576040517fecf64f1200000000000000000000000000000000000000000000000000000000815260040160405180910390fd5b61144284838360006120a2565b61144a613284565b83816000019073ffffffffffffffffffffffffffffffffffffffff16908173ffffffffffffffffffffffffffffffffffffffff1681525050806009600087815260200190815260200160002060008201518160000160006101000a81548173ffffffffffffffffffffffffffffffffffffffff021916908373ffffffffffffffffffffffffffffffffffffffff16021790555060208201518160000160146101000a81548160ff0219169083600181111561150857611507614532565b5b021790555060408201518160010155606082015181600201559050508373ffffffffffffffffffffffffffffffffffffffff167fb447d309fd3b1a27466cdb08ccc02ee5188e9c71fc58af042bafe3e0bb4512308660405161156a91906133cb565b60405180910390a25050505050565b6000600760009054906101000a900473ffffffffffffffffffffffffffffffffffffffff16905090565b60006115ae87611cde565b9050600081036115ea576040517f029f057900000000000000000000000000000000000000000000000000000000815260040160405180910390fd5b8086146116ba576000600b600089815260200190815260200160002060020160008881526020019081526020016000205490506000600b60008a815260200190815260200160002060010154905060008203611672576040517f4d32958600000000000000000000000000000000000000000000000000000000815260040160405180910390fd5b808261167e9190614389565b4211156116b7576040517f9581a99000000000000000000000000000000000000000000000000000000000815260040160405180910390fd5b50505b600b6000888152602001908152602001600020600301600085815260200190815260200160002060009054906101000a900460ff1615611726576040517f948d067400000000000000000000000000000000000000000000000000000000815260040160405180910390fd5b60006117318861137f565b905060006008600083815260200190815260200160002060009054906101000a900473ffffffffffffffffffffffffffffffffffffffff1690506117798789888888866127d0565b6001600b60008b8152602001908152602001600020600301600088815260200190815260200160002060006101000a81548160ff021916908315150217905550887f708a95ee10fd07b9e300c13f6ad7eb0bf8f6a7b3d54c727320f9e7dfdb1296fd8988888b6040516117ef949392919061458b565b60405180910390a2505050505050505050565b600b6020528060005260406000206000915090508060000160009054906101000a900473ffffffffffffffffffffffffffffffffffffffff16908060010154905082565b600760009054906101000a900473ffffffffffffffffffffffffffffffffffffffff1673ffffffffffffffffffffffffffffffffffffffff163373ffffffffffffffffffffffffffffffffffffffff16146118d6576040517f08c379a00000000000000000000000000000000000000000000000000000000081526004016118cd90614245565b60405180910390fd5b60005b81518110156119725760068282815181106118f7576118f66142f7565b5b60200260200101519080600181540180825580915050600190039060005260206000200160009091909190916101000a81548173ffffffffffffffffffffffffffffffffffffffff021916908373ffffffffffffffffffffffffffffffffffffffff160217905550808061196a906143bd565b9150506118d9565b5050565b61198861198161216a565b8383612999565b5050565b600760009054906101000a900473ffffffffffffffffffffffffffffffffffffffff1673ffffffffffffffffffffffffffffffffffffffff163373ffffffffffffffffffffffffffffffffffffffff1614611a1c576040517f08c379a0000000000000000000000000000000000000000000000000000000008152600401611a1390614245565b60405180910390fd5b80600560006101000a81548160ff02191690831515021790555050565b60086020528060005260406000206000915054906101000a900473ffffffffffffffffffffffffffffffffffffffff1681565b60008060606000600960008681526020019081526020016000206040518060800160405290816000820160009054906101000a900473ffffffffffffffffffffffffffffffffffffffff1673ffffffffffffffffffffffffffffffffffffffff1673ffffffffffffffffffffffffffffffffffffffff1681526020016000820160149054906101000a900460ff166001811115611b0c57611b0b614532565b5b6001811115611b1e57611b1d614532565b5b815260200160018201548152602001600282015481525050905060006001811115611b4c57611b4b614532565b5b81602001516001811115611b6357611b62614532565b5b03611bb457806040015181606001516040518060400160405280600781526020017f4f6e676f696e670000000000000000000000000000000000000000000000000081525093509350935050611bfc565b806040015181606001516040518060400160405280600581526020017f456e646564000000000000000000000000000000000000000000000000000000815250935093509350505b9193909250565b6000600560009054906101000a900460ff16905090565b6000600560019054906101000a900460ff16905090565b600760009054906101000a900473ffffffffffffffffffffffffffffffffffffffff1673ffffffffffffffffffffffffffffffffffffffff163373ffffffffffffffffffffffffffffffffffffffff1614611cc1576040517f08c379a0000000000000000000000000000000000000000000000000000000008152600401611cb890614245565b60405180910390fd5b80600560016101000a81548160ff02191690831515021790555050565b6000806000838152602001908152602001600020549050919050565b6000600360008473ffffffffffffffffffffffffffffffffffffffff1673ffffffffffffffffffffffffffffffffffffffff16815260200190815260200160002060008373ffffffffffffffffffffffffffffffffffffffff1673ffffffffffffffffffffffffffffffffffffffff16815260200190815260200160002060009054906101000a900460ff16905092915050565b600560009054906101000a900460ff168015611df45750611dad61216a565b73ffffffffffffffffffffffffffffffffffffffff168573ffffffffffffffffffffffffffffffffffffffff161480611df35750611df285611ded61216a565b611cfa565b5b5b611e33576040517f08c379a0000000000000000000000000000000000000000000000000000000008152600401611e2a906142d7565b60405180910390fd5b611e408585858585612b05565b5050505050565b600081611e5261216a565b73ffffffffffffffffffffffffffffffffffffffff166009600083815260200190815260200160002060000160009054906101000a900473ffffffffffffffffffffffffffffffffffffffff1673ffffffffffffffffffffffffffffffffffffffff1614611eec576040517fe4a34e1500000000000000000000000000000000000000000000000000000000815260040160405180910390fd5b60006001811115611f0057611eff614532565b5b6009600085815260200190815260200160002060000160149054906101000a900460ff166001811115611f3657611f35614532565b5b14611f6d576040517fe1b6c09100000000000000000000000000000000000000000000000000000000815260040160405180910390fd5b60016009600085815260200190815260200160002060000160146101000a81548160ff02191690836001811115611fa757611fa6614532565b5b0217905550611fb461216a565b73ffffffffffffffffffffffffffffffffffffffff167fce994ead15e72a77a86ddf3b0184783c61c9af7e3aae02d7c0bdf3b4268fa18884604051611ff991906133cb565b60405180910390a26009600084815260200190815260200160002060020154600960008581526020019081526020016000206001015411915050919050565b60007f01ffc9a7000000000000000000000000000000000000000000000000000000007bffffffffffffffffffffffffffffffffffffffffffffffffffffffff1916827bffffffffffffffffffffffffffffffffffffffffffffffffffffffff1916149050919050565b7f30644e72e131a029b85045b68181585d2833e84879b9709143e1f593f000000184106120fb576040517fa61c78ca00000000000000000000000000000000000000000000000000000000815260040160405180910390fd5b8260008086815260200190815260200160002081905550816001600086815260200190815260200160002081905550837f0d000126c26c1bbe400fd2332187f75d58b69306f9ec47b408686189d3a00833838360405161215c9291906145d0565b60405180910390a250505050565b600033905090565b600560009054906101000a900460ff166121c1576040517f08c379a00000000000000000000000000000000000000000000000000000000081526004016121b890614645565b60405180910390fd5b8151835114612205576040517f08c379a00000000000000000000000000000000000000000000000000000000081526004016121fc906146d7565b60405180910390fd5b600073ffffffffffffffffffffffffffffffffffffffff168473ffffffffffffffffffffffffffffffffffffffff1603612274576040517f08c379a000000000000000000000000000000000000000000000000000000000815260040161226b90614769565b60405180910390fd5b600061227e61216a565b905061228e818787878787612df2565b60005b84518110156124425760008582815181106122af576122ae6142f7565b5b6020026020010151905060008583815181106122ce576122cd6142f7565b5b6020026020010151905060006002600084815260200190815260200160002060008b73ffffffffffffffffffffffffffffffffffffffff1673ffffffffffffffffffffffffffffffffffffffff16815260200190815260200160002054905081811015612370576040517f08c379a0000000000000000000000000000000000000000000000000000000008152600401612367906147fb565b60405180910390fd5b8181036002600085815260200190815260200160002060008c73ffffffffffffffffffffffffffffffffffffffff1673ffffffffffffffffffffffffffffffffffffffff16815260200190815260200160002081905550816002600085815260200190815260200160002060008b73ffffffffffffffffffffffffffffffffffffffff1673ffffffffffffffffffffffffffffffffffffffff16815260200190815260200160002060008282546124279190614389565b925050819055505050508061243b906143bd565b9050612291565b508473ffffffffffffffffffffffffffffffffffffffff168673ffffffffffffffffffffffffffffffffffffffff168273ffffffffffffffffffffffffffffffffffffffff167f4a39dc06d4c0dbc64b70af90fd698a233a518aa5d07e595d983b8c0526c8f7fb87876040516124b992919061481b565b60405180910390a46124cf818787878787612dfa565b6124dd818787878787612e02565b505050505050565b6000600760009054906101000a900473ffffffffffffffffffffffffffffffffffffffff1673ffffffffffffffffffffffffffffffffffffffff163373ffffffffffffffffffffffffffffffffffffffff16149050806125de5760005b6006805490508110156125dc5760068181548110612563576125626142f7565b5b9060005260206000200160009054906101000a900473ffffffffffffffffffffffffffffffffffffffff1673ffffffffffffffffffffffffffffffffffffffff163373ffffffffffffffffffffffffffffffffffffffff16036125c957600191506125dc565b80806125d4906143bd565b915050612542565b505b8061261e576040517f08c379a000000000000000000000000000000000000000000000000000000000815260040161261590614512565b60405180910390fd5b600073ffffffffffffffffffffffffffffffffffffffff168573ffffffffffffffffffffffffffffffffffffffff160361268d576040517f08c379a0000000000000000000000000000000000000000000000000000000008152600401612684906148c4565b60405180910390fd5b600061269761216a565b905060006126a486612fd9565b905060006126b186612fd9565b90506126c28360008a85858a612df2565b856002600089815260200190815260200160002060008a73ffffffffffffffffffffffffffffffffffffffff1673ffffffffffffffffffffffffffffffffffffffff16815260200190815260200160002060008282546127229190614389565b925050819055508773ffffffffffffffffffffffffffffffffffffffff16600073ffffffffffffffffffffffffffffffffffffffff168473ffffffffffffffffffffffffffffffffffffffff167fc3d58168c5ae7397731d063d5bbf3d657854427343f4c083240f7aacaa2d0f628a8a6040516127a09291906145d0565b60405180910390a46127b78360008a85858a612dfa565b6127c68360008a8a8a8a613053565b5050505050505050565b60006127db8761322a565b90508173ffffffffffffffffffffffffffffffffffffffff16635fe8c13b604051806040016040528086600060088110612818576128176142f7565b5b6020020135815260200186600160088110612836576128356142f7565b5b60200201358152506040518060400160405280604051806040016040528089600260088110612868576128676142f7565b5b6020020135815260200189600360088110612886576128856142f7565b5b602002013581525081526020016040518060400160405280896004600881106128b2576128b16142f7565b5b60200201358152602001896005600881106128d0576128cf6142f7565b5b60200201358152508152506040518060400160405280886006600881106128fa576128f96142f7565b5b6020020135815260200188600760088110612918576129176142f7565b5b602002013581525060405180608001604052808c81526020018b81526020018781526020018a8152506040518563ffffffff1660e01b81526004016129609493929190614aea565b60006040518083038186803b15801561297857600080fd5b505afa15801561298c573d6000803e3d6000fd5b5050505050505050505050565b8173ffffffffffffffffffffffffffffffffffffffff168373ffffffffffffffffffffffffffffffffffffffff1603612a07576040517f08c379a00000000000000000000000000000000000000000000000000000000081526004016129fe90614ba3565b60405180910390fd5b80600360008573ffffffffffffffffffffffffffffffffffffffff1673ffffffffffffffffffffffffffffffffffffffff16815260200190815260200160002060008473ffffffffffffffffffffffffffffffffffffffff1673ffffffffffffffffffffffffffffffffffffffff16815260200190815260200160002060006101000a81548160ff0219169083151502179055508173ffffffffffffffffffffffffffffffffffffffff168373ffffffffffffffffffffffffffffffffffffffff167f17307eab39ab6107e8899845ad3d59bd9653f200f220920489ca2b5937696c3183604051612af89190613486565b60405180910390a3505050565b600560009054906101000a900460ff16612b54576040517f08c379a0000000000000000000000000000000000000000000000000000000008152600401612b4b90614645565b60405180910390fd5b600073ffffffffffffffffffffffffffffffffffffffff168473ffffffffffffffffffffffffffffffffffffffff1603612bc3576040517f08c379a0000000000000000000000000000000000000000000000000000000008152600401612bba90614769565b60405180910390fd5b6000612bcd61216a565b90506000612bda85612fd9565b90506000612be785612fd9565b9050612bf7838989858589612df2565b60006002600088815260200190815260200160002060008a73ffffffffffffffffffffffffffffffffffffffff1673ffffffffffffffffffffffffffffffffffffffff16815260200190815260200160002054905085811015612c8f576040517f08c379a0000000000000000000000000000000000000000000000000000000008152600401612c86906147fb565b60405180910390fd5b8581036002600089815260200190815260200160002060008b73ffffffffffffffffffffffffffffffffffffffff1673ffffffffffffffffffffffffffffffffffffffff16815260200190815260200160002081905550856002600089815260200190815260200160002060008a73ffffffffffffffffffffffffffffffffffffffff1673ffffffffffffffffffffffffffffffffffffffff1681526020019081526020016000206000828254612d469190614389565b925050819055508773ffffffffffffffffffffffffffffffffffffffff168973ffffffffffffffffffffffffffffffffffffffff168573ffffffffffffffffffffffffffffffffffffffff167fc3d58168c5ae7397731d063d5bbf3d657854427343f4c083240f7aacaa2d0f628a8a604051612dc39291906145d0565b60405180910390a4612dd9848a8a86868a612dfa565b612de7848a8a8a8a8a613053565b505050505050505050565b505050505050565b505050505050565b612e218473ffffffffffffffffffffffffffffffffffffffff16613261565b15612fd1578373ffffffffffffffffffffffffffffffffffffffff1663bc197c8187878686866040518663ffffffff1660e01b8152600401612e67959493929190614c18565b6020604051808303816000875af1925050508015612ea357506040513d601f19601f82011682018060405250810190612ea09190614c95565b60015b612f4857612eaf614ccf565b806308c379a003612f0b5750612ec3614cf1565b80612ece5750612f0d565b806040517f08c379a0000000000000000000000000000000000000000000000000000000008152600401612f02919061355e565b60405180910390fd5b505b6040517f08c379a0000000000000000000000000000000000000000000000000000000008152600401612f3f90614df3565b60405180910390fd5b63bc197c8160e01b7bffffffffffffffffffffffffffffffffffffffffffffffffffffffff1916817bffffffffffffffffffffffffffffffffffffffffffffffffffffffff191614612fcf576040517f08c379a0000000000000000000000000000000000000000000000000000000008152600401612fc690614e85565b60405180910390fd5b505b505050505050565b60606000600167ffffffffffffffff811115612ff857612ff761362d565b5b6040519080825280602002602001820160405280156130265781602001602082028036833780820191505090505b509050828160008151811061303e5761303d6142f7565b5b60200260200101818152505080915050919050565b6130728473ffffffffffffffffffffffffffffffffffffffff16613261565b15613222578373ffffffffffffffffffffffffffffffffffffffff1663f23a6e6187878686866040518663ffffffff1660e01b81526004016130b8959493929190614ea5565b6020604051808303816000875af19250505080156130f457506040513d601f19601f820116820180604052508101906130f19190614c95565b60015b61319957613100614ccf565b806308c379a00361315c5750613114614cf1565b8061311f575061315e565b806040517f08c379a0000000000000000000000000000000000000000000000000000000008152600401613153919061355e565b60405180910390fd5b505b6040517f08c379a000000000000000000000000000000000000000000000000000000000815260040161319090614df3565b60405180910390fd5b63f23a6e6160e01b7bffffffffffffffffffffffffffffffffffffffffffffffffffffffff1916817bffffffffffffffffffffffffffffffffffffffffffffffffffffffff191614613220576040517f08c379a000000000000000000000000000000000000000000000000000000000815260040161321790614e85565b60405180910390fd5b505b505050505050565b600060088260405160200161323f9190614f20565b6040516020818303038152906040528051906020012060001c901c9050919050565b6000808273ffffffffffffffffffffffffffffffffffffffff163b119050919050565b6040518060800160405280600073ffffffffffffffffffffffffffffffffffffffff168152602001600060018111156132c0576132bf614532565b5b815260200160008152602001600081525090565b6000604051905090565b600080fd5b600080fd5b600073ffffffffffffffffffffffffffffffffffffffff82169050919050565b6000613313826132e8565b9050919050565b61332381613308565b811461332e57600080fd5b50565b6000813590506133408161331a565b92915050565b6000819050919050565b61335981613346565b811461336457600080fd5b50565b60008135905061337681613350565b92915050565b60008060408385031215613393576133926132de565b5b60006133a185828601613331565b92505060206133b285828601613367565b9150509250929050565b6133c581613346565b82525050565b60006020820190506133e060008301846133bc565b92915050565b60007fffffffff0000000000000000000000000000000000000000000000000000000082169050919050565b61341b816133e6565b811461342657600080fd5b50565b60008135905061343881613412565b92915050565b600060208284031215613454576134536132de565b5b600061346284828501613429565b91505092915050565b60008115159050919050565b6134808161346b565b82525050565b600060208201905061349b6000830184613477565b92915050565b6000602082840312156134b7576134b66132de565b5b60006134c584828501613367565b91505092915050565b600081519050919050565b600082825260208201905092915050565b60005b838110156135085780820151818401526020810190506134ed565b60008484015250505050565b6000601f19601f8301169050919050565b6000613530826134ce565b61353a81856134d9565b935061354a8185602086016134ea565b61355381613514565b840191505092915050565b600060208201905081810360008301526135788184613525565b905092915050565b600060208284031215613596576135956132de565b5b60006135a484828501613331565b91505092915050565b600080600080600060a086880312156135c9576135c86132de565b5b60006135d788828901613367565b95505060206135e888828901613367565b94505060406135f988828901613367565b935050606061360a88828901613367565b925050608061361b88828901613331565b9150509295509295909350565b600080fd5b7f4e487b7100000000000000000000000000000000000000000000000000000000600052604160045260246000fd5b61366582613514565b810181811067ffffffffffffffff821117156136845761368361362d565b5b80604052505050565b60006136976132d4565b90506136a3828261365c565b919050565b600067ffffffffffffffff8211156136c3576136c261362d565b5b602082029050602081019050919050565b600080fd5b60006136ec6136e7846136a8565b61368d565b9050808382526020820190506020840283018581111561370f5761370e6136d4565b5b835b8181101561373857806137248882613367565b845260208401935050602081019050613711565b5050509392505050565b600082601f83011261375757613756613628565b5b81356137678482602086016136d9565b91505092915050565b600080fd5b600067ffffffffffffffff8211156137905761378f61362d565b5b61379982613514565b9050602081019050919050565b82818337600083830152505050565b60006137c86137c384613775565b61368d565b9050828152602081018484840111156137e4576137e3613770565b5b6137ef8482856137a6565b509392505050565b600082601f83011261380c5761380b613628565b5b813561381c8482602086016137b5565b91505092915050565b600080600080600060a08688031215613841576138406132de565b5b600061384f88828901613331565b955050602061386088828901613331565b945050604086013567ffffffffffffffff811115613881576138806132e3565b5b61388d88828901613742565b935050606086013567ffffffffffffffff8111156138ae576138ad6132e3565b5b6138ba88828901613742565b925050608086013567ffffffffffffffff8111156138db576138da6132e3565b5b6138e7888289016137f7565b9150509295509295909350565b600081519050919050565b600082825260208201905092915050565b6000819050602082019050919050565b61392981613308565b82525050565b600061393b8383613920565b60208301905092915050565b6000602082019050919050565b600061395f826138f4565b61396981856138ff565b935061397483613910565b8060005b838110156139a557815161398c888261392f565b975061399783613947565b925050600181019050613978565b5085935050505092915050565b600060208201905081810360008301526139cc8184613954565b905092915050565b600067ffffffffffffffff8211156139ef576139ee61362d565b5b602082029050602081019050919050565b6000613a13613a0e846139d4565b61368d565b90508083825260208201905060208402830185811115613a3657613a356136d4565b5b835b81811015613a5f5780613a4b8882613331565b845260208401935050602081019050613a38565b5050509392505050565b600082601f830112613a7e57613a7d613628565b5b8135613a8e848260208601613a00565b91505092915050565b600060208284031215613aad57613aac6132de565b5b600082013567ffffffffffffffff811115613acb57613aca6132e3565b5b613ad784828501613a69565b91505092915050565b60008060408385031215613af757613af66132de565b5b600083013567ffffffffffffffff811115613b1557613b146132e3565b5b613b2185828601613a69565b925050602083013567ffffffffffffffff811115613b4257613b416132e3565b5b613b4e85828601613742565b9150509250929050565b600081519050919050565b600082825260208201905092915050565b6000819050602082019050919050565b613b8d81613346565b82525050565b6000613b9f8383613b84565b60208301905092915050565b6000602082019050919050565b6000613bc382613b58565b613bcd8185613b63565b9350613bd883613b74565b8060005b83811015613c09578151613bf08882613b93565b9750613bfb83613bab565b925050600181019050613bdc565b5085935050505092915050565b60006020820190508181036000830152613c308184613bb8565b905092915050565b60008060008060808587031215613c5257613c516132de565b5b600085013567ffffffffffffffff811115613c7057613c6f6132e3565b5b613c7c87828801613a69565b9450506020613c8d87828801613367565b9350506040613c9e87828801613367565b925050606085013567ffffffffffffffff811115613cbf57613cbe6132e3565b5b613ccb878288016137f7565b91505092959194509250565b6000819050919050565b613cea81613cd7565b8114613cf557600080fd5b50565b600081359050613d0781613ce1565b92915050565b600081905082602060080282011115613d2957613d286136d4565b5b92915050565b6000806000806101608587031215613d4a57613d496132de565b5b6000613d5887828801613cf8565b9450506020613d6987828801613367565b9350506040613d7a87828801613367565b9250506060613d8b87828801613d0d565b91505092959194509250565b60008060008060808587031215613db157613db06132de565b5b6000613dbf87828801613367565b9450506020613dd087828801613331565b9350506040613de187828801613367565b9250506060613df287828801613367565b91505092959194509250565b613e0781613308565b82525050565b6000602082019050613e226000830184613dfe565b92915050565b6000806000806000806101a08789031215613e4657613e456132de565b5b6000613e5489828a01613367565b9650506020613e6589828a01613367565b9550506040613e7689828a01613cf8565b9450506060613e8789828a01613367565b9350506080613e9889828a01613367565b92505060a0613ea989828a01613d0d565b9150509295509295509295565b6000604082019050613ecb6000830185613dfe565b613ed860208301846133bc565b9392505050565b613ee88161346b565b8114613ef357600080fd5b50565b600081359050613f0581613edf565b92915050565b60008060408385031215613f2257613f216132de565b5b6000613f3085828601613331565b9250506020613f4185828601613ef6565b9150509250929050565b600060208284031215613f6157613f606132de565b5b6000613f6f84828501613ef6565b91505092915050565b6000819050919050565b6000613f9d613f98613f93846132e8565b613f78565b6132e8565b9050919050565b6000613faf82613f82565b9050919050565b6000613fc182613fa4565b9050919050565b613fd181613fb6565b82525050565b6000602082019050613fec6000830184613fc8565b92915050565b600060608201905061400760008301866133bc565b61401460208301856133bc565b81810360408301526140268184613525565b9050949350505050565b60008060408385031215614047576140466132de565b5b600061405585828601613331565b925050602061406685828601613331565b9150509250929050565b600080600080600060a0868803121561408c5761408b6132de565b5b600061409a88828901613331565b95505060206140ab88828901613331565b94505060406140bc88828901613367565b93505060606140cd88828901613367565b925050608086013567ffffffffffffffff8111156140ee576140ed6132e3565b5b6140fa888289016137f7565b9150509295509295909350565b7f455243313135353a2061646472657373207a65726f206973206e6f742061207660008201527f616c6964206f776e657200000000000000000000000000000000000000000000602082015250565b6000614163602a836134d9565b915061416e82614107565b604082019050919050565b6000602082019050818103600083015261419281614156565b9050919050565b7f4e487b7100000000000000000000000000000000000000000000000000000000600052602260045260246000fd5b600060028204905060018216806141e057607f821691505b6020821081036141f3576141f2614199565b5b50919050565b7f4e6f742073757065722061646d696e0000000000000000000000000000000000600082015250565b600061422f600f836134d9565b915061423a826141f9565b602082019050919050565b6000602082019050818103600083015261425e81614222565b9050919050565b7f455243313135353a2063616c6c6572206973206e6f7420746f6b656e206f776e60008201527f6572206e6f7220617070726f7665640000000000000000000000000000000000602082015250565b60006142c1602f836134d9565b91506142cc82614265565b604082019050919050565b600060208201905081810360008301526142f0816142b4565b9050919050565b7f4e487b7100000000000000000000000000000000000000000000000000000000600052603260045260246000fd5b7f4e487b7100000000000000000000000000000000000000000000000000000000600052601160045260246000fd5b600061436082613346565b915061436b83613346565b925082820390508181111561438357614382614326565b5b92915050565b600061439482613346565b915061439f83613346565b92508282019050808211156143b7576143b6614326565b5b92915050565b60006143c882613346565b91507fffffffffffffffffffffffffffffffffffffffffffffffffffffffffffffffff82036143fa576143f9614326565b5b600182019050919050565b7f4e487b7100000000000000000000000000000000000000000000000000000000600052603160045260246000fd5b7f455243313135353a206163636f756e747320616e6420696473206c656e67746860008201527f206d69736d617463680000000000000000000000000000000000000000000000602082015250565b60006144906029836134d9565b915061449b82614434565b604082019050919050565b600060208201905081810360008301526144bf81614483565b9050919050565b7f4e6f742061646d696e0000000000000000000000000000000000000000000000600082015250565b60006144fc6009836134d9565b9150614507826144c6565b602082019050919050565b6000602082019050818103600083015261452b816144ef565b9050919050565b7f4e487b7100000000000000000000000000000000000000000000000000000000600052602160045260246000fd5b61456a81613cd7565b82525050565b60006020820190506145856000830184614561565b92915050565b60006080820190506145a060008301876133bc565b6145ad60208301866133bc565b6145ba60408301856133bc565b6145c76060830184614561565b95945050505050565b60006040820190506145e560008301856133bc565b6145f260208301846133bc565b9392505050565b7f547261736e666572732064697361626c65640000000000000000000000000000600082015250565b600061462f6012836134d9565b915061463a826145f9565b602082019050919050565b6000602082019050818103600083015261465e81614622565b9050919050565b7f455243313135353a2069647320616e6420616d6f756e7473206c656e6774682060008201527f6d69736d61746368000000000000000000000000000000000000000000000000602082015250565b60006146c16028836134d9565b91506146cc82614665565b604082019050919050565b600060208201905081810360008301526146f0816146b4565b9050919050565b7f455243313135353a207472616e7366657220746f20746865207a65726f20616460008201527f6472657373000000000000000000000000000000000000000000000000000000602082015250565b60006147536025836134d9565b915061475e826146f7565b604082019050919050565b6000602082019050818103600083015261478281614746565b9050919050565b7f455243313135353a20696e73756666696369656e742062616c616e636520666f60008201527f72207472616e7366657200000000000000000000000000000000000000000000602082015250565b60006147e5602a836134d9565b91506147f082614789565b604082019050919050565b60006020820190508181036000830152614814816147d8565b9050919050565b600060408201905081810360008301526148358185613bb8565b905081810360208301526148498184613bb8565b90509392505050565b7f455243313135353a206d696e7420746f20746865207a65726f2061646472657360008201527f7300000000000000000000000000000000000000000000000000000000000000602082015250565b60006148ae6021836134d9565b91506148b982614852565b604082019050919050565b600060208201905081810360008301526148dd816148a1565b9050919050565b600060029050919050565b600081905092915050565b6000819050919050565b6000602082019050919050565b61491a816148e4565b61492481846148ef565b925061492f826148fa565b8060005b838110156149605781516149478782613b93565b965061495283614904565b925050600181019050614933565b505050505050565b600060029050919050565b600081905092915050565b6000819050919050565b600081905092915050565b61499c816148e4565b6149a68184614988565b92506149b1826148fa565b8060005b838110156149e25781516149c98782613b93565b96506149d483614904565b9250506001810190506149b5565b505050505050565b60006149f68383614993565b60408301905092915050565b6000602082019050919050565b614a1881614968565b614a228184614973565b9250614a2d8261497e565b8060005b83811015614a5e578151614a4587826149ea565b9650614a5083614a02565b925050600181019050614a31565b505050505050565b600060049050919050565b600081905092915050565b6000819050919050565b6000602082019050919050565b614a9c81614a66565b614aa68184614a71565b9250614ab182614a7c565b8060005b83811015614ae2578151614ac98782613b93565b9650614ad483614a86565b925050600181019050614ab5565b505050505050565b600061018082019050614b006000830187614911565b614b0d6040830186614a0f565b614b1a60c0830185614911565b614b28610100830184614a93565b95945050505050565b7f455243313135353a2073657474696e6720617070726f76616c2073746174757360008201527f20666f722073656c660000000000000000000000000000000000000000000000602082015250565b6000614b8d6029836134d9565b9150614b9882614b31565b604082019050919050565b60006020820190508181036000830152614bbc81614b80565b9050919050565b600081519050919050565b600082825260208201905092915050565b6000614bea82614bc3565b614bf48185614bce565b9350614c048185602086016134ea565b614c0d81613514565b840191505092915050565b600060a082019050614c2d6000830188613dfe565b614c3a6020830187613dfe565b8181036040830152614c4c8186613bb8565b90508181036060830152614c608185613bb8565b90508181036080830152614c748184614bdf565b90509695505050505050565b600081519050614c8f81613412565b92915050565b600060208284031215614cab57614caa6132de565b5b6000614cb984828501614c80565b91505092915050565b60008160e01c9050919050565b600060033d1115614cee5760046000803e614ceb600051614cc2565b90505b90565b600060443d10614d7e57614d036132d4565b60043d036004823e80513d602482011167ffffffffffffffff82111715614d2b575050614d7e565b808201805167ffffffffffffffff811115614d495750505050614d7e565b80602083010160043d038501811115614d66575050505050614d7e565b614d758260200185018661365c565b82955050505050505b90565b7f455243313135353a207472616e7366657220746f206e6f6e204552433131353560008201527f526563656976657220696d706c656d656e746572000000000000000000000000602082015250565b6000614ddd6034836134d9565b9150614de882614d81565b604082019050919050565b60006020820190508181036000830152614e0c81614dd0565b9050919050565b7f455243313135353a204552433131353552656365697665722072656a6563746560008201527f6420746f6b656e73000000000000000000000000000000000000000000000000602082015250565b6000614e6f6028836134d9565b9150614e7a82614e13565b604082019050919050565b60006020820190508181036000830152614e9e81614e62565b9050919050565b600060a082019050614eba6000830188613dfe565b614ec76020830187613dfe565b614ed460408301866133bc565b614ee160608301856133bc565b8181036080830152614ef38184614bdf565b90509695505050505050565b6000819050919050565b614f1a614f1582613cd7565b614eff565b82525050565b6000614f2c8284614f09565b6020820191508190509291505056fea2646970667358221220b136f90a3f8f78344767ec4e00afab84353b923ec50f5a5d091a225b27f2e11d64736f6c63430008130033",
  "linkReferences": {},
  "deployedLinkReferences": {}
}