{
  "_format": "hh-sol-artifact-1",
  "contractName": "PrivPoll",
  "sourceName": "contracts/voting/main/PrivPoll.sol",
  "abi": [
    {
      "inputs": [
        {
          "components": [
            {
              "internalType": "address",
              "name": "contractAddress",
              "type": "address"
            },
            {
              "internalType": "uint256",
              "name": "merkleTreeDepth",
              "type": "uint256"
            }
          ],
          "internalType": "struct IPrivPoll.Verifier[]",
          "name": "_verifiers",
          "type": "tuple[]"
        }
      ],
      "stateMutability": "nonpayable",
      "type": "constructor"
    },
    {
      "inputs": [],
      "name": "Semaphore__CallerIsNotThePollCoordinator",
      "type": "error"
    },
    {
      "inputs": [],
      "name": "Semaphore__GroupAlreadyExists",
      "type": "error"
    },
    {
      "inputs": [],
      "name": "Semaphore__GroupDoesNotExist",
      "type": "error"
    },
    {
      "inputs": [],
      "name": "Semaphore__GroupIdIsNotLessThanSnarkScalarField",
      "type": "error"
    },
    {
      "inputs": [],
      "name": "Semaphore__MerkleTreeDepthIsNotSupported",
      "type": "error"
    },
    {
      "inputs": [],
      "name": "Semaphore__PollHasAlreadyBeenStarted",
      "type": "error"
    },
    {
      "inputs": [],
      "name": "Semaphore__PollIsNotOngoing",
      "type": "error"
    },
    {
      "inputs": [],
      "name": "Semaphore__YouAreUsingTheSameNillifierTwice",
      "type": "error"
    },
    {
      "anonymous": false,
      "inputs": [
        {
          "indexed": true,
          "internalType": "uint256",
          "name": "groupId",
          "type": "uint256"
        },
        {
          "indexed": false,
          "internalType": "uint256",
          "name": "merkleTreeDepth",
          "type": "uint256"
        },
        {
          "indexed": false,
          "internalType": "uint256",
          "name": "zeroValue",
          "type": "uint256"
        }
      ],
      "name": "GroupCreated",
      "type": "event"
    },
    {
      "anonymous": false,
      "inputs": [
        {
          "indexed": true,
          "internalType": "uint256",
          "name": "groupId",
          "type": "uint256"
        },
        {
          "indexed": false,
          "internalType": "uint256",
          "name": "index",
          "type": "uint256"
        },
        {
          "indexed": false,
          "internalType": "uint256",
          "name": "identityCommitment",
          "type": "uint256"
        },
        {
          "indexed": false,
          "internalType": "uint256",
          "name": "merkleTreeRoot",
          "type": "uint256"
        }
      ],
      "name": "MemberAdded",
      "type": "event"
    },
    {
      "anonymous": false,
      "inputs": [
        {
          "indexed": true,
          "internalType": "uint256",
          "name": "groupId",
          "type": "uint256"
        },
        {
          "indexed": false,
          "internalType": "uint256",
          "name": "index",
          "type": "uint256"
        },
        {
          "indexed": false,
          "internalType": "uint256",
          "name": "identityCommitment",
          "type": "uint256"
        },
        {
          "indexed": false,
          "internalType": "uint256",
          "name": "merkleTreeRoot",
          "type": "uint256"
        }
      ],
      "name": "MemberRemoved",
      "type": "event"
    },
    {
      "anonymous": false,
      "inputs": [
        {
          "indexed": true,
          "internalType": "uint256",
          "name": "groupId",
          "type": "uint256"
        },
        {
          "indexed": false,
          "internalType": "uint256",
          "name": "index",
          "type": "uint256"
        },
        {
          "indexed": false,
          "internalType": "uint256",
          "name": "identityCommitment",
          "type": "uint256"
        },
        {
          "indexed": false,
          "internalType": "uint256",
          "name": "newIdentityCommitment",
          "type": "uint256"
        },
        {
          "indexed": false,
          "internalType": "uint256",
          "name": "merkleTreeRoot",
          "type": "uint256"
        }
      ],
      "name": "MemberUpdated",
      "type": "event"
    },
    {
      "anonymous": false,
      "inputs": [
        {
          "indexed": false,
          "internalType": "uint256",
          "name": "nullifierHash",
          "type": "uint256"
        }
      ],
      "name": "NullifierHashAdded",
      "type": "event"
    },
    {
      "anonymous": false,
      "inputs": [
        {
          "indexed": false,
          "internalType": "uint256",
          "name": "pollId",
          "type": "uint256"
        },
        {
          "indexed": true,
          "internalType": "address",
          "name": "coordinator",
          "type": "address"
        }
      ],
      "name": "PollCreated",
      "type": "event"
    },
    {
      "anonymous": false,
      "inputs": [
        {
          "indexed": false,
          "internalType": "uint256",
          "name": "pollId",
          "type": "uint256"
        },
        {
          "indexed": true,
          "internalType": "address",
          "name": "coordinator",
          "type": "address"
        }
      ],
      "name": "PollEnded",
      "type": "event"
    },
    {
      "anonymous": false,
      "inputs": [
        {
          "indexed": true,
          "internalType": "uint256",
          "name": "pollId",
          "type": "uint256"
        },
        {
          "indexed": false,
          "internalType": "bytes32",
          "name": "vote",
          "type": "bytes32"
        }
      ],
      "name": "VoteAdded",
      "type": "event"
    },
    {
      "inputs": [
        {
          "internalType": "bytes32",
          "name": "vote",
          "type": "bytes32"
        },
        {
          "internalType": "uint256",
          "name": "nullifierHash",
          "type": "uint256"
        },
        {
          "internalType": "uint256",
          "name": "pollId",
          "type": "uint256"
        },
        {
          "internalType": "uint256[8]",
          "name": "proof",
          "type": "uint256[8]"
        }
      ],
      "name": "castVote",
      "outputs": [],
      "stateMutability": "nonpayable",
      "type": "function"
    },
    {
      "inputs": [
        {
          "internalType": "uint256",
          "name": "pollId",
          "type": "uint256"
        },
        {
          "internalType": "address",
          "name": "coordinator",
          "type": "address"
        },
        {
          "internalType": "uint256",
          "name": "merkleRoot",
          "type": "uint256"
        },
        {
          "internalType": "uint256",
          "name": "merkleTreeDepth",
          "type": "uint256"
        }
      ],
      "name": "createPoll",
      "outputs": [],
      "stateMutability": "nonpayable",
      "type": "function"
    },
    {
      "inputs": [
        {
          "internalType": "uint256",
          "name": "pollId",
          "type": "uint256"
        }
      ],
      "name": "endPoll",
      "outputs": [
        {
          "internalType": "bool",
          "name": "",
          "type": "bool"
        }
      ],
      "stateMutability": "nonpayable",
      "type": "function"
    },
    {
      "inputs": [
        {
          "internalType": "uint256",
          "name": "groupId",
          "type": "uint256"
        }
      ],
      "name": "getMerkleTreeDepth",
      "outputs": [
        {
          "internalType": "uint256",
          "name": "",
          "type": "uint256"
        }
      ],
      "stateMutability": "view",
      "type": "function"
    },
    {
      "inputs": [
        {
          "internalType": "uint256",
          "name": "groupId",
          "type": "uint256"
        }
      ],
      "name": "getMerkleTreeRoot",
      "outputs": [
        {
          "internalType": "uint256",
          "name": "",
          "type": "uint256"
        }
      ],
      "stateMutability": "view",
      "type": "function"
    },
    {
      "inputs": [
        {
          "internalType": "uint256",
          "name": "pollId",
          "type": "uint256"
        }
      ],
      "name": "getPollState",
      "outputs": [
        {
          "internalType": "uint256",
          "name": "",
          "type": "uint256"
        },
        {
          "internalType": "uint256",
          "name": "",
          "type": "uint256"
        },
        {
          "internalType": "string",
          "name": "",
          "type": "string"
        }
      ],
      "stateMutability": "view",
      "type": "function"
    }
  ],
  "bytecode": "0x60806040523480156200001157600080fd5b50604051620018053803806200180583398181016040528101906200003791906200037c565b60005b81518160ff161015620000ed57818160ff168151811062000060576200005f620003cd565b5b60200260200101516000015160026000848460ff1681518110620000895762000088620003cd565b5b602002602001015160200151815260200190815260200160002060006101000a81548173ffffffffffffffffffffffffffffffffffffffff021916908373ffffffffffffffffffffffffffffffffffffffff1602179055508060010190506200003a565b5050620003fc565b6000604051905090565b600080fd5b600080fd5b600080fd5b6000601f19601f8301169050919050565b7f4e487b7100000000000000000000000000000000000000000000000000000000600052604160045260246000fd5b62000159826200010e565b810181811067ffffffffffffffff821117156200017b576200017a6200011f565b5b80604052505050565b600062000190620000f5565b90506200019e82826200014e565b919050565b600067ffffffffffffffff821115620001c157620001c06200011f565b5b602082029050602081019050919050565b600080fd5b600080fd5b600073ffffffffffffffffffffffffffffffffffffffff82169050919050565b60006200020982620001dc565b9050919050565b6200021b81620001fc565b81146200022757600080fd5b50565b6000815190506200023b8162000210565b92915050565b6000819050919050565b620002568162000241565b81146200026257600080fd5b50565b60008151905062000276816200024b565b92915050565b600060408284031215620002955762000294620001d7565b5b620002a1604062000184565b90506000620002b3848285016200022a565b6000830152506020620002c98482850162000265565b60208301525092915050565b6000620002ec620002e684620001a3565b62000184565b90508083825260208201905060408402830185811115620003125762000311620001d2565b5b835b818110156200033f57806200032a88826200027c565b84526020840193505060408101905062000314565b5050509392505050565b600082601f83011262000361576200036062000109565b5b815162000373848260208601620002d5565b91505092915050565b600060208284031215620003955762000394620000ff565b5b600082015167ffffffffffffffff811115620003b657620003b562000104565b5b620003c48482850162000349565b91505092915050565b7f4e487b7100000000000000000000000000000000000000000000000000000000600052603260045260246000fd5b6113f9806200040c6000396000f3fe608060405234801561001057600080fd5b50600436106100625760003560e01c8063633f439d146100675780636389e1071461008357806370eff6ad146100b3578063afdda4ec146100cf578063dabc4d5114610101578063f43b877814610131575b600080fd5b610081600480360381019061007c9190610d77565b610161565b005b61009d60048036038101906100989190610ddf565b610421565b6040516100aa9190610e1b565b60405180910390f35b6100cd60048036038101906100c89190610e94565b61043e565b005b6100e960048036038101906100e49190610ddf565b61061b565b6040516100f893929190610f8b565b60405180910390f35b61011b60048036038101906101169190610ddf565b6107b2565b6040516101289190610e1b565b60405180910390f35b61014b60048036038101906101469190610ddf565b6107ce565b6040516101589190610fe4565b60405180910390f35b6000600360008481526020019081526020016000206040518060800160405290816000820160009054906101000a900473ffffffffffffffffffffffffffffffffffffffff1673ffffffffffffffffffffffffffffffffffffffff1673ffffffffffffffffffffffffffffffffffffffff1681526020016000820160149054906101000a900460ff1660018111156101fc576101fb610fff565b5b600181111561020e5761020d610fff565b5b81526020016001820154815260200160028201548152505090506000600181111561023c5761023b610fff565b5b8160200151600181111561025357610252610fff565b5b1461028a576040517fe1b6c09100000000000000000000000000000000000000000000000000000000815260040160405180910390fd5b6004600085815260200190815260200160002060009054906101000a900460ff16156102e2576040517f948d067400000000000000000000000000000000000000000000000000000000815260040160405180910390fd5b60006102ed84610421565b905060006102fa856107b2565b905060006002600084815260200190815260200160002060009054906101000a900473ffffffffffffffffffffffffffffffffffffffff1690506103428883898989866109bf565b60016004600089815260200190815260200160002060006101000a81548160ff0219169083151502179055506001610fff8960001c16036103b05760016003600088815260200190815260200160002060010160008282546103a4919061105d565b925050819055506103df565b60016003600088815260200190815260200160002060020160008282546103d7919061105d565b925050819055505b857f9259c591af3680137739dc2b275c388eb1639a143b49022e7062fa162f14776d8960405161040f91906110a0565b60405180910390a25050505050505050565b600060016000838152602001908152602001600020549050919050565b600073ffffffffffffffffffffffffffffffffffffffff166002600083815260200190815260200160002060009054906101000a900473ffffffffffffffffffffffffffffffffffffffff1673ffffffffffffffffffffffffffffffffffffffff16036104d7576040517fecf64f1200000000000000000000000000000000000000000000000000000000815260040160405180910390fd5b6104e48483836000610b88565b6104ec610c8f565b83816000019073ffffffffffffffffffffffffffffffffffffffff16908173ffffffffffffffffffffffffffffffffffffffff1681525050806003600087815260200190815260200160002060008201518160000160006101000a81548173ffffffffffffffffffffffffffffffffffffffff021916908373ffffffffffffffffffffffffffffffffffffffff16021790555060208201518160000160146101000a81548160ff021916908360018111156105aa576105a9610fff565b5b021790555060408201518160010155606082015181600201559050508373ffffffffffffffffffffffffffffffffffffffff167fb447d309fd3b1a27466cdb08ccc02ee5188e9c71fc58af042bafe3e0bb4512308660405161060c9190610e1b565b60405180910390a25050505050565b60008060606000600360008681526020019081526020016000206040518060800160405290816000820160009054906101000a900473ffffffffffffffffffffffffffffffffffffffff1673ffffffffffffffffffffffffffffffffffffffff1673ffffffffffffffffffffffffffffffffffffffff1681526020016000820160149054906101000a900460ff1660018111156106bb576106ba610fff565b5b60018111156106cd576106cc610fff565b5b8152602001600182015481526020016002820154815250509050600060018111156106fb576106fa610fff565b5b8160200151600181111561071257610711610fff565b5b0361076357806040015181606001516040518060400160405280600781526020017f4f6e676f696e6700000000000000000000000000000000000000000000000000815250935093509350506107ab565b806040015181606001516040518060400160405280600581526020017f456e646564000000000000000000000000000000000000000000000000000000815250935093509350505b9193909250565b6000806000838152602001908152602001600020549050919050565b6000816107d9610c50565b73ffffffffffffffffffffffffffffffffffffffff166003600083815260200190815260200160002060000160009054906101000a900473ffffffffffffffffffffffffffffffffffffffff1673ffffffffffffffffffffffffffffffffffffffff1614610873576040517fe4a34e1500000000000000000000000000000000000000000000000000000000815260040160405180910390fd5b6000600181111561088757610886610fff565b5b6003600085815260200190815260200160002060000160149054906101000a900460ff1660018111156108bd576108bc610fff565b5b146108f4576040517fe1b6c09100000000000000000000000000000000000000000000000000000000815260040160405180910390fd5b60016003600085815260200190815260200160002060000160146101000a81548160ff0219169083600181111561092e5761092d610fff565b5b021790555061093b610c50565b73ffffffffffffffffffffffffffffffffffffffff167fce994ead15e72a77a86ddf3b0184783c61c9af7e3aae02d7c0bdf3b4268fa188846040516109809190610e1b565b60405180910390a26003600084815260200190815260200160002060020154600360008581526020019081526020016000206001015411915050919050565b60006109ca87610c58565b90508173ffffffffffffffffffffffffffffffffffffffff16635fe8c13b604051806040016040528086600060088110610a0757610a066110bb565b5b6020020135815260200186600160088110610a2557610a246110bb565b5b60200201358152506040518060400160405280604051806040016040528089600260088110610a5757610a566110bb565b5b6020020135815260200189600360088110610a7557610a746110bb565b5b60200201358152508152602001604051806040016040528089600460088110610aa157610aa06110bb565b5b6020020135815260200189600560088110610abf57610abe6110bb565b5b6020020135815250815250604051806040016040528088600660088110610ae957610ae86110bb565b5b6020020135815260200188600760088110610b0757610b066110bb565b5b602002013581525060405180608001604052808c81526020018b81526020018781526020018a8152506040518563ffffffff1660e01b8152600401610b4f9493929190611317565b60006040518083038186803b158015610b6757600080fd5b505afa158015610b7b573d6000803e3d6000fd5b5050505050505050505050565b7f30644e72e131a029b85045b68181585d2833e84879b9709143e1f593f00000018410610be1576040517fa61c78ca00000000000000000000000000000000000000000000000000000000815260040160405180910390fd5b8260008086815260200190815260200160002081905550816001600086815260200190815260200160002081905550837f0d000126c26c1bbe400fd2332187f75d58b69306f9ec47b408686189d3a008338383604051610c4292919061135e565b60405180910390a250505050565b600033905090565b6000600882604051602001610c6d91906113a8565b6040516020818303038152906040528051906020012060001c901c9050919050565b6040518060800160405280600073ffffffffffffffffffffffffffffffffffffffff16815260200160006001811115610ccb57610cca610fff565b5b815260200160008152602001600081525090565b600080fd5b6000819050919050565b610cf781610ce4565b8114610d0257600080fd5b50565b600081359050610d1481610cee565b92915050565b6000819050919050565b610d2d81610d1a565b8114610d3857600080fd5b50565b600081359050610d4a81610d24565b92915050565b600080fd5b600081905082602060080282011115610d7157610d70610d50565b5b92915050565b6000806000806101608587031215610d9257610d91610cdf565b5b6000610da087828801610d05565b9450506020610db187828801610d3b565b9350506040610dc287828801610d3b565b9250506060610dd387828801610d55565b91505092959194509250565b600060208284031215610df557610df4610cdf565b5b6000610e0384828501610d3b565b91505092915050565b610e1581610d1a565b82525050565b6000602082019050610e306000830184610e0c565b92915050565b600073ffffffffffffffffffffffffffffffffffffffff82169050919050565b6000610e6182610e36565b9050919050565b610e7181610e56565b8114610e7c57600080fd5b50565b600081359050610e8e81610e68565b92915050565b60008060008060808587031215610eae57610ead610cdf565b5b6000610ebc87828801610d3b565b9450506020610ecd87828801610e7f565b9350506040610ede87828801610d3b565b9250506060610eef87828801610d3b565b91505092959194509250565b600081519050919050565b600082825260208201905092915050565b60005b83811015610f35578082015181840152602081019050610f1a565b60008484015250505050565b6000601f19601f8301169050919050565b6000610f5d82610efb565b610f678185610f06565b9350610f77818560208601610f17565b610f8081610f41565b840191505092915050565b6000606082019050610fa06000830186610e0c565b610fad6020830185610e0c565b8181036040830152610fbf8184610f52565b9050949350505050565b60008115159050919050565b610fde81610fc9565b82525050565b6000602082019050610ff96000830184610fd5565b92915050565b7f4e487b7100000000000000000000000000000000000000000000000000000000600052602160045260246000fd5b7f4e487b7100000000000000000000000000000000000000000000000000000000600052601160045260246000fd5b600061106882610d1a565b915061107383610d1a565b925082820190508082111561108b5761108a61102e565b5b92915050565b61109a81610ce4565b82525050565b60006020820190506110b56000830184611091565b92915050565b7f4e487b7100000000000000000000000000000000000000000000000000000000600052603260045260246000fd5b600060029050919050565b600081905092915050565b6000819050919050565b61111381610d1a565b82525050565b6000611125838361110a565b60208301905092915050565b6000602082019050919050565b611147816110ea565b61115181846110f5565b925061115c82611100565b8060005b8381101561118d5781516111748782611119565b965061117f83611131565b925050600181019050611160565b505050505050565b600060029050919050565b600081905092915050565b6000819050919050565b600081905092915050565b6111c9816110ea565b6111d381846111b5565b92506111de82611100565b8060005b8381101561120f5781516111f68782611119565b965061120183611131565b9250506001810190506111e2565b505050505050565b600061122383836111c0565b60408301905092915050565b6000602082019050919050565b61124581611195565b61124f81846111a0565b925061125a826111ab565b8060005b8381101561128b5781516112728782611217565b965061127d8361122f565b92505060018101905061125e565b505050505050565b600060049050919050565b600081905092915050565b6000819050919050565b6000602082019050919050565b6112c981611293565b6112d3818461129e565b92506112de826112a9565b8060005b8381101561130f5781516112f68782611119565b9650611301836112b3565b9250506001810190506112e2565b505050505050565b60006101808201905061132d600083018761113e565b61133a604083018661123c565b61134760c083018561113e565b6113556101008301846112c0565b95945050505050565b60006040820190506113736000830185610e0c565b6113806020830184610e0c565b9392505050565b6000819050919050565b6113a261139d82610ce4565b611387565b82525050565b60006113b48284611391565b6020820191508190509291505056fea26469706673582212205d15a7bc3e250e7eaa8a7ffa6d6029db8d81c537f621424c27c5baaf52fe054664736f6c63430008130033",
  "linkReferences": {},
  "deployedLinkReferences": {}
}