{
  "_format": "hh-sol-artifact-1",
  "contractName": "Semaphore",
  "sourceName": "contracts/voting/main/Semaphore.sol",
  "abi": [
    {
      "inputs": [
        {
          "components": [
            {
              "internalType": "address",
              "name": "contractAddress",
              "type": "address"
            },
            {
              "internalType": "uint256",
              "name": "merkleTreeDepth",
              "type": "uint256"
            }
          ],
          "internalType": "struct ISemaphore.Verifier[]",
          "name": "_verifiers",
          "type": "tuple[]"
        }
      ],
      "stateMutability": "nonpayable",
      "type": "constructor"
    },
    {
      "inputs": [],
      "name": "Semaphore__CallerIsNotTheGroupAdmin",
      "type": "error"
    },
    {
      "inputs": [],
      "name": "Semaphore__GroupAlreadyExists",
      "type": "error"
    },
    {
      "inputs": [],
      "name": "Semaphore__GroupDoesNotExist",
      "type": "error"
    },
    {
      "inputs": [],
      "name": "Semaphore__GroupIdIsNotLessThanSnarkScalarField",
      "type": "error"
    },
    {
      "inputs": [],
      "name": "Semaphore__MerkleTreeDepthIsNotSupported",
      "type": "error"
    },
    {
      "inputs": [],
      "name": "Semaphore__MerkleTreeRootIsExpired",
      "type": "error"
    },
    {
      "inputs": [],
      "name": "Semaphore__MerkleTreeRootIsNotPartOfTheGroup",
      "type": "error"
    },
    {
      "inputs": [],
      "name": "Semaphore__YouAreUsingTheSameNillifierTwice",
      "type": "error"
    },
    {
      "anonymous": false,
      "inputs": [
        {
          "indexed": true,
          "internalType": "uint256",
          "name": "groupId",
          "type": "uint256"
        },
        {
          "indexed": true,
          "internalType": "address",
          "name": "oldAdmin",
          "type": "address"
        },
        {
          "indexed": true,
          "internalType": "address",
          "name": "newAdmin",
          "type": "address"
        }
      ],
      "name": "GroupAdminUpdated",
      "type": "event"
    },
    {
      "anonymous": false,
      "inputs": [
        {
          "indexed": true,
          "internalType": "uint256",
          "name": "groupId",
          "type": "uint256"
        },
        {
          "indexed": false,
          "internalType": "uint256",
          "name": "merkleTreeDepth",
          "type": "uint256"
        },
        {
          "indexed": false,
          "internalType": "uint256",
          "name": "zeroValue",
          "type": "uint256"
        }
      ],
      "name": "GroupCreated",
      "type": "event"
    },
    {
      "anonymous": false,
      "inputs": [
        {
          "indexed": true,
          "internalType": "uint256",
          "name": "groupId",
          "type": "uint256"
        },
        {
          "indexed": false,
          "internalType": "uint256",
          "name": "index",
          "type": "uint256"
        },
        {
          "indexed": false,
          "internalType": "uint256",
          "name": "identityCommitment",
          "type": "uint256"
        },
        {
          "indexed": false,
          "internalType": "uint256",
          "name": "merkleTreeRoot",
          "type": "uint256"
        }
      ],
      "name": "MemberAdded",
      "type": "event"
    },
    {
      "anonymous": false,
      "inputs": [
        {
          "indexed": true,
          "internalType": "uint256",
          "name": "groupId",
          "type": "uint256"
        },
        {
          "indexed": false,
          "internalType": "uint256",
          "name": "index",
          "type": "uint256"
        },
        {
          "indexed": false,
          "internalType": "uint256",
          "name": "identityCommitment",
          "type": "uint256"
        },
        {
          "indexed": false,
          "internalType": "uint256",
          "name": "merkleTreeRoot",
          "type": "uint256"
        }
      ],
      "name": "MemberRemoved",
      "type": "event"
    },
    {
      "anonymous": false,
      "inputs": [
        {
          "indexed": true,
          "internalType": "uint256",
          "name": "groupId",
          "type": "uint256"
        },
        {
          "indexed": false,
          "internalType": "uint256",
          "name": "index",
          "type": "uint256"
        },
        {
          "indexed": false,
          "internalType": "uint256",
          "name": "identityCommitment",
          "type": "uint256"
        },
        {
          "indexed": false,
          "internalType": "uint256",
          "name": "newIdentityCommitment",
          "type": "uint256"
        },
        {
          "indexed": false,
          "internalType": "uint256",
          "name": "merkleTreeRoot",
          "type": "uint256"
        }
      ],
      "name": "MemberUpdated",
      "type": "event"
    },
    {
      "anonymous": false,
      "inputs": [
        {
          "indexed": false,
          "internalType": "uint256",
          "name": "nullifierHash",
          "type": "uint256"
        }
      ],
      "name": "NullifierHashAdded",
      "type": "event"
    },
    {
      "anonymous": false,
      "inputs": [
        {
          "indexed": true,
          "internalType": "uint256",
          "name": "groupId",
          "type": "uint256"
        },
        {
          "indexed": false,
          "internalType": "uint256",
          "name": "merkleTreeRoot",
          "type": "uint256"
        },
        {
          "indexed": false,
          "internalType": "uint256",
          "name": "externalNullifier",
          "type": "uint256"
        },
        {
          "indexed": false,
          "internalType": "uint256",
          "name": "nullifierHash",
          "type": "uint256"
        },
        {
          "indexed": false,
          "internalType": "bytes32",
          "name": "signal",
          "type": "bytes32"
        }
      ],
      "name": "ProofVerified",
      "type": "event"
    },
    {
      "inputs": [
        {
          "internalType": "uint256",
          "name": "groupId",
          "type": "uint256"
        },
        {
          "internalType": "uint256",
          "name": "merkleTreeRoot",
          "type": "uint256"
        },
        {
          "internalType": "uint256",
          "name": "merkleTreeDepth",
          "type": "uint256"
        },
        {
          "internalType": "uint256",
          "name": "zeroValue",
          "type": "uint256"
        },
        {
          "internalType": "address",
          "name": "admin",
          "type": "address"
        }
      ],
      "name": "createGroup",
      "outputs": [],
      "stateMutability": "nonpayable",
      "type": "function"
    },
    {
      "inputs": [
        {
          "internalType": "uint256",
          "name": "groupId",
          "type": "uint256"
        }
      ],
      "name": "getMerkleTreeDepth",
      "outputs": [
        {
          "internalType": "uint256",
          "name": "",
          "type": "uint256"
        }
      ],
      "stateMutability": "view",
      "type": "function"
    },
    {
      "inputs": [
        {
          "internalType": "uint256",
          "name": "groupId",
          "type": "uint256"
        }
      ],
      "name": "getMerkleTreeRoot",
      "outputs": [
        {
          "internalType": "uint256",
          "name": "",
          "type": "uint256"
        }
      ],
      "stateMutability": "view",
      "type": "function"
    },
    {
      "inputs": [
        {
          "internalType": "uint256",
          "name": "",
          "type": "uint256"
        }
      ],
      "name": "groups",
      "outputs": [
        {
          "internalType": "address",
          "name": "admin",
          "type": "address"
        },
        {
          "internalType": "uint256",
          "name": "merkleRootDuration",
          "type": "uint256"
        }
      ],
      "stateMutability": "view",
      "type": "function"
    },
    {
      "inputs": [
        {
          "internalType": "uint256",
          "name": "",
          "type": "uint256"
        }
      ],
      "name": "verifiers",
      "outputs": [
        {
          "internalType": "contract IVerifier",
          "name": "",
          "type": "address"
        }
      ],
      "stateMutability": "view",
      "type": "function"
    },
    {
      "inputs": [
        {
          "internalType": "uint256",
          "name": "groupId",
          "type": "uint256"
        },
        {
          "internalType": "uint256",
          "name": "merkleTreeRoot",
          "type": "uint256"
        },
        {
          "internalType": "bytes32",
          "name": "signal",
          "type": "bytes32"
        },
        {
          "internalType": "uint256",
          "name": "nullifierHash",
          "type": "uint256"
        },
        {
          "internalType": "uint256",
          "name": "externalNullifier",
          "type": "uint256"
        },
        {
          "internalType": "uint256[8]",
          "name": "proof",
          "type": "uint256[8]"
        }
      ],
      "name": "verifyProof",
      "outputs": [],
      "stateMutability": "nonpayable",
      "type": "function"
    }
  ],
  "bytecode": "0x60806040523480156200001157600080fd5b50604051620013bd380380620013bd83398181016040528101906200003791906200037c565b60005b81518160ff161015620000ed57818160ff168151811062000060576200005f620003cd565b5b60200260200101516000015160026000848460ff1681518110620000895762000088620003cd565b5b602002602001015160200151815260200190815260200160002060006101000a81548173ffffffffffffffffffffffffffffffffffffffff021916908373ffffffffffffffffffffffffffffffffffffffff1602179055508060010190506200003a565b5050620003fc565b6000604051905090565b600080fd5b600080fd5b600080fd5b6000601f19601f8301169050919050565b7f4e487b7100000000000000000000000000000000000000000000000000000000600052604160045260246000fd5b62000159826200010e565b810181811067ffffffffffffffff821117156200017b576200017a6200011f565b5b80604052505050565b600062000190620000f5565b90506200019e82826200014e565b919050565b600067ffffffffffffffff821115620001c157620001c06200011f565b5b602082029050602081019050919050565b600080fd5b600080fd5b600073ffffffffffffffffffffffffffffffffffffffff82169050919050565b60006200020982620001dc565b9050919050565b6200021b81620001fc565b81146200022757600080fd5b50565b6000815190506200023b8162000210565b92915050565b6000819050919050565b620002568162000241565b81146200026257600080fd5b50565b60008151905062000276816200024b565b92915050565b600060408284031215620002955762000294620001d7565b5b620002a1604062000184565b90506000620002b3848285016200022a565b6000830152506020620002c98482850162000265565b60208301525092915050565b6000620002ec620002e684620001a3565b62000184565b90508083825260208201905060408402830185811115620003125762000311620001d2565b5b835b818110156200033f57806200032a88826200027c565b84526020840193505060408101905062000314565b5050509392505050565b600082601f83011262000361576200036062000109565b5b815162000373848260208601620002d5565b91505092915050565b600060208284031215620003955762000394620000ff565b5b600082015167ffffffffffffffff811115620003b657620003b562000104565b5b620003c48482850162000349565b91505092915050565b7f4e487b7100000000000000000000000000000000000000000000000000000000600052603260045260246000fd5b610fb1806200040c6000396000f3fe608060405234801561001057600080fd5b50600436106100625760003560e01c80631ed54caf146100675780636389e107146100835780638b69310a146100b357806396324bd4146100cf578063ac1eff6814610100578063dabc4d5114610130575b600080fd5b610081600480360381019061007c919061094d565b610160565b005b61009d600480360381019061009891906109c8565b6102dd565b6040516100aa9190610a04565b60405180910390f35b6100cd60048036038101906100c89190610a7c565b6102fa565b005b6100e960048036038101906100e491906109c8565b610559565b6040516100f7929190610b19565b60405180910390f35b61011a600480360381019061011591906109c8565b61059d565b6040516101279190610ba1565b60405180910390f35b61014a600480360381019061014591906109c8565b6105d0565b6040516101579190610a04565b60405180910390f35b82600073ffffffffffffffffffffffffffffffffffffffff166002600083815260200190815260200160002060009054906101000a900473ffffffffffffffffffffffffffffffffffffffff1673ffffffffffffffffffffffffffffffffffffffff16036101fa576040517fecf64f1200000000000000000000000000000000000000000000000000000000815260040160405180910390fd5b610206868686866105ec565b816003600088815260200190815260200160002060000160006101000a81548173ffffffffffffffffffffffffffffffffffffffff021916908373ffffffffffffffffffffffffffffffffffffffff1602179055506201518060036000888152602001908152602001600020600101819055508173ffffffffffffffffffffffffffffffffffffffff16600073ffffffffffffffffffffffffffffffffffffffff16877f0ba83579a0e79193ef649b9f5a8759d35af086ba62a3e207b52e4a8ae30d49e360405160405180910390a4505050505050565b600060016000838152602001908152602001600020549050919050565b6000610305876105d0565b905060008103610341576040517f029f057900000000000000000000000000000000000000000000000000000000815260040160405180910390fd5b8086146104115760006003600089815260200190815260200160002060020160008881526020019081526020016000205490506000600360008a8152602001908152602001600020600101549050600082036103c9576040517f4d32958600000000000000000000000000000000000000000000000000000000815260040160405180910390fd5b80826103d59190610beb565b42111561040e576040517f9581a99000000000000000000000000000000000000000000000000000000000815260040160405180910390fd5b50505b60036000888152602001908152602001600020600301600085815260200190815260200160002060009054906101000a900460ff161561047d576040517f948d067400000000000000000000000000000000000000000000000000000000815260040160405180910390fd5b6000610488886102dd565b905060006002600083815260200190815260200160002060009054906101000a900473ffffffffffffffffffffffffffffffffffffffff1690506104d08789888888866106b4565b6001600360008b8152602001908152602001600020600301600088815260200190815260200160002060006101000a81548160ff021916908315150217905550887f708a95ee10fd07b9e300c13f6ad7eb0bf8f6a7b3d54c727320f9e7dfdb1296fd8988888b6040516105469493929190610c2e565b60405180910390a2505050505050505050565b60036020528060005260406000206000915090508060000160009054906101000a900473ffffffffffffffffffffffffffffffffffffffff16908060010154905082565b60026020528060005260406000206000915054906101000a900473ffffffffffffffffffffffffffffffffffffffff1681565b6000806000838152602001908152602001600020549050919050565b7f30644e72e131a029b85045b68181585d2833e84879b9709143e1f593f00000018410610645576040517fa61c78ca00000000000000000000000000000000000000000000000000000000815260040160405180910390fd5b8260008086815260200190815260200160002081905550816001600086815260200190815260200160002081905550837f0d000126c26c1bbe400fd2332187f75d58b69306f9ec47b408686189d3a0083383836040516106a6929190610c73565b60405180910390a250505050565b60006106bf8761087d565b90508173ffffffffffffffffffffffffffffffffffffffff16635fe8c13b6040518060400160405280866000600881106106fc576106fb610c9c565b5b602002013581526020018660016008811061071a57610719610c9c565b5b6020020135815250604051806040016040528060405180604001604052808960026008811061074c5761074b610c9c565b5b602002013581526020018960036008811061076a57610769610c9c565b5b6020020135815250815260200160405180604001604052808960046008811061079657610795610c9c565b5b60200201358152602001896005600881106107b4576107b3610c9c565b5b60200201358152508152506040518060400160405280886006600881106107de576107dd610c9c565b5b60200201358152602001886007600881106107fc576107fb610c9c565b5b602002013581525060405180608001604052808c81526020018b81526020018781526020018a8152506040518563ffffffff1660e01b81526004016108449493929190610ef8565b60006040518083038186803b15801561085c57600080fd5b505afa158015610870573d6000803e3d6000fd5b5050505050505050505050565b60006008826040516020016108929190610f60565b6040516020818303038152906040528051906020012060001c901c9050919050565b600080fd5b6000819050919050565b6108cc816108b9565b81146108d757600080fd5b50565b6000813590506108e9816108c3565b92915050565b600073ffffffffffffffffffffffffffffffffffffffff82169050919050565b600061091a826108ef565b9050919050565b61092a8161090f565b811461093557600080fd5b50565b60008135905061094781610921565b92915050565b600080600080600060a08688031215610969576109686108b4565b5b6000610977888289016108da565b9550506020610988888289016108da565b9450506040610999888289016108da565b93505060606109aa888289016108da565b92505060806109bb88828901610938565b9150509295509295909350565b6000602082840312156109de576109dd6108b4565b5b60006109ec848285016108da565b91505092915050565b6109fe816108b9565b82525050565b6000602082019050610a1960008301846109f5565b92915050565b6000819050919050565b610a3281610a1f565b8114610a3d57600080fd5b50565b600081359050610a4f81610a29565b92915050565b600080fd5b600081905082602060080282011115610a7657610a75610a55565b5b92915050565b6000806000806000806101a08789031215610a9a57610a996108b4565b5b6000610aa889828a016108da565b9650506020610ab989828a016108da565b9550506040610aca89828a01610a40565b9450506060610adb89828a016108da565b9350506080610aec89828a016108da565b92505060a0610afd89828a01610a5a565b9150509295509295509295565b610b138161090f565b82525050565b6000604082019050610b2e6000830185610b0a565b610b3b60208301846109f5565b9392505050565b6000819050919050565b6000610b67610b62610b5d846108ef565b610b42565b6108ef565b9050919050565b6000610b7982610b4c565b9050919050565b6000610b8b82610b6e565b9050919050565b610b9b81610b80565b82525050565b6000602082019050610bb66000830184610b92565b92915050565b7f4e487b7100000000000000000000000000000000000000000000000000000000600052601160045260246000fd5b6000610bf6826108b9565b9150610c01836108b9565b9250828201905080821115610c1957610c18610bbc565b5b92915050565b610c2881610a1f565b82525050565b6000608082019050610c4360008301876109f5565b610c5060208301866109f5565b610c5d60408301856109f5565b610c6a6060830184610c1f565b95945050505050565b6000604082019050610c8860008301856109f5565b610c9560208301846109f5565b9392505050565b7f4e487b7100000000000000000000000000000000000000000000000000000000600052603260045260246000fd5b600060029050919050565b600081905092915050565b6000819050919050565b610cf4816108b9565b82525050565b6000610d068383610ceb565b60208301905092915050565b6000602082019050919050565b610d2881610ccb565b610d328184610cd6565b9250610d3d82610ce1565b8060005b83811015610d6e578151610d558782610cfa565b9650610d6083610d12565b925050600181019050610d41565b505050505050565b600060029050919050565b600081905092915050565b6000819050919050565b600081905092915050565b610daa81610ccb565b610db48184610d96565b9250610dbf82610ce1565b8060005b83811015610df0578151610dd78782610cfa565b9650610de283610d12565b925050600181019050610dc3565b505050505050565b6000610e048383610da1565b60408301905092915050565b6000602082019050919050565b610e2681610d76565b610e308184610d81565b9250610e3b82610d8c565b8060005b83811015610e6c578151610e538782610df8565b9650610e5e83610e10565b925050600181019050610e3f565b505050505050565b600060049050919050565b600081905092915050565b6000819050919050565b6000602082019050919050565b610eaa81610e74565b610eb48184610e7f565b9250610ebf82610e8a565b8060005b83811015610ef0578151610ed78782610cfa565b9650610ee283610e94565b925050600181019050610ec3565b505050505050565b600061018082019050610f0e6000830187610d1f565b610f1b6040830186610e1d565b610f2860c0830185610d1f565b610f36610100830184610ea1565b95945050505050565b6000819050919050565b610f5a610f5582610a1f565b610f3f565b82525050565b6000610f6c8284610f49565b6020820191508190509291505056fea264697066735822122003d0a6a49a6815405ab9b152a33a9746f274b4b53fbd5039ac662025fc23ef0d64736f6c63430008130033",
  "linkReferences": {},
  "deployedLinkReferences": {}
}